S01D000041726D53796E635F536F6C7574696F6E5F435055302E7372656317
S3150200000040020222116A0002756800020D6A0002AD
S315020000100D6A00020D6A00020D6A00020D6A0002F4
S315020000200000000000000000000000000D2E00028B
S315020000300D6A000200000000252E00028D2E00022D
S315020000404D610002015500025D5400029555000201
S31502000050E1550002015500025D5400029555000269
S31502000060E1550002015500025D5400029555000259
S31502000070E1550002015500025D5400029555000249
S30D02000080E1550002295D0002B0
S315020000880000000001010000E8D1000218D20002B7
S315020000984000000024000000E8D1000218D2000245
S315020000A83100000024000000E8D1000218D2000244
S315020000B82E00000026000000E8D1000218D2000235
S315020000C8120000001200000010400000104000005C
S315020000D8104000001040000001000000010000006E
S315020000E84D740002918C00024300000000000000DB
S315020000F800000000000000000000000000000000F0
S31502000108000000000000000043000000000000009C
S3150200011800000000000000000000000000000000CF
S31502000128000000000000000043000000000000007C
S3150200013800000000000000000000000000000000AF
S31502000148000000000000000043000000000000005C
S31502000158000000000000000000000000000000008F
S31502000168000000000000000043000000000000003C
S31502000178000000000000000000000000000000006F
S31502000188000000000000000043000000000000001C
S31502000198000000000000000000000000000000004F
S315020001A800000000000000004300000000000000FC
S315020001B8000000000000000000000000000000002F
S315020001C80000000000000000E1C600025BBC00025D
S315020001D800000000B0DF0002BCDC00024DDE0002B7
S315020001E84DDE00024DDE00024DDE00024DDE00024B
S315020001F84DDE00024DDE00024DDE00024DDE00023B
S31502000208FFFFFFFFFFFFFFFFFFFFFFFFFFFF0000EC
S315020002180100415343494900000000000000000064
S3150200022800000000000000000000000000000000BE
S315020002380000415343494900000000000000000045
S31502000248000000000000000000000000000000009E
S3150200025800000000D8010022000000004CD1032251
S31502000268B4D103221CD203220000000000000000C1
S31502000278000000000000000000000000000000006E
S31502000288000000000000000000000000000000005E
S31502000298000000000000000000000000000000004E
S309020002A8000000004A
S315020002B00348044B834202D0034B03B118477047ED
S315020002C0240200222402002200000000064B0749F5
S315020002D0C91A891048BF0131491003D0044B0BB12A
S315020002E001481847704700BF240200222402002258
S315020002F00000000010B5064C237843B9FFF7D8FF7B
S31502000300044B13B10448AFF300800123237010BDE0
S315020003106C0202220000000028F1C90208B5054B52
S315020003201BB105490548AFF30080BDE80840FFF759
S31502000330CDBF00BF000000007002022228F1C902F0
S315020003400160027143719DF800308371704710B5E8
S315020003500446006808B104F06BFE204610BD00009A
S31502000360F0B5ADF5057D07460C46037943BB002083
S31502000370C0F5FF720132214604AB18440AF066FA50
S3150200038000238DF80F32224B1B7853B94FF47A763D
S3150200039001251F4C3146284606F004FA2378002B25
S315020003A0F8D01B4B00221A7004A80AF0E8FA02469B
S315020003B03B6804A9186804F088FD0DF5057DF0BDBB
S315020003C0144B1968144AA2FB01329209134BA3FB80
S315020003D00203DB0A4FF47A7000FB121102911048F5
S315020003E0A0FB02514909C1EB0111A2EB8101019166
S315020003F04FF4616101FB1322A0FB02025209009233
S31502000400084A4FF4007104A80AF068F9B0E700BF81
S315020004100400002288020222D34D6210C5B3A291C3
S31502000420898888887CCE00020EB410B5C3B0044613
S3150200043045AB53F8042B01934FF4807102A80AF0DE
S31502000440CDF902A92046FFF78BFF43B0BDE8104065
S3150200045003B0704708B4F0B5ADF50C7D04460E4600
S31502000460154691AB53F8042B4B934CAF4FF4807166
S3150200047038460AF0B3F9019700962B46074A4FF41D
S31502000480907103A80AF02AF903A92046FFF768FF2C
S315020004900DF50C7DBDE8F04001B0704798CE000224
S315020004A00CB430B5ADF51F7D04460A46A2AB53F82F
S315020004B0045B5D934FF480715EA80AF08FF963794D
S315020004C0002B144B144A18BF1346A279CAB1ADB118
S315020004D02A68A9685EA80290019100920F4A4FF419
S315020004E0B07105A80AF0FAF805A92046FFF738FF09
S315020004F00DF51F7DBDE8304002B07047084A002165
S31502000500E8E75EAA0092074A4FF4B07105A80AF01E
S31502000510E5F8E9E7C4CE0002ACCE0002D0CE000276
S3150200052014D00002E0CE00020CB430B5ADF51F7D4A
S3150200053004460A46A2AB53F8045B5D934FF48071FE
S315020005405EA80AF04BF96379002B144B144A18BFC4
S315020005501346A279CAB1ADB12A68A9685EA802900B
S31502000560019100920F4A4FF4B07105A80AF0B6F84D
S3150200057005A92046FFF7F4FE0DF51F7DBDE83040C4
S3150200058002B07047084A0021E8E75EAA0092074ACD
S315020005904FF4B07105A80AF0A1F8E9E700CF00020E
S315020005A0E8CE0002D0CE000214D00002E0CE000255
S315020005B00EB410B5ADF50D7D04468FAB53F8042B82
S315020005C04B934FF480714CA80AF008F96379002B1B
S315020005D04CAB0093094A0A4B08BF1346094A4FF42B
S315020005E0907103A80AF07AF803A92046FFF7B8FE2D
S315020005F00DF50D7DBDE8104003B0704724CF000213
S315020006000CCF0002E0CE000201604260002282604E
S31502000610C260026102757047026943689A420DD24E
S3150200062002688368D154836801334268B3FBF2FCE3
S3150200063002FB1C3383600369013303610A2904BF89
S3150200064001230375704702699AB110B4C368016841
S31502000650C95C01334468B3FBF4FC04FB1C33C3607E
S31502000660013A02610AB90023037508465DF8044B94
S3150200067070474FF0FF30704700697047007D704742
S315020006802DE9F041037DCBB1064688464D1E571E25
S3150200069000243046FFF7D7FF002808DBBC4205D00E
S315020006A0013405F8010F0A28F3D100E03C46002385
S315020006B008F8043033752046BDE8F0810024FAE7D5
S315020006C0844603699A4228BF1A461046DCF80C3063
S315020006D092B130B54C1E42F001E0DCF80010C95C64
S315020006E004F8011F0133DCF80410B3FBF1F501FB3A
S315020006F015330FF00FC030BD704710B5044603F036
S3150200070033FCA06023685B682046984710BD000052
S3150200071008B50379042B00D008BD017A0148FFF71A
S315020007207BFFF9E7A404022208B50379042B00D063
S3150200073008BD017A0148FFF76FFFF9E78C02022232
S315020007402DE9F04F2DED088BA1B080464B48FFF7FF
S3150200075095FF20B921B0BDEC088BBDE8F08F802251
S3150200076069464648FFF78CFF0028F3D04FF0000A8F
S31502000770D34608EE10AA08EE90AA09EE10AA09EED0
S3150200078090AA0AEE10AA0AEE90AA0BEE10AA6846E2
S31502000790002637464FF02C0947E02F70394609F0FC
S315020007A0FBF8082E08D8DFE806F0052326292C2FA9
S315020007B032353800B0EE40BA0136E4B20D2C2FD8ED
S315020007C0082EC7DD88ED0CBAC8ED0DAA88ED0EAA73
S315020007D0C8ED0F9A88ED109AC8ED118A88ED128A33
S315020007E0C8F84CB0C8F850A0012388F85530B1E7D4
S315020007F0F0EE40AAE0E7B0EE40AADDE7F0EE409A5E
S31502000800DAE7B0EE409AD7E7F0EE408AD4E7B0EEE8
S31502000810408AD1E710EE10BACEE710EE10AACBE767
S31502000820284600F8019B092ECCD090F900400546D7
S315020008304CB12C2CB1D00A2C05D00D2C03D015F9B5
S31502000840014F002CF5D12F70394609F0A5F8082E74
S3150200085080D801A353F826F0B5070002F10700027B
S31502000860F7070002FD07000203080002090800025A
S315020008700F080002150800021B080002A404022247
S315020008802DE9F0438FB080462A4D4FF0AA090DF1AB
S3150200089019062846FFF7F0FE192847D92846FFF71A
S315020008A0D2FEAA28F5D18DF800906F463C4628461E
S315020008B0FFF7C9FE04F8010FB442F8D19DF81930CA
S315020008C00D2BE6D107AB4FF0040E4EF001E0B978DE
S315020008D07A7842EA01221A803979FA7842EA0122C2
S315020008E05A80B9797A7942EA01229A800637063322
S315020008F00FF013C801278DF8347007AC0FCCC8F877
S315020009001400C8F81810C8F81C20C8F8203003CC08
S31502000910C8F82400C8F82810FBB288F82C3088F8EA
S31502000920547003F021FBC8F85800B2E70FB0BDE8D7
S31502000930F08300BF8C02022230B593B004460D4606
S315020009400DF1040C00F1300EBEE80F00ACE80F000A
S31502000950BEE80F00ACE80F00DEF80030CCF800303D
S315020009600DF1280C6069A169E269236AACE80F00FF
S31502000970606AA16AACE8030094F82C308CF8003067
S315020009801195206900231A4601A9006802F0D2FDDA
S3150200099013B030BD38B5044603F0E6FA054694F8BE
S315020009A0543043B9A36D9BB1C31A94F855200AB1CA
S315020009B04F2B11D838BD002384F854300146204607
S315020009C0FFF7BAFF2A4607490748FFF72DFDF1E769
S315020009D094F85530002BEDD029462046FFF7ACFFA0
S315020009E0E8E700BF2CCF000268C8032238B50446E8
S315020009F008490948FFF7DCFD03252046FFF740FFBB
S31502000A002046FFF79DFE2046FFF7C4FF284603F067
S31502000A102FFCF2E740CF000268C8032208B54FF464
S31502000A20806205490548FFF7EFFD4FF4007204495D
S31502000A300448FFF7E9FD08BDBC040222A404022211
S31502000A40A40202228C02022210B504460379042B68
S31502000A5003D02379022B05D010BD017A0348FFF794
S31502000A60DBFDF6E7024B01221A70F5E73C0902228A
S31502000A70050000220EB4F0B582B007AB53F8042B82
S31502000A8001937D21134809F0A9FE00281CDB114BB6
S31502000A90FF221A5403445A709A70C71C0E4B1B78D5
S31502000AA053B94FF47A7601250B4C3146284605F0A8
S31502000AB079FE2378002BF8D0074B00221A703A46AB
S31502000AC00449064804F001FA02B0BDE8F04003B05A
S31502000AD0704700BFBC0802220500002214D0032280
S31502000AE008B5DFED087A20EE270AFDEEC07A17EE8A
S31502000AF0903A4A1C0449FFF7BDFF032003F0B8FBF6
S31502000B0008BD00BF0000C84258CF000270B50546B6
S31502000B1016464C1C22460B49FFF7ACFF032003F096
S31502000B20A7FB002E4EF2492243F6B16308BF1346D5
S31502000B30224605492846FFF79DFF032003F098FB4E
S31502000B4070BD00BF68CF00027CCF000238B50446F4
S31502000B500D46FDEEC07A17EE902A0E49FFF78AFF80
S31502000B60032003F085FB0C492046FFF783FF032091
S31502000B7003F07EFB002D43F6B1624EF2492318BF05
S31502000B801A4606492046FFF775FF032003F070FB5D
S31502000B9038BD00BF90CF0002A4CF0002BCCF000236
S31502000BA0016142618361009BC361019B03624162F1
S31502000BB07047000010B582B004460069A0B100215A
S31502000BC00091032394F8282003F01AFE94F82830A3
S31502000BD0002B064B064A18BF13460093054B064ADE
S31502000BE006490748FFF736FC02B010BDD4CF000213
S31502000BF0D0CF0002DCCF0002E0CF0002E8CF000235
S31502000C0068C80322406950B100B583B00A46002184
S31502000C100091032303F0F4FD03B05DF804FB704773
S31502000C2038B500F1140400F1240501E0AC4206D007
S31502000C3054F8040F0028F9D003F0D4FBF6E738BDC8
S31502000C4038B500F1140400F1240501E0AC4206D0E7
S31502000C5054F8040F0028F9D003F0E8F8F6E738BD97
S31502000C602DE9F04F89B00390364E0024DFF8E88074
S31502000C70DFF8E8B011E0039A92F8293053B992F8F6
S31502000C80283083F0010382F82830002B4AD0104620
S31502000C90FFF790FF0134042C51D04046FFF7ECFCDD
S31502000CA056F8045B8542F5D8002304930593069310
S31502000CB007932A4604A94046FFF702FD5BF824A0E3
S31502000CC02A46514604A809F097FD0028E2D145B10B
S31502000CD00027DFF884904846FFF7B5FC0137BD428E
S31502000CE0F9D1CDF800A0184B184A19491948FFF74F
S31502000CF0B1FB022CBFD0032CCCD1039A92F8283038
S31502000D00002BC7D192F8293083F00103154682F8E9
S31502000D1029305BB11046FFF783FF02212846FFF711
S31502000D2071FFB7E70398FFF745FFB3E70321039D7A
S31502000D302846FFF767FF2846FFF782FFAAE709B0B2
S31502000D40BDE8F08F94D40002DCCF0002F4CF00029B
S31502000D50FCCF000268C803223C090222A4D4000286
S31502000D602DE9F0432DED028B99B0044643494448E0
S31502000D70FFF71EFC0026DFF81881424F5EE0029B59
S31502000D80042B66D194F82930002B62D084F82960AE
S31502000D902046FFF755FF2046FFF70CFF43463A462B
S31502000DA039493748FFF756FB53E00DAD0DF10C0CF0
S31502000DB0BCE80F000FC5BCE80F000FC59CE8030096
S31502000DC085E803000DF134090025B9EC010A29462C
S31502000DD02046FFF785FE0135062DF6D10DF14F09A6
S31502000DE0002519F8012F82F0010229462046FFF755
S31502000DF08DFE0135062DF4D136E09DED038ABDEE5A
S31502000E00C87AF8EEC77A78EE677AF0EEE77AF2EE0B
S31502000E10046A67EEA67AFDEEE77A17EE903A17EEC7
S31502000E20102A1A491648FFF7FFFA3146B0EE480A69
S31502000E302046FFF78BFE322003F01AFA029600963E
S31502000E4002AB4FF0FF323146304603F07BFC0128FD
S31502000E5095D02046FFF704FFE36A324603A91868D5
S31502000E6002F01CFC0128A0D0236B324603A91868A5
S31502000E7002F014FC0128DED1BFE700BF04D0000255
S31502000E8068C80322F4CF000238D000023CD0000228
S31502000E9018D0000238B505460C460A460549FFF742
S31502000EA0E9FD642C00D038BD03492846FFF7E2FD70
S31502000EB0F9E700BF50D0000264D0000208B58022D4
S31502000EC002490348FFF7A0FB08BD00BF54090222EE
S31502000ED03C09022200F54040D0F8F80450B100B5B2
S31502000EE083B00A4600210091032303F089FC03B074
S31502000EF05DF804FB7047000030B587B00546002355
S31502000F008DF8143005A801F08FFC034610B30023B8
S31502000F100393049305F54043B3F8EE34164A01925F
S31502000F2002931E23ADF80C304FF48034214605A8F7
S31502000F3001F0A2FC034668B104F58054B4F5E83F1B
S31502000F40F4D1102301AA4FF4803105A801F0E0FC88
S31502000F50034610B9184607B030BD05F54043B3F84D
S31502000F60EE34C3EBC3039B0005F10D02034905A84A
S31502000F7001F0CEFC0346EDE7B050435210000100EB
S31502000F8010B586B0044600238DF81430102301AA4A
S31502000F904FF4803105A801F011FD0F4B01999942DA
S31502000FA016D1029B5A1EB2F5E16F01D3002010E062
S31502000FB004F54042A2F8F0349BB2C3EBC3039B0094
S31502000FC004F10D02054905A801F0F8FC012000E034
S31502000FD0002006B010BD00BFB05043521000010001
S31502000FE02DE9F0439DB00446C349C448FFF7E0FA31
S31502000FF000238DF86C301BA801F016FC18B1C04F07
S31502001000BE4EC04D14E1C04AC049BC48FFF748FA7B
S31502001010F5E7039B012B25D0022B40F0C18004F596
S3150200102040494FF00008D9F80435424613A918681A
S3150200103002F034FB0128F6D02046FFF7A1FF002874
S3150200104000F0A88004F54043012283F8F4242A70B4
S315020010500022A3F8F224B3F8F024AD493046FFF794
S31502001060A7FAF1E004F54043D3F8FC34002213A9B1
S31502001070186802F013FB012809D000238DF84830C6
S315020010809DF84830002B62D004F540484FE00DF140
S315020010902C0C0DF14C0EBEE80F00ACE80F009EE8DA
S315020010A007008CE8070001238DF84830E8E7C3EB18
S315020010B0C3034FEA830C0CF10D0C04EB0C090DF182
S315020010C02C0EBEE80F0044F80C00C9F80410C9F84B
S315020010D00820C9F80C30BEE80700C9F81000C9F8A4
S315020010E01410C9F81820B8F8EE340133A8F8EE3413
S315020010F022E00DF14C0C0DF1100EBEE80F00ACE82B
S315020011000F009EE807008CE8070001238DF868307F
S315020011100DF12C0C0DF14C0EBEE80F00ACE80F00E1
S315020011209EE80F008CE80F009DF848307BB1B8F8B6
S31502001130EE34B3F5E16FBAD3D8F8FC34002204A931
S31502001140186802F0ABFA0128D3D00023DEE704F5D3
S315020011504043B3F8EE3493B12046FFF7CDFE40B1DB
S3150200116004F54043B3F8EE246A493046FFF720FA05
S315020011700AE0694A69493046FFF792F904E0684A8B
S3150200118068493046FFF7D0F904F540430022A3F838
S31502001190EE2459E0644A65493046FFF7C5F953E043
S315020011A004F54043002283F8F4242A70A3F8F224BB
S315020011B004F54043D3F8FC3400220BA9186802F068
S315020011C06DFA012800F0E98000238DF868309DF859
S315020011D0683053B304F54043B3F8EE34B3F5E16F28
S315020011E080F0EB80C3EBC3034FEA830C0CF10D0CCA
S315020011F004EB0C080DF14C0EBEE80F0044F80C008F
S31502001200C8F80410C8F80820C8F80C30BEE8070071
S31502001210C8F81000C8F81410C8F8182004F540429F
S31502001220B2F8EE340133A2F8EE34212003F020F8AE
S3150200123000200390009003AB4FF0FF32014603F00B
S3150200124081FA01283FF4E5AE04F5404393F8F434FD
S31502001250002BADD004F54042B2F8F234B2F8F024D5
S315020012609A4240F28D80C3EBC3039B000D3304EB1D
S31502001270030E0DF12C0CE058DEF80410DEF80820FF
S31502001280DEF80C30ACE80F00DEF81000DEF81410C1
S31502001290DEF81820ACE8070002F066FE119004F5AD
S315020012A04043D3F8000500231A460BA9006802F052
S315020012B041F9012803D0012002F0DAFFB8E704F56C
S315020012C04042B2F8F23401339BB2A2F8F234B2F8D9
S315020012D0F02493422ED316493046FFF769F904F5F6
S315020012E04043002283F8F4242A70A3F8F22404214E
S315020012F02046FFF7EFFD9BE7B0D0000268C8032245
S31502001300C4D10002D409022238000022C8D0000249
S3150200131050D10002F0D000022800002210D10002B3
S315020013201800002230D100020800002270D100020B
S315020013309CD10002C3EBC3039B000D3304EB030EE7
S315020013400DF14C0CE058DEF80410DEF80820DEF849
S315020013500C30ACE80F00DEF81000DEF81410DEF8F0
S315020013601820ACE80700119BD01AB0F57A7F28BF87
S315020013704FF47A70012838BF012002F079FF57E74F
S3150200138004F54043002283F8F4242A70A3F8F224D9
S3150200139004212046FFF79EFD4AE70DF14C0C0DF1A4
S315020013A02C0EBEE80F00ACE80F009EE807008CE8A2
S315020013B0070001238DF8683009E74FF4E1623946E8
S315020013C03046FFF7F5F830E72DE9F0432DED0A8BAD
S315020013D0B9B0044682498348FFF7EAF8DFED828A0C
S315020013E09FED828A824F834EDFED839A9FED839A29
S315020013F0C0E0442215A926A809F0B4FA9DED155AB3
S31502001400DDED165A9DED176ADDED186A9DED197A26
S31502001410DDED1A7ADDF86CC0DDF870801D989DF856
S315020014209020259D002315931693179318931993CD
S315020014301A931B930C930D930E930A930B9325EE1B
S31502001440285A8DED0F5A65EEA85ACDED105A26EEA2
S31502001450286A8DED116A66EE886A76EE856ACDEDAA
S31502001460126A27EE087A37EE257A8DED137A67EE41
S31502001470887A77EE867ACDED147A002A40F0878054
S315020014809DED0FAA8DED15AADDED10AACDED16AADA
S315020014909DED11BA8DED17BADDED12BACDED18BA82
S315020014A09DED13CA8DED19CADDED14CACDED1ACA2A
S315020014B01B95CDF830C00D900E95606900231A4633
S315020014C015A9006802F036F8A06900231A460CA98D
S315020014D0006802F02FF8CDF828800B95E06900230A
S315020014E01A460AA9006802F025F8206A00231A465D
S315020014F00AA9006802F01EF8DDED0C7AFDEEE76A35
S315020015009DED0D7ABDEEC77A8DED097A9DED0A7ACB
S31502001510BDEEC77A8DED087AB8EEE67A77EEC77A2F
S31502001520F0EEE77AB2EE047A67EE877AFDEEE77AB4
S31502001530CDED077ACDED066AFDEEECCACDED05CA14
S31502001540BDEECCCA8DED04CAFDEEEBBACDED03BA03
S31502001550BDEECBBA8DED02BAFDEEEAAACDED01AA39
S31502001560BDEECAAA8DED00AA3B46324624491D4865
S31502001570FEF770FF236900228DF890204FF0FF32AC
S3150200158015A9186802F08AF80128F3D131E70DF19E
S31502001590BA020FAB12A98E460232B2F9069007EED4
S315020015A0909AF8EEE77AD3ED006AB2F9009007EE68
S315020015B0109AB8EEC77A27EE297A66EE896A37EE6E
S315020015C0267AA3EC017A91ED007A67EEA97A27EEE4
S315020015D0097A77EE877AE1EC017A9E45DCD14FE70C
S315020015E044D2000268C803220000AF4300008243CF
S315020015F05CD20002ACD200021F852B3FC2F5A83E88
S31502001600B4D20002F0B5A9B004463B493B48FEF706
S31502001610CFFF3B4F3B4E3C4D26E000238DF830304A
S315020016209DF83030002B37D005AA04F1100115A819
S3150200163001F0F0F90B9B2793E06C00231A4615A9DB
S31502001640006801F077FF179B03939DF858300293C9
S31502001650BDF8563001939DF8543000933B4632460E
S3150200166029462648FEF7F6FEA36C002215A918683D
S3150200167002F014F80128D0D10DF1140C0DF1540E1C
S31502001680BEE80F00ACE80F009EE807008CE80700F2
S3150200169001238DF83030C3E7636C4FF0FF3215A992
S315020016A0186801F0FBFF012816D000238DF8503090
S315020016B09DF85030002BD7D00DAA04F1100115A8C1
S315020016C001F0A8F9139B2793E06C00231A4615A98B
S315020016D0006801F02FFFC7E70DF1340C0DF1540E2F
S315020016E0BEE80F00ACE80F009EE807008CE8070092
S315020016F001238DF85030DBE7C8D2000268C8032206
S31502001700E8D20002E0CF000200D3000210B52DEDB0
S31502001710048B82B09FED328A9FED329ADFED328AD8
S3150200172010240094F0EE481AB62396220021B3EE56
S31502001730041AF0EE490AB0EE680A2C4801F0D0F914
S315020017400094F0EE481AB62396220121B3EE0E1A41
S31502001750DFED270A9FED270A274801F0C1F9009419
S31502001760F0EE481AB62396220021B2EE041AF0EEE3
S31502001770490AB0EE680A214801F0B2F90094F0EE87
S31502001780481AB62396220121B2EE041ADFED1C0A8C
S315020017909FED1C0A1C4801F0A3F90094F0EE481ACA
S315020017A0B62396220021B7EE001AF0EE490AB0EEF1
S315020017B0680A164801F094F90094F0EE481AB62326
S315020017C096220121B2EE041AF0EE490AB0EE680A38
S315020017D00F4801F085F902B0BDEC048B10BD00BFC5
S315020017E06666E63F0000B4420000B4C2780A0222EE
S315020017F00000FA420000B4C1580A0222380A022244
S31502001800000000000000F4C2180A0222F8090222AF
S31502001810D80902222DE9F04F83B08B4601921F466A
S315020018200D9D0E9E0F9CDDF840A0DDF84490DDF87C
S315020018304880DFEDAD7A70EEA70A32EE272A70EE07
S31502001840E77A20EE007A67EEA76A37EE267A61EE2D
S31502001850016A37EE267AF1EEC76A9FEDA47AF4EEB4
S31502001860C76AF1EE10FA40F329819FEDA16A86EE6E
S31502001870267A60EE076A9FED9F6A76EE866A67EEC3
S31502001880870ADFED995A70EEA50A21EE077A37EE3E
S31502001890067AC5ED006AC6ED000A84ED007A9FED70
S315020018A0957A30EE070A31EEC00ADFED8F6A77EEDF
S315020018B0A67A72EE677A31EE071A32EEC11A20EE76
S315020018C0007A67EEA76A37EE267A61EE016A37EE8C
S315020018D0267AF1EEC76A9FED857AF4EEC76AF1EED3
S315020018E010FA40F3F0809FED846A86EE267A20EEA7
S315020018F0070AD5ED006A76EE806ACAED006A67EEDF
S31502001900877AD6ED006A76EEA77AC9ED007A21EEDD
S31502001910071AD4ED002A71EE222AC8ED002AD4ED68
S31502001920000AF1EE600A95ED000A05F0F3FE8BED72
S31502001930000AD5ED007AD6ED006A94ED007A67EEDC
S31502001940A77A66EEA66A77EEA67A27EE077A77EE8A
S31502001950877AB1EEE77A27EE077ADFED687A77EED5
S31502001960C77A9FED677A87EE870AFFEE007AB4EEB2
S31502001970E70AF1EE10FA00F1AB80F7EE007AB4EE68
S31502001980670AF1EE10FA37FE800A05F097FEDFEDE0
S315020019905D7A30EE670A019B83ED000ADAED007A82
S315020019A099ED007ADFED506A37EE667AD8ED006A75
S315020019B067EEA77A27EE077A77EE877A66EEA66A49
S315020019C077EEA67AB1EEE77A27EE077ADFED4E7A60
S315020019D077EEC77A9FED4D7A87EE870AFFEE007A99
S315020019E0B4EEE70AF1EE10FA75D4F7EE007AB4EE29
S315020019F0670AF1EE10FA37FE800A05F05FFEDFEDA8
S31502001A00447A30EE670A0C9B83ED000A95ED006A74
S31502001A10DFED377A86EE277AD6ED004A94ED005A44
S31502001A20C5EE276A66EEA67ADFED325A77EEA57A1A
S31502001A3067EE075A77EEA57AF1EEE75ADFED357AC9
S31502001A40F4EEE75AF1EE10FA48DDC6EEA50AB1EE5B
S31502001A50477AC7EE256ADAED007A77EEC67A9FED07
S31502001A60267A87EE870AD9ED007A77EEE47AC7EE10
S31502001A70875A98ED006A36EE456AC6EE077A60EE38
S31502001A80800A9FED1C7A25EE876A70EE860A66EE5C
S31502001A90A76A70EEA60A20EE070A30EE250A67EE5E
S31502001AA0877A30EE270AF1EE600AB1EE400A05F0B7
S31502001AB031FE87ED000A03B0BDE8F08FF0EE406A12
S31502001AC0B0EE417AE5E6CAED001A89ED002A24E76E
S31502001AD0BFEE000A59E7BFEE000A8EE7DFED056AA0
S31502001AE0F7EE000AB7E700BF0000F2420AD7233C2E
S31502001AF0AE17844300000000DD8439435BE9A44746
S31502001B00C5BC7947DB0FC93F8189CB475673BF47AF
S31502001B10DB0F49406F12833A70B52DED028B9AB0F6
S31502001B2004462A492A48FEF743FD9FED2A8A2A4D92
S31502001B3023694FF0FF3213A9186801F0AFFD01289F
S31502001B40F6D1199E12AB069311AB059310AB049313
S31502001B500FAB03930EAB02930DAB01930CAB009349
S31502001B600BAB0AAA09A9DDED182A9DED172ADDEDB0
S31502001B70161A9DED151ADDED140A9DED130A20467F
S31502001B80FFF748FE1996DDED097A67EE887ACDED04
S31502001B90137ADDED0A7A67EE887ACDED147ADDEDF9
S31502001BA00B7A67EE887ACDED157ADDED0C7A67EE63
S31502001BB0887ACDED167A17951895606900231A462C
S31502001BC013A9006801F0B6FCB2E700BF08D3000211
S31502001BD068C80322E02E65420000C07FB5EEC00A47
S31502001BE0F1EE10FA09D4DFED0C7AB4EEE70AF1EE63
S31502001BF010FA04DD9FED080A01E09FED080A9FED49
S31502001C00067AC0EE077A9FED067A67EE877A9FED2F
S31502001C10050A37EEC00A70470000C84200000000FD
S31502001C20000034430000B4422DE9F0412DED028B51
S31502001C30A2B004468C498D48FEF7BAFC00259FEDFA
S31502001C408C8A002608EE906ACFE01A9E9DED1B8ACA
S31502001C500125D3E01AAF0DF12C0CBCE80F000FC71B
S31502001C609CE8070087E807000127E7E0D1ED007A44
S31502001C70E3EC017A04310430013A0AD0002FF5D0A0
S31502001C80D0ED007A67EEA87A91ED007A77EE877A40
S31502001C90EEE7002D40F0E08018EE903AB0EE680ACA
S31502001CA00F938DED100A00230A932369002B2ED081
S31502001CB0002000900AAB4FF0FF32014602F042FDCF
S31502001CC0277E0A9B012B0CBF01230023237621D1F9
S31502001CD0E06A00231A460BA9006801F02BFCDFB16B
S31502001CE006E0E06A00231A460BA9006801F022FC0E
S31502001CF0237E8BB9606928B100210091032301225A
S31502001D0002F07EFD5B495948FEF752FC04E0277E4D
S31502001D1000232376002FE4D1A06A00231A460BA9DA
S31502001D20006801F007FCDDED0B7AFDEEE74A9DED5A
S31502001D300C7ABDEEC74ADDED0D6AFDEEE63A9DED83
S31502001D400E6ABDEEC63ADDED0F5AFDEEE52AB8EE95
S31502001D50E25A75EEC55AF0EEE55AB2EE045A65EE4F
S31502001D60855AFDEEE55ACDED095ACDED082AF8EE73
S31502001D70C35A36EE656AB0EEC66A26EE056ABDEE4F
S31502001D80C66A8DED076A8DED063AB8EEE36A76EE1F
S31502001D90C66AF0EEE66A66EE856AFDEEE66ACDEDA5
S31502001DA0056ACDED043AF8EEC46A37EE667AB0EE0D
S31502001DB0C77A27EE057ABDEEC77A8DED037A8DEDE9
S31502001DC0024AB8EEE47A77EEC77AF0EEE77A67EE81
S31502001DD0857AFDEEE77ACDED017ACDED004A264B06
S31502001DE0264A27492148FEF735FB636A00221AA9CB
S31502001DF0186801F053FC01283FF427AFE3694FF05E
S31502001E00FF321AA9186801F049FC0128EDD10DF13B
S31502001E10480C0DF1680EBEE80F00ACE80F009EE814
S31502001E2007008CE807009046236A00220BA918686F
S31502001E3001F034FC01283FF40DAF002700230B9379
S31502001E400C930D930E930F931093CDF844800BAB26
S31502001E5012A91AA8042211E7B0EE480A2046FFF793
S31502001E60BDFE33461CE700BF1CD3000268C803222E
S31502001E700000484234D3000264D3000294D3000225
S31502001E809CD30002416170472DE9F043ABB0044692
S31502001E904848E061484B23625422002108F0BCFC0A
S31502001EA028220021206A08F0B7FC4449444803F07E
S31502001EB0BBFE4FF0000803AEDFF80491414F3DE050
S31502001EC04C252A46314616A808F04CFD2A4616A984
S31502001ED004F1500008F046FD38E001AB93E8030038
S31502001EE086E8030004F19C0383E8030036E004F16C
S31502001EF02408404604F0E4FC0828FAD04C2204F1F7
S31502001F005001E06908F02EFDE369D4F89C20DA64FA
S31502001F10E3691D65404604F0DFFCA121484603F053
S31502001F20D3FEA84621E0284604F0D6FCA069002389
S31502001F301A4604F12801006801F0FCFA23690A2214
S31502001F403146186801F0AAFB0128B9D0636900225C
S31502001F5001A9186801F0A2FB0128BED002F004F81C
S31502001F600546A0EB0803132BC1D83B78002BE5D01E
S31502001F7000233B7004F12405284604F0A1FC08283E
S31502001F80FAD0236A5A6AD4F8A4108A42CBD0C4F88B
S31502001F90A42004F1280E9C46BCE80F00AEE80F0010
S31502001FA0BCE80F00AEE80F009CE803008EE80300D1
S31502001FB0B9E700BF28401C2200401C220CD70002B1
S31502001FC048D00322980A02228368B3F5803F00D0E4
S31502001FD070474368A22BFBD1014B01221A70F7E727
S31502001FE0980A022210B50446006801F03FFC20461A
S31502001FF010BD10B50446006801F038FC204610BD3D
S3150200200010B50446006801F031FC204610BD10B53B
S315020020100446006801F02AFC204610BD10B50446AD
S31502002020006801F023FC204610BD10B50446006886
S3150200203001F01CFC204610BD10B50446006801F0F4
S3150200204015FC204610BD10B5044608460022226043
S31502002050082101F047FA04E0206801F007FC04F0C9
S31502002060C1FE2060204610BD10B504460846002277
S3150200207022601C2101F036FA04E0206801F0F6FB2A
S3150200208004F0B0FE2060204610BD000070B50022AC
S31502002090584B1A604421042001F024FA554B18606B
S315020020A0554A5649184604F023FE0022544B1A603C
S315020020B01C21042001F016FA514B18604E4C2246A0
S315020020C05049184604F014FE4F4D02212846FFF7E8
S315020020D0BAFF4E4E22463146284604F009FE4C4DC2
S315020020E002212846FFF7AFFF22463146284604F072
S315020020F0FFFD0022474B1A600C21042001F0F2F981
S3150200210005E03C4B186801F0B1FB04F06BFE414B55
S315020021101860394C22464049184604F0E9FD3F4E04
S3150200212004213046FFF7A0FF3D4D224629463046A0
S3150200213004F0DEFD3B4E04213046FFF795FF2246B2
S315020021402946304604F0D4FD374E04213046FFF7C7
S315020021508BFF22462946304604F0CAFD334E102133
S315020021603046FFF781FF22462946304604F0C0FD7D
S315020021702F4E08213046FFF777FF22462946304682
S3150200218004F0B6FD00222B4B1A604C21042001F00C
S31502002190A9F905E01A4B186801F068FB04F022FE63
S315020021A0244B1860144A2449184604F0A1FD002263
S315020021B0224B1A602821042001F094F905E0154B00
S315020021C0186801F053FB04F00DFE1C4B18600A4A16
S315020021D01B49184604F08CFD70BD164B186801F0B9
S315020021E045FB04F0FFFD154B186801F03FFB04F0B8
S315020021F0F9FD00BFC80A022200000022E51F000204
S31502002200C40A0222F31F0002C00A022201200002AF
S31502002210BC0A0222B80A02220F200002B40A0222D3
S315020022201D200002B00A0222AC0A0222A80A0222D9
S31502002230A40A0222A00A02222B2000029C0A0222DF
S315020022403920000210B50446034B0360406808B10A
S3150200225001F090FD204610BDDCD5000210B5044603
S31502002260034B0360406808B101F084FD204610BDAF
S31502002270DCD5000210B50446034B0360406808B182
S3150200228001F078FD204610BDDCD5000210B50446EB
S31502002290034B0360406808B101F06CFD204610BD97
S315020022A0DCD5000210B50446034B0360406808B152
S315020022B001F060FD204610BDDCD5000210B50446D3
S315020022C0034B0360406808B101F054FD204610BD7F
S315020022D0DCD5000210B50446034B0360406808B122
S315020022E001F048FD204610BDDCD5000210B50446BB
S315020022F0034B0360406808B101F03CFD204610BD67
S31502002300DCD5000210B50446034B0360406808B1F1
S3150200231001F030FD204610BDDCD5000270B50B4D34
S3150200232001264FF4857432462146284603F02AFDDB
S31502002330642001F09DFF00222146284603F022FD7B
S315020023404FF4617001F094FFEDE700BF50CF032216
S3150200235010B5044601F008FEA06023685B682046BB
S31502002360984710BD30B583B0044608461946002387
S315020023706360A3600D4D25602373231D01930090B6
S3150200238023460B4801F0C4FC07E00A4B2360606851
S3150200239008B101F0EFFC04F025FD012814BF00206E
S315020023A001202073204603B030BD00BFECD50002E9
S315020023B051230002DCD500022DE9F04184B0914B95
S315020023C000225A609A60904919601A731A1D019286
S315020023D0012200924FF400728C498D4801F098FC5C
S315020023E0884B012814BF002001201873894A1A60FD
S315020023F0894A8A49184604F07BFC894B00225A60B6
S315020024009A60814919601A731A1D01920322009279
S315020024104FF4806283497E4801F07AFC804D0128A0
S3150200242014BF0020012028737F4B2B607F4F2F6142
S3150200243000246C61AC61EC612C626C62AC62AC85AE
S315020024402422214605F1300008F0E6F985F85440C9
S3150200245085F85540AC65704E32467549284604F0FB
S3150200246047FC744D744B4FF4006203212846FFF774
S3150200247079FF724B2B602F61DFF83C82C5F814801E
S315020024806F4FAF616F4BEB616F4B2B6232466F49F9
S31502002490284604F02DFC6E4D6E4B4FF4006203216C
S315020024A02846FFF75FFF6C4B2B60C5F81080DFF8FC
S315020024B00C82C5F8148032466849284604F018FC96
S315020024C0674D684B4FF4806203212846FFF74AFFA7
S315020024D0654B2B602C616C612C76C5F81C80634BB6
S315020024E02B626F62624BAB62624BEB6232466249AF
S315020024F0284604F0FDFB614B5C609C60424A1A6010
S315020025001C731A1D0192032200924FF480525C49F9
S315020025103F4801F0FDFB08E03A4B5A4A1A605868F8
S3150200252008B101F027FC04F05DFC544D012814BFEC
S315020025300020012028732846534B40F80D3B4CF2ED
S31502002540E042002108F068F905F540430024A3F8AB
S31502002550EE44A3F8F044A3F8F24483F8F444C3F833
S31502002560F844444AC3F8FC24484AC3F80025404AC2
S31502002570C3F80425284A4649284604F0B9FB454BC8
S315020025805C609C60204A1A601C731A1D0192032229
S3150200259000924FF4006240491D4801F0B9FB08E081
S315020025A01F4B384A1A60586808B101F0E3FB04F081
S315020025B019FC384B012814BF002001201873184655
S315020025C0364B40F8103B364B0293364B0193364B53
S315020025D00093364B364A374900F008FA70E0274B2B
S315020025E0284A1A60586808B101F0C4FB04F0FAFBE5
S315020025F0284B244A1A60586808B101F0BBFB04F064
S31502002600F1FB00BFC8D10222ECD50002A4D300021E
S3150200261051230002FCD5000200000022052300021D
S315020026206CD10222ACD3000268D40002C80A02228C
S31502002630ED22000248D10222B8D3000204D50002DC
S31502002640B80A0222C00A0222BC0A0222D5220002CB
S3150200265030D10222C4D300025CD50002BD220002A0
S3150200266000D10222C8D3000288D50002B00A022293
S31502002670AC0A0222A80A0222A5220002F80B0222B2
S31502002680D0D30002DCD50002D8D40002A40A02226A
S315020026908D220002A80B0222D8D3000238D50002EE
S315020026A0D8090222F8090222180A0222380A02224C
S315020026B0580A0222780A0222C40A0222B40A022212
S315020026C04548464B4364464B8364464BC364464A7D
S315020026D0464904F00DFB464B00225A609A60454972
S315020026E019601A731A1D0192032200924FF4806236
S315020026F04149424801F00CFB3D4C012814BF002021
S31502002700012020733E4B2360364B23613D4B6361B0
S315020027103D4BA3610025E561256284F824504C22D5
S31502002720294604F1500008F077F8C4F89C50C4F822
S31502002730A050C4F8A4502C4A3449204604F0D8FAD2
S31502002740334B5D609D602B4A1A601D731A1D019200
S31502002750022200924FF440722E49284801F0D8FA1C
S3150200276008E01D4B2C4A1A60586808B101F002FBBA
S3150200277004F038FB264B012814BF002001201873F1
S31502002780264A1A6000221A615A619A61DA611A624D
S315020027905A6283F8282083F829201B4ADA62204AE3
S315020027A01A63114A1F49184604F0A2FA04B0BDE89A
S315020027B0F0810F4B184A1A60586808B101F0DAFA2C
S315020027C004F010FB124B144A1A60586808B101F063
S315020027D0D1FA04F007FB00BFA80B0222AC0A0222C0
S315020027E0A40A0222A00A0222000000227522000286
S315020027F0000B0222ECD50002E4D3000251230002B0
S31502002800B4D50002C00A02229C0A02225D220002FC
S31502002810CC0A022238D00002DCD500028CD4000297
S31502002820BC0A02224522000210B50446007800B115
S3150200283010BD054B5968186803F016F9B0FA80F016
S3150200284040092070F4E700BF1CD7000230B583B000
S3150200285001238DF804306FF00104064B1D6801A9AF
S31502002860284602F0B3FF9DF804300BB1013CF6D1C5
S3150200287003B030BD1CD7000270B505780DB92846E5
S3150200288070BD0446EFF31086012383F310884FF4DC
S31502002890805201F10041064B186802F0F7FF86F3F9
S315020028A0108808B10025EAE72046FFF7CFFFE6E7E2
S315020028B01CD70002002927DD00B500F1004C00F00C
S315020028C01F0E8E44BFF34F8F6346104AE6446FEAEB
S315020028D00C0CF4444FEA5C1C0CF1010E00F01F00D4
S315020028E00844203810F1200FD8BF4FF0010E4EF0E9
S315020028F001E0C2F85C3220330FF005C8BFF34F8FF8
S31502002900BFF36F8F5DF804FB704700BF00ED00E078
S315020029102DE9F04F85B0994603780293002B40D0FB
S3150200292082461646B9F1000F3BD001F1004701F08D
S315020029303F04C4F140044C4528BF4C4634F007041A
S3150200294033D03A4600254FF001081B48036801932D
S315020029500391EFF3108B88F31088234671190198BF
S3150200296002F063FF8BF3108810BB5046FFF76EFF31
S315020029702544A9450FD97A1902F03F04C4F140044F
S31502002980A9EB05039C4228BF1C4634F00704E0D19C
S315020029900023029305E0DDF80CB049465846FFF7DE
S315020029A089FF029805B0BDE8F08F00230293F8E78D
S315020029B000230293F5E700BF1CD7000270B50C4650
S315020029C016461D4619462046FFF774FF6DB106F1FD
S315020029D0FF3CA11B45F001E00CEB010303F10043B0
S315020029E05B780CF8013F0FF009C870BD01604260C8
S315020029F08360009BC360019B0361029B43610023CA
S31502002A008361C361036243628362C36280F83030CA
S31502002A10704700002DE9F8432DED048B06460F465C
S31502002A2015464C22002107F0F7FE002D4DD097F8EF
S31502002A30308088F001083C4607F11809DFED258A47
S31502002A409FED259ADFED259A02E004344C4524D009
S31502002A50B5EC018AF0EEC87AF4EE497AF1EE10FA94
S31502002A60F3D8B0EE480A206800F069F8D4ED067A89
S31502002A7038EE678AB0EEC88AB4EE698AF1EE10FAC9
S31502002A80A8BF4FF00108206800F002F9B4EE680A08
S31502002A90F1EE10FA70FE288AD7E7B8F1000F14D0CB
S31502002AA03D1F002404EB4400B0EE680A55F8041FEB
S31502002AB006EB800000F002F92B689B68AB610134DB
S31502002AC0062CEFD1012387F830303046BDEC048B5B
S31502002AD0BDE8F88300000000FFFF7F7F0AD7233C92
S31502002AE000B580ED000AC0ED010A4FF0000EC0F8F5
S31502002AF008E0DFF820E0C0F80CE080ED041A01756A
S31502002B00C2820376BDF804304383C0ED071A5DF82E
S31502002B1004FB00BF0000C07FF0EE407A90ED000A91
S31502002B20B4EEE70AF1EE10FA08DC90ED010AB4EE13
S31502002B30E70AF1EE10FA58BFB0EE670A704710B511
S31502002B400446FFF7E9FF84ED030A10BD08B5B0EEAF
S31502002B50C00A90ED077AC0EE077A438B07EE103A69
S31502002B60B8EE477A67EE877A90ED040A27EE800A76
S31502002B7004F0E0FD08BD000082B00191A9B107EEA4
S31502002B80901AB8EE677ADFED0A7A77EEC77A9FED8A
S31502002B90097A67EE877A9FED087A67EE877AB7EE4B
S31502002BA0007A87EE270A02B070479FED040AFAE719
S31502002BB00000804300004842BD3786350000000011
S31502002BC0B5EEC00AF1EE10FA53D908B52DED028B17
S31502002BD0B0EE608AF5EEC00AF1EE10FA4CD9DFEDDE
S31502002BE0287AF4EEE70AF1EE10FAC8BFB0EE678A69
S31502002BF0DFED247AC0EE278AFFF7BEFFF0EE407AB9
S31502002C00B5EEC00AF1EE10FA21D988EE006AB6EEE8
S31502002C10007A28EE077A27EE067ADFED1B5AC7EE10
S31502002C20256A76EEA66AF4EEE86AF1EE10FA15DA8D
S31502002C3078EEE68ADFED147A68EEA78A88EE880ACD
S31502002C4036EE066A30EE060ABDEC028B08BDDFEDF3
S31502002C500E7A68EEA78A88EE880AF5E768EEA58AF4
S31502002C6068EE808AB1EEE87A37EE077A87EE270AAF
S31502002C70EAE79FED060A70479FED040AE4E700BF04
S31502002C8000409C450000B443000070420000000072
S31502002C9008B5C28A00EE902AD0ED037A90ED027A48
S31502002CA077EEC77AF0EEE77A90ED040A017EF8EE47
S31502002CB0600A27EE800AFFF783FF08BD2DE9F84375
S31502002CC02DED048B07460023036043608360D1ED3C
S31502002CD0038AF4EE688AF1EE10FA13D60D46F0EE88
S31502002CE0409A91ED028A38EEC88AB0EEC88AD1EDD2
S31502002CF0047A28EE278ADFED437AB4EEE78AF1EE0C
S31502002D0010FA04D53846BDEC048BBDE8F883B1F859
S31502002D10168091F81890494607EE908AF8EE670AEF
S31502002D20B0EE480A2846FFF74BFFB0EE409AB4EEE3
S31502002D30690AF1EE10FA48BFB0EE699A41F2883399
S31502002D40984528BF9846012618E0A8EB060404EB2E
S31502002D50D47406EB6404A4B2494607EE904AF8EE30
S31502002D60670AB0EE480A2846FFF72AFFB4EEC09A71
S31502002D70F1EE10FA46BF0134A6B2A046B045E4D839
S31502002D80494607EE906AF8EE670AB0EE480A284608
S31502002D90FFF716FFF0EE409A731E494600EE903A90
S31502002DA0F8EEE00AB0EE480A2846FFF709FF30EED1
S31502002DB0490AB0EEC00A79EEC99AF0EEE99AB4EE83
S31502002DC0E90AF1EE10FA44BF06F1FF36B6B22B7DE0
S31502002DD0F1EE687A002B48FEA77AF5EEC07AF1EE9C
S31502002DE010FAB4BF012300233B707E8087F804905B
S31502002DF0B0EE680A2846FFF7A9FEB860C5ED028A5A
S31502002E0080E700BF17B7D13800BEFEE71EF0040FF9
S31502002E100CBFEFF30880EFF3098001490847000071
S31502002E20B12E00020F4B1968EFF309821EF0100F44
S31502002E3008BF22ED108A22E9F04FEFF30B8342F826
S31502002E40043D0A604FF0100080F31188BFF34F8FE4
S31502002E50BFF36F8F01F076FA4FF0000080F311880E
S31502002E6000F002B838C70322074801680A6802CA96
S31502002E7081F30B88B2E8F04F1EF0100F08BFB2ECD8
S31502002E80108A82F30988704738C7032210B5EFF318
S31502002E901184102383F3118801F06CF818B1034BE7
S31502002EA04FF080525A6084F3118810BD00ED00E0A5
S31502002EB008B5836913F8023C022B05D0032B05D90A
S31502002EC0012383F31088FEE7FFF7CEFF08BD00005B
S31502002ED010B44FF0807440F8044C22F0010240F81E
S31502002EE0082C074A40F80C2C40F8203C6FF00203ED
S31502002EF040F8243C283140F8481D5DF8044B7047E1
S31502002F00092E0002EFF31181102383F31188094A77
S31502002F10136801331360012B00D07047064B19600A
S31502002F20064B5B68C3F30803002BF6D0012383F339
S31502002F301088FEE7DCD10222D8D1022200ED00E0A1
S31502002F40074B1B681BB9012383F31088FEE7013B7D
S31502002F50034A13601BB9034B1B6883F3118870473E
S31502002F60DCD10222D8D102220A4B1B680A4AA2FBF2
S31502002F7003239B09013BB3F1807F0AD24FF0E02283
S31502002F805361064BF02183F8231000239361072334
S31502002F901361704734D10322D34D621000ED00E075
S31502002FA008B50C4BF02283F82220FFF7DDFF0A4A10
S31502002FB0536B43F04043536362B6BFF36F8FEFF335
S31502002FC0148C2CF0040C8CF31488BFF36F8F02DF81
S31502002FD000BEFDE700ED00E000EF00E070B5431E25
S31502002FE013F10A0F00F2988000F1080410F00703AB
S31502002FF006D0A3F10902A242C0F08E801030C41A94
S3150200300000F0AAFF4E4B1B68002B00F08C80002CB0
S315020030107DDD4C4B1968A14279D34B4B1B684B4A59
S31502003020934202D34A4A93421DD9012383F310885D
S31502003030FEE74FF4704344480260002141601344A6
S31502003040083B23F007033E48036059601960991A4A
S31502003050516013603F4B19603A4B1960D7E7012361
S3150200306083F31088FEE7384E3848394D5A68A24233
S3150200307008D21A6832B18242F1D31E46AA42EED86B
S315020030801346F3E72E4A12689A4240D0356808354D
S315020030902E4A954202D32E4A954203D9012383F33F
S315020030A01088FEE71A6832605A68A2420AD3121BD7
S315020030B0102A10D9181910F0070F07D0012383F32D
S315020030C01088FEE7012383F31088FEE742605C6006
S315020030D032681A5130605A68891A1A4801601D48C6
S315020030E0006881423CBF1B48016042F000425A60C0
S315020030F000221A60184A13680133136001F006F8B9
S3150200310015F0070F06D0012383F31088FEE700F0BF
S31502003110FDFF0025284670BD00F01EFF084B1B6808
S31502003120002BF4D10024094A12F0070F81D0D11DD9
S3150200313021F0070102F57042531A0A467BE700BFE7
S31502003140F0D10222ECD10222F4D10222FCD10222D7
S31502003150FBC10322E8D10222E4D10222002863D075
S3150200316038B50546A0F10804304B9C420AD3304BD1
S315020031709C4207D850F8043C002B07DB012383F35B
S315020031801088FEE7012383F31088FEE750F8082C27
S315020031901AB1012383F31088FEE723F0004340F8B7
S315020031A0043C00F0D9FE55F8041C224A13680B446D
S315020031B01360214B1A461B689C42FBD81E4882426A
S315020031C009D01A48824202D31948824203D90123FE
S315020031D083F31088FEE7506802EB000C644510D0BA
S315020031E055F8040C25181946AB4213D02160A242A9
S315020031F018BF1460114A13680133136000F086FF8A
S3150200320038BD01445160084611448B4201D0136017
S31502003210F0E714460A4909688B42E7D05B68034423
S31502003220636013681968E1E7704700BFFCD10222A8
S31502003230FBC10322ECD10222F4D10222E0D1022206
S31502003240F0D1022200F1080343604FF0FF328260A0
S31502003250C360036100230360704700230361704764
S3150200326043684B609A688A60516099600861036896
S3150200327001330360704730B40D68B5F1FF3F11D0DA
S3150200328000F108031C465B681A68AA42FAD9636809
S315020032904B6099608C60616008610368013303606A
S315020032A030BC70470469F2E70369416882688A6044
S315020032B0416851605A68824204BF82685A6000229D
S315020032C00261186801381860704710B50446FFF7A6
S315020032D019FEA46BFFF734FEB4FA84F0400910BD60
S315020032E070B504461646856B026C5AB903681BB163
S315020032F000200135A56370BD806801F0D7F900236F
S31502003300A360F6E76EB9406807F02CFB6368226C8F
S3150200331013446360A26830469342EAD3236863602B
S31502003320E7E7C06807F01EFB226C5142E3689B1A6E
S31502003330E3602268934202D2A3680B44E360022E42
S3150200334001D00020D5E715B1013D0020D1E70020CC
S31502003350CFE70346026C6AB110B50846D968114434
S31502003360D9609C68A14224BF1968D960D96807F060
S31502003370F9FA10BD704770B50546FFF7C3FD95F81B
S31502003380454064B2002C0FDD05F1240602E0013C43
S3150200339064B24CB16B6A3BB1304601F0B9F8002811
S315020033A0F5D001F06DF9F2E7FF2385F84530FFF716
S315020033B0C7FDFFF7A7FD95F8444064B2002C0FDD68
S315020033C005F1100602E0013C64B24CB12B693BB137
S315020033D0304601F09DF80028F5D001F051F9F2E7E8
S315020033E0FF2385F84430FFF7ABFD70BD38B558B101
S315020033F00D460446C36B1BB1026CA2FB03233BB111
S31502003400012383F31088FEE7012383F31088FEE786
S31502003410FFF778FD2268216CE36B01FB03F3D018FA
S31502003420A0600020A06362605B1A1A44E260FF2378
S3150200343084F8443084F84530A5B923691BB9FFF7EF
S315020034407FFD012038BD04F1100001F061F800286B
S31502003450F5D0094B4FF080525A60BFF34F8FBFF33E
S315020034606F8FECE704F11000FFF7ECFE04F1240085
S31502003470FFF7E8FEE3E700BF00ED00E04BB110B551
S3150200348082B01C4608B142B119BB012383F31088EE
S31502003490FEE7012383F31088FEE70029F5D15023C6
S315020034A00193019B502B19D1019B2246012384F8DB
S315020034B046302260E063216419462046FFF796FFF4
S315020034C09DF8103084F84C30204602B010BD019BA6
S315020034D0ECE750230193019B502BF8D0012383F391
S315020034E01088FEE7F8B550B10D4614460646A1FB14
S315020034F0002323B901FB00F010F1510F03D9012378
S3150200350083F31088FEE75030FFF768FD074678B16F
S31502003510002380F8463000F15003002D08BF034611
S315020035200360C66305640121FFF760FF87F84C401C
S315020035303846F8BD2DE9F04784B0019260B10E46D7
S315020035401D46044661B1022D11D1E36B012B0ED04B
S31502003550012383F31088FEE7012383F31088FEE735
S31502003560036C002BEFD0012383F31088FEE701F0F2
S315020035708DF8814628B9019B2BB1012383F310886C
S31502003580FEE74FF000090027DFF80C8133E02A46F8
S3150200359031462046FFF7A4FE636A73B938B13E4B43
S315020035A04FF080525A60BFF34F8FBFF36F8FFFF712
S315020035B0C7FC012004B0BDE8F08704F1240000F046
S315020035C0A7FF0028F3D0344B4FF080525A60BFF366
S315020035D04F8FBFF36F8FEAE7FFF7B2FC0020E9E7F0
S315020035E002A801F007F814E02046FFF7C4FE00F037
S315020035F08DFD4FF00109FFF785FCA26BE36B9A4242
S31502003600C5D3022DC3D0019B002BE5D0B9F1000F23
S31502003610E6D0FFF795FC00F09FFCFFF773FC94F8E9
S31502003620442052B2B2F1FF3F08BF84F8447094F8C6
S31502003630452052B2B2F1FF3F08BF84F84570FFF74A
S315020036407FFC01A902A800F0E1FFF0B9FFF75AFCDE
S31502003650D4F838A0D4F83C90FFF772FCCA45C3D11F
S31502003660019904F1100000F019FF2046FFF783FECE
S3150200367000F04CFD0028BCD14FF08053C8F804304E
S31502003680BFF34F8FBFF36F8FB3E72046FFF773FE8B
S3150200369000F03CFD00208DE700ED00E02DE9F0434F
S315020036A085B0019260B10D46044669B100F0EEFFA5
S315020036B0814680B9019B83B1012383F31088FEE71B
S315020036C0012383F31088FEE7036C002BEED001235F
S315020036D083F31088FEE74FF000090026DFF8FC802E
S315020036E036E029462046FFF734FE7B1EA363236994
S315020036F02BB9FFF725FC012005B0BDE8F08304F1E4
S31502003700100000F005FF0028F3D0344B4FF0805232
S315020037105A60BFF34F8FBFF36F8FEAE7FFF710FCD4
S315020037200020E9E702A800F065FF1CE02046FFF74B
S3150200373022FE00F0EBFC09E02046FFF71CFE00F03B
S31502003740E5FC2046FFF7C1FD002844D14FF00109F0
S31502003750FFF7D8FBA76B002FC3D1019B002BDDD04F
S31502003760B9F1000FDED0FFF7EBFB00F0F5FBFFF738
S31502003770C9FB94F844305BB2B3F1FF3F08BF84F84B
S31502003780446094F845305BB2B3F1FF3F08BF84F85A
S315020037904560FFF7D5FB01A902A800F037FF002814
S315020037A0CAD12046FFF791FD0028BFD0019904F146
S315020037B0240000F073FE2046FFF7DDFD00F0A6FCB4
S315020037C00028C3D14FF08053C8F80430BFF34F8F9F
S315020037D0BFF36F8FBAE700208EE700BF00ED00E06F
S315020037E038B130B50446F9B1104B002084460822A0
S315020037F00CE0012383F31088FEE70C4800EBCC00B3
S3150200380010E00CF1010C0833013A0AD09E465D68BD
S31502003810A542F2D00028F4D11D68002D08BF184633
S31502003820EFE708B10160446030BD00BFFCC103226E
S31502003830844650B100230B48082250F833106145E4
S3150200384007D00133013AF8D17047012383F3108878
S31502003850FEE7054A002142F8331002EBC30251602B
S31502003860704700BF00C20322FCC1032238B110B563
S315020038700446FFF7DDFF94F8463023B110BD01235D
S3150200388083F31088FEE72046FFF768FCF6E770B57B
S3150200389004460D461646FFF735FB94F844305BB2F4
S315020038A0B3F1FF3F04BF002384F8443094F8453057
S315020038B05BB2B3F1FF3F04BF002384F84530FFF744
S315020038C03FFBA36B1BB12046FFF755FD70BD324689
S315020038D0294604F1240000F0F5FDF4E728B1416918
S315020038E00C4A914205D000207047012383F31088C9
S315020038F0FEE7826A08498A4209D00AB10020704767
S3150200390090F86C00C0B2013818BF01207047002041
S31502003910704700BF68C2032294C203220368FBB148
S3150200392070B50D4600F10806C468A64205D100200E
S3150200393015E0A0B96468A64210D0E06800F1330E23
S3150200394005F1FF3C20221EF9013F1CF9011F994295
S31502003950F0D1002BEDD0013AF5D1EBE7002070BD96
S3150200396000207047074B1B681B6823B9064B4FF0B4
S31502003970FF321A607047034B1B68DB681A68024BFA
S315020039801A607047ACC2032244C203222DE9F843EF
S31502003990074689469846089E0A9C95002A46A5210E
S315020039A0206B06F039FF043D236B2B4423F00705F9
S315020039B06565B9F1000F10D009F1FF3104F1330347
S315020039C04FF0200C11F9012F03F8012F12B1BCF1AF
S315020039D0010CF7D1002384F85330372E03D9012383
S315020039E083F31088FEE7E6622666201DFFF735FCA4
S315020039F004F11800FFF731FC2461C6F13806A6610E
S31502003A00646243463A46216B2846FFF761FA206014
S31502003A10099B03B11C60BDE8F883000070B505463A
S31502003A20FFF770FA364A136801331360354B1B6889
S31502003A30002B41D0344B1B683BB9324B1B68DA6A08
S31502003A40EB6A9A429CBF2F4B1D60304A13680133C2
S31502003A501360AB65EB6A2E4A1268934284BF2C4A06
S31502003A6013602C4A03EB830302EB83035B68AB60B0
S31502003A709868E860291D41609960EB6A03EB83014F
S31502003A8002EB8100686152F82130013342F821309D
S31502003A90FFF756FA1C4B1B686BB11A4B1B68DA6AA6
S31502003AA0EB6A9A4207D21C4B4FF080525A60BFF320
S31502003AB04F8FBFF36F8F70BD124B1D601368012BC2
S31502003AC0C3D1144C04F58C662046FFF7BBFB1434B5
S31502003AD0B442F9D1114E3046FFF7B4FB104C2046E2
S31502003AE0FFF7B0FB0F48FFF7ADFB0F48FFF7AAFB46
S31502003AF00E48FFF7A7FB0E4B1E600E4B1C60A4E799
S31502003B0064C2032238C7032258C2032248C20322D0
S31502003B105CC20322D8C2032200ED00E0C4C2032223
S31502003B20B0C2032294C2032280C2032268C20322C5
S31502003B30ACC20322A8C2032210B5044690F86D3027
S31502003B403BB1012B0CD0022B09D0012383F3108841
S31502003B50FEE7006BFFF702FB2046FFF7FFFA10BDF8
S31502003B60FFF7FCFAFBE70000F8B50E4B1B68BBB18A
S31502003B700D4F0E4E0B4CFFF7C5F9FB68DD68281D8D
S31502003B80FFF792FB3368013B33602368013B2360F6
S31502003B90FFF7D6F92846FFF7CFFF2368002BEAD1B5
S31502003BA0F8BD00BF7CC2032280C2032264C2032284
S31502003BB008B5074C074E4FF08055FFF7D5FF23682F
S31502003BC0012BFAD97560BFF34F8FBFF36F8FF4E7FE
S31502003BD0D8C2032200ED00E02DE9F04104460E466C
S31502003BE0264B1D68264B1F68264BD3F80080264BB2
S31502003BF018680430FFF758FBB4F1FF3F0DD02C4490
S31502003C00214B1B685C60A5421CD91F4B1968043105
S31502003C104046FFF730FBBDE8F08106B31B4A516808
S31502003C20194B1868816018688C68C460186804307B
S31502003C3060601868043088601B685A611368013333
S31502003C401360E8E7104B196804313846FFF713FB97
S31502003C500F4B1B68A342DED90D4B1C60DBE76B1EC4
S31502003C60094A126853609D42CFD8074B196804313E
S31502003C703846FFF700FB064B1B68CCE760C20322FF
S31502003C80ACC20322A8C2032238C7032268C2032297
S31502003C9044C203222DE9F04186B00D460D9E002155
S31502003CA005916EB1044690461F460E9B63B1702382
S31502003CB00493049B702B0BD0012383F31088FEE739
S31502003CC0012383F31088FEE7012383F31088FEE7BE
S31502003CD0049B702200210E9806F09EFD0E9B1E6329
S31502003CE002230E9A82F86D3000230393029205ABEB
S31502003CF001930C9B00933B46424629462046FFF71A
S31502003D0045FE0E98FFF78AFE059806B0BDE8F081DB
S31502003D102DE9F04385B005460E46144698469000B6
S31502003D20FFF75CF910B381467020FFF757F9074693
S31502003D30C8B17022002106F06FFDC7F8309000234B
S31502003D40039302970D9B01930C9B009343462246D5
S31502003D5031462846FFF71AFE3846FFF75FFE012076
S31502003D6005B0BDE8F0834846FFF7F8F94FF0FF309B
S31502003D70F6E7000038B50446FFF7C4F83CB3251D44
S31502003D802846FFF791FAA36A1BB104F11800FFF760
S31502003D908BFA1E4A1368013313601D4B1A681D4BBA
S31502003DA01B680BB1A24215D01B4A1368013B136074
S31502003DB0FFF7D8FDFFF7C4F82046FFF7BDFE154B07
S31502003DC01B681BB1124B1B68A3420ED038BD104BA9
S31502003DD01C68D4E729461148FFF742FA104A1368CD
S31502003DE001331360FFF7ACF8E9E70E4B1B681BB112
S31502003DF0012383F31088FEE70B4B4FF080525A6083
S31502003E00BFF34F8FBFF36F8FE0E700BF48C20322B5
S31502003E1038C7032258C2032264C2032280C2032285
S31502003E207CC203223CC2032200ED00E038B568B131
S31502003E300446204B1B68834207D0FFF763F82046EF
S31502003E40FFF74CFD30B9FFF77BF838BD012383F34A
S31502003E501088FEE7251D2846FFF726FAE36A164A6A
S31502003E601268934284BF144A1360144A03EB830315
S31502003E7002EB83035B68A3609968E1604D609D6015
S31502003E80E36A03EB830102EB8100606152F82130A1
S31502003E90013342F82130074B1B68DA6AE36A9A4219
S31502003EA0D1D2074B4FF080525A60BFF34F8FBFF308
S31502003EB06F8FC8E738C703225CC20322D8C2032227
S31502003EC000ED00E010B590B01C4908AA11F9013BBB
S31502003ED002F8013B002BF9D100240594069407AAA7
S31502003EE006A905A800F0CAFE059B0293069B01934C
S31502003EF000942346079A08A91148FFF7CBFE114BF7
S31502003F001860B8B100F08CFE012806D0B0F1FF3F70
S31502003F1010D1012383F31088FEE7012383F310886F
S31502003F20094A4FF0FF311160084A1360084B1C60C2
S31502003F30FFF736F8074B1B6810B010BDECD3000232
S31502003F40B13B000240C2032244C2032258C20322EA
S31502003F5060C2032204D60002024A136801331360C8
S31502003F60704700BF3CC20322014B1868704700BF6E
S31502003F7060C203225A4B1B68002B40F0AB802DE92E
S31502003F80F047584B1C6801341C609CB9564B1B68A1
S31502003F901B681BB1012383F31088FEE7524A11689E
S31502003FA0524B186810601960514A13680133136046
S31502003FB0FFF7D8FC4F4B1B68A34278D84A4B1B68C5
S31502003FC01B684BB10020DFF820C10546DFF838E157
S31502003FD0494ADFF828A134E00020464B4FF0FF3271
S31502003FE01A6065E0434B196062E0D96ADEF8008028
S31502003FF0414588BFCEF8001001EB810102EB810139
S3150200400049689960D1F80880C3F80C80C8F8047032
S315020040108F60D96A01EB810702EB8708C3F8148027
S3150200402052F82710013142F82710DAF80070D96ADF
S31502004030FB6A994288BF0120DCF800301B68002B1E
S31502004040CBD0DCF80030DB68DB6859688C42C9D318
S31502004050D3F814809968DF688F60996879601F1DAC
S31502004060D8F80410B94204BFD968C8F804105D61D3
S31502004070D8F800100139C8F80010D3F82880B8F132
S31502004080000FB2D0196ADE69B160DE694E6003F1D3
S315020040901809D8F80410494504BF196AC8F804106B
S315020040A09D62D8F800100139C8F800109DE700207B
S315020040B0124B1B68DB6A03EB83030F4A52F8233069
S315020040C0022B28BF01200E4B1B68002B18BF0120B4
S315020040D0BDE8F0870B4A136801331360002070476E
S315020040E03CC2032260C20322ACC20322A8C203223C
S315020040F04CC2032244C20322D8C2032238C7032277
S3150200410050C2032254C203225CC203222DE9F843A1
S31502004110FEF7F8FE4D4B1B681BB9012383F310888B
S31502004120FEE74A4B1A68013A1A601B68002B40F0F8
S315020041308480474B1B68002B00F08580454B1B682B
S31502004140002B5AD0DFF80CC10020DFF820E1424AEA
S31502004150424C434E4FF00109DCF80C30DB689F6A93
S31502004160196ADD69A960DD694D6003F1180879688D
S31502004170414504BF196A7960986239680139396024
S315020041805F69D9689D68A9609D684D6003F104085E
S315020041907968414504BFD96879605861396801393F
S315020041A03960D96ADEF80070B94288BFCEF80010CD
S315020041B001EB810102EB8101496899608F68DF603A
S315020041C0C7F80480C1F80880D96A01EB810702EBBF
S315020041D08708C3F8148052F82710013142F82710D5
S315020041E02768D96AFB6A994288BFC6F80090DCF84C
S315020041F00030002BB0D1FFF7B5FB1A4B1C686CB12F
S31502004200174E012501E0013C05D0FFF7B3FE002859
S31502004210F9D03560F7E7134B00221A60104B1C6881
S3150200422064B10E4B1B68104B4FF080525A60BFF3BD
S315020042304F8FBFF36F8F012400E00024FEF780FE4C
S315020042402046BDE8F8830024F8E700BF3CC20322FB
S3150200425064C2032294C20322D8C2032238C70322AD
S3150200426050C2032254C2032200ED00E05CC20322C4
S3150200427010B540B90E4B4FF080525A60BFF34F8FC4
S31502004280BFF36F8F10BD0446FFF766FE094B1B682E
S31502004290012B03D0012383F31088FEE70021204679
S315020042A0FFF79AFCFFF732FF0028EBD1E2E700BFE7
S315020042B000ED00E03CC20322F8B5054606F05FFBBE
S315020042C01F2803D9012383F31088FEE7FFF744FE74
S315020042D0174CA4F24C4700E01C4629462046FFF73D
S315020042E01DFB064650B9A4F11403BC42F4D1114B8E
S315020042F018682946FFF712FB064618B1FFF706FFB4
S315020043003046F8BD0C4B18682946FFF707FB0646F0
S315020043100028F3D129460948FFF700FB0646002884
S31502004320ECD129460648FFF7F9FA0646E6E700BF4A
S3150200433024C70322ACC20322A8C2032268C20322F4
S3150200434080C20322224B1B681BB1224B01221A6038
S315020043507047204B00221A601F4B1B6803EB830138
S315020043601E4A52F821208AB963B103EB83011B4A24
S3150200437002EB81021946013B52F8140C30B9143A89
S315020043800139F8D1012383F31088FEE7134A03EBC0
S31502004390830102EB810148684068486003EB8301B0
S315020043A002EB8102083290420CD003EB83010B4AE6
S315020043B002EB81025268D168094A116006490B6014
S315020043C013687047054A02EB8102D1685160ECE737
S315020043D03CC2032250C203225CC20322D8C2032279
S315020043E038C7032238B50446FEF78CFDFCB1251DFD
S315020043F02846FEF759FFA36A1BB104F11800FEF71F
S3150200440053FF29461F48FEF72BFF94F86C30DBB2A8
S31502004410012B04BF002384F86C30FEF791FD1A4B82
S315020044201B683BB9194B1B68A3420AD038BD174B10
S315020044301C68DCE7FEF766FDFFF794FAFEF780FDDF
S31502004440F0E7114B1B687BB1114B1B681BB10123B3
S3150200445083F31088FEE70F4B4FF080525A60BFF38A
S315020044604F8FBFF36F8FE1E70B4B1A68054B1B6843
S315020044709A4203D1054B00221A60D7E7FFF762FF83
S31502004480D4E700BF68C2032258C2032238C70322F8
S315020044903CC2032200ED00E064C2032258B110B50B
S315020044A00C46074A11681831FEF7E5FE012120463F
S315020044B0FFF792FB10BD012383F31088FEE700BFCE
S315020044C038C7032238B5E0B18C4611460546426824
S315020044D00E4B1868C261186894680462186818302E
S315020044E060601868183090601B689D622B68013303
S315020044F02B6000290CBF60464FF0FF30FFF76CFBC4
S3150200450038BD012383F31088FEE700BF38C70322B4
S31502004510C368DB68002B51D010B49A6AD869196A4D
S315020045208160D869486003F118005168814204BF6E
S31502004530196A516000219962116801391160274A8E
S315020045401268002A3ED15A699868D96881609868CB
S315020045504860181D5168814204BFD9685160002124
S315020045605961116801391160DA6A1D4909688A427E
S3150200457084BF1B490A601B4902EB820201EB8202DD
S3150200458052689A609468DC6060609060DA6A02EB56
S31502004590820001EB80045C6151F82020013241F86F
S315020045A02020114A1168DA6ACB6A9A4283BF012037
S315020045B00E4B186000205DF8044B7047012383F30D
S315020045C01088FEE70A4A5168D9618C681C626060ED
S315020045D088609A62116801311160E2E73CC20322E7
S315020045E05CC20322D8C2032238C7032250C2032266
S315020045F094C20322034B1B680360034B1B68436090
S31502004600704700BF4CC2032260C20322B8B170B524
S315020046100C460546B9B1FEF775FC174B1A682368B6
S31502004620B3F1FF3F22D06968144800682E688642BB
S315020046300DD091420BD800232360012417E00123F9
S3150200464083F31088FEE7012383F31088FEE7501AEE
S31502004650834203D800232360012408E09B1A0B44FB
S3150200466023602846FFF7C6FF002400E00024FEF779
S3150200467067FC204670BD00BF60C203224CC2032203
S31502004680014B01221A60704750C20322054B1B6878
S3150200469033B1054B1868B0FA80F040094000704704
S315020046A00120704758C203223CC2032200283FD091
S315020046B038B50446204B1B68834203D0012383F39B
S315020046C01088FEE7436E1BB9012383F31088FEE7C9
S315020046D0013B4366C16A026E91422BD00BB10020A8
S315020046E038BD051D2846FEF7DFFD236EE362C3F1E2
S315020046F03802A261114A1268934284BF0F4A1360BC
S315020047000F4A03EB830302EB83035B68A36099689A
S31502004710E1604D609D60E36A03EB830102EB810079
S31502004720606152F82130013342F821300120D7E787
S31502004730002070470020D3E738C703225CC2032259
S31502004740D8C2032218B1012383F31088FEE770B59D
S315020047500D4616461C46FFF7FFFBFEF7D3FB264B1C
S315020047601B6893F86C30DBB2022B27D0224A116801
S315020047708B6E23EA05038B661368012283F86C208D
S31502004780049BF3B9FEF7DCFBFFF7C0FCFEF7BAFBAE
S315020047901CB1194B1B689B6E2360174B1B6893F861
S315020047A06C30DBB2022B1FD00024134B1B68002295
S315020047B083F86C20FEF7C4FB204670BDFEF7C0FBF3
S315020047C0E2E7FEF7BDFB01210498FFF705FAFFF7C2
S315020047D09DFC0028DAD1094B4FF080525A60BFF394
S315020047E04F8FBFF36F8FD1E7034B1A68936E23EA9D
S315020047F0060393660124D8E738C7032200ED00E0DA
S3150200480019B1012383F31088FEE770B504461646F4
S315020048101D4698B1FEF776FB049B13B1A36E049A6C
S31502004820136094F86C30DBB2022284F86C20042DFB
S315020048301CD8DFE805F00A0711151700012383F3D8
S315020048401088FEE7A26E3243A266012B16D001241F
S31502004850FEF776FB204670BDA26E0132A266F4E731
S31502004860A666F2E7022B4DD0A666EEE7274A126845
S31502004870002AEAD0012383F31088FEE76369A16860
S31502004880E2688A60A1685160211D5A688A4204BFA3
S31502004890E2685A60002262611A68013A1A60E36AA3
S315020048A01B4A1268934284BF194A1360194A03EBE2
S315020048B0830302EB83035B68A3609868E060416050
S315020048C09960E36A03EB830102EB8100606152F8AF
S315020048D02130013342F82130A36A1BB1012383F34D
S315020048E01088FEE70C4B1B68DA6AE36A9A420BD21F
S315020048F00A4B4FF080525A60BFF34F8FBFF36F8F50
S315020049000124A5E70024A3E70124A1E760C203224C
S315020049105CC20322D8C2032238C7032200ED00E09C
S3150200492008B54160006191420CD8D21A83699A4255
S3150200493001D3012008BD011D094B1868FEF79BFC37
S315020049400020F7E79A4201D2994206D2011D054B91
S315020049501868FEF790FC0020ECE70120EAE700BFAA
S3150200496038C803223CC8032270B504460D461646D3
S3150200497004E0A3691D44236A20469847A1692B4691
S31502004980324629442046FFF7CBFF0028F1D170BDFD
S3150200499070B505460E460D4B1B68DB68DC68201DAC
S315020049A0FEF782FC94F8283013F0040F07D123F0A7
S315020049B0010384F82830236A2046984770BD3246A0
S315020049C029462046FFF7D0FFF5E700BF3CC8032281
S315020049D0F8B50546FFF7C8FA0446104B1B68834232
S315020049E005D800232B600D4B1C602046F8BD0C4BEE
S315020049F01B681A685AB14FF0FF37094EDB68394611
S31502004A001868FFF7C5FF33681A68002AF6D1054A07
S31502004A1010680349086013600123E3E72CC80322E8
S31502004A203CC8032238C803222DE9F04186B05C4E09
S31502004A305C4D33681F68002F00F09080DB681F68AA
S31502004A40FFF78AFA02A8FFF7C3FF0446029A4AB999
S31502004A50874200F29380FFF759FB21463846FFF75B
S31502004A6097FF01E0FFF752FB00230293039304939F
S31502004A7005931C4606E005990498039B9847029BFA
S31502004A80002B09DA224602A92868FEF707FE00284B
S31502004A90CFD0029B002BEEDB049F7B6913B1381D3E
S31502004AA0FEF702FC01A8FFF793FF8046029B013B3B
S31502004AB0082BE7D8DFE803F0050529304405052968
S31502004AC0300097F8283043F0010387F82830039B1B
S31502004AD0B969024619443846FFF722FF0028D1D0A9
S31502004AE097F8283013F0040F07D123F0010387F853
S31502004AF028303B6A38469847C4E7BB694246039961
S31502004B0019443846FFF730FFF3E797F8283023F0C9
S31502004B10010387F82830B5E797F8283043F00103F8
S31502004B2087F828300399B96131B103460246014438
S31502004B303846FFF7F5FEA5E7012383F31088FEE763
S31502004B4097F8283013F0020F04D023F0010387F8F8
S31502004B50283097E73846FEF701FB93E7FFF7FCF9A3
S31502004B6002A8FFF735FF0446029B002B7FF47AAFBB
S31502004B700D4B1B681A68B2FA82F25209391B286871
S31502004B80FEF785FEFFF7C2FA00287FF46DAF074BEA
S31502004B904FF080525A60BFF34F8FBFF36F8F63E7B8
S31502004BA03CC8032234C8032238C8032200ED00E0C1
S31502004BB030B583B0FEF7A6F9114B1B681BB1FEF7A1
S31502004BC0BFF903B030BD0F4D2846FEF73BFB0E4C36
S31502004BD02046FEF737FB0D4B1D600D4B1C60002374
S31502004BE000930C4B0C4A10210A20FEF747FC044B9B
S31502004BF018600028E3D00949FEF7F2FDDFE700BF9F
S31502004C0034C8032254C8032240C803223CC80322E4
S31502004C1038C803223CC703228CC70322F4D30002FE
S31502004C2010B588B0FFF7C4FF104B1B68CBB1002448
S31502004C300594069407AA06A905A800F02BF8059B79
S31502004C400293069B0193022300932346079A08497F
S31502004C500848FFF71FF8084B186010B1012008B08A
S31502004C6010BD012383F31088FEE700BF34C8032278
S31502004C70FCD30002294A000230C80322034B036018
S31502004C80034B0B6080231360704700BFE0CE032204
S31502004C90E0CC0322034B0360034B0B604FF480739B
S31502004CA01360704770CC032270C80322024A13684D
S31502004CB001331360704700BF8802022208B5FBF772
S31502004CC027FD08BD08B5FBF7BFFE08BD08B5FBF713
S31502004CD02BFD08BD0379022B00D07047014B012240
S31502004CE01A70FAE7040000222DE9F04383B0414925
S31502004CF0414800F06BFA414C0C212046FCF7CAF8F9
S31502004D003F4D4049284601F091F9284601F074F9D1
S31502004D10284601F03DF93C493C4800F057FA3C4927
S31502004D203C4800F053FA3C493C4800F04FFA3C4DEF
S31502004D3001224FF48571284601F024F84FF47A7166
S31502004D404FF4FA7001F02EFD00224FF485712846C9
S31502004D5001F018F81C212046FCF79CF84FF47A71F2
S31502004D604FF4C87001F01EFD2D212046FCF792F883
S31502004D704FF47A714FF4FA7001F014FD4421204683
S31502004D80FCF788F84FF47A714FF4167001F00AFDB9
S31502004D9064212046FCF77EF82248FFF78DFA054685
S31502004DA0DFF89C904846FFF787FA06461E48FFF74B
S31502004DB083FA07461D48FFF77FFA80461C48FFF72D
S31502004DC07BFA0190CDF800803B46324629462046C2
S31502004DD0FBF7E6FE4846FFF76FFA01461548FDF770
S31502004DE051F81548FFF768FA144BC3F8F804FFF7B1
S31502004DF069F8FEE7D8D6000214D00322CC0A0222B2
S31502004E0058CF032208D6000230D6000278CF0322FA
S31502004E1064D60002ACCF0322A4D60002E0CF03225E
S31502004E2050CF0322C8D30002ACD30002B8D300028B
S31502004E30C4D3000200D1022238D00002F8CB0222EB
S31502004E40D0D3000210B582B0074C00230093012391
S31502004E501A4606492046FBF773FA054A05492046D3
S31502004E6001F046FF02B010BD68C8032298D60002C0
S31502004E70000000224F03000208B5074B4FF00272F2
S31502004E805A64002283F854204AF20152A3F864209D
S31502004E90FFF72AFF08BD00BF00F00040022800D03D
S31502004EA0704708B50249034801F068F808BD00BF1B
S31502004EB0F0D7000250CF032208B5FFF7DDFF00202E
S31502004EC008BD8161C2610020704710B4446AA368BC
S31502004ED023F44013A360446AA36C13F0804FFBD003
S31502004EE0A36823F01003A360446A237F13F0100F14
S31502004EF0FBD142610161A36843F01013A360002055
S31502004F005DF8044B704781620263C36200207047FA
S31502004F104FF0FF334B600B6000207047844611F060
S31502004F20020F1DD0426A936823F440139360426ACB
S31502004F30936C13F0804FFBD0936823F010039360B9
S31502004F40DCF82420137F13F0100FFBD10020CCF8DD
S31502004F50140011F0010F1CBF0020CCF81C00704792
S31502004F600620F6E70346C2690A600020D861704748
S31502004F70062070470620704730B4530902F01F0519
S31502004F800124AC402033144D45F82340BFF34F8F24
S31502004F90BFF36F8F114B02F5C65C53F82C4024F415
S31502004FA0803443F82C4053F82C30002A0CDB0901DC
S31502004FB0C9B202F1604303F5614383F80013084B5B
S31502004FC043F8220030BC704702F00F040901C9B24F
S31502004FD0044B1955F3E700BF00E100E00060004012
S31502004FE0DCD0032214ED00E070B584B005460E460F
S31502004FF09446C46ACCB194E80F000DF1100E0EE986
S315020050000F002B6A1B782360A66084F804C02B6B02
S31502005010E360AB6A20469847EC6A24B104AB13E915
S315020050200F0084E80F0004B070BD6C46E9E700008B
S3150200503038B54268374B9A426AD10446426A936847
S3150200504023F440139360426A936823F0100393603B
S31502005050426A137F13F0100FFBD1236A93F90730CC
S31502005060580903F01F03012101FA03F32A4A2030EB
S3150200507042F82030BFF34F8FBFF36F8F236A93F945
S315020050800930580903F01F0301FA03F3203042F8EE
S315020050902030BFF34F8FBFF36F8F606A836823F4AC
S315020050A080338360236A93F90530580903F01F039E
S315020050B001FA03F3203042F82030BFF34F8FBFF3DB
S315020050C06F8F236A93F90B30580903F01F0301FA15
S315020050D003F3203042F82030BFF34F8FBFF36F8FB8
S315020050E0EFF3108581F310880C4A5068236A93F80F
S315020050F000C04FF0004323FA0CF303435360536896
S315020051001E2001F04FFB85F310880020606038BD39
S315020051100720FCE74249435300E100E0003020400B
S3150200512070B5036ADD69002383606B7C03B970BDC9
S315020051300446184B93F8543003F00F03072B22D87A
S31502005140DFE803F006060604251B1D1F062601E0FE
S3150200515001269E400F4B93F8550000F00F0001F018
S31502005160BBFA6B7C0C4A126802FB03F3B0FBF6F047
S31502005170B3FBF0F30133A360D9E70326EAE705267A
S31502005180E8E70A26E6E7083B10269E40E2E70826FD
S31502005190E0E700BF00E0014034D10322F8B504463F
S315020051A00D46426A936823F4401723F4441323F00E
S315020051B01103936000260661FFF7B2FF636A2A684D
S315020051C01A61636A9F603046F8BD0000F8B504466E
S315020051D00D460B7803F5800303F556531B02436213
S315020051E00023037001624A6982628A690263C362AA
S315020051F0CE698378012262F3010383704B78002B18
S3150200520008BF0222837862F30103837091F90B20AF
S31502005210897AFFF7B1FE95F9052029792046FFF72D
S31502005220ABFE95F90720A9792046FFF7A5FE95F969
S315020052300920297A2046FFF79FFEEFF31087012106
S3150200524081F310887D4B5A6895F800C04FF00040F4
S3150200525020FA0CF022EA00025A605B681E2001F076
S31502005260A1FA87F31088636A4FF480629A60EA694A
S3150200527050686B781B0203F44073E978890301F4E2
S3150200528080410B431178090601F040710B435178B6
S31502005290C90389B20B43517B490501F400110B4343
S315020052A043F48053616A4B6111788B1EDBB2012B8A
S315020052B040F2BD800368616A0B61117B01F0030154
S315020052C041F03001AB7833B1022B14BF4FF4407377
S315020052D04FF48073194393781B0703F080530B43F3
S315020052E0616ACB60636A00219961297801238B4048
S315020052F0C3F3090313B1636A51495962937B03F0FD
S315020053000103D17B01F01F0143EA0123127C02F063
S315020053101F0243EA0243626A13630025256165613F
S31502005320A561E5612046FFF7FBFE7389A381636AE7
S31502005330444A9A66236A93F90530434A03F5C651ED
S3150200534052F8210065F3104042F8210052F821106C
S31502005350BFF35F8F03F01F00012101FA00F05B0922
S315020053609B0003F1604303F56143C3F880011860B3
S31502005370236A93F90B3003F5C65052F8206065F3A1
S31502005380104642F8206052F82000BFF35F8F03F008
S315020053901F0001FA00F05B099B0003F1604303F56D
S315020053A06143C3F880011860236A93F9073003F555
S315020053B0C65052F8206065F3104642F8206052F853
S315020053C02000BFF35F8F03F01F0001FA00F05B09B4
S315020053D09B0003F1604303F56143C3F88001186043
S315020053E0236A93F9093003F5C65052F8206065F333
S315020053F0104642F8206052F82020BFF35F8F03F078
S315020054001F0291405B099B0003F1604303F5614370
S31502005410C3F880111960636A0C4A9A60626A137F44
S3150200542013F0010FFBD00A4B63600020F8BD02297E
S31502005430084B094918BF0B463DE700BF0030204024
S3150200544000001F1F1000079D0060004011040100AC
S315020054504249435324FF00FF04FF00FF38B5EFF330
S315020054600383103B5BB2244A03F5C65152F821006E
S3150200547020F4803042F8210052F821201F4A52F8C7
S315020054802340236A1B6913B16369EBB138BD6369B3
S31502005490D3B1A37803F00303022B0DD0636A22690A
S315020054A012781A71A37803F003036269D21A626151
S315020054B022691A442261E7E7626A23691B8823F498
S315020054C0DC439BB25360EDE7636A9D6825F4801561
S315020054D045F40015A06860B9636A9D6000232361E4
S315020054E0A36A002BD2D0802200212046FFF77CFD42
S315020054F0CCE701F051F9EFE700600040DCD003226F
