S01D000041726D53796E635F536F6C7574696F6E5F435055302E7372656317
S3150200000080020222198200027D800002158200020D
S315020000101582000215820002158200021582000274
S31502000020000000000000000000000000413700024E
S31502000030158200020000000059370002C137000293
S31502000040557900025D680002B9670002F168000294
S315020000503D6900025D680002B9670002F1680002AC
S315020000603D6900025D680002B9670002F16800029C
S315020000703D6900025D680002B9670002F16800028C
S315020000803D69000225710002497700027160000293
S3150200009000000000010100001CEC00024CEC000212
S315020000A052000000240000001CEC00024CEC00028E
S315020000B03A000000240000001CEC00024CEC000296
S315020000C036000000260000001CEC00024CEC000288
S315020000D01400000012000000F4EC00021CED000205
S315020000E0850000001A000000F4EC00021CED00027C
S315020000F04D00000012000000010000000000000098
S315020001000000000084000022000000000000000041
S315020001100000000000CB0422104000001040000046
S315020001201040000010400000010000000100000025
S3150200013000001888000000000000000001004000D6
S31502000140698D000299A90002430000000000000028
S315020001500000000000000000000000000000000097
S315020001600000000000000000430000000000000044
S315020001700000000000000000000000000000000077
S315020001800000000000000000430000000000000024
S315020001900000000000000000000000000000000057
S315020001A00000000000000000430000000000000004
S315020001B00000000000000000000000000000000037
S315020001C000000000000000004300000000000000E4
S315020001D00000000000000000000000000000000017
S315020001E000000000000000004300000000000000C4
S315020001F000000000000000000000000000000000F7
S3150200020000000000000000004300000000000000A3
S3150200021000000000000000000000000000000000D6
S31502000220000000000000000001E400027BD9000289
S3150200023000000000B8480102C84501025947010200
S31502000240594701025947010259470102594701021A
S31502000250594701025947010259470102594701020A
S31502000260FFFFFFFFFFFFFFFFFFFFFFFFFFFF000094
S31502000270010041534349490000000000000000000C
S315020002800000000000000000000000000000000066
S3150200029000004153434949000000000000000000ED
S315020002A00000000000000000000000000000000046
S315020002B00000000028020022000000006CCD04228B
S315020002C0D4CD04223CCE042200000000000000002F
S315020002D00000000000000000000000000000000016
S315020002E00000000000000000000000000000000006
S315020002F000000000000000000000000000000000F6
S3090200030000000000F1
S315020003100348044B834202D0034B03B1184770478C
S31502000320740200227402002200000000064B0749F4
S31502000330C91A891048BF0131491003D0044B0BB1C9
S3150200034001481847704700BF740200227402002257
S315020003500000000010B5064C237843B9FFF7D8FF1A
S31502000360044B13B10448AFF300800123237010BD80
S31502000370B00202220000000028F1C90208B5054BAE
S315020003801BB105490548AFF30080BDE80840FFF7F9
S31502000390CDBF00BF00000000B402022228F1C9024C
S315020003A00160027143719DF800308371704710B588
S315020003B00446006808B105F0E9FF204610BD0000BA
S315020003C0F0B5ADF5057D07460C46037943BB002023
S315020003D0C0F5FF720132214604AB18440CF0C4F892
S315020003E000238DF80F32224B1B7853B94FF47A76DD
S315020003F001251F4C3146284607F0D8FD2378002BED
S31502000400F8D01B4B00221A7004A80CF046F90246DB
S315020004103B6804A9186805F005FF0DF5057DF0BDDA
S31502000420144B1968144AA2FB01329209134BA3FB1F
S315020004300203DB0A4FF47A7000FB12110291104894
S31502000440A0FB02514909C1EB0111A2EB8101019105
S315020004504FF4616101FB1322A0FB020252090092D2
S31502000460084A4FF4007104A80BF0BCFFB0E700BFC6
S3150200047004000022CC020222D34D6210C5B3A2911F
S315020004808988888880E700020EB410B5C3B0044696
S3150200049045AB53F8042B01934FF4807102A80CF07C
S315020004A021F802A92046FFF78BFF43B0BDE81040B2
S315020004B003B0704708B4F0B5ADF50C7D04460E46A0
S315020004C0154691AB53F8042B4B934CAF4FF4807106
S315020004D038460CF007F8019700962B46074A4FF468
S315020004E0907103A80BF07EFF03A92046FFF768FF71
S315020004F00DF50C7DBDE8F04001B070479CE70002A7
S315020005000CB430B5ADF51F7D04460A46A2AB53F8CE
S31502000510045B5D934FF480715EA80BF0E3FF637991
S31502000520002B144B144A18BF1346A279CAB1ADB1B7
S315020005302A68A9685EA80290019100920F4A4FF4B8
S31502000540B07105A80BF04EFF05A92046FFF738FF4C
S315020005500DF51F7DBDE8304002B07047084A002104
S31502000560E8E75EAA0092074A4FF4B07105A80BF0BD
S3150200057039FFE9E7C8E70002B0E70002D4E7000264
S315020005803CEA0002E4E700020CB430B5ADF51F7D8B
S3150200059004460A46A2AB53F8045B5D934FF480719E
S315020005A05EA80BF09FFF6379002B144B144A18BF09
S315020005B01346A279CAB1ADB12A68A9685EA80290AB
S315020005C0019100920F4A4FF4B07105A80BF00AFF91
S315020005D005A92046FFF7F4FE0DF51F7DBDE8304064
S315020005E002B07047084A0021E8E75EAA0092074A6D
S315020005F04FF4B07105A80BF0F5FEE9E704E8000236
S31502000600ECE70002D4E700023CEA0002E4E700025B
S315020006100EB410B5ADF50D7D04468FAB53F8042B21
S315020006204B934FF480714CA80BF05CFF6379002B5F
S315020006304CAB0093094A0A4B08BF1346094A4FF4CA
S31502000640907103A80BF0CEFE03A92046FFF7B8FE71
S315020006500DF50D7DBDE8104003B0704724E8000299
S3150200066010E80002E4E700020EB410B5ADF50D7D08
S3150200067004468FAB53F8042B4B934FF480714CA86E
S315020006800BF030FF6379002B4CAB0093094A0A4BFF
S3150200069008BF1346094A4FF4907103A80BF0A2FE55
S315020006A003A92046FFF78CFE0DF50D7DBDE810402F
S315020006B003B0704744E800022CE80002E4E70002B7
S315020006C00160426000228260C26002610275704768
S315020006D0026943689A420DD202688368D1548368DC
S315020006E001334268B3FBF2FC02FB1C3383600369ED
S315020006F0013303610A2904BF0123037570470269A6
S315020007009AB110B4C3680168C95C01334468B3FB8B
S31502000710F4FC04FB1C33C360013A02610AB90023EC
S31502000720037508465DF8044B70474FF0FF3070477B
S3150200073000697047007D70472DE9F041037DCBB11A
S31502000740064688464D1E571E00243046FFF7D7FF41
S31502000750002808DBBC4205D0013405F8010F0A283F
S31502000760F3D100E03C46002308F8043033752046F6
S31502000770BDE8F0810024FAE710B5044604F09CF8BF
S31502000780A06023685B682046984710BD08B50379C8
S31502000790042B00D008BD017A0148FFF799FFF9E75B
S315020007A0E804022208B50379042B00D008BD017AB9
S315020007B00148FFF78DFFF9E7D00202222DE9F04F3B
S315020007C02DED088BA1B007464A48FFF7B3FF20B9C3
S315020007D021B0BDEC088BBDE8F08F80226946454802
S315020007E0FFF7AAFF0028F3D04FF0000A08EE10AA7E
S315020007F008EE90AA09EE10AA09EE90AA0AEE10AA2D
S315020008000AEE90AA0BEE10AA0BEE90AAD346684601
S315020008100026B0464FF02C093FE0F0EE40BA19E050
S31502000820B0EE40BA16E0F0EE40AA13E0B0EE40AAEF
S3150200083010E0F0EE409A0DE0B0EE409A0AE0F0EEDB
S31502000840408A07E0B0EE408A04E010EE10AA01E00A
S3150200085010EE10BA0136E4B20D2C19D8092EB7DD06
S31502000860C7F830B0C7ED0DBA87ED0EBAC7ED0FAABD
S3150200087087ED10AAC7ED119A87ED129AC7ED138A72
S3150200088087ED148AC7F854A0012387F859309FE7E9
S31502000890284600F8019B0A2EE2D090F90040054650
S315020008A04CB12C2C07D00A2C05D00D2C03D015F9EF
S315020008B0014F002CF5D185F8008041460AF0F0FE82
S315020008C0092EC7D801A353F826F000BF510800022B
S315020008D01B08000221080002270800022D08000258
S315020008E033080002390800023F08000245080002E8
S315020008F04B080002E80402222DE9F0438FB080463D
S315020009002A4D4FF0AA090DF119062846FFF710FFE6
S31502000910192847D92846FFF7F2FEAA28F5D18DF8FD
S3150200092000906F463C462846FFF7E9FE04F8010FA1
S31502000930B442F8D19DF819300D2BE6D107AB4FF032
S31502000940040E4EF001E0B9787A7842EA01221A8062
S315020009503979FA7842EA01225A80B9797A7942EAF1
S3150200096001229A80063706330FF013C801278DF845
S31502000970347007AC0FCCC8F81400C8F81810C8F8C1
S315020009801C20C8F8203003CCC8F82400C8F8281068
S31502000990FBB288F82C3088F8587003F08DFFC8F83F
S315020009A05C00B2E70FB0BDE8F08300BFD0020222BE
S315020009B030B593B004460D46EC4600F1300EBEE863
S315020009C00F00ACE80F00BEE80F00ACE80F009EE88F
S315020009D003008CE803000DF1280C6069A169E26945
S315020009E0236AACE80F00606AA16AACE8030094F8D7
S315020009F02C308CF800301195206900231A4669467E
S31502000A00006803F031FA13B030BD10B5044603F0A6
S31502000A1053FF94F8583043B9E36D73B1C31A94F88F
S31502000A2059200AB14F2B0CD810BD002384F8583038
S31502000A3001462046FFF7BCFFF6E794F85930002B33
S31502000A40F2D001462046FFF7B3FFEDE738B504467C
S31502000A5008490948FFF7DCFD03252046FFF74CFF4E
S31502000A602046FFF7ABFE2046FFF7CFFF284604F0ED
S31502000A70A7F8F2E74CE8000200C4042208B54FF4D6
S31502000A80806205490548FFF71BFE4FF400720449D0
S31502000A900448FFF715FE08BD00050222E8040222FB
S31502000AA0E8020222D002022210B504460379042B80
S31502000AB003D02379022B05D010BD017A0348FFF734
S31502000AC007FEF6E7024B01221A70F5E784090222B5
S31502000AD0050000220FB4F0B583B008AB53F8042B1F
S31502000AE001937D2117480BF0FDFC002824DB154BF2
S31502000AF0FF221A5403445A709A70C61C124B1B7872
S31502000B0093B901254FF47A770F4C04E0284604F096
S31502000B1057F8237843B904F071FA0228F6D0394619
S31502000B20284607F043FAF4E7074B00221A703246CA
S31502000B300449064805F076FB03B0BDE8F04004B070
S31502000B40704700BF040902220500002204CC0422D9
S31502000B5008B5DFED087A20EE270AFDEEC07A17EE19
S31502000B60902A01310448FFF7B5FF032004F028F864
S31502000B7008BD00BF0000C84264E8000208B50131A2
S31502000B800348FFF7A7FF032004F01AF808BD00BFC9
S31502000B9074E8000210B50C46FDEEC07A17EE901A04
S31502000BA00948FFF797FF032004F00AF8002C43F6E2
S31502000BB0B1614EF2492318BF19460448FFF78AFF6E
S31502000BC0032003F0FDFF10BD88E800029CE8000246
S31502000BD0016142618361009BC361019B03624162C1
S31502000BE0029B83627047000010B582B0044600691A
S31502000BF0A0B100210091032394F82C2004F0C6FA38
S31502000C0094F82C30002B064B064A18BF1346009365
S31502000C10054B064A06490748FFF74CFC02B010BDD1
S31502000C20B4E80002B0E80002BCE80002C0E8000234
S31502000C30C8E8000200C40422406950B100B583B07E
S31502000C400A4600210091032304F0A0FA03B05DF8DE
S31502000C5004FB704738B500F1140400F1280501E0E1
S31502000C60AC4206D054F8040F0028F9D004F062F81A
S31502000C70F6E738BD38B500F1140400F1280501E0A5
S31502000C80AC4206D054F8040F0028F9D003F076FDE2
S31502000C90F6E738BD10B5012812D00446022811D055
S31502000CA040B315491548FFF715FF032003F088FFE7
S31502000CB0032C43F6B1644EF2492308BF1C460AE0F0
S31502000CC00F4900E00F490D48FFF704FF032003F028
S31502000CD077FF43F6B16421460B48FFF7FBFE03207C
S31502000CE003F06EFF21460948FFF7F4FE032003F0E6
S31502000CF067FF10BD0649E6E7ECE80002F4E80002E9
S31502000D00DCE80002D4E8000208E90002A0E80002DA
S31502000D10E4E800022DE9F0410446624D624E634F5B
S31502000D200FE002F089FD624B01221A7002F0A2FD69
S31502000D300320FFF7AFFF5F4B5F4A60496048FFF74A
S31502000D40B9FB2846FFF7DBFC0028C0F2A880423830
S31502000D501128F6D801A353F820F000BFA50D000212
S31502000D60430D0002430D0002230D0002430D000253
S31502000D70430D0002430D0002430D0002430D000223
S31502000D80430D0002730E0002430D0002430D0002E2
S31502000D90430D00022B0E0002430D00020B0E000251
S31502000DA0890E000294F82D30002BCAD102F044FDC0
S31502000DB0444B01221A7002F05DFD02F03DFD3C4BF0
S31502000DC093F8008002F056FDB8F1000F16D002F03B
S31502000DD033FD374B00221A7002F04CFD94F8343082
S31502000DE053B994F82C00FFF755FF374B374A33496E
S31502000DF03348FFF75FFBA4E70320F4E7344B334A9B
S31502000E002E492F48FFF756FB9BE794F82D30002B0F
S31502000E1097D194F82C0080F0010084F82C00FFF79B
S31502000E2039FF2046FFF7E0FE8BE794F82C30002BC3
S31502000E3087D194F82D0080F0010084F82D0040003F
S31502000E40FFF728FF94F82D305BB194F82E20164B4D
S31502000E501A702046FFF7FEFE02212046FFF7ECFE3F
S31502000E606FE703212046FFF7E7FE2046FFF702FF62
S31502000E7067E7012384F82E303370164B164A17495A
S31502000E800F48FFF717FB5CE7002384F82E30337018
S31502000E903B46114A11490A48FFF70CFB51E7BDE8E8
S31502000EA0F08100BF840902221C0A022270E90002B4
S31502000EB0680000221CE9000224E900022CE9000273
S31502000EC000C40422E40A022234E900024CE90002C8
S31502000ED054E900025CE90002C0E8000264E900028B
S31502000EE008B501460348FFF7F5FD032003F068FE47
S31502000EF008BD00BF78E9000210B50246074C21780A
S31502000F000748FFF7E7FD032003F05AFE2378013373
S31502000F10DBB2052B28BF0023237010BD0009022275
S31502000F2088E9000210B501281FD0022843F6B164F1
S31502000F3048F2104318BF1C460E490F4B18BF1946FC
S31502000F400E48FFF7C7FD032003F03AFE21460C4880
S31502000F50FFF7C0FD032003F033FE21460948FFF7E1
S31502000F60B9FD032003F02CFE10BD4FF224540649AE
S31502000F70E6E700BFA4E900029CE90002B4E9000228
S31502000F80C8E90002DCE90002ACE9000208B5014644
S31502000F900748FFF79FFD032003F012FE43F6B161F7
S31502000FA00448FFF797FD032003F00AFE08BD00BFC1
S31502000FB0ECE90002C8E900022DE9F04F2DED028BA3
S31502000FC0A5B08146B649B748FFF722FBC82003F011
S31502000FD0F7FD0020FFF75EFE4FF0000A87E10C9B4B
S31502000FE0042B40F0928199F82D30002B00F08D8170
S31502000FF089F82DA04846FFF73DFE4846FFF7F4FD67
S315020010005046FFF747FEA84BA84AA949A548FFF74D
S3150200101051FA7AE10D98FFF763FF84E10E98FFF724
S31502001020B5FF8EE119AC0FAD0FCD0FC40FCD0FC4B6
S3150200103095E8030084E80300DDED196AB3EE047A4D
S31502001040C6EE877ACDED197ADDED1A6AB3EE0E7A1F
S31502001050C6EE877ACDED1A7AF2EE047ADDED1B6AD8
S3150200106086EEA77A8DED1B7ADDED1C6A86EEA77AEF
S315020010708DED1C7ADDED1E6A86EEA77A8DED1E7A5F
S3150200108019AB04931D460024B5EC010A21464846D5
S31502001090FFF75EFD0134062CF6D1DFF83C8220AD67
S315020010A0844B09939B464746049B00240594069469
S315020010B0CDF828800B9698461FE0DBED007AF4EE19
S315020010C0C87AF1EE10FA51D82B780693002B53D139
S315020010D00122069205995346002A51D10122A240C5
S315020010E0D9F8303023EA02030591C9F830300134C9
S315020010F001350BF1040B062C49D0B8EC018AF7EC4A
S31502001100017AF4EEC87AF1EE10FAD6DB2B78002BD0
S3150200111040F02F81012206920126A640D9F83020FE
S3150200112016421FD1002B644A644B08BF134607932D
S31502001130631C079A00920893614A20210FA80BF0BC
S3150200114051F90FA8FFF7D8FEB7EEC88A8DED028BCC
S31502001150079A0192089B00935A4B5B4A5B49514896
S31502001160FFF7A8F9D9F830303343BEE729780A46A3
S315020011700B460029B0D1ADE7069A13460592CBE796
S315020011800591C9E7059306934C4B0793D0E7DDF823
S3150200119028800B9E059B3BB399F834307BB1069BA6
S315020011A0002B47D00DF17F05002401274EF2492678
S315020011B04FF2245BCDF81490DDF824904CE0012325
S315020011C089F834300320FFF765FD069B93B399F83F
S315020011D03430002BE6D14FF224513D48FFF77AFC1A
S315020011E0012389F83530DDE799F8343073B9069B67
S315020011F0002BF0D199F83530002BD3D089F835A0E1
S3150200120043F6B1613248FFF765FCCBE789F834A0B3
S3150200121002F012FB2F4B1C7802F02CFB002CD4D1CF
S3150200122099F82C3013B999F82D305E003046FFF745
S3150200123031FDCAE799F83530002BB3D099F834302E
S31502001240002BAFD1DAE721460598FFF797FC013468
S3150200125009F10409062C1FD0049BF3EC017A0493CE
S31502001260B8EC017A3946B4EEE77AF1EE10FA08DA0A
S3150200127099ED007AB4EEE77AF1EE10FA94BF012105
S31502001280002115F8013F3246002BDCD1002943F636
S31502001290B16218BF5A46D6E7DDF814905FE000BF88
S315020012A02CEA000200C4042240EA00024CE90002D1
S315020012B060EA0002B4F0000214EA000204EA000244
S315020012C064EA00026CEA000224E9000280EA0002F3
S315020012D0A0E8000268000022CCF0000251469DED13
S315020012E00F0A4846FFF756FC282003F069FCCDF8A2
S315020012F030A0CDF800A00CAB4FF0FF32514650465D
S3150200130003F0D8FE01283FF46AAECDF834A0CDF83A
S3150200131000A00DAB4FF0FF325146012003F0CAFE8A
S3150200132001283FF477AECDF838A0CDF800A00EAB79
S315020013304FF0FF325146022003F0BCFE01283FF473
S315020013406DAE4846FFF7E6FCD9F8383052460FA98B
S31502001350186802F03DFE064601283FF463AED9F84E
S315020013603C3052460FA9186802F032FE0128BBD162
S31502001370B4E70126A640D9F8302016423FF402AF60
S3150200138005930693EEE600BF10B50C460448FFF738
S31502001390A1FB642C00D010BD0248FFF79BFBFAE7C5
S315020013A088EA00029CEA000208B580220249034844
S315020013B0FFF786F908BD00BF9C09022284090222B2
S315020013C000F54040D0F8040550B100B583B00A4696
S315020013D000210091032303F0D9FE03B05DF804FB5C
S315020013E07047F0B589B0044600F54043B3F8F634C9
S315020013F06BB904F54044B4F8F634A4F8F834003B6B
S3150200140018BF012384F8FD34012009B0F0BD01ADF7
S31502001410D0F80D00D4F81110D4F81520D4F81930EC
S315020014200FC5D4F81D00D4F82110D4F8252007C51D
S31502001430174604F10D0C002504F540460DF1040E85
S31502001440DCF80000DCF80410DCF80820DCF80C30CC
S31502001450AEE80F00DCF81000DCF81410DCF81820F7
S31502001460AEE80700D31B07930DF1040EBEE80F008A
S31502001470CCF80000CCF80410CCF80820CCF80C30DC
S31502001480BEE80700CCF81000CCF81410CCF81820EF
S3150200149001350CF11C0CB6F8F634AB42CED8A8E7EF
S315020014A02DE9F0419CB00646A249A348FFF7B0F8E1
S315020014B000238DF86C301BA802F07CF818B106F5F3
S315020014C040449E4F8FE19E4A9E499B48FFF718F87B
S315020014D0F5E7D4F80835002213A9186802F078FD5A
S315020014E0012817D000238DF848309DF84830002B8C
S315020014F05AD1B4F8F634002B6CD01BA93046FFF74C
S3150200150070FF002860D0B4F8F6248F498A48FFF7A6
S31502001510ABF864E00BAD0DF14C0CBCE80F000FC547
S315020015209CE8070085E8070001238DF84830DCE7D0
S31502001530C3EBC3039D000D3506EB050E0DF12C0C16
S31502001540BCE80F007051CEF80410CEF80820CEF891
S315020015500C30BCE80700CEF81000CEF81410CEF816
S315020015601820B4F8F6340133A4F8F63421E013ADAA
S315020015700DF1100CBCE80F000FC59CE8070085E8CA
S31502001580070001238DF868300DF12C0C0DF14C0E7D
S31502001590BEE80F00ACE80F009EE80F008CE80F00D3
S315020015A09DF84830002BA4D0B4F8F634B3F5E16FB9
S315020015B0BED3D4F80835002204A9186802F008FD43
S315020015C00128D4D00023DDE7604A61495A48FEF774
S315020015D097FF04E03A465F495748FEF7D5FF0023D6
S315020015E0A4F8F6341AE05C4A5C495348FEF7CCFF8D
S315020015F004213046FFF7E4FE10E0002384F8FC34B1
S31502001600574A1370A4F8FA341D46D4F80C352A4604
S3150200161013A9186802F0DCFC0128F6D094F8FC3411
S31502001620002B00F0AB80B4F8FA34B4F8F8249A42EE
S3150200163073D9C3EBC3039B000D3306EB030C13AD47
S31502001640F058DCF80410DCF80820DCF80C300FC582
S31502001650DCF81000DCF81410DCF8182007C5D4F802
S31502001660005515444FF0010802E0404603F0A8FA7F
S3150200167003F022F9281A0028F7DC03F01DF9199065
S31502001680D4F80C0500231A4613A9006802F0ECFBF5
S31502001690012823D1B4F8FA3401339BB2A4F8FA3400
S315020016A013F07F0F1ED0B4F8F824B4F8FA3493423C
S315020016B0C0F099802B4B1B78FBB10023A4F8FA34B7
S315020016C003F0FAF8C4F80005274B284A28491A48B5
S315020016D0FEF7F0FE012003F073FA84E0012003F026
S315020016E06FFA80E0B4F8F82401920093214B1F4A66
S315020016F01F491148FEF7DEFED5E71F490E48FEF7E1
S31502001700B3FF002384F8FC34154A1370A4F8FA34A4
S3150200171004213046FFF754FE65E0002384F8FC34CA
S315020017200F4A1370A4F8FA3404213046FFF748FE34
S3150200173059E000BFB0EA000200C4042218000022E9
S3150200174038000022C8EA0002F0EA0002280000225D
S3150200175010EB000230EB00020800002270EB0002E0
S315020017601D0A02221C0A0222B8EB0002C0E800028D
S31502001770B0EB00029CEB0002C4EB0002D4F8083581
S3150200178000220BA9186802F023FC012860D000236E
S315020017908DF868309DF8683013B3B4F8F634B3F5B3
S315020017A0E16F63D2C3EBC3039D000D3506EB050E55
S315020017B00DF14C0CBCE80F007051CEF80410CEF8B7
S315020017C00820CEF80C30BCE80700CEF81000CEF8A0
S315020017D01410CEF81820B4F8F6340133A4F8F6340F
S315020017E0212003F0EDF900200390009003AB4FF0A7
S315020017F0FF32014603F05EFC01287FF40FAF039B24
S31502001800012B3FF466AE022B7FF4F7AE0025D4F827
S3150200181010352A4613A9186802F0DAFB0128F6D019
S3150200182094F8FD34002B3FF4DEAE012384F8FC3439
S31502001830134A13700023A4F8FA3403F03DF8C4F8EF
S315020018400005B4F8F8240F490F48FEF70DFFE5E648
S3150200185013AD0DF12C0CBCE80F000FC59CE8070078
S3150200186085E8070001238DF8683093E74FF4E162BB
S3150200187006490548FEF7F8FE0548FFF73DFBAFE7C8
S315020018801D0A022250EB000200C40422ECEB000205
S3150200189010EC00022DE9F04F2DED088BB5B0054690
S315020018A06A496B48FEF7B4FE0024DFED6A9A9FEDA3
S315020018B06A9A38E0059B0F93069B1093079B119338
S315020018C0089B1293099B13930A9B14931596CDF8C2
S315020018D02CA0CDF83090CDF834800E96A869234618
S315020018E022460FA9006802F0BFFAA86A23462246DA
S315020018F00FA9006802F0B8FAE869234622460BA946
S31502001900006802F0B1FA03970496286A2346224633
S3150200191003A9006802F0A8FA686A2346224603A9C8
S31502001920006802F0A1FA6B698DF87C404FF0FF3235
S315020019300FA9186802F04CFB0128F4D148220FA91E
S3150200194021A80AF09DFEDDED0FBA9DED10BADDED80
S3150200195011AA9DED12AADDED138A9DED148ADDF81A
S3150200196054A0DDF85890179FDDF860809DF87CB092
S31502001970209E0294009402AB4FF0FF32214620468D
S3150200198003F098FB012804BF4FF07E532B610F949E
S315020019901094119412941394149415940B940C9419
S315020019A00D940E94039404946BEEA96ACDED056A28
S315020019B02BEE297A8DED067A6AEEA97ACDED077AB3
S315020019C02AEE09AA3AEE26AA8DED08AA68EE898AB7
S315020019D078EE878ACDED098A28EE098A38EE278ABB
S315020019E08DED0A8ABBF1000F3FF464AFD5ED045AC0
S315020019F0B7EE006A36EE656A0DF1AA0205AB08A9D2
S31502001A0008460232B2F906C007EE90CAF8EEE77A45
S31502001A10D3ED006AB2F900C007EE10CAB8EEC77A73
S31502001A2027EE257A66EE266A37EE267AA3EC017A47
S31502001A3091ED007A65EEA77A26EE077A77EE877A37
S31502001A40E1EC017A9842DCD134E700BF78EC00027F
S31502001A5000C404220000AF43000082432DE9F04196
S31502001A6082B01D491D4804F097FA074618B1384658
S31502001A7002B0BDE8F0811A4C204604F053FA4FF04A
S31502001A800041204604F084FA02238DF8043005232F
S31502001A908DF8053030238DF8063046238DF8073051
S31502001AA001AE3C460E4D4FF0010816F8012B2146B9
S31502001AB0284604F041FA08FA04F1284604F068FAC6
S31502001AC00134042CF1D1064C204604F051FA20468A
S31502001AD004F056FACBE700BFC43D01026C000022B7
S31502001AE000CB042270B58CB00646002A4FD1D1ED48
S31502001AF0007A9FED2F6AC7EE866AD1ED017A87EEEC
S31502001B00867AD1ED025AC5EE867A0325294C0DF165
S31502001B10180CA646BEE80F00ACE80F009EE80300CC
S31502001B208CE80300EE4604F1180CBCE80F00AEE8A0
S31502001B300F009CE803008EE803006A1C0CAB03EB63
S31502001B40820212ED066A37EE467AAB1C0CA901EB4D
S31502001B50830313ED066A77EEC67A01EB850515ED6A
S31502001B60066A76EEC66A55ED0C5A86EEA56A86EDCB
S31502001B70006A12ED0C6AC7EE066AC6ED016A53EDFB
S31502001B800C6A87EEA67A86ED027A0CB070BDD1EDAC
S31502001B90007A9FED096AC7EE866AD1ED017A87EE71
S31502001BA0867AD1ED025AC5EE867A0025AEE700BFE7
S31502001BB000002F4464F100020000FA432DE9F04FC1
S31502001BC0ADF5697D05466E496E48FEF721FD28464C
S31502001BD0FFF744FF00280CBF012300236B7319D1C2
S31502001BE069496848FEF714FD0120FFF79BF94FF497
S31502001BF04072002128A80AF09DFC00241394149434
S31502001C0015941694179403942646DFF890814FF0A4
S31502001C10000B2AE05D4A5E495A48FEF771FCE6E788
S31502001C200DF12C0C0DF1100EBEE80F00ACE80F0002
S31502001C309EE807008CE8070001238DF8483020E073
S31502001C4004EB44004FEA400901220BA928AB03EB3F
S31502001C50C000FFF747FF09F1030000220EA928ABD7
S31502001C6003EB8000FFF73EFF01346B694FF0FF3252
S31502001C7004A9186802F0ACF90128D1D000238DF826
S31502001C8048309DF84830002BEFD01F2CD8DD4FF49A
S31502001C903A722EA928A80AF033FC01220BA9E2A85F
S31502001CA0FFF720FF00220EA9E5A8FFF71BFF95F814
S31502001CB00DA0BAF1000FD8D0002704970597069712
S31502001CC0079708970997119B0A9301F0C3FB4FF4F4
S31502001CD0407228A90AF0D4FC384601F0C7FB034635
S31502001CE090BB01F0BBFB0368069301F0BBFB0368E4
S31502001CF00893CDF810B0CDF814B0CDF81CB0CDF8DD
S31502001D0024B0A8690223002204A9006802F0ACF8F4
S31502001D1002F0D2FD13AB43F82600731C88FB0312B4
S31502001D20DE17C6EB620606EB86069E1B01D0039BF8
S31502001D3013B32F692FB113AB53F82630C31A032BF3
S31502001D400DD8CDF80CA090E7124A402118A80AF047
S31502001D5049FB114A18A90B48FEF7D2FBD1E79A08AC
S31502001D600023009303234FF47A71B1FBF2F20221AE
S31502001D70384603F00BFAE4E7DDF80CA0E1E700BF12
S31502001D8090EC000200C40422A4EC000258000022D7
S31502001D90C0EC0002D4EC00024800002267666666C8
S31502001DA030B587B090F868307BB9144600F150031D
S31502001DB04FF0060E4EF001E054F804CB43F804CB84
S31502001DC00FF007C0012380F8683000F15003EC469B
S31502001DD064469FED2F6ADFED2F6A4FF0060E4EF036
S31502001DE001E0F2EC017A93ED007A67EE867A27EE4D
S31502001DF0267A77EE877AE3EC017AE4EC017A0FF041
S31502001E0011C0254C3830B1EE006A9FED245ADFED41
S31502001E10245A4FF0000E06230AE0A1F802E082F8E7
S31502001E2004E00C3102340CF1040C0430013B2CD0DA
S31502001E300A468D68002DF2D0DCED007A90ED007A2C
S31502001E4077EEC77AF0EEE77AF4EEC67AF1EE10FA9A
S31502001E50E3D467EE857A258807EE105AB8EE477AFC
S31502001E6067EE256AF4EEE67AF1EE10FA58BFF0EE66
S31502001E70676AF4EEC76AF1EE10FA37FE267ABCEE0E
S31502001E80C77A17EE105A4D80C9E707B030BD00BFBA
S31502001E90CDCCCC3D6666663FC8F10002EC51383EB9
S31502001EA0CDCC4C3D70B5B8B004465D495D48FEF7F1
S31502001EB0AFFB00255C4E21E0E36A2A4625A9186895
S31502001EC002F086F801283FD08DF844509DF8443040
S31502001ED0002B49D00AAA04F1100125A801F086FBBD
S31502001EE0109B37930AAA25A92046FFF759FF206BB4
S31502001EF02B462A4625A9006801F0B6FF636B2A46DF
S31502001F0025A9186802F064F80128D5D10DF1680CEC
S31502001F100DF1940EBEE80F00ACE80F00BEE80F000C
S31502001F20ACE80F009EE803008CE803001AAA04F14D
S31502001F3038034FF0060E4EF001E052F8041B43F848
S31502001F40041B0FF007C0B7E70DF1280C0DF1940E34
S31502001F50BEE80F00ACE80F009EE807008CE8070019
S31502001F6001238DF84430B1E7A36A0A2225A918682D
S31502001F7002F02EF8012842D08DF864509DF86430A4
S31502001F80002BBBD012AA04F1100125A801F02EFBEA
S31502001F90189B379312AA25A92046FFF701FF9DED4C
S31502001FA0177AB7EEC77A8DED087B9DED167AB7EEF6
S31502001FB0C77A8DED067B9DED157AB7EEC77A8DED64
S31502001FC0047B9DED147AB7EEC77A8DED027B9DED0B
S31502001FD0137AB7EEC77A8DED007BDDED127AB7EE96
S31502001FE0E77A53EC172B31460E48FEF73DFB206B82
S31502001FF02B462A4625A9006801F036FF7EE70DF139
S31502002000480C0DF1940EBEE80F00ACE80F009EE8F6
S3150200201007008CE8070001238DF86430AEE700BFA5
S3150200202044ED000200C4042264ED000210B52DED59
S31502002030048B82B09FED348A9FED349ADFED348AA9
S3150200204010240094F0EE481A96234FF4FA62002107
S31502002050B3EE041AF0EE490AB0EE680A2D4801F012
S31502002060F3FA0094F0EE481A962340F6B8320121AC
S31502002070B3EE0E1ADFED280A9FED280A284801F072
S31502002080E3FA0094F0EE481A96234FF47A7200218E
S31502002090B2EE041AF0EE490AB0EE680A214801F0DF
S315020020A0D3FA0094F0EE481A96234FF47A7201217D
S315020020B0B2EE041ADFED1C0A9FED1C0A1C4801F061
S315020020C0C3FA0094F0EE481A962364220021B7EE72
S315020020D0001AF0EE490AB0EE680A164801F0B4FAA0
S315020020E00094F0EE481A96234FF47A720121B2EE6A
S315020020F0041AF0EE490AB0EE680A0F4801F0A4FA93
S3150200210002B0BDEC048B10BD6666E63F0000B44229
S315020021100000B4C2C00A02220000FA420000B4C1A2
S31502002120A00A0222800A0222000000000000F4C275
S31502002130600A0222400A0222200A02222DE9F04FF8
S3150200214083B08B4601921F460D9D0E9E0F9CDDF8B5
S3150200215040A0DDF84490DDF84880DFEDAD7A70EE00
S31502002160A70A32EE272A70EEE77A20EE007A67EEA9
S31502002170A76A37EE267A61EE016A37EE267AF1EE23
S31502002180C76A9FEDA47AF4EEC76AF1EE10FA40F33D
S3150200219029819FEDA16A86EE267A60EE076A9FED97
S315020021A09F6A76EE866A67EE870ADFED995A70EEC7
S315020021B0A50A21EE077A37EE067AC5ED006AC6ED64
S315020021C0000A84ED007A9FED957A30EE070A31EE29
S315020021D0C00ADFED8F6A77EEA67A72EE677A31EE83
S315020021E0071A32EEC11A20EE007A67EEA76A37EEB8
S315020021F0267A61EE016A37EE267AF1EEC76A9FED1C
S31502002200857AF4EEC76AF1EE10FA40F3F0809FED9C
S31502002210846A86EE267A20EE070AD5ED006A76EE05
S31502002220806ACAED006A67EE877AD6ED006A76EEB4
S31502002230A77AC9ED007A21EE071AD4ED002A71EECB
S31502002240222AC8ED002AD4ED000AF1EE600A95EDC5
S31502002250000A06F0EDFE8BED000AD5ED007AD6ED0A
S31502002260006A94ED007A67EEA77A66EEA66A77EEC2
S31502002270A67A27EE077A77EE877AB1EEE77A27EE25
S31502002280077ADFED687A77EEC77A9FED677A87EE8F
S31502002290870AFFEE007AB4EEE70AF1EE10FA00F1D1
S315020022A0AB80F7EE007AB4EE670AF1EE10FA37FE6B
S315020022B0800A06F091FEDFED5D7A30EE670A019B39
S315020022C083ED000ADAED007A99ED007ADFED506AC5
S315020022D037EE667AD8ED006A67EEA77A27EE077AB6
S315020022E077EE877A66EEA66A77EEA67AB1EEE77A97
S315020022F027EE077ADFED4E7A77EEC77A9FED4D7AB3
S3150200230087EE870AFFEE007AB4EEE70AF1EE10FADC
S3150200231075D4F7EE007AB4EE670AF1EE10FA37FEDC
S31502002320800A06F059FEDFED447A30EE670A0C9B0E
S3150200233083ED000A95ED006ADFED377A86EE277A9D
S31502002340D6ED004A94ED005AC5EE276A66EEA67AE5
S31502002350DFED325A77EEA57A67EE075A77EEA57A5F
S31502002360F1EEE75ADFED357AF4EEE75AF1EE10FABE
S3150200237048DDC6EEA50AB1EE477AC7EE256ADAED62
S31502002380007A77EEC67A9FED267A87EE870AD9ED2E
S31502002390007A77EEE47AC7EE875A98ED006A36EE4F
S315020023A0456AC6EE077A60EE800A9FED1C7A25EE34
S315020023B0876A70EE860A66EEA76A70EEA60A20EEB5
S315020023C0070A30EE250A67EE877A30EE270AF1EE23
S315020023D0600AB1EE400A06F02BFE87ED000A03B052
S315020023E0BDE8F08FF0EE406AB0EE417AE5E6CAED5E
S315020023F0001A89ED002A24E7BFEE000A59E7BFEE6C
S31502002400000A8EE7DFED056AF7EE000AB7E700BFBE
S315020024100000F2420AD7233CAE17844300000000B4
S31502002420DD8439435BE9A447C5BC7947DB0FC93F65
S315020024308189CB475673BF47DB0F49406F12833AF8
S3150200244070B52DED028B9AB004462A492A48FEF74A
S31502002450DFF89FED2A8A2A4D23694FF0FF3213A92E
S31502002460186801F0B5FD0128F6D1199E12AB069344
S3150200247011AB059310AB04930FAB03930EAB029310
S315020024800DAB01930CAB00930BAB0AAA09A9DDEDC8
S31502002490182A9DED172ADDED161A9DED151ADDEDAA
S315020024A0140A9DED130A2046FFF748FE1996DDED44
S315020024B0097A67EE887ACDED137ADDED0A7A67EE50
S315020024C0887ACDED147ADDED0B7A67EE887ACDED5A
S315020024D0157ADDED0C7A67EE887ACDED167A1795C8
S315020024E01895606900231A4613A9006801F0BCFC1E
S315020024F0B2E700BFACED000200C40422E02E654242
S315020025000000C07FB5EEC00AF1EE10FA09D4DFED85
S315020025100C7AB4EEE70AF1EE10FA04DD9FED080A32
S3150200252001E09FED080A9FED067AC0EE077A9FED5D
S31502002530067A67EE877A9FED050A37EEC00A70477C
S315020025400000C84200000000000034430000B4420C
S3150200255010B400F12003B6EE086AF5EE006A062210
S3150200256004E083ED007A0433013A12D0B1EC017A29
S3150200257090F83840002CF4D0D3ED007A67EE867AD4
S3150200258027EE267A77EE877AC3ED007A41ED017A55
S31502002590E9E7012380F838305DF8044B7047000004
S315020025A02DE9F04F2DED0A8B8BB004467149724826
S315020025B0FEF72EF800269FED71CADFED71BAF0EE36
S315020025C06BAA3546B0EE6B9ADFF8BC91DFF8A881AC
S315020025D0DFED6CCAA3E0DDED03BADDED04AA9DEDE5
S315020025E005CA0126A4E09DED03AADDED049A9DED40
S315020025F0058ADDF818B0099FA4E09DED05BADDED68
S31502002600078A3EB16BEE897A77EE887AB0EE4B8A0C
S31502002610012330E00123A1E0F0EE6A8A33E0E06CA8
S315020026202B462A4603A9006801F01EFCBAF1000FE8
S315020026305FD006E0E06C2B462A4603A9006801F04B
S3150200264013FC237F002B54D1606928B10095032324
S315020026500122294602F09AFD49464046FEF704F851
S3150200266047E094F81CA03EE06EB980E06BEE897AF2
S3150200267077EE887A2B4628EE098A38EE278A002BCF
S31502002680F2D1F0EE6A8A68EE898A78EEAA8AB0EE0C
S315020026904C0A2046FFF736FF09978DED03AACDEDCA
S315020026A0049ACDF818B08DED058ACDED078A8DED29
S315020026B0080A03A92046FFF74BFF02952369002B60
S315020026C0CFD0009502AB4FF0FF322946284602F0E2
S315020026D0F1FC029B94F81CA0012804D1012B14BF23
S315020026E0002301232377237F002B98D1BAF1000F11
S315020026F0A0D1A06960B1DDED047A67EEAC7A0095EF
S315020027000323FDEEE77A17EE902A294602F03EFDF4
S31502002710A06C02232A4603A9006801F0A5FB636C9C
S315020027202A4603A9186801F053FC01283FF453AF67
S31502002730E36B4FF0FF3203A9186801F049FC012848
S315020027403FF451AF236C2A4603A9186801F040FCF6
S3150200275001283FF452AF002E88D12B46002B08FEEB
S315020027600B8A23B9002E7FF457AFF0EE498AB0EEFA
S31502002770490A91E7C0ED000200C404220000484263
S31502002780000000000000C842D8ED00020161704757
S3150200279041617047816170472DE9F04FADB0044643
S315020027A07048A063704BE3635822002109F0C2FE11
S315020027B028220021E06B09F0BDFE6C496C4804F04A
S315020027C031FC6C496C48FDF723FF0027DFF8B8B1EE
S315020027D0DFF8B8A17AE04C252A4605A918A809F01F
S315020027E04FFF2A4618A904F16C0009F049FF01259A
S315020027F076E005AA03AB93E8030082E8030004F13E
S31502002800B80383E8030073E004F14005284605F0A7
S315020028105BFC0828FAD04C2204F16C01A06B09F08B
S315020028202FFFA36BD4F8B820DA64A36B1E65A36BE3
S3150200283083F85480A36B83F85590284605F050FC24
S31502002840A1214B4804F03EFC94F82420131D44F8C1
S3150200285023600132494B83FB02135B1003EB8303B4
S31502002860D31ADAB284F82420C2B9012284F82520C8
S31502002870434A1068002853D0043354F82330F61A1A
S315020028803A46032E04D9B6084FF47A72B2FBF6F230
S3150200289000970323012102F079FC41E094F82520F8
S315020028A0002A3DD0E4E7304605F01AFC04F144055F
S315020028B0206B3B463A462946006801F0D5FA606B22
S315020028C002233A462946006801F0CEFAA36A21227B
S315020028D005A9186801F07CFB3D4601283FF47BAF51
S315020028E0E36A3A4603A9186801F072FB012880D010
S315020028F001F0E2FF064600F09FFF9BF800809AF87F
S3150200290000908AF8007000F0B5FF002D7FF47CAFCE
S31502002910B8F1000F7FF478AFB9F1000F7FF474AF0E
S31502002920184B1B78002BD1D0164B1F7004F14006B2
S31502002930304605F0C9FB0828FAD0E56B6B6AD4F875
S31502002940C0209342AFD0C4F8C03004F1440C0FCD7E
S31502002950ACE80F000FCDACE80F0095E803008CE859
S315020029600300A0E728401C2200401C22D83E010298
S3150200297038CC042208EE000200C4042267666666AA
S31502002980E00A0222E50A022268000022E40A022282
S315020029908368B3F5803F00D070474368A22BFBD112
S315020029A0014B01221A70F7E7E50A022210B5044626
S315020029B0006801F0F5FB204610BD10B5044600681C
S315020029C001F0EEFB204610BD10B50446006801F08A
S315020029D0E7FB204610BD10B50446006801F0E0FB97
S315020029E0204610BD10B50446006801F0D9FB20460A
S315020029F010BD10B50446006801F0D2FB204610BD9A
S31502002A0010B50446006801F0CBFB204610BD10B598
S31502002A1004460846002222601C2101F0FDF904E06A
S31502002A20206801F0BDFB05F06BFE2060204610BD5C
S31502002A3010B50446084600222260082101F0ECF98E
S31502002A4004E0206801F0ACFB05F05AFE2060204647
S31502002A5010BD10B504460846002222601C2101F072
S31502002A60DBF904E0206801F09BFB05F049FE2060DB
S31502002A70204610BD10B504460846002222602821D1
S31502002A8001F0CAF904E0206801F08AFB05F038FE7D
S31502002A902060204610BD000070B50022574B1A6018
S31502002AA04821042001F0B8F9544B1860544C2246D0
S31502002AB05449184605F0AAFD534D04212846FFF74E
S31502002AC0A6FF22465149284605F0A0FD504D022197
S31502002AD02846FFF7ADFF4F4E22463146284605F0FF
S31502002AE095FD4D4D02212846FFF7A2FF22463146AB
S31502002AF0284605F08BFD0022484B1A60102104205F
S31502002B0001F08AF9454B186022464549184605F0F8
S31502002B107DFD444E04213046FFF79BFF424D22467F
S31502002B202946304605F072FD404E01213046FFF738
S31502002B3090FF22462946304605F068FD3C4E0821A4
S31502002B403046FFF764FF22463049304605F05EFD07
S31502002B50384E01213046FFF77CFF22462946304691
S31502002B6005F054FD344E08213046FFF772FF224627
S31502002B702946304605F04AFD304E20213046FFF701
S31502002B8068FF22462946304605F040FD00222C4BBE
S31502002B901A604C21042001F03FF905E0174B186832
S31502002BA001F0FEFA05F0ACFD254B1860144C2246E6
S31502002BB02449184605F02AFD234D04212846FFF72D
S31502002BC059FF224E22463146284605F01FFD204D6A
S31502002BD001212846FFF74EFF22463146284605F0D8
S31502002BE015FD70BD0D4B186801F0DAFA05F088FD87
S31502002BF0134B186801F0D4FA05F082FD1C0B022271
S31502002C0000000022AD290002180B0222BB29000295
S31502002C10140B0222C9290002100B02220C0B0222FB
S31502002C20D7290002080B0222E5290002040B022220
S31502002C30000B0222FC0A0222F80A0222F40A0222EB
S31502002C40F00A0222F3290002EC0A0222012A0002F9
S31502002C50E80A022210B50446034B0360406808B135
S31502002C6001F030FD204610BD70F2000210B5044698
S31502002C70034B0360406808B101F024FD204610BDF5
S31502002C8070F2000210B50446034B0360406808B1B7
S31502002C9001F018FD204610BD70F2000210B5044680
S31502002CA0034B0360406808B101F00CFD204610BDDD
S31502002CB070F2000210B50446034B0360406808B187
S31502002CC001F000FD204610BD70F2000210B5044668
S31502002CD0034B0360406808B101F0F4FC204610BDC6
S31502002CE070F2000210B50446034B0360406808B157
S31502002CF001F0E8FC204610BD70F2000210B5044651
S31502002D00034B0360406808B101F0DCFC204610BDAD
S31502002D1070F2000210B50446034B0360406808B126
S31502002D2001F0D0FC204610BD70F2000210B5044638
S31502002D30034B0360406808B101F0C4FC204610BD95
S31502002D4070F2000270B50D490D48FDF761FC0D4D9C
S31502002D5001264FF4857432462146284604F010FABD
S31502002D60642001F02DFF00222146284604F008FACD
S31502002D704FF4617001F024FFEDE700BF34EE00026C
S31502002D8000C40422F8CA042210B5044601F094FDD8
S31502002D90A06023685B682046984710BD30B583B0B3
S31502002DA004460846194600236360A3600D4D25605C
S31502002DB02373231D0193009023460B4801F050FC18
S31502002DC007E00A4B2360606808B101F07BFC05F05E
S31502002DD097FC012814BF002001202073204603B06F
S31502002DE030BD00BF80F20002892D000270F200029F
S31502002DF02DE9F04184B09F4B00225A609A609E49A9
S31502002E0019601A731A1D0192032200924FF400727E
S31502002E109A499B4801F024FC964B012814BF0020D6
S31502002E2001201873974A1A60974A9849184605F07E
S31502002E30EDFB974B00225A609A608F4919601A730C
S31502002E401A1D0192032200924FF4806291498C4826
S31502002E5001F006FC8E4D012814BF002001202873C4
S31502002E608D4B2B608D4B2B6100246C61AC61EC6148
S31502002E702C626C62AC62AC852822214605F13000D8
S31502002E8009F058FB85F8584085F85940EC657E4AAA
S31502002E908349284605F0BAFB824B5C609C60764A01
S31502002EA01A601C731A1D0192032200924FF4C0622B
S31502002EB07D49734801F0D4FB08E06E4B7B4A1A60E9
S31502002EC0586808B101F0FEFB05F01AFC754B0128A3
S31502002ED014BF002001201873754A1A6000241C6171
S31502002EE05C619C61DC611C625C629C6283F82C40C2
S31502002EF083F82D4083F82E401C6383F8344083F810
S31502002F0035406C4A9A63DFF82082C3F83C805E4EF5
S31502002F1032466949184605F079FB684D684B4FF40D
S31502002F20006203212846FFF739FF664B2B60664B8A
S31502002F302B615A4B6B61654FAF61654BEB61654B1C
S31502002F402B62C5F82480644BAB623246634928463D
S31502002F5005F05CFB624D634B4FF400620321284689
S31502002F60FFF71CFF604B2B602F61604B6B61324693
S31502002F705F49284605F04AFB5E4B5C609C603E4A10
S31502002F801A601C731A1D0192032200924FF480628A
S31502002F9059493B4801F064FB08E03D4B434A1A603D
S31502002FA0586808B101F08EFB05F0AAFB514B0128C7
S31502002FB014BF002001201873504A1A6000241C61B5
S31502002FC05C619C611C771C625C629C62DC621C63B5
S31502002FD05C6383F83840454ADA63494A1A643C4AD4
S31502002FE05A64484A9A64484ADA64274A474918465C
S31502002FF005F00CFB464B5C609C601F4A1A601C7312
S315020030001A1D0192032200924FF4006241491C48A4
S3150200301001F026FB08E0234B244A1A60586808B1DF
S3150200302001F050FB05F06CFB394B012814BF002060
S3150200303001201873384A1A6000245C731C61264A00
S315020030405A612F4A9A61104A3449184605F0DEFA47
S31502003050334B5C609C60084A1A601C731A1D01920D
S31502003060022200924FF400622E49054801F0F8FA56
S3150200307065E000BFB4D2022280F2000248EE0002EE
S31502003080892D000290F20002000000222D2D00027E
S3150200309054D2022250EE000288F000021C0B0222D9
S315020030A0152D000214D2022260EA000270F200021A
S315020030B0ACF00002EC0A0222FD2C0002E8D1022248
S315020030C05CEE000234F100025C8F423F180B0222D2
S315020030D00C0B0222140B0222000B0222E52C000228
S315020030E0D0D1022268EE0002F0F10002080B0222A1
S315020030F0CD2C000280D102226CEE00021CF20002EC
S31502003100040B0222FC0A0222F80A0222B52C000251
S3150200311064D1022274EE00025CF100029D2C0002D0
S31502003120500C022278EE0002100B0222754B764AF0
S315020031301A60586808B101F0C5FA05F0E1FA734D54
S31502003140012814BF0020012028732846704B40F83E
S315020031500D3B4CF2E842002109F0ECF905F540433B
S315020031600024A3F8F644A3F8F844A3F8FA4483F833
S31502003170FC4483F8FD44C3F80045C3F80445654A98
S31502003180C3F80825644AC3F80C25644AC3F8102517
S31502003190634A6449284605F039FA634B5C609C60D1
S315020031A0624A1A601C731A1D0192032200924FF49E
S315020031B000625F495F4801F053FA08E05E4B524AEB
S315020031C01A60586808B101F07DFA05F099FA564B73
S315020031D0012814BF0020012018731846574B40F8E7
S315020031E0103B574B0293574B0193574B0093574B48
S315020031F0574A584900F0F0F911E0444B424A1A6026
S31502003200586808B101F05EFA05F07AFA464B3E4A72
S315020032101A60586808B101F055FA05F071FA424889
S315020032203E4B83623C4BC3624B4B03634B4B436344
S3150200323000248463C463046444648464C4640465CB
S3150200324044658465C4650466446680F86840344A09
S31502003250434905F0DBF9434B5C609C60334A1A60D4
S315020032601C731A1D0192032200924FF4C0623E495A
S31502003270304801F0F5F93B4C012814BF002001202B
S3150200328020732346394A43F8102B002525615D60D9
S315020032909D60DD601D6184F8245084F825502E4B14
S315020032A0A362334BE362334B23632C4B6363A56305
S315020032B0E56384F840504C22294604F16C0009F07B
S315020032C039F9C4F8B850C4F8BC50C4F8C050144A0E
S315020032D02949204605F09AF904B0BDE8F081124B5F
S315020032E0094A1A60586808B101F0ECF905F008FAC3
S315020032F01C4B054A1A60586808B101F0E3F905F05B
S31502003300FFF900BF80D1022270F20002500C0222A5
S3150200331008F10002F80A0222F40A0222FC0A022238
S3150200332000000022852C0002E40B022280F2000239
S3150200333080EE0002892D000264D10222C0F1000251
S31502003340200A0222400A0222600A0222800A02227D
S31502003350A00A0222C00A0222F00A0222E80A022275
S315020033606D2C0002200B02228CEE000248F20002B3
S31502003370140B0222EC0A0222552C000238B504462E
S31502003380084615469FED060A0023C022214600F094
S3150200339025F8C0222146284609F072F938BD00BF39
S315020033A0630C573D38B52DED028B0C4610461D4673
S315020033B09FED098AB0EE480A00230122069900F021
S315020033C034F8B0EE480A002301222946204600F0CE
S315020033D02CF8BDEC028B38BD6629393C22B300B508
S315020033E001396FF07F0C4FEA820EAEF1040E4FEAFE
S315020033F09E0E0EF1010E4EF001E0B0EC017AC7EE20
S31502003400007AF8FE677AFDEEE77A17EE902A1A44FA
S315020034106245B8BF62467F2AA8BF7F2201F8012F04
S315020034200FF015C85DF804FB704792B100B501387C
S3150200343042F001E010F9012FD21A07EE902AF8EEB7
S31502003440E77A67EE807AE1EC017A0FF00DC85DF853
S3150200345004FB70470048704768D402220048704750
S315020034609CD302220048704798D302222DE9F041EC
S3150200347082B004461B4B1D681B4F3D441B4B1E6806
S315020034803E44DFF88C80424619491A48FFF776FF18
S31502003490194B1868C0224146384409F0F1F8204613
S315020034A000F03AF80446DFF86C80144F0097434662
S315020034B0324629461248FFF775FFD8ED007A9FED8E
S315020034C0117A67EE877A104BC3ED007AD7ED007A50
S315020034D067EE877A0D4BC3ED007A204602B0BDE84F
S315020034E0F08100BFB43D010270D70222B83D01024D
S315020034F068D40222D0D20222BC3D0102A0D302220B
S31502003500C4D20222000034439CD3022298D3022260
S31502003510A8D30222A4D3022200B597B000231E4AE2
S315020035200A920B931D4A126804921D4A0C920D933D
S315020035304FF4C06105910E920F930691109211936A
S31502003540C021079110B318461370129213930123E8
S31502003550089382F820000023124A1492159301223E
S31502003560099202930623019304AB00930AAB0E4A17
S3150200357012680E490E4802F0BFFCB0F1FF3F14BFBD
S3150200358000200120404217B05DF804FB129213930B
S3150200359001230893DFE700BFF0F70002B03D010206
S315020035A070D7022290D70222E0F70002A0F20002B0
S315020035B000CB042210B50446007800B110BD054BBD
S315020035C05968186803F042FCB0FA80F0400920708E
S315020035D0F4E700BFE83E0102016042608360009B9F
S315020035E0C360019B0361029B43617047F8B52DEDF1
S315020035F0028B07460D4616464C22002108F09AFF1A
S31502003600DEB100249FED0F8A03E001340435062C57
S3150200361013D0B6EC010AF0EEC07AF4EE487AF1EE77
S3150200362010FAF2D8286800F03EF804EB4400296844
S3150200363007EB800000F053F8E7E73846BDEC028B53
S31502003640F8BD00BFFFFF7F7F00B580ED000AC0ED29
S31502003650010A4FF0000EC0F808E0DFF820E0C0F8DB
S315020036600CE080ED041A0175C2820376BDF80430BF
S315020036704383C0ED071A5DF804FB00BF0000C07F5C
S31502003680F0EE407A90ED000AB4EEE70AF1EE10FA97
S3150200369008DC90ED010AB4EEE70AF1EE10FA58BF23
S315020036A0B0EE670A704710B50446FFF7E9FF84EDEE
S315020036B0030A10BD08B5B0EEC00A90ED077AC0EE57
S315020036C0077A438B07EE103AB8EE477A67EE877AA7
S315020036D090ED040A27EE800A05F0BAFC08BD38B55B
S315020036E02DED028B0446002303604360836091ED57
S315020036F0038AB4EE488AF1EE10FA1AD60D460B7D0D
S31502003700F1EE487A002B48FE277AF5EEC07AF1EE02
S3150200371010FAB4BF012300230370CB8A43800B7EC9
S315020037200371B0EE480A0846FFF7C4FFA06085EDB4
S31502003730028A2046BDEC028B38BD00BEFEE70000C1
S315020037401EF0040F0CBFEFF30880EFF30980014966
S3150200375008470000E53700020F4B1968EFF30982AC
S315020037601EF0100F08BF22ED108A22E9F04FEFF388
S315020037700B8342F8043D0A604FF0100080F3118873
S31502003780BFF34F8FBFF36F8F01F084FA4FF0000043
S3150200379080F3118800F002B8D0C2042207480168FB
S315020037A00A6802CA81F30B88B2E8F04F1EF0100FC6
S315020037B008BFB2EC108A82F309887047D0C204228D
S315020037C010B5EFF31184102383F3118801F07AF810
S315020037D018B1034B4FF080525A6084F3118810BD22
S315020037E000ED00E008B5836913F8023C022B05D010
S315020037F0032B05D9012383F31088FEE7FFF7CEFFDB
S3150200380008BD000010B44FF0807440F8044C22F05A
S31502003810010240F8082C074A40F80C2C40F8203CDC
S315020038206FF0020340F8243C283140F8481D5DF849
S31502003830044B70473B370002EFF31181102383F3E9
S315020038401188094A136801331360012B00D07047AF
S31502003850064B1960064B5B68C3F30803002BF6D0D0
S31502003860012383F31088FEE774DD022270DD022253
S3150200387000ED00E0074B1B681BB9012383F3108898
S31502003880FEE7013B034A13601BB9034B1B6883F334
S315020038901188704774DD022270DD02220A4B1B6812
S315020038A00A4AA2FB03239B09013BB3F1807F0AD29A
S315020038B04FF0E0225361064BF02183F823100023D8
S315020038C0936107231361704754CD0422D34D6210CE
S315020038D000ED00E008B50C4BF02283F82220FFF73A
S315020038E0DDFF0A4A536B43F04043536362B6BFF3AC
S315020038F06F8FEFF3148C2CF0040C8CF31488BFF347
S315020039006F8F02DF00BEFDE700ED00E000EF00E092
S3150200391070B5431E13F10A0F00F2988000F10804F5
S3150200392010F0070306D0A3F10902A242C0F08E806E
S315020039301030C41A00F0B8FF4E4B1B68002B00F083
S315020039408C80002C7DDD4C4B1968A14279D34B4B00
S315020039501B684B4A934202D34A4A93421DD901231A
S3150200396083F31088FEE74FF4F033444802600021E7
S3150200397041601344083B23F007033E480360596045
S315020039801960991A516013603F4B19603A4B1960DE
S31502003990D7E7012383F31088FEE7384E3848394DBE
S315020039A05A68A24208D21A6832B18242F1D31E463E
S315020039B0AA42EED81346F3E72E4A12689A4240D03C
S315020039C0356808352E4A954202D32E4A954203D9C6
S315020039D0012383F31088FEE71A6832605A68A2420E
S315020039E00AD3121B102A10D9181910F0070F07D084
S315020039F0012383F31088FEE7012383F31088FEE791
S31502003A0042605C6032681A5130605A68891A1A48F4
S31502003A1001601D48006881423CBF1B48016042F0BC
S31502003A2000425A6000221A60184A13680133136072
S31502003A3001F014F815F0070F06D0012383F310885E
S31502003A40FEE701F00BF80025284670BD00F02CFFBA
S31502003A50084B1B68002BF4D10024094A12F0070F09
S31502003A6081D0D11D21F0070102F5F032531A0A4620
S31502003A707BE700BF88DD022284DD02228CDD022282
S31502003A8094DD022293BD042280DD02227CDD022225
S31502003A90002863D038B50546A0F10804304B9C4295
S31502003AA00AD3304B9C4207D850F8043C002B07DB64
S31502003AB0012383F31088FEE7012383F31088FEE7D0
S31502003AC050F8082C1AB1012383F31088FEE723F07D
S31502003AD0004340F8043C00F0E7FE55F8041C224A75
S31502003AE013680B441360214B1A461B689C42FBD891
S31502003AF01E48824209D01A48824202D3194882429B
S31502003B0003D9012383F31088FEE7506802EB000C09
S31502003B10644510D055F8040C25181946AB4213D04B
S31502003B202160A24218BF1460114A13680133136060
S31502003B3000F094FF38BD01445160084611448B429F
S31502003B4001D01360F0E714460A4909688B42E7D0B0
S31502003B505B680344636013681968E1E7704700BF56
S31502003B6094DD022293BD042284DD02228CDD022230
S31502003B7078DD022288DD022200F1080343604FF05D
S31502003B80FF328260C3600361002303607047002333
S31502003B900361704743684B609A688A605160996016
S31502003BA00861036801330360704730B40D68B5F1EC
S31502003BB0FF3F11D000F108031C465B681A68AA424F
S31502003BC0FAD963684B6099608C606160086103682A
S31502003BD00133036030BC70470469F2E70369416848
S31502003BE082688A60416851605A68824204BF82686C
S31502003BF05A6000220261186801381860704710B5D1
S31502003C000446FFF719FEA46BFFF734FEB4FA84F0FC
S31502003C10400910BD70B504461646856B026C5AB94A
S31502003C2003681BB100200135A56370BD806801F0F1
S31502003C30F5F90023A360F6E76EB9406808F020FDA7
S31502003C406368226C13446360A26830469342EAD3E7
S31502003C5023686360E7E7C06808F012FD226C5142F0
S31502003C60E3689B1AE3602268934202D2A3680B447C
S31502003C70E360022E01D00020D5E715B1013D0020F8
S31502003C80D1E70020CFE70346026C6AB110B50846B9
S31502003C90D9681144D9609C68A14224BF1968D960C9
S31502003CA0D96808F0EDFC10BD704770B50546FFF700
S31502003CB0C3FD95F8454064B2002C0FDD05F12406DC
S31502003CC002E0013C64B24CB16B6A3BB1304601F092
S31502003CD0D7F80028F5D001F08BF9F2E7FF2385F833
S31502003CE04530FFF7C7FDFFF7A7FD95F8444064B2DC
S31502003CF0002C0FDD05F1100602E0013C64B24CB166
S31502003D002B693BB1304601F0BBF80028F5D001F033
S31502003D106FF9F2E7FF2385F84430FFF7ABFD70BD7C
S31502003D2038B558B10D460446C36B1BB1026CA2FBF3
S31502003D3003233BB1012383F31088FEE7012383F3B8
S31502003D401088FEE7FFF778FD2268216CE36B01FB22
S31502003D5003F3D018A0600020A06362605B1A1A44C5
S31502003D60E260FF2384F8443084F84530A5B923691C
S31502003D701BB9FFF77FFD012038BD04F1100001F0E9
S31502003D807FF80028F5D0094B4FF080525A60BFF3F6
S31502003D904F8FBFF36F8FECE704F11000FFF7ECFED5
S31502003DA004F12400FFF7E8FEE3E700BF00ED00E0C0
S31502003DB04BB110B582B01C4608B142B119BB012302
S31502003DC083F31088FEE7012383F31088FEE70029B8
S31502003DD0F5D150230193019B502B19D1019B224609
S31502003DE0012384F846302260E063216419462046A6
S31502003DF0FFF796FF9DF8103084F84C30204602B04B
S31502003E0010BD019BECE750230193019B502BF8D088
S31502003E10012383F31088FEE7F8B550B10D46144628
S31502003E200646A1FB002323B901FB00F010F1510F56
S31502003E3003D9012383F31088FEE75030FFF768FDAC
S31502003E40074678B1002380F8463000F15003002D72
S31502003E5008BF03460360C66305640121FFF760FFDE
S31502003E6087F84C403846F8BD2DE9F04784B00192F8
S31502003E7060B10E461D46044661B1022D11D1E36BB7
S31502003E80012B0ED0012383F31088FEE7012383F36F
S31502003E901088FEE7036C002BEFD0012383F3108812
S31502003EA0FEE701F0ABF8814628B9019B2BB101234D
S31502003EB083F31088FEE74FF000090027DFF80C8134
S31502003EC033E02A4631462046FFF7A4FE636A73B9F9
S31502003ED038B13E4B4FF080525A60BFF34F8FBFF35B
S31502003EE06F8FFFF7C7FC012004B0BDE8F08704F12D
S31502003EF0240000F0C5FF0028F3D0344B4FF0805267
S31502003F005A60BFF34F8FBFF36F8FEAE7FFF7B2FC3A
S31502003F100020E9E702A801F025F814E02046FFF7A1
S31502003F20C4FE00F09BFD4FF00109FFF785FCA26B72
S31502003F30E36B9A42C5D3022DC3D0019B002BE5D079
S31502003F40B9F1000FE6D0FFF795FC00F0ADFCFFF7E4
S31502003F5073FC94F8442052B2B2F1FF3F08BF84F8D2
S31502003F60447094F8452052B2B2F1FF3F08BF84F87C
S31502003F704570FFF77FFC01A902A800F0FFFFF0B928
S31502003F80FFF75AFCD4F838A0D4F83C90FFF772FC3D
S31502003F90CA45C3D1019904F1100000F037FF20464B
S31502003FA0FFF783FE00F05AFD0028BCD14FF0805384
S31502003FB0C8F80430BFF34F8FBFF36F8FB3E72046C5
S31502003FC0FFF773FE00F04AFD00208DE700ED00E0EA
S31502003FD02DE9F04385B0019260B10D46044669B100
S31502003FE001F00CF8814680B9019B83B1012383F36A
S31502003FF01088FEE7012383F31088FEE7036C002B8B
S31502004000EED0012383F31088FEE74FF00009002665
S31502004010DFF8FC8036E029462046FFF734FE7B1E99
S31502004020A36323692BB9FFF725FC012005B0BDE880
S31502004030F08304F1100000F023FF0028F3D0344B84
S315020040404FF080525A60BFF34F8FBFF36F8FEAE78C
S31502004050FFF710FC0020E9E702A800F083FF1CE04E
S315020040602046FFF722FE00F0F9FC09E02046FFF7A2
S315020040701CFE00F0F3FC2046FFF7C1FD002844D1E8
S315020040804FF00109FFF7D8FBA76B002FC3D1019BA5
S31502004090002BDDD0B9F1000FDED0FFF7EBFB00F00D
S315020040A003FCFFF7C9FB94F844305BB2B3F1FF3F60
S315020040B008BF84F8446094F845305BB2B3F1FF3F21
S315020040C008BF84F84560FFF7D5FB01A902A800F0F6
S315020040D055FF0028CAD12046FFF791FD0028BFD020
S315020040E0019904F1240000F091FE2046FFF7DDFD60
S315020040F000F0B4FC0028C3D14FF08053C8F8043056
S31502004100BFF34F8FBFF36F8FBAE700208EE700BF72
S3150200411000ED00E038B130B50446F9B1104B00208D
S31502004120844608220CE0012383F31088FEE70C483C
S3150200413000EBCC0010E00CF1010C0833013A0AD076
S315020041409E465D68A542F2D00028F4D11D68002D76
S3150200415008BF1846EFE708B10160446030BD00BFF2
S3150200416094BD0422844650B100230B48082250F81D
S315020041703310614507D00133013AF8D17047012364
S3150200418083F31088FEE7054A002142F8331002EB5A
S31502004190C3025160704700BF98BD042294BD042239
S315020041A038B110B50446FFF7DDFF94F8463023B167
S315020041B010BD012383F31088FEE72046FFF768FC53
S315020041C0F6E770B504460D461646FFF735FB94F83A
S315020041D044305BB2B3F1FF3F04BF002384F844309E
S315020041E094F845305BB2B3F1FF3F04BF002384F875
S315020041F04530FFF73FFBA36B1BB12046FFF755FD8A
S3150200420070BD3246294604F1240000F013FEF4E79D
S3150200421028B14169134A914205D000207047012313
S3150200422083F31088FEE7826A0F498A4213D00AB1E5
S315020042300020704790F87420D2B2012A0DD090F86F
S315020042407520D2B2012A0AD090F87600C0B201389F
S3150200425018BF0120704700207047002070470020D9
S31502004260704700BF00BE04222CBE04220368FBB1C5
S3150200427070B50D4600F10806C468A64205D10020B5
S3150200428015E0A0B96468A64210D0E06800F1330ECA
S3150200429005F1FF3C20221EF9013F1CF9011F99423C
S315020042A0F0D1002BEDD0013AF5D1EBE7002070BD3D
S315020042B000207047074B1B681B6823B9064B4FF05B
S315020042C0FF321A607047034B1B68DB681A68024BA1
S315020042D01A60704744BE0422DCBD04222DE9F8436D
S315020042E0074689469846089E0A9C95002A46A521B5
S315020042F0206B08F01FF9043D236B2B4423F00705BE
S315020043006565B9F1000F10D009F1FF3104F13303ED
S315020043104FF0200C11F9012F03F8012F12B1BCF155
S31502004320010CF7D1002384F85330372E03D9012329
S3150200433083F31088FEE7E6622666201DFFF727FC58
S3150200434004F11800FFF723FC2461C6F13806A661C2
S31502004350646243463A46216B2846FFF753FA2060C9
S31502004360099B03B11C60BDE8F883000070B50546E1
S31502004370FFF762FA364A136801331360354B1B683E
S31502004380002B41D0344B1B683BB9324B1B68DA6AAF
S31502004390EB6A9A429CBF2F4B1D60304A1368013369
S315020043A01360AB65EB6A2E4A1268934284BF2C4AAD
S315020043B013602C4A03EB830302EB83035B68AB6057
S315020043C09868E860291D41609960EB6A03EB8301F6
S315020043D002EB8100686152F82130013342F8213044
S315020043E0FFF748FA1C4B1B686BB11A4B1B68DA6A5B
S315020043F0EB6A9A4207D21C4B4FF080525A60BFF3C7
S315020044004F8FBFF36F8F70BD124B1D601368012B68
S31502004410C3D1144C04F58C662046FFF7ADFB143469
S31502004420B442F9D1114E3046FFF7A6FB104C204696
S31502004430FFF7A2FB0F48FFF79FFB0F48FFF79CFB16
S315020044400E48FFF799FB0E4B1E600E4B1C60A4E74D
S31502004450FCBD0422D0C20422F0BD0422E0BD042227
S31502004460F4BD042270BE042200ED00E05CBE04220C
S3150200447048BE04222CBE042218BE042200BE042218
S3150200448044BE042240BE042210B5044690F877309A
S315020044903BB1012B0CD0022B09D0012383F31088E8
S315020044A0FEE7006BFFF7F4FA2046FFF7F1FA10BDBC
S315020044B0FFF7EEFAFBE70000F8B50E4B1B68BBB13F
S315020044C00D4F0E4E0B4CFFF7B7F9FB68DD68281D42
S315020044D0FFF784FB3368013B33602368013B2360AB
S315020044E0FFF7C8F92846FFF7CFFF2368002BEAD16A
S315020044F0F8BD00BF14BE042218BE0422FCBD04226D
S3150200450008B5074C074E4FF08055FFF7D5FF2368D5
S31502004510012BFAD97560BFF34F8FBFF36F8FF4E7A4
S3150200452070BE042200ED00E02DE9F04104460E467D
S31502004530264B1D68264B1F68264BD3F80080264B58
S3150200454018680430FFF74AFBB4F1FF3F0DD02C4444
S31502004550214B1B685C60A5421CD91F4B19680431AC
S315020045604046FFF722FBBDE8F08106B31B4A5168BD
S31502004570194B1868816018688C68C4601868043022
S3150200458060601868043088601B685A6113680133DA
S315020045901360E8E7104B196804313846FFF705FB4C
S315020045A00F4B1B68A342DED90D4B1C60DBE76B1E6B
S315020045B0094A126853609D42CFD8074B19680431E5
S315020045C03846FFF7F2FA064B1B68CCE7F8BD042221
S315020045D044BE042240BE0422D0C2042200BE0422EB
S315020045E0DCBD04222DE9F04186B00D460D9E002168
S315020045F005916EB1044690461F460E9B63B1782321
S315020046000493049B782B0BD0012383F31088FEE7D7
S31502004610012383F31088FEE7012383F31088FEE764
S31502004620049B782200210E9807F084FF0E9B1E63DE
S3150200463002230E9A82F8773000230393029205AB87
S3150200464001930C9B00933B46424629462046FFF7C0
S3150200465045FE0E98FFF78AFE059806B0BDE8F08182
S315020046602DE9F04385B005460E461446984690005D
S31502004670FFF74EF910B381467820FFF749F907464E
S31502004680C8B17822002107F055FFC7F83090002301
S31502004690039302970D9B01930C9B0093434622467C
S315020046A031462846FFF71AFE3846FFF75FFE01201D
S315020046B005B0BDE8F0834846FFF7EAF94FF0FF3050
S315020046C0F6E7000038B50446FFF7B6F83CB3251DF9
S315020046D02846FFF783FAA36A1BB104F11800FFF715
S315020046E07DFA1E4A1368013313601D4B1A681D4B6F
S315020046F01B680BB1A24215D01B4A1368013B13601B
S31502004700FFF7D8FDFFF7B6F82046FFF7BDFE154BBB
S315020047101B681BB1124B1B68A3420ED038BD104B4F
S315020047201C68D4E729461148FFF734FA104A136881
S3150200473001331360FFF79EF8E9E70E4B1B681BB1C6
S31502004740012383F31088FEE70B4B4FF080525A6029
S31502004750BFF34F8FBFF36F8FE0E700BFE0BD0422C8
S31502004760D0C20422F0BD0422FCBD042218BE0422DB
S3150200477014BE0422D4BD042200ED00E038B568B1AF
S315020047800446204B1B68834207D0FFF755F82046A4
S31502004790FFF73EFD30B9FFF76DF838BD012383F30D
S315020047A01088FEE7251D2846FFF718FAE36A164A1F
S315020047B01268934284BF144A1360144A03EB8303BC
S315020047C002EB83035B68A3609968E1604D609D60BC
S315020047D0E36A03EB830102EB8100606152F8213048
S315020047E0013342F82130074B1B68DA6AE36A9A42C0
S315020047F0D1D2074B4FF080525A60BFF34F8FBFF3AF
S315020048006F8FC8E7D0C20422F4BD042270BE042210
S3150200481000ED00E010B590B01C4908AA11F9013B61
S3150200482002F8013B002BF9D100240594069407AA4D
S3150200483006A905A800F0F6FE059B0293069B0193C6
S3150200484000942346079A08A91148FFF7CBFE114B9D
S315020048501860B8B100F0B8FE012806D0B0F1FF3FEB
S3150200486010D1012383F31088FEE7012383F3108816
S31502004870094A4FF0FF311160084A1360084B1C6069
S31502004880FFF728F8074B1B6810B010BD94EE000224
S3150200489001450002D8BD0422DCBD0422F0BD04227B
S315020048A0F8BD0422C03D0102024A136801331360B7
S315020048B0704700BFD4BD0422014B1868704700BF81
S315020048C0F8BD04225A4B1B68002B40F0AB802DE941
S315020048D0F047584B1C6801341C609CB9564B1B6848
S315020048E01B681BB1012383F31088FEE7524A116845
S315020048F0524B186810601960514A136801331360ED
S31502004900FFF7D8FC4F4B1B68A34278D84A4B1B686B
S315020049101B684BB10020DFF820C10546DFF838E1FD
S31502004920494ADFF828A134E00020464B4FF0FF3217
S315020049301A6065E0434B196062E0D96ADEF80080CE
S31502004940414588BFCEF8001001EB810102EB8101DF
S3150200495049689960D1F80880C3F80C80C8F80470D9
S315020049608F60D96A01EB810702EB8708C3F81480CE
S3150200497052F82710013142F82710DAF80070D96A86
S31502004980FB6A994288BF0120DCF800301B68002BC5
S31502004990CBD0DCF80030DB68DB6859688C42C9D3BF
S315020049A0D3F814809968DF688F60996879601F1D53
S315020049B0D8F80410B94204BFD968C8F804105D617A
S315020049C0D8F800100139C8F80010D3F82880B8F1D9
S315020049D0000FB2D0196ADE69B160DE694E6003F17A
S315020049E01809D8F80410494504BF196AC8F8041012
S315020049F09D62D8F800100139C8F800109DE7002022
S31502004A00124B1B68DB6A03EB83030F4A52F823300F
S31502004A10022B28BF01200E4B1B68002B18BF01205A
S31502004A20BDE8F0870B4A1368013313600020704714
S31502004A30D4BD0422F8BD042244BE042240BE042290
S31502004A40E4BD0422DCBD042270BE0422D0C20422CC
S31502004A50E8BD0422ECBD0422F4BD04222DE9F8438C
S31502004A60FEF7EAFE4D4B1B681BB9012383F3108840
S31502004A70FEE74A4B1A68013A1A601B68002B40F09F
S31502004A808480474B1B68002B00F08580454B1B68D2
S31502004A90002B5AD0DFF80CC10020DFF820E1424A91
S31502004AA0424C434E4FF00109DCF80C30DB689F6A3A
S31502004AB0196ADD69A960DD694D6003F11808796834
S31502004AC0414504BF196A79609862396801393960CB
S31502004AD05F69D9689D68A9609D684D6003F1040805
S31502004AE07968414504BFD9687960586139680139E6
S31502004AF03960D96ADEF80070B94288BFCEF8001074
S31502004B0001EB810102EB8101496899608F68DF60E0
S31502004B10C7F80480C1F80880D96A01EB810702EB65
S31502004B208708C3F8148052F82710013142F827107B
S31502004B302768D96AFB6A994288BFC6F80090DCF8F2
S31502004B400030002BB0D1FFF7B5FB1A4B1C686CB1D5
S31502004B50174E012501E0013C05D0FFF7B3FE002800
S31502004B60F9D03560F7E7134B00221A60104B1C6828
S31502004B7064B10E4B1B68104B4FF080525A60BFF364
S31502004B804F8FBFF36F8F012400E00024FEF772FE01
S31502004B902046BDE8F8830024F8E700BFD4BD04220E
S31502004BA0FCBD04222CBE042270BE0422D0C2042202
S31502004BB0E8BD0422ECBD042200ED00E0F4BD0422AF
S31502004BC010B540B90E4B4FF080525A60BFF34F8F6B
S31502004BD0BFF36F8F10BD0446FFF766FE094B1B68D5
S31502004BE0012B03D0012383F31088FEE70021204620
S31502004BF0FFF79AFCFFF732FF0028EBD1E2E700BF8E
S31502004C0000ED00E0D4BD0422F8B5054607F045FDE7
S31502004C101F2803D9012383F31088FEE7FFF744FE1A
S31502004C20174CA4F24C4700E01C4629462046FFF7E3
S31502004C301DFB064650B9A4F11403BC42F4D1114B34
S31502004C4018682946FFF712FB064618B1FFF706FF5A
S31502004C503046F8BD0C4B18682946FFF707FB064697
S31502004C600028F3D129460948FFF700FB064600282B
S31502004C70ECD129460648FFF7F9FA0646E6E700BFF1
S31502004C80BCC2042244BE042240BE042200BE042248
S31502004C9018BE0422224B1B681BB1224B01221A604A
S31502004CA07047204B00221A601F4B1B6803EB8301DF
S31502004CB01E4A52F821208AB963B103EB83011B4ACB
S31502004CC002EB81021946013B52F8140C30B9143A30
S31502004CD00139F8D1012383F31088FEE7134A03EB67
S31502004CE0830102EB810148684068486003EB830157
S31502004CF002EB8102083290420CD003EB83010B4A8D
S31502004D0002EB81025268D168094A116006490B60BA
S31502004D1013687047054A02EB8102D1685160ECE7DD
S31502004D20D4BD0422E8BD0422F4BD042270BE0422CE
S31502004D30D0C2042238B50446FEF77EFD7CB3251D9B
S31502004D402846FEF74BFFA36A1BB104F11800FEF7D3
S31502004D5045FF29462748FEF71DFF94F87430DBB25B
S31502004D60012B04BF002384F8743094F87530DBB24B
S31502004D70012B04BF002384F8753094F87630DBB239
S31502004D80012B04BF002384F87630FEF773FD1A4B1D
S31502004D901B683BB9194B1B68A3420AD038BD174B97
S31502004DA01C68CCE7FEF748FDFFF784FAFEF762FDC2
S31502004DB0F0E7114B1B687BB1114B1B681BB101233A
S31502004DC083F31088FEE70F4B4FF080525A60BFF311
S31502004DD04F8FBFF36F8FE1E70B4B1A68054B1B68CA
S31502004DE09A4203D1054B00221A60D7E7FFF752FF1A
S31502004DF0D4E700BF00BE0422F0BD0422D0C20422C2
S31502004E00D4BD042200ED00E0FCBD042258B110B569
S31502004E100C46074A11681831FEF7C7FE01212046E3
S31502004E20FFF782FB10BD012383F31088FEE700BF64
S31502004E30D0C2042238B5E0B18C4611460546426816
S31502004E400E4B1868C26118689468046218681830B4
S31502004E5060601868183090601B689D622B68013389
S31502004E602B6000290CBF60464FF0FF30FFF75CFB5A
S31502004E7038BD012383F31088FEE700BFD0C20422A7
S31502004E80C368DB68002B51D010B49A6AD869196AD4
S31502004E908160D869486003F118005168814204BFF5
S31502004EA0196A516000219962116801391160274A15
S31502004EB01268002A3ED15A699868D9688160986852
S31502004EC04860181D5168814204BFD96851600021AB
S31502004ED05961116801391160DA6A1D4909688A4205
S31502004EE084BF1B490A601B4902EB820201EB820264
S31502004EF052689A609468DC6060609060DA6A02EBDD
S31502004F00820001EB80045C6151F82020013241F8F5
S31502004F102020114A1168DA6ACB6A9A4283BF0120BD
S31502004F200E4B186000205DF8044B7047012383F393
S31502004F301088FEE70A4A5168D9618C681C62606073
S31502004F4088609A62116801311160E2E7D4BD0422D9
S31502004F50F4BD042270BE0422D0C20422E8BD04229B
S31502004F602CBE0422034B1B680360034B1B68436081
S31502004F70704700BFE4BD0422F8BD0422B8B170B583
S31502004F800C460546B9B1FEF757FC174B1A6823685B
S31502004F90B3F1FF3F22D06968144800682E68864242
S31502004FA00DD091420BD800232360012417E0012380
S31502004FB083F31088FEE7012383F31088FEE7501A75
S31502004FC0834203D800232360012408E09B1A0B4482
S31502004FD023602846FFF7C6FF002400E00024FEF700
S31502004FE049FC204670BD00BFF8BD0422E4BD042280
S31502004FF0014B01221A607047E8BD0422054B1B686B
S3150200500033B1054B1868B0FA80F04009400070478A
S3150200501001207047F0BD0422D4BD042200283FD0EF
S3150200502038B50446204B1B68834203D0012383F321
S315020050301088FEE7436E1BB9012383F31088FEE74F
S31502005040013B4366C16A026E91422BD00BB100202E
S3150200505038BD051D2846FEF7C1FD236EE362C3F186
S315020050603802A261114A1268934284BF0F4A136042
S315020050700F4A03EB830302EB83035B68A360996821
S31502005080E1604D609D60E36A03EB830102EB810000
S31502005090606152F82130013342F821300120D7E70E
S315020050A0002070470020D3E7D0C20422F4BD0422B8
S315020050B070BE0422F8B5022803D9012383F31088AF
S315020050C0FEE704460E4617461D46FFF7EDFBFEF7C2
S315020050D0B3FB2C4B1B68234493F87430DBB2022BD0
S315020050E02FD028490B6803EB84039A6E22EA060244
S315020050F09A660B682344012283F87420069B1BBB25
S31502005100FEF7B8FBFFF7AAFCFEF796FB35B11D4B7F
S315020051101B6804F11A0253F822302B60194B1B68E4
S31502005120234493F87430DBB2022B20D00025154BB2
S315020051301B682344002283F87420FEF79BFB284653
S31502005140F8BDFEF797FBDDE7FEF794FB0121069813
S31502005150FFF7EAF9FFF782FC0028D5D10A4B4FF098
S3150200516080525A60BFF34F8FBFF36F8FCCE7054B68
S315020051701B6803EB84039A6E22EA07029A660125EC
S31502005180D5E700BFD0C2042200ED00E0F8B502293F
S3150200519003D9012383F31088FEE707460C46164619
S315020051A01D46B8B1FEF748FB069B2BB104F11A0364
S315020051B057F82330069A13603A1992F87430DBB224
S315020051C0022182F87410042D24D8DFE805F00C07BA
S315020051D013191D00012383F31088FEE707EB8404ED
S315020051E0A26E3243A266012B1CD00124FEF742FBBB
S315020051F02046F8BD07EB8404A26E0132A266F2E7EE
S315020052001A3447F82460EEE7022B4FD01A3447F8D7
S315020052102460E8E7274A1268002AE4D0012383F3D0
S315020052201088FEE77B69B968FA688A60B9685160D6
S31502005230391D5A688A4204BFFA685A6000227A61A6
S315020052401A68013A1A60FB6A1B4A1268934284BFC3
S31502005250194A1360194A03EB830302EB83035B6863
S31502005260BB609868F86041609960FB6A03EB830152
S3150200527002EB8100786152F82130013342F8213085
S31502005280BB6A1BB1012383F31088FEE70C4B1B6834
S31502005290DA6AFB6A9A420BD20A4B4FF080525A6084
S315020052A0BFF34F8FBFF36F8F01249FE700249DE763
S315020052B001249BE7F8BD0422F4BD042270BE042239
S315020052C0D0C2042200ED00E008B5416000619142BF
S315020052D00CD8D21A83699A4201D3012008BD011D56
S315020052E0094B1868FEF761FC0020F7E79A4201D2E3
S315020052F0994206D2011D054B1868FEF756FC00209E
S31502005300ECE70120EAE700BFD0C30422D4C304229B
S3150200531070B504460D46164604E0A3691D44236A89
S3150200532020469847A1692B46324629442046FFF774
S31502005330CBFF0028F1D170BD70B505460E460D4B68
S315020053401B68DB68DC68201DFEF748FC94F82830F1
S3150200535013F0040F07D123F0010384F82830236ADF
S315020053602046984770BD324629462046FFF7D0FFB1
S31502005370F5E700BFD4C30422F8B50546FFF79CFA49
S315020053800446104B1B68834205D800232B600D4B45
S315020053901C602046F8BD0C4B1B681A685AB14FF0C8
S315020053A0FF37094EDB6839461868FFF7C5FF3368D1
S315020053B01A68002AF6D1054A106803490860136084
S315020053C00123E3E7C4C30422D4C30422D0C30422C4
S315020053D02DE9F04186B05C4E5C4D33681F68002FA4
S315020053E000F09080DB681F68FFF75EFA02A8FFF7FD
S315020053F0C3FF0446029A4AB9874200F29380FFF736
S315020054002DFB21463846FFF797FF01E0FFF726FB03
S31502005410002302930393049305931C4606E0059921
S315020054200498039B9847029B002B09DA224602A99D
S315020054302868FEF7CDFD0028CFD0029B002BEEDBBD
S31502005440049F7B6913B1381DFEF7C8FB01A8FFF75D
S3150200545093FF8046029B013B082BE7D8DFE803F067
S315020054600505293044050529300097F8283043F010
S31502005470010387F82830039BB96902461944384666
S31502005480FFF722FF0028D1D097F8283013F0040F37
S3150200549007D123F0010387F828303B6A384698473C
S315020054A0C4E7BB694246039919443846FFF730FF01
S315020054B0F3E797F8283023F0010387F82830B5E799
S315020054C097F8283043F0010387F828300399B96129
S315020054D031B10346024601443846FFF7F5FEA5E719
S315020054E0012383F31088FEE797F8283013F0020FA2
S315020054F004D023F0010387F8283097E73846FEF7F1
