S01D000041726D53796E635F536F6C7574696F6E5F435055302E7372656317
S31502000000E00102220D3600029D340002093600028A
S3150200001009360002093600020936000209360002D4
S315020000200000000000000000000000000D060002B3
S315020000300936000200000000250600028D060002B5
S315020000400D2F0002E12900023D290002752A000255
S31502000050C12A0002E12900023D290002752A000296
S30902000060C12A0002A7
S31502000064000000001040000010400000454000025D
S315020000745552000243000000000000000000000088
S315020000840000000000000000000000000000000064
S315020000940000000043000000000000000000000011
S315020000A40000000000000000000000000000000044
S315020000B400000000430000000000000000000000F1
S315020000C40000000000000000000000000000000024
S315020000D400000000430000000000000000000000D1
S315020000E40000000000000000000000000000000004
S315020000F400000000430000000000000000000000B1
S3150200010400000000000000000000000000000000E3
S315020001140000000043000000000000000000000090
S3150200012400000000000000000000000000000000C3
S315020001340000000043000000000000000000000070
S3150200014400000000000000000000000000000000A3
S3150200015400000000E77200025B6900020000000072
S3150200016450870002D0840002CE850002CE850002AA
S31502000174CE850002CE850002CE850002CE8500021F
S31502000184CE850002CE850002CE850002FFFFFFFF68
S31502000194FFFFFFFFFFFFFFFFFFFF000001004153C8
S315020001A4434949000000000000000000000000006E
S315020001B4000000000000000000000000000041539F
S315020001C4434949000000000000000000000000004E
S315020001D40000000000000000000000000000000013
S315020001E48401002200000000340503229C05032238
S315020001F404060322000000000000000000000000C4
S3150200020400000000000000000000000000000000E2
S3150200021400000000000000000000000000000000D2
S3150200022400000000000000000000000000000000C2
S315020002380348044B834202D0034B03B11847704765
S31502000248D0010022D001002200000000064B074917
S31502000258C91A891048BF0131491003D0044B0BB1A2
S3150200026801481847704700BFD0010022D00100227A
S315020002780000000010B5064C237843B9FFF7D8FFF3
S31502000288044B13B10448AFF300800123237010BD59
S315020002980C0202220000000028F1C90208B5054B2B
S315020002A81BB105490548AFF30080BDE80840FFF7D2
S315020002B8CDBF00BF000000001002022228F1C902C9
S315020002C80160027143719DF800308371704710B561
S315020002D80446006808B102F017F9204610BD00006E
S315020002E830B5ADF5057D04460D460379BBB9002048
S315020002F8C0F5FF720132294604AB184405F00CFF1B
S3150200030800238DF80F3204A805F08DFF02462368F4
S3150200031804A9186802F045F80DF5057D30BD134BA2
S315020003281968134AA2FB01329209124BA3FB020374
S31502000338DB0A4FF47A7000FB121102910E48A0FBF9
S3150200034802C14909C1EB0111A2EB810101914FF4E6
S31502000358616101FB1322A0FB020252090092074ABD
S315020003684FF4007104A805F04FFEC1E728020222E5
S31502000378D34D6210C5B3A29189888888C47D0002CC
S315020003880EB410B5ADF50D7D04468FAB53F8042BAC
S315020003984B934FF480714CA805F096FE6379002BB7
S315020003A84CAB0093094A0A4B08BF1346094A4FF455
S315020003B8907103A805F028FE03A92046FFF790FFCF
S315020003C80DF50D7DBDE8104003B07047307E000282
S315020003D81C7E0002147E00020EB410B5ADF50D7D2A
S315020003E804468FAB53F8042B4B934FF480714CA8F9
S315020003F805F06AFE6379002B4CAB0093094A0A4B57
S3150200040808BF1346094A4FF4907103A805F0FCFD8C
S3150200041803A92046FFF764FF0DF50D7DBDE81040E0
S3150200042803B07047507E0002387E0002147E000236
S315020004382DE9F04FABB0019043494448FFF7CCFF92
S31502000448434D002651E0013969D001340EF8010BFB
S315020004580A2864D02A6972B1EB6818F803000133D6
S31502000468B3FBF7F907FB1933EB60013A2A61002A55
S31502000478E9D12E75E7E704F1A8036B4403F8806C0B
S315020004882E757CB352E08AED000A09F10109E4B23D
S315020004980D2C24D9404600F801BB0AF1040AB9F129
S315020004A8080F2DD090F9004080464CB12C2C07D06D
S315020004B80A2C05D00D2C03D018F9014F002CF5D1C2
S315020004C888F80060314605F043FDB9F1050FDADC1C
S315020004D88AED000A09F10109E4B20D2C19D8B9F11D
S315020004E8050F0DDC022001F02FFA2B7D002BF9D027
S315020004F8D5F800806F680DF1280E00248021A9E73F
S31502000508019B18693346324602A9006800F00EFCC0
S31502000518E8E7404600F801BB0AF1040AC2E704F11B
S31502000528A8030DEB030404F8806C2E7520223146CD
S3150200053802A805F0D7FD0DF1080A0AA84FF000092E
S315020005484FF02C0BAEE700BF587E000210FD0222C8
S315020005582C02022210B5044601F072F8A060236844
S315020005685B682046984710BD0379042B00D0704774
S31502000578017A0D4B1A695B689A420ED20A4B1868C1
S315020005889A6881549A6801325868B2FBF0FC00FBFB
S315020005981C229A601A6901321A610A29E7D1024BAA
S315020005A801221A75E3E700BF2C020222054B064A0E
S315020005B81A604FF480625A6000229A60DA601A6101
S315020005C81A7570472C0202224402022210B50A2426
S315020005D8204601F0B9F9FBE7F8B50024074F4FF4B6
S315020005E885764FF4FA7584F0010422463146384678
S315020005F802F0A4FA284601F0A7F9F4E7F803032261
S3150200060800BEFEE71EF0040F0CBFEFF30880EFF3FF
S315020006180980014908470000B10600020F4B196814
S31502000628EFF309821EF0100F08BF22ED108A22E9A5
S31502000638F04FEFF30B8342F8043D0A604FF01000C7
S3150200064880F31188BFF34F8FBFF36F8F01F0A0F9C4
S315020006584FF0000080F3118800F002B8A4FB0222D2
S31502000668074801680A6802CA81F30B88B2E8F04FA4
S315020006781EF0100F08BFB2EC108A82F30988704781
S31502000688A4FB022210B5EFF31184102383F3118819
S3150200069800F0DCFF18B1034B4FF080525A6084F326
S315020006A8118810BD00ED00E008B5836913F8023C15
S315020006B8022B05D0032B05D9012383F31088FEE705
S315020006C8FFF7CEFF08BD000010B44FF0807440F863
S315020006D8044C22F0010240F8082C074A40F80C2C78
S315020006E840F8203C6FF0020340F8243C283140F8D9
S315020006F8481D5DF8044B704709060002EFF31181A5
S31502000708102383F31188094A136801331360012BF6
S3150200071800D07047064B1960064B5B68C3F30803A3
S31502000728002BF6D0012383F31088FEE7480602223F
S315020007384406022200ED00E0074B1B681BB90123A1
S3150200074883F31088FEE7013B034A13601BB9034B88
S315020007581B6883F311887047480602224406022260
S315020007680A4B1B680A4AA2FB03239B09013BB3F106
S31502000778807F0AD24FF0E0225361064BF02183F8BC
S315020007882310002393610723136170471C05032274
S31502000798D34D621000ED00E008B50C4BF02283F849
S315020007A82220FFF7DDFF0A4A536B43F040435363A7
S315020007B862B6BFF36F8FEFF3148C2CF0040C8CF334
S315020007C81488BFF36F8F02DF00BEFDE700ED00E07D
S315020007D800EF00E070B5431E13F10A0F00F298808D
S315020007E800F1080410F0070306D0A3F10902A24299
S315020007F8C0F08E801030C41A00F01AFF4E4B1B68E8
S31502000808002B00F08C80002C7DDD4C4B1968A14230
S3150200081879D34B4B1B684B4A934202D34A4A9342BB
S315020008281DD9012383F31088FEE74FF47043444829
S315020008380260002141601344083B23F007033E4847
S31502000848036059601960991A516013603F4B196029
S315020008583A4B1960D7E7012383F31088FEE7384E2F
S315020008683848394D5A68A24208D21A6832B18242C9
S31502000878F1D31E46AA42EED81346F3E72E4A126869
S315020008889A4240D0356808352E4A954202D32E4AF6
S31502000898954203D9012383F31088FEE71A6832606A
S315020008A85A68A2420AD3121B102A10D9181910F034
S315020008B8070F07D0012383F31088FEE7012383F38A
S315020008C81088FEE742605C6032681A5130605A68E6
S315020008D8891A1A4801601D48006881423CBF1B48B4
S315020008E8016042F000425A6000221A60184A1368F0
S315020008F80133136000F076FF15F0070F06D00123C7
S3150200090883F31088FEE700F06DFF0025284670BDC8
S3150200091800F08EFE084B1B68002BF4D10024094A0E
S3150200092812F0070F81D0D11D21F0070102F570429E
S31502000938531A0A467BE700BF5C06022258060222C1
S31502000948600602226806022267F60222540602227C
S3150200095850060222002863D038B50546A0F10804DD
S31502000968304B9C420AD3304B9C4207D850F8043C81
S31502000978002B07DB012383F31088FEE7012383F3A9
S315020009881088FEE750F8082C1AB1012383F3108861
S31502000998FEE723F0004340F8043C00F049FE55F810
S315020009A8041C224A13680B441360214B1A461B681F
S315020009B89C42FBD81E48824209D01A48824202D378
S315020009C81948824203D9012383F31088FEE7506847
S315020009D802EB000C644510D055F8040C251819468C
S315020009E8AB4213D02160A24218BF1460114A1368A1
S315020009F80133136000F0F6FE38BD01445160084623
S31502000A0811448B4201D01360F0E714460A4909687B
S31502000A188B42E7D05B680344636013681968E1E7B1
S31502000A28704700BF6806022267F6022258060222AB
S31502000A38600602224C0602225C06022200F1080324
S31502000A4843604FF0FF328260C36003610023036094
S31502000A58704700230361704743684B609A688A604F
S31502000A68516099600861036801330360704730B4C6
S31502000A780D68B5F1FF3F11D000F108031C465B680B
S31502000A881A68AA42FAD963684B6099608C606160F9
S31502000A98086103680133036030BC70470469F2E7F2
S31502000AA80369416882688A60416851605A6882426D
S31502000AB804BF82685A600022026118680138186009
S31502000AC8704710B50446FFF719FEA46BFFF734FE0C
S31502000AD8B4FA84F0400910BD70B504461646856B13
S31502000AE8026C5AB903681BB100200135A56370BDB3
S31502000AF8806801F0A5F80023A360F6E76EB940689E
S31502000B0805F084FB6368226C13446360A26830466E
S31502000B189342EAD323686360E7E7C06805F076FB89
S31502000B28226C5142E3689B1AE3602268934202D21E
S31502000B38A3680B44E360022E01D00020D5E715B165
S31502000B48013D0020D1E70020CFE70346026C6AB1D7
S31502000B5810B50846D9681144D9609C68A14224BFD9
S31502000B681968D960D96805F051FB10BD704770B590
S31502000B780546FFF7C3FD95F8454064B2002C0FDD24
S31502000B8805F1240602E0013C64B24CB16B6A3BB142
S31502000B98304600F087FF0028F5D001F03BF8F2E76F
S31502000BA8FF2385F84530FFF7C7FDFFF7A7FD95F840
S31502000BB8444064B2002C0FDD05F1100602E0013C48
S31502000BC864B24CB12B693BB1304600F06BFF00288A
S31502000BD8F5D001F01FF8F2E7FF2385F84430FFF756
S31502000BE8ABFD70BD38B558B10D460446C36B1BB193
S31502000BF8026CA2FB03233BB1012383F31088FEE7B1
S31502000C08012383F31088FEE7FFF778FD2268216C3B
S31502000C18E36B01FB03F3D018A0600020A0636260B7
S31502000C285B1A1A44E260FF2384F8443084F845309C
S31502000C38A5B923691BB9FFF77FFD012038BD04F169
S31502000C48100000F02FFF0028F5D0094B4FF0805214
S31502000C585A60BFF34F8FBFF36F8FECE704F11000B2
S31502000C68FFF7ECFE04F12400FFF7E8FEE3E700BF16
S31502000C7800ED00E04BB110B582B01C4608B142B196
S31502000C8819BB012383F31088FEE7012383F3108837
S31502000C98FEE70029F5D150230193019B502B19D168
S31502000CA8019B2246012384F846302260E0632164D0
S31502000CB819462046FFF796FF9DF8103084F84C3007
S31502000CC8204602B010BD019BECE750230193019B1D
S31502000CD8502BF8D0012383F31088FEE7F8B550B1FC
S31502000CE80D4614460646A1FB002323B901FB00F074
S31502000CF810F1510F03D9012383F31088FEE7503010
S31502000D08FFF768FD074678B1002380F8463000F100
S31502000D185003002D08BF03460360C663056401211C
S31502000D28FFF760FF87F84C403846F8BD2DE9F047D3
S31502000D3884B0019260B10E461D46044661B1022D89
S31502000D4811D1E36B012B0ED0012383F31088FEE742
S31502000D58012383F31088FEE7036C002BEFD00123EF
S31502000D6883F31088FEE700F05BFF814628B9019BF2
S31502000D782BB1012383F31088FEE74FF00009002701
S31502000D88DFF80C8133E02A4631462046FFF7A4FEF7
S31502000D98636A73B938B13E4B4FF080525A60BFF35B
S31502000DA84F8FBFF36F8FFFF7C7FC012004B0BDE872
S31502000DB8F08704F1240000F075FE0028F3D0344BC6
S31502000DC84FF080525A60BFF34F8FBFF36F8FEAE737
S31502000DD8FFF7B2FC0020E9E702A800F0D5FE14E00E
S31502000DE82046FFF7C4FE00F0FDFC4FF00109FFF7AD
S31502000DF885FCA26BE36B9A42C5D3022DC3D0019B35
S31502000E08002BE5D0B9F1000FE6D0FFF795FC00F00C
S31502000E180FFCFFF773FC94F8442052B2B2F1FF3F7D
S31502000E2808BF84F8447094F8452052B2B2F1FF3FE5
S31502000E3808BF84F84570FFF77FFC01A902A800F0F5
S31502000E48AFFEF0B9FFF75AFCD4F838A0D4F83C90B4
S31502000E58FFF772FCCA45C3D1019904F1100000F0EC
S31502000E68E7FD2046FFF783FE00F0BCFC0028BCD154
S31502000E784FF08053C8F80430BFF34F8FBFF36F8F1C
S31502000E88B3E72046FFF773FE00F0ACFC00208DE7BF
S31502000E9800ED00E02DE9F04385B0019260B10D4600
S31502000EA8044669B100F0BCFE814680B9019B83B154
S31502000EB8012383F31088FEE7012383F31088FEE7F4
S31502000EC8036C002BEED0012383F31088FEE74FF064
S31502000ED800090026DFF8FC8036E029462046FFF79F
S31502000EE834FE7B1EA36323692BB9FFF725FC012079
S31502000EF805B0BDE8F08304F1100000F0D3FD002828
S31502000F08F3D0344B4FF080525A60BFF34F8FBFF382
S31502000F186F8FEAE7FFF710FC0020E9E702A800F066
S31502000F2833FE1CE02046FFF722FE00F05BFC09E0D8
S31502000F382046FFF71CFE00F055FC2046FFF7C1FDD0
S31502000F48002844D14FF00109FFF7D8FBA76B002F01
S31502000F58C3D1019B002BDDD0B9F1000FDED0FFF71C
S31502000F68EBFB00F065FBFFF7C9FB94F844305BB274
S31502000F78B3F1FF3F08BF84F8446094F845305BB28A
S31502000F88B3F1FF3F08BF84F84560FFF7D5FB01A917
S31502000F9802A800F005FE0028CAD12046FFF791FDF7
S31502000FA80028BFD0019904F1240000F041FD204633
S31502000FB8FFF7DDFD00F016FC0028C3D14FF0805381
S31502000FC8C8F80430BFF34F8FBFF36F8FBAE700201C
S31502000FD88EE700BF00ED00E038B130B50446F9B13E
S31502000FE8104B0020844608220CE0012383F3108864
S31502000FF8FEE70C4800EBCC0010E00CF1010C0833BC
S31502001008013A0AD09E465D68A542F2D00028F4D17C
S315020010181D68002D08BF1846EFE708B10160446055
S3150200102830BD00BF68F60222844650B100230B4841
S31502001038082250F83310614507D00133013AF8D136
S315020010487047012383F31088FEE7054A002142F818
S31502001058331002EBC3025160704700BF6CF60222DE
S3150200106868F6022238B110B50446FFF7DDFF94F898
S31502001078463023B110BD012383F31088FEE72046CC
S31502001088FFF768FCF6E770B504460D461646FFF705
S3150200109835FB94F844305BB2B3F1FF3F04BF00233B
S315020010A884F8443094F845305BB2B3F1FF3F04BF8D
S315020010B8002384F84530FFF73FFBA36B1BB120469C
S315020010C8FFF755FD70BD3246294604F1240000F0AB
S315020010D8C3FCF4E7074B1B681B6823B9064B4FF0A2
S315020010E8FF321A607047034B1B68DB681A68024BAB
S315020010F81A60704718F70222B0F602222DE9F84361
S31502001108074689469846089E0A9C95002A46A521BE
S31502001118206B04F0E7FF043D236B2B4423F00705FD
S315020011286565B9F1000F10D009F1FF3104F13303F7
S315020011384FF0200C11F9012F03F8012F12B1BCF15F
S31502001148010CF7D1002384F85330372E03D9012333
S3150200115883F31088FEE7E6622666201DFFF779FC10
S3150200116804F11800FFF775FC2461C6F13806A6617A
S31502001178646243463A46216B2846FFF7A5FA206081
S31502001188099B03B11C60BDE8F883000070B50546EB
S31502001198FFF7B4FA364A136801331360354B1B68F6
S315020011A8002B41D0344B1B683BB9324B1B68DA6AB9
S315020011B8EB6A9A429CBF2F4B1D60304A1368013373
S315020011C81360AB65EB6A2E4A1268934284BF2C4AB7
S315020011D813602C4A03EB830302EB83035B68AB6061
S315020011E89868E860291D41609960EB6A03EB830100
S315020011F802EB8100686152F82130013342F821304E
S31502001208FFF79AFA1C4B1B686BB11A4B1B68DA6A12
S31502001218EB6A9A4207D21C4B4FF080525A60BFF3D0
S315020012284F8FBFF36F8F70BD124B1D601368012B72
S31502001238C3D1144C04F58C662046FFF7FFFB143421
S31502001248B442F9D1114E3046FFF7F8FB104C20464E
S31502001258FFF7F4FB0F48FFF7F1FB0F48FFF7EEFB2A
S315020012680E48FFF7EBFB0E4B1E600E4B1C60A4E705
S31502001278D0F60222A4FB0222C4F60222B4F6022205
S31502001288C8F6022244F7022200ED00E030F70222F5
S315020012981CF7022200F70222ECF60222D4F60222F8
S315020012A818F7022214F7022210B5044690F86D3098
S315020012B83BB1012B0CD0022B09D0012383F31088F2
S315020012C8FEE7006BFFF746FB2046FFF743FB10BD20
S315020012D8FFF740FBFBE70000F8B50E4B1B68BBB1F6
S315020012E80D4F0E4E0B4CFFF709FAFB68DD68281DF9
S315020012F8FFF7D6FB3368013B33602368013B236063
S31502001308FFF71AFA2846FFF7CFFF2368002BEAD120
S31502001318F8BD00BFE8F60222ECF60222D0F6022257
S3150200132808B5074C074E4FF08055FFF7D5FF2368DF
S31502001338012BFAD97560BFF34F8FBFF36F8FF4E7AE
S3150200134844F7022200ED00E02DE9F04104460E467C
S31502001358264B1D68264B1F68264BD3F80080264B62
S3150200136818680430FFF79CFBB4F1FF3F0DD02C44FC
S31502001378214B1B685C60A5421CD91F4B19680431B6
S315020013884046FFF774FBBDE8F08106B31B4A516875
S31502001398194B1868816018688C68C460186804302C
S315020013A860601868043088601B685A6113680133E4
S315020013B81360E8E7104B196804313846FFF757FB04
S315020013C80F4B1B68A342DED90D4B1C60DBE76B1E75
S315020013D8094A126853609D42CFD8074B19680431EF
S315020013E83846FFF744FB064B1B68CCE7CCF60222CD
S315020013F818F7022214F70222A4FB0222D4F60222CA
S31502001408B0F602222DE9F04186B00D460D9E002166
S3150200141805916EB1044690461F460E9B63B1702332
S315020014280493049B702B0BD0012383F31088FEE7E9
S31502001438012383F31088FEE7012383F31088FEE76E
S31502001448049B702200210E9804F04CFE0E9B1E632C
S3150200145802230E9A82F86D3000230393029205AB9B
S3150200146801930C9B00933B46424629462046FFF7CA
S3150200147845FE0E98FFF78AFE059806B0BDE8F0818C
S315020014882DE9F04385B005460E4614469846900067
S31502001498FFF7A0F910B381467020FFF79BF90746BC
S315020014A8C8B17022002104F01DFEC7F8309000234F
S315020014B8039302970D9B01930C9B00934346224686
S315020014C831462846FFF71AFE3846FFF75FFE012027
S315020014D805B0BDE8F0834846FFF73CFA4FF0FF3007
S315020014E8F6E7000038B50446FFF708F93CB3251DB0
S315020014F82846FFF7D5FAA36A1BB104F11800FFF7CD
S31502001508CFFA1E4A1368013313601D4B1A681D4B26
S315020015181B680BB1A24215D01B4A1368013B136024
S31502001528FFF7D8FDFFF708F92046FFF7BDFE154B72
S315020015381B681BB1124B1B68A3420ED038BD104B59
S315020015481C68D4E729461148FFF786FA104A136839
S3150200155801331360FFF7F0F8E9E70E4B1B681BB17E
S31502001568012383F31088FEE70B4B4FF080525A6033
S31502001578BFF34F8FBFF36F8FE0E700BFB4F60222C7
S31502001588A4FB0222C4F60222D0F60222ECF60222BA
S31502001598E8F60222A8F6022200ED00E010B590B0A5
S315020015A81C4908AA11F9013B02F8013B002BF9D1A3
S315020015B800240594069407AA06A905A800F0A2FD28
S315020015C8059B0293069B019300942346079A08A952
S315020015D81148FFF717FF114B1860B8B100F0FCFC71
S315020015E8012806D0B0F1FF3F10D1012383F31088FA
S315020015F8FEE7012383F31088094A4FF0FF31116091
S31502001608084A1360084B1C60FFF7C6F8074B1B68AD
S3150200161810B010BD747E000229130002ACF6022235
S31502001628B0F60222C4F60222CCF602220480000296
S31502001638024A136801331360704700BFA8F60222F4
S31502001648014B1868704700BFCCF602225A4B1B683A
S31502001658002B40F0AB802DE9F047584B1C6801344B
S315020016681C609CB9564B1B681B681BB1012383F38C
S315020016781088FEE7524A1168524B186810601960C2
S31502001688514A136801331360FFF724FD4F4B1B6859
S31502001698A34278D84A4B1B681B684BB10020DFF877
S315020016A820C10546DFF838E1494ADFF828A134E0C7
S315020016B80020464B4FF0FF321A6065E0434B196033
S315020016C862E0D96ADEF80080414588BFCEF800108C
S315020016D801EB810102EB810149689960D1F8088022
S315020016E8C3F80C80C8F804708F60D96A01EB8107C9
S315020016F802EB8708C3F8148052F82710013142F822
S315020017082710DAF80070D96AFB6A994288BF012065
S31502001718DCF800301B68002BCBD0DCF80030DB6825
S31502001728DB6859688C42C9D3D3F814809968DF6894
S315020017388F60996879601F1DD8F80410B94204BFF2
S31502001748D968C8F804105D61D8F800100139C8F8DC
S315020017580010D3F82880B8F1000FB2D0196ADE69F2
S31502001768B160DE694E6003F11809D8F804104945DC
S3150200177804BF196AC8F804109D62D8F80010013926
S31502001788C8F800109DE70020124B1B68DB6A03EBC2
S3150200179883030F4A52F82330022B28BF01200E4B2F
S315020017A81B68002B18BF0120BDE8F0870B4A136897
S315020017B80133136000207047A8F60222CCF60222F3
S315020017C818F7022214F70222B8F60222B0F602220B
S315020017D844F70222A4FB0222BCF60222C0F6022227
S315020017E8C8F602222DE9F843FEF788FF4D4B1B681F
S315020017F81BB9012383F31088FEE74A4B1A68013A9C
S315020018081A601B68002B40F08480474B1B68002B2C
S3150200181800F08580454B1B68002B5AD0DFF80CC1B7
S315020018280020DFF820E1424A424C434E4FF00109BC
S31502001838DCF80C30DB689F6A196ADD69A960DD6924
S315020018484D6003F118087968414504BF196A796041
S3150200185898623968013939605F69D9689D68A960F3
S315020018689D684D6003F104087968414504BFD9684B
S3150200187879605861396801393960D96ADEF80070C9
S31502001888B94288BFCEF8001001EB810102EB810153
S31502001898496899608F68DF60C7F80480C1F80880D4
S315020018A8D96A01EB810702EB8708C3F8148052F85C
S315020018B82710013142F827102768D96AFB6A99422C
S315020018C888BFC6F80090DCF80030002BB0D1FFF7CD
S315020018D801FC1A4B1C686CB1174E012501E0013C4C
S315020018E805D0FFF7B3FE0028F9D03560F7E7134BAA
S315020018F800221A60104B1C6864B10E4B1B68104B11
S315020019084FF080525A60BFF34F8FBFF36F8F012497
S3150200191800E00024FEF710FF2046BDE8F883002405
S31502001928F8E700BFA8F60222D0F6022200F7022242
S3150200193844F70222A4FB0222BCF60222C0F60222C5
S3150200194800ED00E0C8F6022210B540B90E4B4FF082
S3150200195880525A60BFF34F8FBFF36F8F10BD044694
S31502001968FFF766FE094B1B68012B03D0012383F39D
S315020019781088FEE700212046FFF7E6FCFFF732FF54
S315020019880028EBD1E2E700BF00ED00E0A8F602224C
S31502001998224B1B681BB1224B01221A607047204B4F
S315020019A800221A601F4B1B6803EB83011E4A52F87A
S315020019B821208AB963B103EB83011B4A02EB810238
S315020019C81946013B52F8140C30B9143A0139F8D1C8
S315020019D8012383F31088FEE7134A03EB830102EB24
S315020019E8810148684068486003EB830102EB810283
S315020019F8083290420CD003EB83010B4A02EB8102B8
S31502001A085268D168094A116006490B601368704723
S31502001A18054A02EB8102D1685160ECE7A8F6022278
S31502001A28BCF60222C8F6022244F70222A4FB0222CC
S31502001A3858B110B50C46074A11681831FFF717F85E
S31502001A4801212046FFF780FC10BD012383F310888D
S31502001A58FEE700BFA4FB022238B5E0B18C46114668
S31502001A68054642680E4B1868C26118689468046293
S31502001A781868183060601868183090601B689D6294
S31502001A882B6801332B6000290CBF60464FF0FF30EC
S31502001A98FFF75AFC38BD012383F31088FEE700BF1F
S31502001AA8A4FB0222C368DB68002B51D010B49A6AE1
S31502001AB8D869196A8160D869486003F118005168C3
S31502001AC8814204BF196A516000219962116801397D
S31502001AD81160274A1268002A3ED15A699868D9685D
S31502001AE8816098684860181D5168814204BFD968A8
S31502001AF8516000215961116801391160DA6A1D497C
S31502001B0809688A4284BF1B490A601B4902EB8202A2
S31502001B1801EB820252689A609468DC6060609060A9
S31502001B28DA6A02EB820001EB80045C6151F820203C
S31502001B38013241F82020114A1168DA6ACB6A9A42C0
S31502001B4883BF01200E4B186000205DF8044B7047D6
S31502001B58012383F31088FEE70A4A5168D9618C6823
S31502001B681C62606088609A62116801311160E2E75E
S31502001B78A8F60222C8F6022244F70222A4FB02228F
S31502001B88BCF6022200F70222034B1B680360034BD2
S31502001B981B684360704700BFB8F60222CCF60222E1
S31502001BA8B8B170B50C460546B9B1FEF7A7FD174B95
S31502001BB81A682368B3F1FF3F22D06968144800689F
S31502001BC82E6886420DD091420BD800232360012449
S31502001BD817E0012383F31088FEE7012383F31088B5
S31502001BE8FEE7501A834203D800232360012408E043
S31502001BF89B1A0B4423602846FFF7C6FF002400E021
S31502001C080024FEF799FD204670BD00BFCCF60222DD
S31502001C18B8F60222014B01221A607047BCF602226C
S31502001C28054B1B6833B1054B1868B0FA80F04009BA
S31502001C384000704701207047C4F60222A8F6022225
S31502001C4800283FD038B50446204B1B68834203D090
S31502001C58012383F31088FEE7436E1BB9012383F33E
S31502001C681088FEE7013B4366C16A026E91422BD099
S31502001C780BB1002038BD051D2846FEF711FF236E5D
S31502001C88E362C3F13802A261114A1268934284BF21
S31502001C980F4A13600F4A03EB830302EB83035B6865
S31502001CA8A3609968E1604D609D60E36A03EB830176
S31502001CB802EB8100606152F82130013342F821308B
S31502001CC80120D7E7002070470020D3E7A4FB0222B1
S31502001CD8C8F6022244F7022208B541600061914221
S31502001CE80CD8D21A83699A4201D3012008BD011D74
S31502001CF8094B1868FEF7BBFE0020F7E79A4201D2A5
S31502001D08994206D2011D054B1868FEF7B0FE00205F
S31502001D18ECE70120EAE700BFA4FC0222A8FC0222A3
S31502001D2870B504460D46164604E0A3691D44236AA7
S31502001D3820469847A1692B46324629442046FFF792
S31502001D48CBFF0028F1D170BD70B505460E460D4B86
S31502001D581B68DB68DC68201DFEF7A2FE94F82830B3
S31502001D6813F0040F07D123F0010384F82830236AFD
S31502001D782046984770BD324629462046FFF7D0FFCF
S31502001D88F5E700BFA8FC0222F8B50546FFF758FC9E
S31502001D980446104B1B68834205D800232B600D4B63
S31502001DA81C602046F8BD0C4B1B681A685AB14FF0E6
S31502001DB8FF37094EDB6839461868FFF7C5FF3368EF
S31502001DC81A68002AF6D1054A1068034908601360A2
S31502001DD80123E3E798FC0222A8FC0222A4FC0222C1
S31502001DE82DE9F04186B05C4E5C4D33681F68002FC2
S31502001DF800F09080DB681F68FFF71AFC02A8FFF75D
S31502001E08C3FF0446029A4AB9874200F29380FFF753
S31502001E18E9FC21463846FFF797FF01E0FFF7E2FCA7
S31502001E28002302930393049305931C4606E005993F
S31502001E380498039B9847029B002B09DA224602A9BB
S31502001E482868FFF727F80028CFD0029B002BEEDB85
S31502001E58049F7B6913B1381DFEF722FE01A8FFF71E
S31502001E6893FF8046029B013B082BE7D8DFE803F085
S31502001E780505293044050529300097F8283043F02E
S31502001E88010387F82830039BB96902461944384684
S31502001E98FFF722FF0028D1D097F8283013F0040F55
S31502001EA807D123F0010387F828303B6A384698475A
S31502001EB8C4E7BB694246039919443846FFF730FF1F
S31502001EC8F3E797F8283023F0010387F82830B5E7B7
S31502001ED897F8283043F0010387F828300399B96147
S31502001EE831B10346024601443846FFF7F5FEA5E737
S31502001EF8012383F31088FEE797F8283013F0020FC0
S31502001F0804D023F0010387F8283097E73846FEF70E
S31502001F1821FD93E7FFF78CFB02A8FFF735FF04467E
S31502001F28029B002B7FF47AAF0D4B1B681A68B2FA34
S31502001F3882F25209391B2868FFF7A5F8FFF752FC07
S31502001F4800287FF46DAF074B4FF080525A60BFF3FB
S31502001F584F8FBFF36F8F63E7A8FC0222A0FC022211
S31502001F68A4FC022200ED00E030B583B0FEF7C6FB02
S31502001F78114B1B681BB1FEF7DFFB03B030BD0F4DDB
S31502001F882846FEF75BFD0E4C2046FEF757FD0D4B25
S31502001F981D600D4B1C60002300930C4B0C4A10214C
S31502001FA80A20FEF767FE044B18600028E3D00949A9
S31502001FB8FFF712F8DFE700BFA0FC0222C0FC0222EC
S31502001FC8ACFC0222A8FC0222A4FC0222A8FB0222E2
S31502001FD8F8FB02227C7E000210B588B0FFF7C4FF28
S31502001FE8104B1B68CBB100240594069407AA06A9D0
S31502001FF805A800F093F8059B0293069B019302231A
S3150200200800932346079A08490848FFF7FBF9084B45
S31502002018186010B1012008B010BD012383F310889F
S31502002028FEE700BFA0FC0222847E0002E91D000230
S315020020389CFC022210B50446034B0360406808B1B3
S31502002048FFF750FA204610BD1080000210B504466C
S31502002058034B0360406808B1FFF744FA204610BDF7
S315020020681080000210B50446034B0360406808B1AD
S31502002078FFF738FA204610BD1080000210B5044654
S315020020880068FEF7EFFF204610BD10B50446FFF7BD
S31502002098D7FAA06023685B682046984710BD0000FF
S315020020A830B583B004460846194600236360A36028
S315020020B80D4D25602373231D0193009023460B487B
S315020020C8FFF7DEF907E00A4B2360606808B1FFF7FD
S315020020D809FA01F07FFC012814BF002001202073B1
S315020020E8204603B030BD00BF2080000293200002C4
S315020020F810800002024A136801331360704700BF5A
S3150200210828020222034B0360034B0B6080231360F1
S31502002118704700BF8803032288010322034B03602A
S31502002128034B0B604FF48073136070471801032248
S3150200213818FD022210B52A492A4800F053FE28B192
S31502002148294B2A4A41212A4801F033F9254800F049
S315020021582FFE28B1244B254A4421254801F029F9A6
S31502002168204800F0F1FD28B11F4B204A462120489D
S3150200217801F01FF91F49204800F094FA28B11A4BBA
S315020021881A4A49211A4801F014F91C491C4800F058
S3150200219889FA28B1144B154A4B21154801F009F959
S315020021A8184C01224FF48571204600F0C7FC4FF403
S315020021B87A714FF4FA7001F005F900224FF485712D
S315020021C8204600F0BBFC104C10492046FEF7D8F812
S315020021D80F492046FEF7D4F8FFF7E0F9FEE700BFFD
S315020021E828800002000403228C7E0002A07E0002E0
S315020021F8B07E000250800002200403229080000272
S3150200220854040322F803032210FD0222C47E0002AC
S31502002218E87E000208B5FEF7A7F908BD7047000078
S3150200222870B582B0354D0024009401232246344904
S315020022382846FEF745F8334A3349284601F050FB4B
S31502002248324B1C60224620210420FEF747FD2F4B05
S3150200225818602C4A2E49184601F042FB2D4B5C6049
S315020022689C602D4919601C731A1D01920122009265
S315020022784FF4807229492A48FFF702F9254B0128AB
S3150200228814BF002001201873264A1A601D4D2A46DB
S315020022982549184601F024FB244C254B4FF480624D
S315020022A803212046FFF7FCFE224B2360174E2661C8
S315020022B82A462149204601F013FB204C204B4FF4B5
S315020022C8006203212046FFF7EBFE1E4B23602661C0
S315020022D82A461D49204601F003FB02B070BD0B4B8E
S315020022E81868FEF7BFFE01F075FB0A4B174A1A601B
S315020022F8586808B1FFF7F6F801F06CFB10FD0222E8
S315020023088480000200000022D70200020CFD02228D
S3150200231885200002FCFC022220800002207F0002A7
S3150200232893200002FC7F00026D200002E8FC0222D4
S31502002338287F0002A87F000255200002D4FC022250
S31502002348387F0002D47F00023D200002108000027E
S3150200235808B5074B4FF002725A64002283F85420DC
S315020023684AF20152A3F86420FFF7E4FE08BD00BF53
S3150200237800F00040022800D0704708B50249034819
S3150200238800F0D8FC08BD00BFC4800002F80303228F
S3150200239808B5FFF7DDFF002008BD8161C261002094
S315020023A8704710B4446AA36823F44013A360446ACE
S315020023B8A36C13F0804FFBD0A36823F01003A3602D
S315020023C8446A237F13F0100FFBD142610161A368AF
S315020023D843F01013A36000205DF8044B7047816236
S315020023E80263C362002070474FF0FF334B600B60F5
S315020023F800207047844611F0020F1DD0426A936886
S3150200240823F440139360426A936C13F0804FFBD017
S31502002418936823F010039360DCF82420137F13F0EB
S31502002428100FFBD10020CCF8140011F0010F1CBFCD
S315020024380020CCF81C0070470620F6E70346C2695E
S315020024480A600020D8617047062070470620704748
S3150200245830B4530902F01F050124AC402033144D51
S3150200246845F82340BFF34F8FBFF36F8F114B02F529
S31502002478C65C53F82C4024F4803443F82C4053F8B5
S315020024882C30002A0CDB0901C9B202F1604303F5BC
S31502002498614383F80013084B43F8220030BC7047A7
S315020024A802F00F040901C9B2044B1955F3E700BF3C
S315020024B800E100E000600040E804032214ED00E0B9
S315020024C870B584B005460E469446C46ACCB194E803
S315020024D80F000DF1100E0EE90F002B6A1B78236010
S315020024E8A66084F804C02B6BE360AB6A2046984763
S315020024F8EC6A24B104AB13E90F0084E80F0004B0B8
S3150200250870BD6C46E9E7000038B54268374B9A4217
S315020025186AD10446426A936823F440139360426A76
S31502002528936823F010039360426A137F13F0100F27
S31502002538FBD1236A93F90730580903F01F030121D7
S3150200254801FA03F32A4A203042F82030BFF34F8FAC
S31502002558BFF36F8F236A93F90930580903F01F03F3
S3150200256801FA03F3203042F82030BFF34F8FBFF34E
S315020025786F8F606A836823F480338360236A93F9D2
S315020025880530580903F01F0301FA03F3203042F815
S315020025982030BFF34F8FBFF36F8F236A93F90B3047
S315020025A8580903F01F0301FA03F3203042F82030DA
S315020025B8BFF34F8FBFF36F8FEFF3108581F3108848
S315020025C80C4A5068236A93F800C04FF0004323FA76
S315020025D80CF30343536053681E2000F0F3FE85F3A1
S315020025E810880020606038BD0720FCE74249435343
S315020025F800E100E00030204070B5036ADD6900237F
S3150200260883606B7C03B970BD0446184B93F854304B
S3150200261803F00F03072B22D8DFE803F006060604A9
S31502002628251B1D1F062601E001269E400F4B93F827
S31502002638550000F00F0000F05FFE6B7C0C4A126832
S3150200264802FB03F3B0FBF6F0B3FBF0F30133A3602E
S31502002658D9E70326EAE70526E8E70A26E6E7083B76
S3150200266810269E40E2E70826E0E700BF00E00140A8
S315020026781C050322F8B504460D46426A936823F4FC
S31502002688401723F4441323F01103936000260661CE
S31502002698FFF7B2FF636A2A681A61636A9F60304667
S315020026A8F8BD0000F8B504460D460B7803F580031D
S315020026B803F556531B0243620023037001624A69FB
S315020026C882628A690263C362CE698378012262F3EF
S315020026D8010383704B78002B08BF0222837862F3CA
S315020026E80103837091F90B20897AFFF7B1FE95F9F8
S315020026F8052029792046FFF7ABFE95F90720A97927
S315020027082046FFF7A5FE95F90920297A2046FFF704
S315020027189FFEEFF31087012181F310887D4B5A68DB
S3150200272895F800C04FF0004020FA0CF022EA0002A9
S315020027385A605B681E2000F045FE87F31088636ABC
S315020027484FF480629A60EA6950686B781B0203F458
S315020027584073E978890301F480410B43117809062D
S3150200276801F040710B435178C90389B20B43517B7F
S31502002778490501F400110B4343F48053616A4B6126
S3150200278811788B1EDBB2012B40F2BD800368616AA9
S315020027980B61117B01F0030141F03001AB7833B1D3
S315020027A8022B14BF4FF440734FF480731943937886
S315020027B81B0703F080530B43616ACB60636A0021EF
S315020027C89961297801238B40C3F3090313B1636A1C
S315020027D851495962937B03F00103D17B01F01F0132
S315020027E843EA0123127C02F01F0243EA0243626AA9
S315020027F81363002525616561A561E5612046FFF73A
S31502002808FBFE7389A381636A444A9A66236A93F92B
S315020028180530434A03F5C65152F8210065F31040C4
S3150200282842F8210052F82110BFF35F8F03F01F0010
S31502002838012101FA00F05B099B0003F1604303F5ED
S315020028486143C3F880011860236A93F90B3003F5D4
S31502002858C65052F8206065F3104642F8206052F8D6
S315020028682000BFF35F8F03F01F0001FA00F05B0937
S315020028789B0003F1604303F56143C3F880011860C6
S31502002888236A93F9073003F5C65052F8206065F3B8
S31502002898104642F8206052F82000BFF35F8F03F01B
S315020028A81F0001FA00F05B099B0003F1604303F580
S315020028B86143C3F880011860236A93F9093003F566
S315020028C8C65052F8206065F3104642F8206052F866
S315020028D82020BFF35F8F03F01F0291405B099B0024
S315020028E803F1604303F56143C3F880111960636A13
S315020028F80C4A9A60626A137F13F0010FFBD00A4BE7
S3150200290863600020F8BD0229084B094918BF0B4627
S315020029183DE700BF0030204000001F1F1000079D42
S3150200292800600040110401004249435324FF00FF9E
S3150200293804FF00FF38B5EFF30383103B5BB2244A6A
S3150200294803F5C65152F8210020F4803042F82100DE
S3150200295852F821201F4A52F82340236A1B6913B1F1
S315020029686369EBB138BD6369D3B1A37803F0030396
S31502002978022B0DD0636A226912781A71A37803F0C2
S3150200298803036269D21A626122691A442261E7E77D
S31502002998626A23691B8823F4DC439BB25360EDE722
S315020029A8636A9D6825F4801545F40015A06860B928
S315020029B8636A9D6000232361A36A002BD2D080221A
S315020029C800212046FFF77CFDCCE700F0F5FCEFE797
S315020029D800600040E804032210B582B0EFF30383D7
S315020029E8103B5BB21F4A03F5C65152F8210020F488
S315020029F8803042F8210052F821201B4A52F823401F
S31502002A08A37803F00303022B636A07BF1968C1F3AD
S31502002A1808011978C9B20191E3693BB9A36A1BB1E6
S31502002A2804222046FFF74CFD02B010BDA27802F040
S31502002A38030201A9A06903F0E9FBA27802F00302E6
S31502002A48A3691344A361E3699B1AE361002BEBD1E3
S31502002A58A36A002BE8D0012200212046FFF730FDA9
S31502002A68E2E700BF00600040E804032210B5EFF376
S31502002A780383103B5CB20E4B53F82400426A9368F8
S31502002A8823F4401323F010039360836A1BB10222D6
S31502002A980021FFF715FD074A04F5C65352F823101D
S31502002AA821F4803142F8231052F8233010BD00BFBA
S31502002AB8E80403220060004038B5EFF30383103BB5
S31502002AC85CB21C4B53F82400837803F00303022BF1
S31502002AD8436A07BF1968C1F308011978C9B2456A7A
S31502002AE8AA6CC2F3006CC2F300731B0143EA4C13CF
S31502002AF8C2F3C06243EAC20C624613F0100F05D055
S31502002B08AB6C13F4004F08BF4CF04002AB6E43F0B7
S31502002B18C853AB66836A0BB1FFF7D2FC064A04F5C3
S31502002B28C65352F8231021F4803142F8231052F882
S31502002B38233038BDE804032200600040CBB20120EE
S31502002B48984080B262B9024600200B0A5B0103F183
S31502002B58804303F5800340EA0240986000207047EC
S31502002B680022F2E710B411F4803F0ED0030A0C4A91
S31502002B781B0153FA80F352F8234024F4803442F8B6
S31502002B88234021F4803442F82340030A1B0153FAF6
S31502002B9880F0034B43F820105DF8044B704700BFE2
S31502002BA8000840400388002B7AD02DE9F04F83B005
S31502002BB807464FF00008DFF8F0A04FF00109DFF8EA
S31502002BC8ECB065E09AF84C2C09FA04F3D9B20191F3
S31502002BD8134230D004F120031BF81330DB0937D037
S31502002BE80134032C4FD07B68991935F8022B898852
S31502002BF89142F5D19B5903F0B853B3F1807FE1D0E6
S31502002C089AF84C2C09FA04F3D9B2019113422CD141
S31502002C1804F120031BF81330DB09E1D004F120028A
S31502002C281BF8123023F080030BF812304946C820ED
S31502002C3800F0C8FBD4E7484600F09EFC9AF84C3CE4
S31502002C48019A13438AF84C3C484600F063FCC1E7F4
S31502002C5804F120021BF8123043F080030BF81230FD
S31502002C684946C82000F0AEFBBAE7484600F084FCA5
S31502002C789AF84C3C019A23EA02038AF84C3C4846E5
S31502002C8800F048FCC4E708F101083B88434504D92B
S31502002C984FEAC806034D0024A5E703B0BDE8F08F46
S31502002CA8704700BF6881000200E001400020204012
S31502002CB838B50546FFF776FFEFF31081012383F354
S31502002CC810881A4B1B6823B9194B00221A75402221
S31502002CD81A75164A13680133136081F310882B8814
S31502002CE86BB100246B6803EBC40253F83410908866
S31502002CF8FFF738FF01342A88A3B29A42F2D8EFF3D3
S31502002D081083012282F31088084A12681AB1074909
S31502002D180A68013A0A60054A126822B9044A002179
S31502002D2811758021117583F3108838BDE4040322D6
S31502002D38000D404008B5034B03600846FFF7B8FF8D
S31502002D48002008BD54524F50037B43B18368026981
S31502002D58013A43F80C2BF1221A7000207047836857
S31502002D680269013A92B223F8082BF4E7037B53B1BE
S31502002D7881680C310B7803F00102C3F340039A42CF
S31502002D88F8D10020704781680831F3E7016143688A
S31502002D981A7C064B43F822100139037B13B1836868
S31502002DA819607047836889B21980704788040322BC
S31502002DB870B50446FFF7DAFF064648B9237B4BB1DE
S31502002DC8A5680C3563681B78012B06D0F1232B7096
S31502002DD8304670BDA5680835F4E721692046FFF735
S31502002DE8D5FFF3E72DE9F04105460E464160002777
S31502002DF807730B7C3E4C04EB03248460EFF31088C4
S31502002E08012181F310883B4AD068337CC3F105035C
S31502002E1801FA03F320EA0303D360D3681E2000F005
S31502002E28D1FA88F310882772237A13F0020FFBD19E
S31502002E380023A3722B7B7BB1AA680C32F36919783B
S31502002E4808461C79DB7803F0070341B9307A18B3D0
S31502002E5880F00200000105E0AA680832EEE7502970
S31502002E681DD0317A1471002494710343DBB2537076
S31502002E78C9B2917071682846FFF788FF96F9123031
S31502002E88A3420EDA73696B61B369EB610020A8612C
S31502002E98194B2B60BDE8F08100210846E2E70021C4
S31502002EA8E0E7727C1201D2B203F1604101F5614199
S31502002EB881F80023114A42F82350114A03F5C651F4
S31502002EC852F8210020F4803042F8210052F82120DD
S31502002ED8BFF35F8F03F01F0101228A405B099B0043
S31502002EE803F1604303F56143C3F880211A60C9E719
S31502002EF8001022400030204054474100E8040322D3
S31502002F080060004070B584B0EFF30383103B5BB2F8
S31502002F18224A03F5C65152F8210020F4803042F8BD
S31502002F28210052F821201E4A52F82340237B4BB334
S31502002F38A5680C352B78DBB262681278012A24D090
S31502002F486269D2B1A66936B396E807000DF1100C8C
S31502002F580CE9070013F0200F1CBF00233371E36945
S31502002F683360636930469847A36923B104AA12E914
S31502002F78070083E807002B78DBB203F00F032B70F8
S31502002F8804B070BDA5680835D4E7F4222A7003F0A8
S31502002F98F0032B70D4E701AEDCE700BF0060004007
S31502002FA8E804032290F800C04CF0400C80F800C0F8
S31502002FB890F800C05FEADC1CFAD00A7043F0C0033E
S31502002FC80370037803F0BF0303700378DB09FCD1AF
S31502002FD8704700001A4A92F82630DBB2928C02F049
S31502002FE80F02A2F10801032925D8DFE801F0020C35
S31502002FF8141C144A52F82330134AA2FB03235B0813
S31502003008124A136070470F4A52F823300E4AA2FB3F
S3150200301803239B08F4E70B4A52F823300A4AA2FB19
S315020030280323DB08ECE7074A52F82330064AA2FBD9
S3150200303803231B09E4E7034951F82330D340DFE7AA
S3150200304800E00140E0010222ABAAAAAA1C0503225B
S31502003058034B00221A701A781A781B78704700BF39
S3150200306800C01340044B5B68C3F30903642B02D9FF
S31502003078014B01221A70704700C0134070470000C6
S3150200308870B5844C4AF20353A4F8FA33824B834A46
S315020030981A60834A5A604FF400429A608149D9609D
S315020030A81A61814A5A61814ADA61814A1A62814AF7
S315020030B89A61814A5A62814A9A62FFF78BFF0A230A
S315020030C884F8503A092384F8A23094F8003C2BB9C4
S315020030D894F8013C13F0030F00F0D7806D4B93F878
S315020030E8003C002B00F0C3806A4B002283F8012CB7
S315020030F883F8002C674B002283F832201A4692F88E
S315020031083C3013F0080FFAD0624B6D4AC3F8C82058
S3150200311840F22342A3F84E20002083F84A004FF6D5
S315020031280212C3F8AC2040F25142A3F84C20BFF376
S315020031384F8FBFF36F8F634A516921F40031516192
S31502003148C2F85002BFF34F8FBFF36F8F5E490A680A
S3150200315822F440520A60BFF34F8FBFF36F8F1A7D76
S31502003168012161F302021A751A46137D13F0100F34
S31502003178FBD1554A136843F440531360BFF34F8F8C
S31502003188BFF36F8F4F4B5B6913F4003F13D1BFF345
S315020031984F8FBFF36F8F4B4B0022C3F85022BFF3FA
S315020031A84F8FBFF36F8F5A6942F400325A61BFF3E9
S315020031B84F8FBFF36F8F374B002283F82A201A46A8
S315020031C892F83C3013F0200FFAD0FFF741FF3F4B3D
S315020031D85B68FA2B05D03D4B3D4959605A68FA2A75
S315020031E8FBD13A4B9B687D2B05D0384B3949996000
S315020031F89A687D2AFBD1274C374B236242F2201369
S31502003208A384052384F82630FFF7E4FE01211E2055
S3150200321800F0D8F8FFF726FFFFF7DCFE2F4B4AF23D
S3150200322801521A80BFF35F8F01251D72BFF35F8FAC
S315020032384FF425461E8084F85350032284F83E2014
S31502003248832384F83E300A2325492648FFF7AAFE37
S315020032580A23022224492548FFF7A4FE06232A4602
S3150200326823492448FFF79EFEA4F8FA6370BD01219C
S31502003278084B83F8001CC82000F0A4F8054A92F807
S31502003288003CDBB2012BFAD12EE74FF47A70FFF736
S31502003298F5FE2FE700E00140E0010222006CDC02A5
S315020032A800127A0000366E0100CA9A3B5543DE13B5
S315020032B80084D7170046C3230008AF2F00389C1C8A
S315020032C8022B010000ED00E000E001E000C013401F
S315020032D8FA00001E7D0000E132342332002000404D
S315020032E86EE0014076E0014054E0014055E00140BD
S315020032F85CE001405DE00140014B53F82000704755
S31502003308E001022238B5284C002584F8285001210C
S31502003318C82000F057F884F82450224692F8243040
S31502003328002BFBD1204A92F8243043F0020382F89C
S31502003338243092F8243013F0020FFAD11A4B0022E5
S3150200334883F822201A4692F82230002BFBD1164A1D
S3150200335892F8403023F0800382F8403092F84030E9
S31502003368DB09FBD1104A92F8423023F0800382F837
S31502003378423092F84230DB09FBD10B4A92F84430CC
S3150200338823F0800382F8443092F84430DB09FBD1FB
S31502003398012000F0F1F8054B002283F84C2C01209D
S315020033A800F0B8F838BD00BF0020204000E0014018
S315020033B8704700BEFEE70000A0F101000028FBD11D
S315020033C8704700BFF8B500FB01F12F4B1B682F4A67
S315020033D8934219D303F5742303F23F2302F185427C
S315020033E802F5071202F68342A2FB03239B0CA3FBF8
S315020033F801014FF0FF3383424FF000038B4140D364
S3150200340808B1FFF7D9FFF8BD2148B0FBF3F04FF03A
S31502003418000C0A46634652EA4F13561A914294BF63
S315020034281F465F1E56EA8F078C19224647F100038C
S3150200343852EACF034FF0FF3494427CEB030C02D3DB
S31502003448B2FBF0F0DCE7B1FBF0F14FF0000C0A46F4
S31502003458634652EA4F13541A914294BF1D465D1EA3
S3150200346854EA8F050B19184645F1000150EACF01B7
S315020034784FF0FF3383427CEB010CC1D24FF0FF3091
S31502003488BFE74FF0FF30BCE71C05032200127A00A3
S3150200349800CA9A3BF8B5104BD3F80021D3F820514D
S315020034A81540002401260D4F02E00134152C0AD0DE
S315020034B806FA04F32B42F8D057F82430002BF4D03E
S315020034C8E0B29847F1E7044BC3F810511A46D2F80E
S315020034D820312B42FBD1F8BD00C0004090040322E4
S315020034E810B40A4800220A4C092302E00132013BC1
S315020034F808D030F8021F0029F8D002F5C65C44F855
S315020035082C10F3E75DF8044B704700BF26810002D2
S3150200351800600040EFF31082012383F31088134BF7
S3150200352833F810309BB233B1104931F81030013BF1
S315020035389BB221F810300D4B33F810309BB293B979
S3150200354810B40B49B1F8FA339BB20A4C34F810009E
S3150200355843F4254323EA0003A1F8FA3382F31088D9
S315020035685DF8044B704782F3108870470C050322F6
S3150200357800E00140A083000210B4EFF3108101239A
S3150200358883F310880F4B33F810309BB26BB90E4A8F
S31502003598B2F8FA339BB20D4C34F810C043EA0C0366
S315020035A843F425439BB2A2F8FA33064A32F810309E
S315020035B801339BB222F8103081F310885DF8044B70
S315020035C8704700BF0C05032200E00140A0830002F9
S315020035D808B5094B1A688318B3F5803F04D807481B
S315020035E81044054A136008BD02F0FEFD0C23036071
S315020035F84FF0FF30F7E700BF18050322E00100226B
S3150200360800BE704708B500F03BF8FEF7C1FEFEE7BC
S315020036182DE9F8430646194BD3F80080B8F1000F96
S3150200362813D0002425465F68A14603E001350C3411
S3150200363845450AD03B195A7AB242F7D138595A68DF
S31502003648121A494602F04EFDF0E70C4B9F6897B1F5
S315020036580024DD6802E00134BC420CD0210105EBEE
S3150200366804135A7BB242F6D168585A68121A9968F4
S3150200367802F0CCFDEFE7BDE8F88300BF70810002D7
S3150200368870B58D4B8D4A5A61BFF34F8FBFF36F8F5B
S315020036981B6803F47002B2F5801F00F0958013F4DC
S315020036A8600F00F09680864A136823F004031360BD
S315020036B8BFF34F8FBFF36F8F7F4B4FF47002C3F880
S315020036C88820804A9A600020FEF754FEFFF7D8FC4D
S315020036D87D4B4AF20252A3F8FA23002283F8B02A53
S315020036E84FF42542A3F8FA230120FEF743FE774B4F
S315020036F883F30A88724B1B6813F0020F04D06E4BD1
S315020037089B68B3F1007F78D00020FFF781FFFFF7AF
S3150200371861FCFFF7F7FD0320FFF72EFF00236C4835
S3150200372819464FF00E0E4EF001E003F10C0220F896
S31502003738221001330FF007C80320FFF7EBFE032020
S31502003748FFF71AFF634B00225A609A60DA601A6121
S315020037580320FFF7DFFE5C4BD3F8D83313F0020FD2
S315020037686FD0594BD3F8D833574BD3F8D83313F015
S31502003778040F00F08380544BD3F8D8330120FFF7A7
S3150200378847FFBFF34F8FBFF36F8F4B4B0022C3F830
S315020037985022BFF34F8FBFF36F8F4F4B4F4A9B1A7F
S315020037A89E10002B07DD1546002455F8043B984762
S315020037B80134A642F9DC0220FEF7DCFDFFF790FE93
S315020037C80020FFF7F5FD70BD13F00F0F7FF46BAF06
S315020037D865E73B4A136843F004031360BFF34F8F50
S315020037E8BFF36F8F4FF0E022936843F48033936000
S315020037F8BFF34F8FBFF36F8F5EE7314A1369516983
S31502003808C3F3C3030933012202FA03F3DB080024D4
S315020038180025002043F005C0E0E802450FF005C088
S31502003828C1F3C303093302FA03F3DB084FF000526C
S3150200383843F007C0AFF30080E2E802450FF005C087
S3150200384862E7214B93F81031002B8DD00120FFF748
S3150200385893FE1D4A92F8103103F0C003802BF9D16A
S31502003868194B002283F810211A4692F81031DBB25E
S315020038783F2BFAD80120FFF74DFE75E7124B93F856
S315020038881431002B3FF47AAF0120FFF775FE0E4A7A
S3150200389892F8143103F0C003802BF9D10A4B0022A7
S315020038A883F814211A4692F81431DBB23F2BFAD860
S315020038B80120FFF72FFE61E700ED00E001020E008E
S315020038C800E001E00000000200E00140E001012200
S315020038D8000D404000402040B8880002AC88000233
S315020038E80B460146184602F081BB7FB50024102319
S315020038F815461268CDE902340368CDE900449E698B
S315020039086B46B0479DF8043003F00603062B05BF45
S31502003918009B012020462B6004B070BD009890429F
S315020039280CBF062001207047034B10B504460360FE
S3150200393800F01BFC204610BDE083000210B50446C9
S31502003948FFF7F2FF0821204600F042F8204610BD94
S315020039582DE9F041DDF818801F4606461546DDE9D1
S315020039680834984507D1079900F002FC18B1657129
S315020039780020BDE8F0813946304600F0F9FB002800
S31502003988F6D00123C4F800802571A371F0E738B593
S3150200399815461C4600F0ECFB20B108232560E360BF
S315020039A80623237138BD2DE9F04105460C46164615
S315020039B81F4600F0DDFB48B9032F07D823683246B5
S315020039C8294620465B69BDE8F0411847BDE8F08103
S315020039D800F0E4BB1EB400F09CF81EBC01F016FA17
S315020039E80378472B17D143784E2B14D18378552B5E
S315020039F811D1C378432B0ED10379432B0BD14379CB
S31502003A082B2B08D183792B2B05D1C07901288CBFA2
S31502003A180020012070470020704700002DE9F3417D
S31502003A281D4603780E460246472BC17913D14378C1
S31502003A384E2B10D18378552B0DD1C378432B0AD13F
S31502003A480379462B07D143794F2B04D18379522B1D
S31502003A5801D1002930D01046FFF7C2FF80F00104D9
S31502003A680023E4B2002001904BBB54BB01290ABFD4
S31502003A7852F8203CA2F12003783B01290CBF52F8E8
S31502003A88202C58321C680192236820469B68984766
S31502003A98C8B1019B02271B680193336801AA214614
S31502003AA83046D3F810800123C04770B1019B2B60C2
S31502003AB8384602B0BDE8F08101230C46D2E7044C31
S31502003AC8E2E7044CE0E70127E7E70746F0E700BF2D
S31502003AD8248400025084000210B5044600F032F82D
S31502003AE802462046A4F12001FFF77AFF60B154F896
S31502003AF8043C0133012B44F8043C03D1936844F88F
S31502003B08083C9160012010BD9368002BF9D000F0A3
S31502003B1895FA10B500F016F8826801460AB900F05F
S31502003B288DFA02F120042046FFF75AFF40B1D36905
S31502003B38013BD36113B9906988609361204610BD31
S31502003B488860FBE7004870472005032200231A46CF
S31502003B5830B510F8015B05F07F0494400732234321
S31502003B682C06F6D40B6030BD00231A4630B510F881
S31502003B78014B04F07F05954007322B432506F6D400
S31502003B881F2A06D8640642BF4FF0FF3404FA02F22F
S31502003B9813430B6030BD50282DE9F341064688468B
S31502003BA815461F4608D1D01C20F0030050F8044BD6
S31502003BB83C6002B0BDE8F08100F00F030C2B2ED852
S31502003BC8DFE803F025071D25292D2D2D2D18212582
S31502003BD8290001A92846FFF7B9FF019C002CE7D066
S31502003BE806F07003102B08BFA8463306444448BFA4
S31502003BF82468DDE701A92846FFF7B6FFEDE7284660
S31502003C0830F8024BEAE7284630F9024BE6E728463F
S31502003C1850F8044BE2E7284650F8084BDEE701F075
S31502003C2815FB08B503460846FF2B0DD003F07003B3
S31502003C38302B0FD004D8202B08D005D901F006FB6B
S31502003C48402B0BD0502BF9D1002008BDBDE8084007
S31502003C5801F0F9BABDE8084001F0F2BABDE8084039
S31502003C6801F0DEBA70B50C4615461E4601462046D8
S31502003C78FFF7D7FF334601462A462046BDE870407D
S31502003C88FFF789BF73B50C461546064608B101F01B
S31502003C98C7FA2246286012F8011BFF291CD02B1DE1
S31502003CA83046FFF7DFFF0246104610F8013BFF2BAE
S31502003CB814D0102301A92B75FFF748FF019B034473
S31502003CC8EB6001A910F8013B6B75FFF73FFF019BFB
S31502003CD803442B6102B070BD6860E5E72B750023CB
S31502003CE8EEE71FB503AB0A4600930023194600F018
S31502003CF8A9FC039805B05DF804FB00002DE9F04F16
S31502003D08002393B005460C46079300F003031646B4
S31502003D18012B10D0022B03D0002B3BD101073BD538
S31502003D283146204601F066FA18B1092013B0BDE8FB
S31502003D38F08F0820FAE7020723D5022305F00805C3
S31502003D480C2230460C941D430CAB009300231946F3
S31502003D5800F09EFC062D21D1D4F83080B8F1000F70
S31502003D68D4E90A790CBF4FF0010A4FF0030A15F09D
S31502003D78080500F00981BAF1010F40F0018100F04F
S31502003D885DF90F6A30460D21FFF7ABFF8742D4D1A2
S31502003D980623D3E701F05AFA0123CFE7304601F0AA
S31502003DA845FA81460028BBD00CAA01463046FFF7E1
S31502003DB869FF9DF844B0314603905846FFF731FF34
S31502003DC80F2102900E903046FFF78BFF20F0010874
S31502003DD8039A08F1FF38109F974215D800274FF02B
S31502003DE8010AB846EB07C2D5BAF1020F98D0079D69
S31502003DF80D213046FFF775FFC4F83080C4E908057F
S31502003E08C4E90A79062091E79DF845A008AB002087
S31502003E185146FFF727FF09AB024651460020FFF736
S31502003E2821FF0AAB024651460020FFF71BFF0BA9EA
S31502003E38FFF78CFE0C9B089902460B44434551D862
S31502003E4809990B444345C6D9DDF82880B8F1000F15
S31502003E5801D00D9B98440B9B002B3BD0B8F1000F69
S31502003E683FF45EAF15F0080204923DD04722227055
S31502003E784E2262705522A2704322E27046222271B5
S31502003E884F2262715222A2710022E271013BF81896
S31502003E980023039309A9FFF767FE0AA90590FFF70E
S31502003EA863FE099F002F68D042DDBBF1FF0F3BD0AE
S31502003EB80BF00703042B3FF66DAF01A252F823F06D
S31502003EC8033F00029D3D0002353F0002033F000208
S31502003ED82D3F0002B8F1000F3FF422AF00274FF042
S31502003EE8020A7FE73A4676E7E279012A0CBF54F8D6
S31502003EF8202C04F158020792C8E704220F990BAB4B
S31502003F08584602FB17120299FFF745FE0B9931B183
S31502003F183CB307AB00222046FFF780FD08B34FF0FB
S31502003F28030A5FE70822E9E70022E7E70222E5E754
S31502003F386FF040420F9BD21B03EB820AC4B104996D
S31502003F48B1B9079BAAF1040A0B935AF8041F002970
S31502003F58E5D00BAB002251442046FFF75FFD00284F
S31502003F68F3D00A98002859D0059B0344184691E7CE
S31502003F7853F82230002BF4D1D1E701230393F0E75B
S31502003F88002F1FDA00F06AF8BAF1010F02D12046B3
S31502003F9800F023F9002F15DA0CAA49463046FFF736
S31502003FA871FE31469DF84400FFF73BFEFA430F9B2C
S31502003FB803EB820353F8252052BB0422C4E90A50B4
S31502003FC8C4E90C2300230BAD30460B941A46194656
S31502003FD8009500F05DFB0023012230461946009544
S31502003FE80B9700F055FB0F213046FFF77AFE00F0DB
S31502003FF8010000230F2240EA0800009519460B909B
S31502004008304600F045FBBAF1020F03D007208DE6D1
S315020040180135CFE72046FFF75FFDF7E7039B002B45
S315020040283FF47EAE5AE700BF08B5804701F00EF9A5
S31502004038014BD3E8AF0F70471000002208B5FFF70F
S31502004048F7FFFFF7F1FF08B58047FFF7F7FF000014
S31502004058014BD3E8AF0F70470C00002208B5FFF7F3
S31502004068F7FFFFF7F0FF0000034B10B504460360A5
S31502004078FFF75AFC204610BD9484000210B5044688
S31502004088FFF7F2FF0C212046FFF7A2FC204610BDDF
S315020040982DE9F041DDF8188006460F46154690458B
S315020040A81C460BD0B0682A4639460368CDF81880F4
S315020040B81E6A2346B446BDE8F0416047194600F039
S315020040C857F80028EED00620BDE8F0812DE9F14F19
S315020040D80D461946814617469846DDE90A4BDDE93B
S315020040E80CA600F045F890B1002D3460377109DB53
S315020040F82C44A24514BF01240624B471002001B041
S31502004108BDE8F08F0235F9D10123B371F6E75445BC
S3150200411806D15946484600F02BF808B17771EDE703
S31502004128D9F808003A4629460368CDE90CA6CDE92E
S315020041380A4BDC694346A44601B0BDE8F04F604726
S315020041482DE9F04107460C4615461E46FFF71FFCA9
S3150200415848B9B8682A46214603689F693346BC4669
S31502004168BDE8F0416047BDE8F0817047002070471E
S31502004178814208B50ED0406803782A2B0CD04968CC
S315020041880B782A2B08BF013102F036F8B0FA80F014
S31502004198400908BD0120FCE70020FAE701F066B8ED
S315020041A80378472B17D143784E2B14D18378552B96
S315020041B811D1C378432B0ED10379432B0BD1437903
S315020041C82B2B08D183792B2B05D1C07901288CBFDB
S315020041D80020012070470020704710B5044648B1F8
S315020041E800F03BF82046FFF7DBFF18B154F8140C31
S315020041F8FFF71AFFFFF722FF38B50246FFF7D0FF8F
S31502004208044640B152F8184C0025104600F025F82D
S315020042181DB1FFF723FF0125F7E72046FFF713FF36
S315020042280378472B17D143784E2B14D18378552B15
S3150200423811D1C378432B0ED10379432B0BD1437982
S315020042482B2B08D183792B2B05D1C07901288CBF5A
S315020042580020012070470020704738B50446FFF752
S3150200426871FC024605682046A4F12001FFF7D8FF33
S3150200427828B90DB1FFF7E2FE1160284638BD54F899
S315020042880C3C2046002BB4BFC3F1010301338D4217
S3150200429844F80C3C536803F1FF3353601CBF44F8DF
S315020042A8105C1160656A00F0CBF9E6E703685A000C
S315020042B84CBF43F0004323F000431844704700BF45
S315020042C82DE9F04729B301F1FF3A804691460025C8
S315020042D85646A91948BF0131491008EBC107CC0057
S315020042E83846FFF7E3FF8A450DD00834484508EB00
S315020042F804000AD8FFF7DAFF01384D1C4845E8D30F
S315020043083846BDE8F0874845FAD98D4201F1FF36AD
S31502004318DFD100273846BDE8F08700BF012809D05B
S31502004328022805D00028044B14BF002018467047FF
S315020043380248704702487047114A0002214A0002A1
S31502004348194A0002224B30B5044683B08D1E43B388
S3150200435801A92846AFF30080F0B101992A46FFF772
S31502004368AFFF0146C0B1FFF7A1FF4B68A064012B5E
S315020043782AD0002B01F1040024DBFFF797FF002364
S3150200438823650368E064002B11DBFFF78FFF034602
S315020043980020236103B030BD00230920236103B046
S315020043A830BD0C480C49091AC9100191D6E7C3F366
S315020043B80360FFF7B3FF031E0CBF09200020236129
S315020043C803B030BD0123DBE700230520E1E700BF88
S315020043D80000000074890002D48A00020368DA0722
S315020043E810B5044606D49B0700F1500009D500F023
S315020043F893FC2368590709D51A070ED5DB0613D588
S3150200440810BD00F081FC23685907F5D404F1D800E1
S3150200441800F08AFC23681A07F0D404F5AC7000F0A1
S315020044288BFC2368DB06EBD404F5EC70BDE8104080
S3150200443800F0C6BC0346006800B11844704700BFC6
S31502004448704700BF70B504460E46316C2046FFF72A
S3150200445879FF054698B9D6F840C0324623692146FF
S315020044680120C4F814C098470828EED0072806D1B8
S315020044782846316CFFF7E4FF301D00F039FC00F0E6
S31502004488E5FE00BF2DE9F04701F1040CADF5787D94
S31502004498C7680646D0F8188014460DF1140E04AD06
S315020044A84FF00009BCE80F00AEE80F00BCE80F00A9
S315020044B8AEE80F00BCE80F00AEE80F009CE80F005C
S315020044C88EE80F00C5F8009023E02B6C4FF4F472C7
S315020044D829467EA8736101F099FE33697EAA3146A0
S315020044E8504698478C9B2146814603933246039C45
S315020044F833460120AC64CDE90058B847044628BBC8
S315020045084FF4F4727EA9284601F080FEB9F1080F2D
S3150200451819D10934296C3046FFF714FF81465FFA30
S3150200452884FA0028D1D0AC6B334632464AF01001E1
S31502004538AC640120CDE90058B84738B948460DF5AC
S31502004548787DBDE8F087B9F1070F06D04FF0090963
S3150200455848460DF5787DBDE8F0872046296CFFF7B9
S315020045686FFF05A800F0C4FBF0B5CB6BFBB001F1F9
S31502004578040C0E460B6401AC05464FF0FF37BCE847
S315020045880F000FC4BCE80F000FC4BCE80F000FC42D
S315020045989CE80F0084E80F00009706E02B696A463C
S315020045A8294698470828044608D110992846FFF74D
S315020045B8C9FE0028F2D009207BB0F0BD6846FFF795
S315020045C80DFF062CF7D131462846FFF73BFF00BF01
S315020045D810B4DC6BC1601946826100221C6410BCEF
S315020045E8FFF750BF70B54369C6680B64AEB9036975
S315020045F80A4604460D46014602209847072805D072
S3150200460808280FD129462046FFF71CFF3046296C99
S31502004618FFF716FF281D00F06BFB0122FFF732FF9A
S3150200462800F014FE00F012FEC26832B1D1F83CC0A6
S315020046380022C1F840C0FFF725BFFFF795BF00BFAC
S31502004648704700BF052915D8DFE801F00A031403ED
S31502004658030501207047436C0020009A13607047D7
S3150200466843B90F2A06D800EB820200205368009A43
S31502004678136070470220704710B584B000230A46BB
S3150200468803AC19460094FFF7DDFF039804B010BD8A
S31502004698052915D8DFE801F00A03140303050120EA
S315020046A87047009B1B6843640020704743B90F2A72
S315020046B806D8009B00EB820200201B6853607047F5
S315020046C80220704710B584B0002303AC03920A4651
S315020046D819460094FFF7DCFF04B010BDF0B5D36BA2
S315020046E8ADF5117D141D064613640DF15C0C0D46DD
S315020046F84FF0FF370FCCACE80F000FCCACE80F0039
S315020047080FCCACE80F0094E80F008CE80F00169760
S3150200471810E0FFF7D7FF294616A8B047034616AAA0
S315020047286946082083B9049B9847052804460CD095
S3150200473809280AD026996846FFF704FE03466A4600
S315020047480C2116A8002BE4D0092416A8FFF746FE6A
S3150200475820460DF5117DF0BD2DE9F04F1646CA6CBF
S3150200476889B00D4652F8041B00F0030C0692002B82
S315020047787CD00C0C09048DF81D40E4B20591022187
S3150200478802EB8402BCF1020F8DF81C10296D08BFDA
S31502004798AA6B11F0010809D005A9304600F0AAFB58
S315020047A800285BD1082009B0BDE8F08F1768002FF2
S315020047B8F2D000F00801BB469A4667460191CDF849
S315020047C80880BAF1020F4DD0B2F800B002F104091E
S315020047D8548824F00102AB6C64000F2102EB030833
S315020047E83046FFF749FF04F002040BF00103804547
S315020047F843EA04032CD82BF0010B012BC34472D0D5
S31502004808022B39D053BB17B1834500F2C88009F190
S315020048180402D2F800B0BBF1000FD2D105A9304686
S31502004828DDF8088000F066FBC0B9B8F1000FB9D010
S315020048380F213046FFF720FF0E2102463046FFF7CA
S3150200484841FF704A0F213046FFF73CFF072006E07A
S31502004858012B66D0022B25D0002BD8D0092009B00F
S31502004868BDE8F08F546802F10809B2E709028DF82B
S315020048781D300591032185E7D9F8004024F0004848
S31502004888B7B9834505D9019B002B64D0B8F1000F4F
S3150200489861D0002C01DA09F1040908F1010309EBD8
S315020048A88302B6E7D9F8004024F00048002FF0D07A
S315020048B8D5F820B00D213046FFF7DEFE8345E8D154
S315020048C8AA6A9145E5D100240422C5F82880C5E9DB
S315020048D80B424A446A63D9F80020A242C0F28D808C
S315020048E801230293D9E7F7B9834517D9D9F80430D2
S315020048F8D9F80020991C4FEAD272AFD005F15804B4
S315020049080133049472D009F10400FFF793FD04AB56
S3150200491801462846FFF782F8002853D109F1080212
S3150200492877E7002FFAD02C6A0D213046FFF7A4FE4E
S315020049388442F3D1AB6A9945F0D14846FFF7B6FCF3
S315020049480F2102463046FFF7BDFE2A4600213046B1
S31502004958FFF7B8FE7AE705F15803039709F1040B46
S3150200496800241F460CE0584600220497FFF762FD12
S3150200497804AB014628460BF1040BFFF74FF888BB38
S31502004988444504F10104EED10D213046FFF774FEC9
S31502004998049B024606202A62C5E909395FE74846AA
S315020049A8FFF784FC09F1040204462846AA63FFF7C6
S315020049B893F800283FF452AF22460F213046FFF7FC
S315020049C881FE43E704460D213046049EFFF754FE56
S315020049D8022C286202D1EE6205F12C060620C5E9F0
S315020049E809693CE7039FD9F8004052E730460D2192
S315020049F8FFF742FE26462862F0E708F1010209EBB4
S31502004A0882009BE7014200020023FFF7A5BE00BF12
S31502004A180123FFF7A1BE00BF0223FFF79DBE00BF19
S31502004A282DE9F0410546C4B01446052900F2B480C2
S31502004A38DFE801F00F29B2698F03836B002C40F07F
S31502004A48AB8053F8042B42648363002044B0BDE86C
S31502004A58F081002B40F0A0801FFA84FC806B0126AF
S31502004A682F1D06FA03F1024611EA0C0F04D052F87A
S31502004A78041B104647F823100133102BF1D1A20468
S31502004A88E3D4A863E1E703F0FB02260CA4B2012AE9
S31502004A9840F08280012B06EB040800F0C280B8F1D0
S31502004AA8200F79D80F2E79D9002CCED0026801931F
S31502004AB8530705D522F0040240F8D82B00F038F93E
S31502004AC802AF6400384600F033F9A6F11002A96B6A
S31502004AD8601E019B07EBC202441C101F01EB8402F5
S31502004AE851F8044B914240F8044FF9D1012B00F0DA
S31502004AF8CA800F2EA96302D822A800F00DF93846FB
S31502004B0800F012F9A1E7032B46D11FFA84F8260C06
S31502004B1808EB1444102C3FD803681F0700F1AB803A
S31502004B2822AF384600F02AF9AC6B4FEA480107EB88
S31502004B38C6034A1E41B1E01A013A1958561C43F8EF
S31502004B48041BF9D104EBC8043846AC6300F0F4F848
S31502004B587BE70BBB102C1FD80368D80600F18380AD
S31502004B6822AF384600F036F9AE6B394600234FF0CD
S31502004B78010C0CFA03F230460133224203D050F8F4
S31502004B88042B06460A60042B01F10401F1D13846CA
S31502004B98AE6300F015F958E7022057E70268B8F144
S31502004BA8100F02F0010040F2898058B122F001028A
S31502004BB82846019342F0020240F8502B00F0B0F862
S31502004BC82A68019B5107A8F1100800F18880019311
S31502004BD822AF384600F0A4F802A800F0A9F8C6F1F8
S31502004BE81001AA6B07EBC6004900019B0139013186
S31502004BF8043802EB810152F8044B914240F8044F03
S31502004C08F9D1B8F1000F4FD04FEA4802102E02AF81
S31502004C1802F1FF30324638BF1022103A07EBC202C1
S31502004C285AE7B8F1100FB7D8102EB5D00168CA07DF
S31502004C3830D521F003012846019340F8501B00F0B5
S31502004C4867F8019B012B25D022AF0193384600F065
S31502004C5867F8AA6B74B3019B64004FF0000807EB70
S31502004C68C600611EC3E723F0100305F5EC702B603E
S31502004C7800F0B0F874E723F0080300F5AC702B6077
S31502004C8800F07CF84CE722AF04323846AA6300F0FB
S31502004C983BF8DAE622AF0193384600F039F8AA6BF8
S31502004CA8019B002CF0D0D7E7012BEDD00F2EA9637C
S31502004CB83FF6CBAE384600F02FF8C6E61146002876
S31502004CC8C2D0052BB5D122F001022846019342F043
S31502004CD8020240F8502B00F023F8019BB4E722F0B9
S31502004CE804022846019340F8D82B00F021F86FE712
S31502004CF800F1340191E838009C46A6464CF8045D5A
S31502004D0890E8FF0FE54600BD90EC210B704700BF07
S31502004D1880EC210B704700BF90EC200B704700BF58
S31502004D2880EC200B704700BFD0EC200B704700BF09
S31502004D38C0EC200B704700BFF0EC0201F0EC021148
S31502004D48F0EC0221F0EC0231F0EC0241F0EC0251F7
S31502004D58F0EC0261F0EC0271F0EC0281F0EC0291E7
S31502004D68F0EC02A1F0EC02B1F0EC02C1F0EC02D1D7
S31502004D78F0EC02E1F0EC02F1704700BFE0EC020150
S31502004D88E0EC0211E0EC0221E0EC0231E0EC024137
S31502004D98E0EC0251E0EC0261E0EC0271E0EC028127
S31502004DA8E0EC0291E0EC02A1E0EC02B1E0EC02C117
S31502004DB8E0EC02D1E0EC02E1E0EC02F1704700BF60
S31502004DC8B0FC0181B0FC0191B0FC01A1B0FC01B1BB
S31502004DD8704700BFA0FC0181A0FC0191A0FC01A1C3
S31502004DE8A0FC01B1704700BFEC4600B52DE90050A2
S31502004DF82DE9FF1F4FF000032DE90C0001A9FFF76B
S31502004E08B3FBDDF840E012B0704700BFEC4600B5D0
S31502004E182DE900502DE9FF1F4FF000032DE90C0084
S31502004E2801A9FFF7DFFBDDF840E012B0704700BFCB
S31502004E38EC4600B52DE900502DE9FF1F4FF000039F
S31502004E482DE90C0001A9FFF7EFFBDDF840E012B0EF
S31502004E58704700BFEC4600B52DE900502DE9FF1F4B
S31502004E684FF000032DE90C0001ABFFF7B1FBDDF8AB
S31502004E7840E012B0704700BFEC4600B52DE900507D
S31502004E882DE9FF1F4FF000032DE90C0001AAFFF7D9
S31502004E9825FCDDF840E012B0704700BF027A0346EF
S31502004EA88AB9427AB2B14168013A4FF0030C10B49A
S31502004EB842720C1D086883F808C002025C60000E84
S31502004EC810BC1A6070470068013A1A720202000E94
S31502004ED81A607047B020704710B584B000230C22C0
S31502004EE803AC19460094FFF7ADFB039804B010BD56
S31502004EF8FFF7F2BF2DE9F0434FF0000885B00646EA
S31502004F080D462846FFF7CAFFB028044600F01E8160
S31502004F18070638D500F0F003A02B00F083800CD8E2
S31502004F28802B5ED0902B04D100F00D030D2B40F0A0
S31502004F388F80092005B0BDE8F083B02B68D0C02B5E
S31502004F483ED1C62800F0EF80C72800F0048100F0A1
S31502004F58F803C02B00F01181C82800F01C81C9286B
S31502004F68E7D12846FFF79AFF020300F00F0002F482
S31502004F78702201300243012105233046FFF750FD16
S31502004F880028BED0D5E783000DF108090D22304668
S31502004F98DBB2CDF800901F1D00231946FFF752FB1E
S31502004FA8029B60064FF00D023046CDF800904CBFCA
S31502004FB8DF1BFF18002302971946FFF769FBA0E7D4
S31502004FC800F0F803D02BB4D100F007020523012123
S31502004FD83046013242F40022FFF722FD002890D023
S31502004FE8A7E724022846FFF759FF2043B0F5004FEA
S31502004FF89FD0040100233046A2B21946FFF710FDDE
S31502005008002896D114F4004F18BF4FF0010878E72C
S31502005018A0F1B103042B00F2DA80DFE803F07B503B
S315020050283D332A00C3434FF47F62010703F00703A7
S3150200503842FA03F202F47F6201D542F48042002367
S3150200504830461946FFF7ECFC00283FF45AAF70E7E2
S3150200505802AF002300F00F02304619460097FFF709
S31502005068F1FA00230D22304619460097FFF710FB86
S3150200507847E703AA00233046009219460D22FFF796
S31502005088E1FA3EE70023052130461A46FFF7C8FC37
S3150200509800283FF436AF4CE72846FFF7FFFE012308
S315020050A8020300F00F001946013002F4702202438F
S315020050B83046FFF7B5FC00283FF423AF39E7002353
S315020050C80DF108090D2230461946CDF80090FFF772
S315020050D8B9FA2846FFF7E2FE0206029C4FF00207DB
S315020050E80AD500F07F00B8400737044428460294E0
S315020050F8FFF7D4FE0306F4D4B84004F5017400237E
S315020051080D222044CDF80090194602903046FFF74A
S31502005118BFFAF6E62846FFF7C1FE431E0246DBB291
S315020051280E2B8CD905E72846FFF7B8FE03230203A0
S3150200513800F00F001946013002F47022024330468D
S31502005148FFF76EFC00283FF4DCAEF2E6B8F1000F7A
S315020051582DD00020EEE62846FFF7A0FE431E0246A3
S31502005168DBB20E2B3FF6E5AE002304213046FFF7ED
S3150200517857FC00283FF4C5AEDBE600F00F02032316
S3150200518830460132194642F42022FFF749FC00282C
S315020051983FF4B7AECDE62846FFF780FE00F0F002F0
S315020051A800F00F031032013343EA0232E3E602AC9F
S315020051B8434641460E2230460094FFF743FA0F2231
S315020051C84346414630460094FFF762FAC1E700F0CB
S315020051D8FC03B42B3FF4ADAE00F0070201233046C0
S315020051E81A44194642F40022FFF71AFC00283FF433
S315020051F888AE9EE6024603230846D26C10B584B0F2
S3150200520808328DF80C3001A952F8043C1C021B0E18
S31502005218CDE901428DF80D30FFF76CFE04B010BDE2
S3150200522808B5FFF765FE806C08BD00BF08B5FFF735
S315020052385FFEC06CC37900EB8300083008BD00BF6F
S3150200524808B500F003F808B5FFF7FAFF062008B517
S3150200525800F09EFF012002F0AFFD0000024B01465E
S31502005268186800F02DB800BF80010022024B0146E3
S31502005278186800F0EFBF00BF8001002270B50F4E1C
S315020052880C460546316811B900F09EFF306021468A
S31502005298284600F099FF431C03D14FF0FF342046FD
S315020052A870BDC41C24F00304A042F8D0211A284673
S315020052B800F08AFF0130F2D1EFE700BF2C05032286
S315020052C82DE9F843CD1C064625F0030508350C2DB5
S315020052D838BF0C25002D01DBA94204D90C23336003
S315020052E80020BDE8F883DFF8D48000F069F8D8F822
S315020052F800301C4644BB29463046FFF7BFFF431C15
S31502005308044658D1D8F800402746002F43D1002C2E
S315020053184BD023683946304604EB030900F054FFA4
S31502005328814542D1216830466D1A2946FFF7A6FF04
S3150200533801303AD023682B442360D8F800305A68E3
S3150200534862BBC8F800700FE02268521B20D40B2AF1
S3150200535817D96119A342256018BF5960636808BF47
S31502005368C8F8001062514B60304600F02FF804F17D
S315020053780B00231D20F00700C21A1CBF1B1AA350DC
S31502005388AFE76268A3420CBFC8F800205A60EBE791
S3150200539823466468AEE73C467F68B6E71A465B680A
S315020053A8A342FBD100235360DEE70C233046336069
S315020053B800F00CF894E70560D6E700BF3005032233
S315020053C8014800F017BF00BF70060322014800F02B
S315020053D812BF00BF7006032270B504460D46164674
S315020053E845EC104B01F03CFE7EB1C5F30A53C3F1FE
S315020053F86B03002B09DD1B05002003F17F5101F524
S31502005408401141EC170B20EE070B70BD000000009F
S315020054182DE9F04F2DED0A8B97B088464FF0000A1A
S315020054284FF0000B0E920022059012920A46119234
S3150200543811782B294CD039D80D2933D8082933D8D5
S3150200544800293CD000220892119D2A78302A40F081
S31502005458B7806A7802F0DF02582A70D1029311A93E
S31502005468089B914A019312AB0598009313AB00F07F
S31502005478A1FF10F00F06044605D0062E2AD10135E3
S315020054880023119508930E9B002B40F03B85089B41
S315020054984BEC10ABCBB1B1EE400B17B0BDEC0A8B9F
S315020054A8BDE8F08F2029CDD10132C0E72D29C9D117
S315020054B801210891511C11915278002AC4D10E9BE0
S315020054C8CDF84480002B40F01B854BEC10ABE4E78B
S315020054D80021EEE7129A3AB1352114A801F0BBFE73
S315020054E81299059801F088FA731E139A042B06D8A6
