S01D000041726D53796E635F536F6C7574696F6E5F435055302E7372656317
S3150200000040020222A96D00020D6C0002A56D0002DB
S31502000010A56D0002A56D0002A56D0002A56D000288
S315020000200000000000000000000000001D31000278
S31502000030A56D000200000000353100029D3100026C
S31502000040E564000299580002F55700022D59000294
S315020000507959000299580002F55700022D590002FB
S315020000607959000299580002F55700022D590002EB
S315020000707959000299580002F55700022D590002DB
S30D0200008079590002C160000279
S315020000880000000001010000DCD500020CD60002C7
S315020000984600000024000000DCD500020CD600024F
S315020000A83500000024000000DCD500020CD6000250
S315020000B83100000026000000DCD500020CD6000242
S315020000C814000000120000000100000010400000A9
S315020000D8104000001040000010400000010000001F
S315020000E801000000E57700022990000243000000A3
S315020000F800000000000000000000000000000000F0
S31502000108000000000000000000000000430000009C
S3150200011800000000000000000000000000000000CF
S31502000128000000000000000000000000430000007C
S3150200013800000000000000000000000000000000AF
S31502000148000000000000000000000000430000005C
S31502000158000000000000000000000000000000008F
S31502000168000000000000000000000000430000003C
S31502000178000000000000000000000000000000006F
S31502000188000000000000000000000000430000001C
S31502000198000000000000000000000000000000004F
S315020001A800000000000000000000000043000000FC
S315020001B8000000000000000000000000000000002F
S315020001C800000000000000000000000059CA0002FA
S315020001D8D3BF00020000000068E3000278E00002D4
S315020001E809E2000209E2000209E2000209E200024B
S315020001F809E2000209E2000209E2000209E200023B
S3150200020809E20002FFFFFFFFFFFFFFFFFFFFFFFFFD
S31502000218FFFF000001004153434949000000000066
S3150200022800000000000000000000000000000000BE
S315020002380000000000004153434949000000000045
S31502000248000000000000000000000000000000009E
S315020002580000000000000000DC010022000000008F
S3150200026884D10322ECD1032254D2032200000000D7
S31502000278000000000000000000000000000000006E
S31502000288000000000000000000000000000000005E
S31502000298000000000000000000000000000000004E
S30D020002A8000000000000000046
S315020002B00348044B834202D0034B03B118477047ED
S315020002C0280200222802002200000000064B0749ED
S315020002D0C91A891048BF0131491003D0044B0BB12A
S315020002E001481847704700BF280200222802002250
S315020002F00000000010B5064C237843B9FFF7D8FF7B
S31502000300044B13B10448AFF300800123237010BDE0
S315020003106C0202220000000028F1C90208B5054B52
S315020003201BB105490548AFF30080BDE80840FFF759
S31502000330CDBF00BF000000007002022228F1C902F0
S315020003400160027143719DF800308371704710B5E8
S315020003500446006808B105F037F8204610BD0000D3
S31502000360F0B5ADF5057D07460C46037943BB002083
S31502000370C0F5FF720132214604AB18440AF022FC92
S3150200038000238DF80F32224B1B7853B94FF47A763D
S3150200039001251F4C3146284606F0D0FB2378002B58
S315020003A0F8D01B4B00221A7004A80AF0A4FC0246DD
S315020003B03B6804A9186804F054FF0DF5057DF0BDED
S315020003C0144B1968144AA2FB01329209134BA3FB80
S315020003D00203DB0A4FF47A7000FB121102911048F5
S315020003E0A0FB02514909C1EB0111A2EB8101019166
S315020003F04FF4616101FB1322A0FB02025209009233
S31502000400084A4FF4007104A80AF034FBB0E700BFB3
S315020004100400002288020222D34D6210C5B3A291C3
S3150200042089888888F4D100020EB410B5C3B0044698
S3150200043045AB53F8042B01934FF4807102A80AF0DE
S3150200044099FB02A92046FFF78BFF43B0BDE8104097
S3150200045003B0704708B4F0B5ADF50C7D04460E4600
S31502000460154691AB53F8042B4B934CAF4FF4807166
S3150200047038460AF07FFB019700962B46074A4FF44F
S31502000480907103A80AF0F6FA03A92046FFF768FF5F
S315020004900DF50C7DBDE8F04001B0704710D20002A8
S315020004A00CB430B5ADF51F7D04460A46A2AB53F82F
S315020004B0045B5D934FF480715EA80AF05BFB63797F
S315020004C0002B144B144A18BF1346A279CAB1ADB118
S315020004D02A68A9685EA80290019100920F4A4FF419
S315020004E0B07105A80AF0C6FA05A92046FFF738FF3B
S315020004F00DF51F7DBDE8304002B07047084A002165
S31502000500E8E75EAA0092074A4FF4B07105A80AF01E
S31502000510B1FAE9E73CD2000224D2000248D2000234
S315020005201CD4000258D200020CB430B5ADF51F7DC2
S3150200053004460A46A2AB53F8045B5D934FF48071FE
S315020005405EA80AF017FB6379002B144B144A18BFF6
S315020005501346A279CAB1ADB12A68A9685EA802900B
S31502000560019100920F4A4FF4B07105A80AF082FA7F
S3150200057005A92046FFF7F4FE0DF51F7DBDE83040C4
S3150200058002B07047084A0021E8E75EAA0092074ACD
S315020005904FF4B07105A80AF06DFAE9E778D20002C5
S315020005A060D2000248D200021CD4000258D20002D5
S315020005B00EB410B5ADF50D7D04468FAB53F8042B82
S315020005C04B934FF480714CA80AF0D4FA6379002B4E
S315020005D04CAB0093094A0A4B08BF1346094A4FF42B
S315020005E0907103A80AF046FA03A92046FFF7B8FE5F
S315020005F00DF50D7DBDE8104003B0704798D200029C
S3150200060084D2000258D200020EB410B5ADF50D7DAB
S3150200061004468FAB53F8042B4B934FF480714CA8CE
S315020006200AF0A8FA6379002B4CAB0093094A0A4BED
S3150200063008BF1346094A4FF4907103A80AF01AFA42
S3150200064003A92046FFF78CFE0DF50D7DBDE810408F
S3150200065003B07047B8D20002A0D2000258D20002FC
S315020006600160426000228260C260026102757047C8
S31502000670026943689A420DD202688368D15483683C
S3150200068001334268B3FBF2FC02FB1C33836003694D
S31502000690013303610A2904BF012303757047026906
S315020006A09AB110B4C3680168C95C01334468B3FBEC
S315020006B0F4FC04FB1C33C360013A02610AB900234D
S315020006C0037508465DF8044B70474FF0FF307047DC
S315020006D000697047007D70472DE9F041037DCBB17B
S315020006E0064688464D1E571E00243046FFF7D7FFA2
S315020006F0002808DBBC4205D0013405F8010F0A28A0
S31502000700F3D100E03C46002308F804303375204656
S31502000710BDE8F0810024FAE710B5044603F0B2FD05
S31502000720A06023685B682046984710BD08B5037928
S31502000730042B00D008BD017A0148FFF799FFF9E7BB
S31502000740A404022208B50379042B00D008BD017A5D
S315020007500148FFF78DFFF9E78C0202222DE9F04FDF
S315020007602DED088BA1B080464B48FFF7B3FF20B9A9
S3150200077021B0BDEC088BBDE8F08F80226946464861
S31502000780FFF7AAFF0028F3D04FF0000AD34608EE7F
S3150200079010AA08EE90AA09EE10AA09EE90AA0AEE8D
S315020007A010AA0AEE90AA0BEE10AA68460026374651
S315020007B04FF02C0947E02F70394609F0B9FA082E96
S315020007C008D8DFE806F0052326292C2F3235380013
S315020007D0B0EE40BA0136E4B20D2C2FD8082EC7DD92
S315020007E088ED0CBAC8ED0DAA88ED0EAAC8ED0F9ACF
S315020007F088ED109AC8ED118A88ED128AC8F84CB0B5
S31502000800C8F850A0012388F85530B1E7F0EE40AAA7
S31502000810E0E7B0EE40AADDE7F0EE409ADAE7B0EEA6
S31502000820409AD7E7F0EE408AD4E7B0EE408AD1E7A5
S3150200083010EE10BACEE710EE10AACBE7284600F863
S31502000840019B092ECCD090F9004005464CB12C2CC8
S31502000850B1D00A2C05D00D2C03D015F9014F002C6E
S31502000860F5D12F70394609F063FA082E80D801A314
S3150200087053F826F0D10700020D0800021308000201
S31502000880190800021F080002250800022B080002B0
S315020008903108000237080002A40402222DE9F043BF
S315020008A08FB080462A4D4FF0AA090DF11906284647
S315020008B0FFF70EFF192847D92846FFF7F0FEAA28A8
S315020008C0F5D18DF800906F463C462846FFF7E7FEC5
S315020008D004F8010FB442F8D19DF819300D2BE6D178
S315020008E007AB4FF0040E4EF001E0B9787A7842EA8F
S315020008F001221A803979FA7842EA01225A80B979B4
S315020009007A7942EA01229A80063706330FF013C833
S3150200091001278DF8347007AC0FCCC8F81400C8F85C
S315020009201810C8F81C20C8F8203003CCC8F82400D8
S31502000930C8F82810FBB288F82C3088F8547003F0F7
S31502000940A1FCC8F85800B2E70FB0BDE8F08300BFBB
S315020009508C02022230B593B004460D460DF1040C0A
S3150200096000F1300EBEE80F00ACE80F00BEE80F0043
S31502000970ACE80F00DEF80030CCF800300DF1280CA0
S315020009806069A169E269236AACE80F00606AA16A3C
S31502000990ACE8030094F82C308CF8003011952069ED
S315020009A000231A4601A9006802F04CFF13B030BDBD
S315020009B010B5044603F066FC94F8543043B9A36DAF
S315020009C073B1C31A94F855200AB14F2B0CD810BD37
S315020009D0002384F8543001462046FFF7BBFFF6E7B2
S315020009E094F85530002BF2D001462046FFF7B2FFAD
S315020009F0EDE7000038B5044608490948FFF7D8FD77
S31502000A0003252046FFF74AFF2046FFF7A7FE2046AA
S31502000A10FFF7CEFF284603F0B9FDF2E7C0D2000287
S31502000A2098C8032208B54FF4806205490548FFF7C6
S31502000A3017FE4FF4007204490448FFF711FE08BD81
S31502000A40BC040222A4040222A40202228C02022272
S31502000A5010B504460379042B03D02379022B05D063
S31502000A6010BD017A0348FFF703FEF6E7024B0122A7
S31502000A701A70F5E740090222050000220FB4F0B50C
S31502000A8083B008AB53F8042B01937D2117480AF073
S31502000A9071F8002824DB154BFF221A5403445A70BE
S31502000AA09A70C61C124B1B7893B901254FF47A77BC
S31502000AB00F4C04E0284603F069FD237843B903F09E
S31502000AC07BFF0228F6D03946284606F037F8F4E7C7
S31502000AD0074B00221A7032460449064804F0C1FB4D
S31502000AE003B0BDE8F04004B0704700BFC008022260
S31502000AF0050000224CD0032208B5DFED087A20EE6D
S31502000B00270AFDEEC07A17EE902A01310448FFF754
S31502000B10B5FF032003F03AFD08BD00BF0000C8423E
S31502000B20D8D2000208B5002A4EF2492243F6B16332
S31502000B3018BF1A4601310348FFF7A0FF032003F04E
S31502000B4025FD08BDE8D2000210B50C46FDEEC07ABE
S31502000B5017EE901A0948FFF791FF032003F016FDDE
S31502000B60002C43F6B1614EF2492318BF19460448D8
S31502000B70FFF784FF032003F009FD10BDFCD200023B
S31502000B8010D30002016142618361009BC361019B34
S31502000B90036241627047000010B582B004460069E4
S31502000BA0A0B100210091032394F8282003F0CCFF82
S31502000BB094F82830002B064B064A18BF13460093BA
S31502000BC0054B064A06490748FFF744FC02B010BD2A
S31502000BD028D3000224D3000230D3000234D3000209
S31502000BE03CD3000298C80322406950B100B583B0D5
S31502000BF00A4600210091032303F0A6FF03B05DF825
S31502000C0004FB704738B500F1140400F1240501E035
S31502000C10AC4206D054F8040F0028F9D003F070FD58
S31502000C20F6E738BD38B500F1140400F1240501E0F9
S31502000C30AC4206D054F8040F0028F9D003F084FA27
S31502000C40F6E738BD10B5012812D00446022811D0A5
S31502000C5000B311491148FFF711FF032003F096FC78
S31502000C60032C43F6B1614EF2492308BF19460AE046
S31502000C700B4900E00B490948FFF700FF032003F088
S31502000C8085FC43F6B1610848FFF7F8FE032003F03E
S31502000C907DFC10BD0549EEE760D3000268D3000271
S31502000CA050D3000248D3000214D3000258D30002E4
S31502000CB0F8B50446574D584E584F0BE0584B012293
S31502000CC01A700320FFF7BEFF564B574A574958483A
S31502000CD0FFF7C0FB2846FFF7E2FC0028C0F2988027
S31502000CE042381128F6D801A353F820F0350D000238
S31502000CF0D50C0002D50C0002BD0C0002D50C000278
S31502000D00D50C0002D50C0002D50C0002D50C00024F
S31502000D10D50C0002E50D0002D50C0002D50C00022E
S31502000D20D50C00029D0D0002D50C00027D0D0002BD
S31502000D30FB0D000294F82930002BCBD13D4B01224A
S31502000D401A70374B1B7893B1354B00221A7094F800
S31502000D50303053B994F82800FFF774FF364B374A00
S31502000D6032493348FFF776FBB4E70320F4E7344B06
S31502000D70324A2E492E48FFF76DFBABE794F829302D
S31502000D80002BA7D194F8280080F0010084F82800EF
S31502000D90FFF758FF2046FFF7FFFE9BE794F828303F
S31502000DA0002B97D194F8290080F0010084F82900DD
S31502000DB04000FFF747FF94F829305BB194F82A20E8
S31502000DC0154B1A702046FFF71DFF02212046FFF73A
S31502000DD00BFF7FE703212046FFF706FF2046FFF7BA
S31502000DE021FF77E7012384F82A303370154B164A20
S31502000DF016490F48FFF72EFB6CE7002384F82A30CA
S31502000E0033703B46104A11490948FFF723FB61E755
S31502000E10F8BD00BF40090222D8090222D0D300023F
S31502000E20480000227CD3000284D300028CD3000245
S31502000E3098C80322A00A022294D30002ACD300026D
S31502000E40B4D30002BCD3000234D30002C4D30002DE
S31502000E5008B501460348FFF711FE032003F096FB8F
S31502000E6008BD00BFD8D3000210B50246074C217850
S31502000E700748FFF703FE032003F088FB23780133BC
S31502000E80DBB2052B28BF0023237010BDBC0802224B
S31502000E90E8D300022DE9F04F2DED028BA1B0834677
S31502000EA099499A48FFF784FB4FF00009B1E0099B84
S31502000EB0042B40F0BC809BF82930002B00F0B78051
S31502000EC08BF829905846FFF7ADFE5846FFF764FEA9
S31502000ED04846FFF7B7FE8E4B8E4A8F498B48FFF77F
S31502000EE0B9FAA4E00A98FFF7B3FFAEE015AC0BAD72
S31502000EF00FCD0FC40FCD0FC495E8030084E803009D
S31502000F00DDED156AB3EE047AC6EE877ACDED157A73
S31502000F10DDED166AB3EE0E7AC6EE877ACDED167A57
S31502000F20F2EE047ADDED176A86EEA77A8DED177A70
S31502000F30DDED186A86EEA77A8DED187ADDED1A6A6E
S31502000F4086EEA77A8DED1A7A0DF1540A55460024DB
S31502000F506646B5EC010A21465846FFF7CDFD013437
S31502000F60062CF6D1B446DFF8D4811CAE6B4F0024B2
S31502000F702246CDF81CC0AEE0D7ED007AF4EEC87A70
S31502000F80F1EE10FA01D83278B0E03378002B74D142
S31502000F900121A140DBF82C3023EA010393E0DDF8BE
S31502000FA01CC0C2B19BF8303073B10DF16F0500243D
S31502000FB015F8012F82F0010221465846FFF7B2FDCD
S31502000FC00134062CF4D14EE001238BF83030032095
S31502000FD0FFF738FEE9E79BF83030002BE5D08BF8B7
S31502000FE030904F4B1B78002BDFD19BF828301BB972
S31502000FF09BF829A04FEA4A0C6046FFF723FED4E786
S3150200100049469DED0B0A5846FFF79EFD282003F040
S31502001010BDFACDF82490CDF8009009AB4FF0FF321F
S315020010204946484603F024FD01283FF440AFCDF877
S315020010302890CDF800900AAB4FF0FF3249460120C6
S3150200104003F016FD01283FF44DAF5846FFF730FE78
S31502001050DBF834304A460BA9186802F0A7FC84462E
S3150200106001283FF443AFDBF838304A460BA918682B
S3150200107002F09CFC0128C9D1C2E70125A540DBF894
S315020010802C301D421BD1274B0593631C059A0092F7
S315020010900693254A20210BA809F0ECFC0BA8FFF7C2
S315020010A0E3FEB7EEC88A8DED028B059A0192069B86
S315020010B000931E4B1E4A1F491448FFF7CBF9DBF873
S315020010C02C302B430122CBF82C3001340136043765
S315020010D0062C3FF464AFBAEC018AF8EC017AF4EE1E
S315020010E0C87AF1EE10FAFFF647AF32780125A5402D
S315020010F0DBF82C301D42E2D1002A0F4A094B08BF09
S3150200110013460593C1E700BF0CD4000298C8032218
S3150200111020D40002ACD3000240D4000240D8000220
S3150200112048000022FCD3000244D400024CD4000240
S3150200113084D3000260D4000204D4000258D800020C
S3150200114010B50C460448FFF799FC642C00D010BD7C
S315020011500248FFF793FCFAE768D400027CD4000247
S3150200116008B5802202490348FFF77AFA08BD00BF94
S31502001170580902224009022200F54040D0F8F8043C
S3150200118050B100B583B00A4600210091032303F053
S31502001190DBFC03B05DF804FB7047000030B587B096
S315020011A0054600238DF8143005A801F0C5FC034658
S315020011B010B300230393049305F54043B3F8EE34CA
S315020011C0164A019202931E23ADF80C304FF4803476
S315020011D0214605A801F0D8FC034668B104F58054FF
S315020011E0B4F5E83FF4D1102301AA4FF4803105A8E3
S315020011F001F016FD034610B9184607B030BD05F5D5
S315020012004043B3F8EE34C3EBC3039B0005F10D0272
S31502001210034905A801F004FD0346EDE7B050435229
S315020012201000010010B586B0044600238DF8143074
S31502001230102301AA4FF4803105A801F047FD0F4B98
S315020012400199994216D1029B5A1EB2F5E16F01D35A
S31502001250002010E004F54042A2F8F0349BB2C3EB42
S31502001260C3039B0004F10D02054905A801F02EFDFA
S31502001270012000E0002006B010BD00BFB05043526E
S31502001280100001002DE9F0439DB004466D496E48F9
S31502001290FFF78EF900238DF86C301BA801F04CFC89
S315020012A018B16A4F684D6A4E30E16A4A6A49664821
S315020012B0FFF7F6F8F5E7039B012B25D0022B40F04A
S315020012C0DD8004F540494FF00008D9F8043542465E
S315020012D013A9186802F06AFB0128F6D02046FFF728
S315020012E0A1FF002800F0A88004F54043012283F8FC
S315020012F0F42432700022A3F8F224B3F8F0245749FA
S315020013002846FFF781F90DE104F54043D3F8FC3492
S31502001310002213A9186802F049FB012809D000230C
S315020013208DF848309DF84830002B62D004F54048CD
S315020013304FE00DF12C0C0DF14C0EBEE80F00ACE89F
S315020013400F009EE807008CE8070001238DF848305D
S31502001350E8E7C3EBC3034FEA830C0CF10D0C04EB75
S315020013600C090DF12C0EBEE80F0044F80C00C9F86A
S315020013700410C9F80820C9F80C30BEE80700C9F8FD
S315020013801000C9F81410C9F81820B8F8EE34013361
S31502001390A8F8EE3422E00DF14C0C0DF1100EBEE869
S315020013A00F00ACE80F009EE807008CE80700012357
S315020013B08DF868300DF12C0C0DF14C0EBEE80F00C5
S315020013C0ACE80F009EE80F008CE80F009DF848304D
S315020013D07BB1B8F8EE34B3F5E16FBAD3D8F8FC3482
S315020013E0002204A9186802F0E1FA0128D3D00023EA
S315020013F0DEE704F54043B3F8EE3493B12046FFF737
S31502001400CDFE40B104F54043B3F8EE241449284614
S31502001410FFF7FAF80AE0134A13492846FFF740F89D
S3150200142004E0124A12492846FFF77EF804F54043C3
S315020014300022A3F8EE2475E00E4A0F492846FFF76C
S3150200144073F86FE090D4000298C80322B8D5000260
S31502001450D909022238000022A8D4000230D500029F
S31502001460D0D4000228000022F0D400021800002284
S3150200147010D500020800002250D5000204F54043B0
S31502001480002283F8F4243270A3F8F22404F54043D0
S31502001490D3F8FC3400220BA9186802F087FA012857
S315020014A000F0DD8000238DF868309DF8683053B374
S315020014B004F54043B3F8EE34B3F5E16F80F0DF8014
S315020014C0C3EBC3034FEA830C0CF10D0C04EB0C08BF
S315020014D00DF14C0EBEE80F0044F80C00C8F80410DB
S315020014E0C8F80820C8F80C30BEE80700C8F8100093
S315020014F0C8F81410C8F8182004F54042B2F8EE34C1
S315020015000133A2F8EE34212003F040F800200390C4
S31502001510009003AB4FF0FF32014603F0A9FA01280F
S315020015203FF4C9AE04F5404393F8F434002BADD032
S3150200153004F54042B2F8F234B2F8F0249A4240F28C
S315020015408180C3EBC3039B000D3304EB030E0DF145
S315020015502C0CE058DEF80410DEF80820DEF80C3019
S31502001560ACE80F00DEF81000DEF81410DEF81820E2
S31502001570ACE8070002F086FE119004F54043D3F86A
S31502001580000500231A460BA9006802F05BF9012840
S3150200159043D104F54042B2F8F23401339BB2A2F8C9
S315020015A0F234B2F8F02493420DD3384B1B78C3B30E
S315020015B004F540430022A3F8F224354B354A364956
S315020015C02846FEF747FF04F54043B3F8F234C3EB6F
S315020015D0C3039B000D3304EB030E0DF14C0CE058D4
S315020015E0DEF80410DEF80820DEF80C30ACE80F0056
S315020015F0DEF81000DEF81410DEF81820ACE807005A
S31502001600119BD01AB0F57A7F28BF4FF47A70012861
S3150200161038BF012002F0BAFF78E7012002F0B6FFD8
S3150200162074E71E492846FEF7EFFF04F54043002201
S3150200163083F8F4243270A3F8F22404212046FFF73B
S315020016409BFD63E704F54043002283F8F4243270DD
S31502001650A3F8F22404212046FFF78EFD56E70DF18A
S315020016604C0C0DF12C0EBEE80F00ACE80F009EE804
S3150200167007008CE8070001238DF8683015E74FF460
S31502001680E16239462846FEF7BFFF3CE7D809022247
S315020016907CD5000234D3000288D5000290D5000220
S315020016A0B5EEC00AF1EE10FA11D9DFED0D7AB4EEFD
S315020016B0E70AF1EE10FA0FDA80EE277ADFED097A01
S315020016C027EE277ADFED087A77EEC77A01E0DFEDBB
S315020016D0067AC0ED047A7047DFED047AF9E700BFB7
S315020016E000009642EB51383F14AE473F8FC2753D1C
S315020016F02DE9F0432DED0A8BB3B004466E496F48CF
S31502001700FEF756FFDFED6E9A9FED6E9A9FED6EAA7B
S3150200171044E0DDED037AB8EEE70A80EE0A0A2046D7
S31502001720FFF7BEFF94ED047AB7EEC77A8DED007B24
S31502001730664B674A67496148FEF78CFE5DE0099B86
S315020017400F930A9B10930B9B11930C9B12930D9B69
S3150200175013930E9B14931595CDF818800797089549
S31502001760A06900231A460FA9006802F06BF8E06927
S3150200177000231A4606A9006802F064F80496059545
S31502001780206A00231A4604A9006802F05BF8606A20
S3150200179000231A4604A9006802F054F8636900227D
S315020017A08DF878204FF0FF320FA9186802F0FEF884
S315020017B00128F3D144220FA920A809F08FFA9DED42
S315020017C00FCADDED10BA9DED11BADDED12AADDEDFF
S315020017D0138A9DED148ADDF85480169E179F9DF894
S315020017E078901F9D00200390009003AB4FF0FF32CC
S315020017F0014603F03DF901288BD000230F93109385
S3150200180011931293139314931593069307930893C4
S31502001810049305936CEE296ACDED096A2BEEA97A3B
S315020018208DED0A7A6BEE297ACDED0B7A6AEE89AAEC
S315020018307AEEA6AACDED0CAA68EE898A78EE878A98
S31502001840CDED0D8A28EE098A38EE278A8DED0E8AAD
S31502001850B9F1000F3FF473AFD4ED045AB7EE006A44
S3150200186036EE656A0DF1A20209AB0CA908460232F0
S31502001870B2F906C007EE90CAF8EEE77AD3ED006A2F
S31502001880B2F900C007EE10CAB8EEC77A27EE257A7B
S3150200189066EE266A37EE267AA3EC017A91ED007A95
S315020018A065EEA77A26EE077A77EE877AE1EC017A79
S315020018B09842DCD143E700BF38D6000298C803221B
S315020018C00000AF43000082430000C84250D6000227
S315020018D058D6000260D60002F0B5A9B004463B49CC
S315020018E03B48FEF765FE3B4F3B4E3C4D26E0002350
S315020018F08DF830309DF83030002B37D005AA04F130
S31502001900100115A801F00EFA0B9B2793E06C002339
S315020019101A4615A9006801F095FF179B03939DF8D7
S3150200192058300293BDF8563001939DF85430009317
S315020019303B46324629462648FEF78CFDA36C00221A
S3150200194015A9186802F032F80128D0D10DF1140C4D
S315020019500DF1540EBEE80F00ACE80F009EE807003A
S315020019608CE8070001238DF83030C3E7636C4FF033
S31502001970FF3215A9186802F019F8012816D00023BB
S315020019808DF850309DF85030002BD7D00DAA04F1B7
S31502001990100115A801F0C6F9139B2793E06C0023EA
S315020019A01A4615A9006801F04DFFC7E70DF1340C80
S315020019B00DF1540EBEE80F00ACE80F009EE80700DA
S315020019C08CE8070001238DF85030DBE768D6000269
S315020019D098C8032288D6000234D3000288D50002B2
S315020019E010B52DED048B82B09FED328A9FED329AAF
S315020019F0DFED328A10240094F0EE481AB623C8228C
S31502001A000021B3EE041AF0EE490AB0EE680A2C4839
S31502001A1001F0EEF90094F0EE481AB6234FF49672EE
S31502001A200121B3EE0E1ADFED270A9FED270A27489A
S31502001A3001F0DEF90094F0EE481AB623C82200211E
S31502001A40B2EE041AF0EE490AB0EE680A204801F036
S31502001A50CFF90094F0EE481AB623C8220121B2EE5D
S31502001A60041ADFED1C0A9FED1C0A1C4801F0C0F99E
S31502001A700094F0EE481AB62396220021B7EE001A19
S31502001A80F0EE490AB0EE680A154801F0B1F9009481
S31502001A90F0EE481AB623C8220121B2EE041AF0EE7D
S31502001AA0490AB0EE680A0F4801F0A2F902B0BDEC8D
S31502001AB0048B10BD6666E63F0000B4420000B4C265
S31502001AC07C0A02220000FA420000B4C15C0A022229
S31502001AD03C0A0222000000000000F4C21C0A022294
S31502001AE0FC090222DC0902222DE9F04F83B08B4663
S31502001AF001921F460D9D0E9E0F9CDDF840A0DDF85B
S31502001B004490DDF84880DFEDAD7A70EEA70A32EE3A
S31502001B10272A70EEE77A20EE007A67EEA76A37EE9A
S31502001B20267A61EE016A37EE267AF1EEC76A9FEDF2
S31502001B30A47AF4EEC76AF1EE10FA40F329819FED1A
S31502001B40A16A86EE267A60EE076A9FED9F6A76EEB6
S31502001B50866A67EE870ADFED995A70EEA50A21EECC
S31502001B60077A37EE067AC5ED006AC6ED000A84EDFD
S31502001B70007A9FED957A30EE070A31EEC00ADFED64
S31502001B808F6A77EEA67A72EE677A31EE071A32EE2E
S31502001B90C11A20EE007A67EEA76A37EE267A61EE60
S31502001BA0016A37EE267AF1EEC76A9FED857AF4EE80
S31502001BB0C76AF1EE10FA40F3F0809FED846A86EE72
S31502001BC0267A20EE070AD5ED006A76EE806ACAED1D
S31502001BD0006A67EE877AD6ED006A76EEA77AC9EDD5
S31502001BE0007A21EE071AD4ED002A71EE222AC8EDF8
S31502001BF0002AD4ED000AF1EE600A95ED000A05F01E
S31502001C0055FF8BED000AD5ED007AD6ED006A94ED0C
S31502001C10007A67EEA77A66EEA66A77EEA67A27EECE
S31502001C20077A77EE877AB1EEE77A27EE077ADFED63
S31502001C30687A77EEC77A9FED677A87EE870AFFEEB4
S31502001C40007AB4EEE70AF1EE10FA00F1AB80F7EE95
S31502001C50007AB4EE670AF1EE10FA37FE800A05F052
S31502001C60F9FEDFED5D7A30EE670A019B83ED000A2D
S31502001C70DAED007A99ED007ADFED506A37EE667A90
S31502001C80D8ED006A67EEA77A27EE077A77EE877AAB
S31502001C9066EEA66A77EEA67AB1EEE77A27EE077ABD
S31502001CA0DFED4E7A77EEC77A9FED4D7A87EE870A99
S31502001CB0FFEE007AB4EEE70AF1EE10FA75D4F7EE0B
S31502001CC0007AB4EE670AF1EE10FA37FE800A05F0E2
S31502001CD0C1FEDFED447A30EE670A0C9B83ED000A03
S31502001CE095ED006ADFED377A86EE277AD6ED004A61
S31502001CF094ED005AC5EE276A66EEA67ADFED325AF1
S31502001D0077EEA57A67EE075A77EEA57AF1EEE75AED
S31502001D10DFED357AF4EEE75AF1EE10FA48DDC6EE5B
S31502001D20A50AB1EE477AC7EE256ADAED007A77EEB2
S31502001D30C67A9FED267A87EE870AD9ED007A77EE84
S31502001D40E47AC7EE875A98ED006A36EE456AC6EE21
S31502001D50077A60EE800A9FED1C7A25EE876A70EE9E
S31502001D60860A66EEA76A70EEA60A20EE070A30EE2B
S31502001D70250A67EE877A30EE270AF1EE600AB1EE9F
S31502001D80400A05F093FE87ED000A03B0BDE8F08F26
S31502001D90F0EE406AB0EE417AE5E6CAED001A89ED48
S31502001DA0002A24E7BFEE000A59E7BFEE000A8EE7D3
S31502001DB0DFED056AF7EE000AB7E700BF0000F24260
S31502001DC00AD7233CAE17844300000000DD84394362
S31502001DD05BE9A447C5BC7947DB0FC93F8189CB477D
S31502001DE05673BF47DB0F49406F12833A70B52DED2C
S31502001DF0028B9AB004462A492A48FEF7D9FB9FED80
S31502001E002A8A2A4D23694FF0FF3213A9186801F076
S31502001E10CDFD0128F6D1199E12AB069311AB05939F
S31502001E2010AB04930FAB03930EAB02930DAB01936E
S31502001E300CAB00930BAB0AAA09A9DDED182A9DED9E
S31502001E40172ADDED161A9DED151ADDED140A9DED24
S31502001E50130A2046FFF748FE1996DDED097A67EE6A
S31502001E60887ACDED137ADDED0A7A67EE887ACDEDC2
S31502001E70147ADDED0B7A67EE887ACDED157ADDED13
S31502001E800C7A67EE887ACDED167A17951895606901
S31502001E9000231A4613A9006801F0D4FCB2E700BF7A
S31502001EA0A0D6000298C80322E02E65420000C07F39
S31502001EB0B5EEC00AF1EE10FA09D4DFED0C7AB4EEF3
S31502001EC0E70AF1EE10FA04DD9FED080A01E09FED44
S31502001ED0080A9FED067AC0EE077A9FED067A67EE4C
S31502001EE0877A9FED050A37EEC00A70470000C8429E
S31502001EF000000000000034430000B4422DE9F04126
S31502001F002DED048B9AB0044663496448FEF750FBF4
S31502001F1000259FED638A002708EE907A9FED619A6D
S31502001F207CE0129F9DED138A012580E012AE0DF131
S31502001F300C0CBCE80F000FC69CE8070086E80700F9
S31502001F40012694E0D1ED007AE3EC017A0431043003
S31502001F50013A0AD0002EF5D0D0ED007A67EEA87AC3
S31502001F6091ED007A77EE877AEEE7002D40F08D80CC
S31502001F7018EE903AB0EE680A07938DED080A002330
S31502001F8002932369002B2ED00020009002AB4FF063
S31502001F90FF32014602F06CFD267F029B012B0CBF2D
S31502001FA001230023237721D1206B00231A4603A99C
S31502001FB0006801F047FCDEB106E0206B00231A46FA
S31502001FC003A9006801F03EFC237F8BB9606928B142
S31502001FD0002100910323012202F0B6FD32492F4867
S31502001FE0FEF712FB04E0267F00232377002EE4D1BE
S31502001FF0A06960B1DDED047A67EE897A002100916D
S315020020000323FDEEE77A17EE902A02F09DFDE06AC1
S3150200201000231A4603A9006801F014FCA36A0022F1
S3150200202012A9186801F0C2FC01283FF47AAF236AAC
S315020020304FF0FF3212A9186801F0B8FC0128EDD161
S315020020400DF1280C0DF1480EBEE80F00ACE80F00AA
S315020020509EE807008CE807009046636A002203A9FF
S31502002060186801F0A3FC01283FF460AF00260023A4
S31502002070039304930593069307930893CDF824805C
S3150200208003AB0AA912A8042264E7B0EE480A204666
S31502002090FFF70EFF3B466FE7B4D6000298C803224D
S315020020A0000048420000C842CCD600024161704797
S315020020B0816170472DE9F043ADB004466B48606319
S315020020C06B4BA3635822002108F062FD28220021EF
S315020020D0A06B08F05DFD6749674803F071FF674929
S315020020E06748FEF765FA0026DFF8A891654FDFF824
S315020020F0888179E04C252A4605A918A808F0EEFD44
S315020021002A4618A904F1680008F0E8FD78E005AA55
S3150200211003AB93E8030082E8030004F1B40383E807
S31502002120030076E004F13C06304604F095FD0828EB
S31502002130FAD04C2204F16801606B08F0CFFD636BA4
S31502002140D4F8B420DA64636B1D65636B99F80020DA
S3150200215083F85420636B3A7883F8552000233B704A
S31502002160304604F085FDA121404603F079FF94F83C
S315020021702420131D44F823500132434B83FB0213E0
S315020021805B1003EB8303D31ADAB284F82420CAB9AC
S31502002190012284F825203D4A1068C0B1043354F860
S315020021A02330EB1A032B83BF9B084FF47A72B2FBE0
S315020021B0F3F20022002300930323012102F0C4FC60
S315020021C02E462CE094F825202E4642B3E3E72E460F
S315020021D025E0284604F04CFD206B00231A4604F144
S315020021E04001006801F02EFB032002F0CFF9A36A3A
S315020021F00A2205A9186801F0D9FB01283FF47AAF33
S31502002200E36A002203A9186801F0D0FB01283FF413
S315020022107EAF02F037F80546831B132B82D81C4B80
S315020022201B78002BE0D01A4B00221A7004F13C05F1
S31502002230284604F011FD0828FAD0A36B5A6AD4F88E
S31502002240BC108A42C5D0C4F8BC2004F1400E9C469C
S31502002250BCE80F00AEE80F00BCE80F00AEE80F00C6
S315020022609CE803008EE80300B3E700BF28401C2267
S3150200227000401C22C8DA000280D00322FCD60002EB
S3150200228098C80322A00A0222676666669C0A022290
S31502002290A10A0222480000228368B3F5803F00D0DB
S315020022A070474368A22BFBD1014B01221A70F7E754
S315020022B0A10A022210B50446006801F05FFC20461E
S315020022C010BD10B50446006801F058FC204610BD4A
S315020022D010B50446006801F051FC204610BD10B549
S315020022E00446006801F04AFC204610BD10B50446BB
S315020022F0006801F043FC204610BD10B50446006894
S3150200230001F03CFC204610BD10B50446006801F001
S3150200231035FC204610BD10B5044608460022226050
S31502002320082101F067FA04E0206801F027FC04F0B6
S3150200233025FF2060204610BD10B50446084600223F
S3150200234022601C2101F056FA04E0206801F016FC16
S3150200235004F014FF2060204610BD000070B5002274
S31502002360584B1A604421042001F044FA554B186078
S31502002370554A5649184604F087FE0022544B1A6005
S315020023801C21042001F036FA514B18604E4C2246AD
S315020023905049184604F078FE4F4D02212846FFF7B1
S315020023A0BAFF4E4E22463146284604F06DFE4C4D8B
S315020023B002212846FFF7AFFF22463146284604F09F
S315020023C063FE0022474B1A600C21042001F012FA28
S315020023D005E03C4B186801F0D1FB04F0CFFE414BFF
S315020023E01860394C22464049184604F04DFE3F4ECD
S315020023F004213046FFF7A0FF3D4D224629463046CE
S3150200240004F042FE3B4E04213046FFF795FF22467A
S315020024102946304604F038FE374E04213046FFF78F
S315020024208BFF22462946304604F02EFE334E082103
S315020024303046FFF781FF22462946304604F024FE45
S315020024402F4E08213046FFF777FF224629463046AF
S3150200245004F01AFE00222B4B1A604C21042001F0D4
S31502002460C9F905E01A4B186801F088FB04F086FEEC
S31502002470244B1860144A2449184604F005FE00222B
S31502002480224B1A602821042001F0B4F905E0154B0D
S31502002490186801F073FB04F071FE1C4B18600A4ABF
S315020024A01B49184604F0F0FD70BD164B186801F082
S315020024B065FB04F063FE154B186801F05FFB04F040
S315020024C05DFE00BFD00A022200000022B5220002F1
S315020024D0CC0A0222C3220002C80A0222D122000228
S315020024E0C40A0222C00A0222DF220002BC0A022217
S315020024F0ED220002B80A0222B40A0222B00A02221D
S31502002500AC0A0222A80A0222FB220002A40A022222
S315020025100923000210B50446034B0360406808B164
S3150200252001F0B6FD204610BD98D9000210B504464A
S31502002530034B0360406808B101F0AAFD204610BDB6
S3150200254098D9000210B50446034B0360406808B1EF
S3150200255001F09EFD204610BD98D9000210B5044632
S31502002560034B0360406808B101F092FD204610BD9E
S3150200257098D9000210B50446034B0360406808B1BF
S3150200258001F086FD204610BD98D9000210B504461A
S31502002590034B0360406808B101F07AFD204610BD86
S315020025A098D9000210B50446034B0360406808B18F
S315020025B001F06EFD204610BD98D9000210B5044602
S315020025C0034B0360406808B101F062FD204610BD6E
S315020025D098D9000210B50446034B0360406808B15F
S315020025E001F056FD204610BD98D9000270B50D497E
S315020025F00D48FDF7DDFF0D4D01264FF48574324679
S315020026002146284603F08AFD642001F0BFFF00221E
S315020026102146284603F082FD4FF4617001F0B6FFB1
S31502002620EDE700BF28D7000298C8032288CF03220D
S3150200263010B5044601F026FEA06023685B682046BA
S31502002640984710BD30B583B00446084619460023A4
S315020026506360A3600D4D25602373231D01930090D3
S3150200266023460B4801F0E2FC07E00A4B2360606850
S3150200267008B101F00DFD04F081FD012814BF002010
S3150200268001202073204603B030BD00BFA8D9000246
S315020026903126000298D900022DE9F04385B0A84BF5
S315020026A000225A609A60A74919601A731A1D01928C
S315020026B0032200924FF40072A349A44801F0B6FC2B
S315020026C09F4B012814BF002001201873A04A1A60EC
S315020026D0A04AA149184604F0D7FCA04B00225A6032
S315020026E09A60984919601A731A1D01920322009280
S315020026F04FF480629A49954801F098FC974D01285B
S3150200270014BF002001202873964B2B60964B2B6139
S3150200271000246C61AC61EC612C626C62AC62AC85CB
S315020027202422214605F1300008F032FA85F8544099
S3150200273085F85540AC65874A8C49284604F0A4FCC6
S315020027408B4B5C609C607F4A1A601C731A1D019257
S31502002750032200924FF4C06286497C4801F066FC6F
S3150200276008E0774B844A1A60586808B101F090FC79
S3150200277004F004FD7E4B012814BF002001201873CB
S315020027807E4A1A6000241C615C619C61DC611C62E9
S315020027905C6283F8284083F8294083F82A40DC6289
S315020027A083F83040764A5A63DFF85C92C3F8389071
S315020027B0684E32467349184604F066FC724D734BF6
S315020027C04FF4006203212846FFF73CFF704B2B6053
S315020027D0704B2B61644B6B61DFF83082C5F8188051
S315020027E06D4FEF616D4B2B62C5F8249032466C49F2
S315020027F0284604F049FC6B4D6B4B4FF400620321F3
S315020028002846FFF71FFF694B2B60C5F81080DFF8DB
S315020028100082C5F8148032466549284604F034FC25
S31502002820644D654B4FF4806203212846FFF70AFF89
S31502002830624B2B602C616C61AC612C77C5F82080F1
S315020028405F4B6B62AF625F4BEB625F4B2B63324651
S315020028505E49284604F018FC5D4B5C609C60394A70
S315020028601A601C731A1D0192022200924FF4006232
S315020028705849364801F0DAFB08E0384B3E4A1A60FE
S31502002880586808B101F004FC04F078FC504D0128A8
S3150200289014BF00200120287328464F4B40F80D3BF9
S315020028A04CF2E042002108F073F905F5404300249A
S315020028B0A3F8EE44A3F8F044A3F8F24483F8F444F0
S315020028C0C3F8F844404AC3F8FC24444AC3F8002536
S315020028D03C4AC3F804251F4A4149284604F0D4FB62
S315020028E0404B5C609C60174A1A601C731A1D019269
S315020028F0032200924FF400623B49144801F096FB12
S3150200290008E01B4B1C4A1A60586808B101F0C0FB6C
S3150200291004F034FC334B012814BF00200120187345
S315020029201846324B40F8103B314B0293314B019320
S31502002930314B0093314B324A324900F0DFF97BE0EA
S31502002940F8D10222A8D900023CD7000231260002A1
S31502002950B8D9000200000022D52500029CD102222D
S3150200296044D7000214D80002D00A0222BD25000272
S3150200297060D1022240D4000298D9000238D800025F
S31502002980A40A0222A525000238D1022250D700024B
S31502002990C0D800025C8F423FC00A0222C80A022245
S315020029A08D25000220D102225CD7000218D900022E
S315020029B075250002ECD0022260D7000244D900023B
S315020029C0B80A0222B40A0222B00A02225D250002D5
S315020029D0E40B022268D7000294D80002AC0A022253
S315020029E045250002940B022270D70002F4D8000299
S315020029F0DC090222FC0902221C0A02223C0A0222E9
S31502002A005C0A02227C0A0222C40A0222CC0A02229E
S31502002A10BC0A0222384B394A1A60586808B101F0DA
S31502002A2037FB04F0ABFB364B344A1A60586808B1E0
S31502002A3001F02EFB04F0A2FB3148324B4364324BC9
S31502002A408364324BC364324A324904F01DFB324B73
S31502002A5000225A609A60314919601A731A1D01924E
S31502002A60032200924FF4C0622D492E4801F0DEFA8D
S31502002A70294C012814BF00200120207323462A4A2C
S31502002A8043F8102B002525615D609D60DD601D61A8
S31502002A9084F8245084F825501C4BA362234BE3622E
S31502002AA0234B23636563A56384F83C504C22294675
S31502002AB004F1680008F06CF8C4F8B450C4F8B850D1
S31502002AC0C4F8BC50124A1B49204604F0DDFA05B090
S31502002AD0BDE8F0830A4B094A1A60586808B101F04A
S31502002AE0D7FA04F04BFB0C4B044A1A60586808B13B
S31502002AF001F0CEFA04F042FBE40B022298D900025E
S31502002B00940B0222B40A0222AC0A0222A80A022268
S31502002B10000000222D250002D40A0222A8D90002B2
S31502002B207CD700023126000270D90002C80A0222AE
S31502002B30A40A02221525000210B50446007800B147
S31502002B4010BD054B5968186803F05AF9B0FA80F0BF
S31502002B5040092070F4E700BFD8DA000230B583B02E
S31502002B6001238DF804306FF00104064B1D6801A99C
S31502002B70284602F0F7FF9DF804300BB1013CF6D16E
S31502002B8003B030BDD8DA000270B505780DB9284613
S31502002B9070BD0446EFF31086012383F310884FF4C9
S31502002BA0805201F10041064B186803F03BF886F3A8
S31502002BB0108808B10025EAE72046FFF7CFFFE6E7CF
S31502002BC0D8DA0002002927DD00B500F1004C00F03A
S31502002BD01F0E8E44BFF34F8F6346104AE6446FEAD8
S31502002BE00C0CF4444FEA5C1C0CF1010E00F01F00C1
S31502002BF00844203810F1200FD8BF4FF0010E4EF0D6
S31502002C0001E0C2F85C3220330FF005C8BFF34F8FE4
S31502002C10BFF36F8F5DF804FB704700BF00ED00E065
S31502002C202DE9F04F85B0994603780293002B40D0E8
S31502002C3082461646B9F1000F3BD001F1004701F07A
S31502002C403F04C4F140044C4528BF4C4634F0070407
S31502002C5033D03A4600254FF001081B48036801931A
S31502002C600391EFF3108B88F31088234671190198AC
S31502002C7002F0A7FF8BF3108810BB5046FFF76EFFDA
S31502002C802544A9450FD97A1902F03F04C4F140043C
S31502002C90A9EB05039C4228BF1C4634F00704E0D189
S31502002CA00023029305E0DDF80CB049465846FFF7CB
S31502002CB089FF029805B0BDE8F08F00230293F8E77A
S31502002CC000230293F5E700BFD8DA000270B50C467E
S31502002CD016461D4619462046FFF774FF6DB106F1EA
S31502002CE0FF3CA11B45F001E00CEB010303F100439D
S31502002CF05B780CF8013F0FF009C870BD01604260B5
S31502002D008360009BC360019B0361029B43610023B6
S31502002D108361C361036243628362C36280F83030B7
S31502002D20704700002DE9F8432DED048B06460F4649
S31502002D3015464C22002107F02BFF002D4DD097F8A7
S31502002D40308088F001083C4607F11809DFED258A34
S31502002D509FED259ADFED259A02E004344C4524D0F6
S31502002D60B5EC018AF0EEC87AF4EE497AF1EE10FA81
S31502002D70F3D8B0EE480A206800F069F8D4ED067A76
S31502002D8038EE678AB0EEC88AB4EE698AF1EE10FAB6
S31502002D90A8BF4FF00108206800F002F9B4EE680AF5
S31502002DA0F1EE10FA70FE288AD7E7B8F1000F14D0B8
S31502002DB03D1F002404EB4400B0EE680A55F8041FD8
S31502002DC006EB800000F002F92B689B68AB610134C8
S31502002DD0062CEFD1012387F830303046BDEC048B48
S31502002DE0BDE8F88300000000FFFF7F7F0AD7233C7F
S31502002DF000B580ED000AC0ED010A4FF0000EC0F8E2
S31502002E0008E0DFF820E0C0F80CE080ED041A017556
S31502002E10C2820376BDF804304383C0ED071A5DF81B
S31502002E2004FB00BF0000C07FF0EE407A90ED000A7E
S31502002E30B4EEE70AF1EE10FA08DC90ED010AB4EE00
S31502002E40E70AF1EE10FA58BFB0EE670A704710B5FE
S31502002E500446FFF7E9FF84ED030A10BD08B5B0EE9C
S31502002E60C00A90ED077AC0EE077A438B07EE103A56
S31502002E70B8EE477A67EE877A90ED040A27EE800A63
S31502002E8004F024FE08BD000082B00191A9B107EE4C
S31502002E90901AB8EE677ADFED0A7A77EEC77A9FED77
S31502002EA0097A67EE877A9FED087A67EE877AB7EE38
S31502002EB0007A87EE270A02B070479FED040AFAE706
S31502002EC00000804300004842BD37863500000000FE
S31502002ED0B5EEC00AF1EE10FA53D908B52DED028B04
S31502002EE0B0EE608AF5EEC00AF1EE10FA4CD9DFEDCB
S31502002EF0287AF4EEE70AF1EE10FAC8BFB0EE678A56
S31502002F00DFED247AC0EE278AFFF7BEFFF0EE407AA5
S31502002F10B5EEC00AF1EE10FA21D988EE006AB6EED5
S31502002F20007A28EE077A27EE067ADFED1B5AC7EEFD
S31502002F30256A76EEA66AF4EEE86AF1EE10FA15DA7A
S31502002F4078EEE68ADFED147A68EEA78A88EE880ABA
S31502002F5036EE066A30EE060ABDEC028B08BDDFEDE0
S31502002F600E7A68EEA78A88EE880AF5E768EEA58AE1
S31502002F7068EE808AB1EEE87A37EE077A87EE270A9C
S31502002F80EAE79FED060A70479FED040AE4E700BFF1
S31502002F9000409C450000B44300007042000000005F
S31502002FA008B5C28A00EE902AD0ED037A90ED027A35
S31502002FB077EEC77AF0EEE77A90ED040A017EF8EE34
S31502002FC0600A27EE800AFFF783FF08BD2DE9F84362
S31502002FD02DED048B07460023036043608360D1ED29
S31502002FE0038AF4EE688AF1EE10FA13D60D46F0EE75
S31502002FF0409A91ED028A38EEC88AB0EEC88AD1EDBF
S31502003000047A28EE278ADFED437AB4EEE78AF1EEF8
S3150200301010FA04D53846BDEC048BBDE8F883B1F846
S31502003020168091F81890494607EE908AF8EE670ADC
S31502003030B0EE480A2846FFF74BFFB0EE409AB4EED0
S31502003040690AF1EE10FA48BFB0EE699A41F2883386
S31502003050984528BF9846012618E0A8EB060404EB1B
S31502003060D47406EB6404A4B2494607EE904AF8EE1D
S31502003070670AB0EE480A2846FFF72AFFB4EEC09A5E
S31502003080F1EE10FA46BF0134A6B2A046B045E4D826
S31502003090494607EE906AF8EE670AB0EE480A2846F5
S315020030A0FFF716FFF0EE409A731E494600EE903A7D
S315020030B0F8EEE00AB0EE480A2846FFF709FF30EEBE
S315020030C0490AB0EEC00A79EEC99AF0EEE99AB4EE70
S315020030D0E90AF1EE10FA44BF06F1FF36B6B22B7DCD
S315020030E0F1EE687A002B48FEA77AF5EEC07AF1EE89
S315020030F010FAB4BF012300233B707E8087F8049048
S31502003100B0EE680A2846FFF7A9FEB860C5ED028A46
S3150200311080E700BF17B7D13800BEFEE71EF0040FE6
S315020031200CBFEFF30880EFF309800149084700005E
S31502003130C13100020F4B1968EFF309821EF0100F1E
S3150200314008BF22ED108A22E9F04FEFF30B8342F813
S31502003150043D0A604FF0100080F31188BFF34F8FD1
S31502003160BFF36F8F01F07CFA4FF0000080F31188F5
S3150200317000F002B868C70322074801680A6802CA53
S3150200318081F30B88B2E8F04F1EF0100F08BFB2ECC5
S31502003190108A82F30988704768C7032210B5EFF3D5
S315020031A01184102383F3118801F072F818B1034BCE
S315020031B04FF080525A6084F3118810BD00ED00E092
S315020031C008B5836913F8023C022B05D0032B05D9F7
S315020031D0012383F31088FEE7FFF7CEFF08BD000048
S315020031E010B44FF0807440F8044C22F0010240F80B
S315020031F0082C074A40F80C2C40F8203C6FF00203DA
S3150200320040F8243C283140F8481D5DF8044B7047CD
S3150200321019310002EFF31181102383F31188094A51
S31502003220136801331360012B00D07047064B1960F7
S31502003230064B5B68C3F30803002BF6D0012383F326
S315020032401088FEE70CD2022208D2022200ED00E02C
S31502003250074B1B681BB9012383F31088FEE7013B6A
S31502003260034A13601BB9034B1B6883F3118870472B
S315020032700CD2022208D202220A4B1B680A4AA2FB7D
S3150200328003239B09013BB3F1807F0AD24FF0E02270
S315020032905361064BF02183F8231000239361072321
S315020032A0136170476CD10322D34D621000ED00E02A
S315020032B008B50C4BF02283F82220FFF7DDFF0A4AFD
S315020032C0536B43F04043536362B6BFF36F8FEFF322
S315020032D0148C2CF0040C8CF31488BFF36F8F02DF6E
S315020032E000BEFDE700ED00E000EF00E070B5431E12
S315020032F013F10A0F00F2988000F1080410F0070398
S3150200330006D0A3F10902A242C0F08E801030C41A80
S3150200331000F0B0FF4E4B1B68002B00F08C80002C97
S315020033207DDD4C4B1968A14279D34B4B1B684B4A46
S31502003330934202D34A4A93421DD9012383F310884A
S31502003340FEE74FF470434448026000214160134493
S31502003350083B23F007033E48036059601960991A37
S31502003360516013603F4B19603A4B1960D7E701234E
S3150200337083F31088FEE7384E3848394D5A68A24220
S3150200338008D21A6832B18242F1D31E46AA42EED858
S315020033901346F3E72E4A12689A4240D0356808353A
S315020033A02E4A954202D32E4A954203D9012383F32C
S315020033B01088FEE71A6832605A68A2420AD3121BC4
S315020033C0102A10D9181910F0070F07D0012383F31A
S315020033D01088FEE7012383F31088FEE742605C60F3
S315020033E032681A5130605A68891A1A4801601D48B3
S315020033F0006881423CBF1B48016042F000425A60AD
S3150200340000221A60184A13680133136001F00CF89F
S3150200341015F0070F06D0012383F31088FEE701F0AB
S3150200342003F80025284670BD00F024FF084B1B68F0
S31502003430002BF4D10024094A12F0070F81D0D11DC6
S3150200344021F0070102F57042531A0A467BE700BFD4
S3150200345020D202221CD2022224D202222CD2022200
S315020034602BC2032218D2022214D20222002863D0CF
S3150200347038B50546A0F10804304B9C420AD3304BBE
S315020034809C4207D850F8043C002B07DB012383F348
S315020034901088FEE7012383F31088FEE750F8082C14
S315020034A01AB1012383F31088FEE723F0004340F8A4
S315020034B0043C00F0DFFE55F8041C224A13680B4454
S315020034C01360214B1A461B689C42FBD81E48824257
S315020034D009D01A48824202D31948824203D90123EB
S315020034E083F31088FEE7506802EB000C644510D0A7
S315020034F055F8040C25181946AB4213D02160A24296
S3150200350018BF1460114A13680133136000F08CFF70
S3150200351038BD01445160084611448B4201D0136004
S31502003520F0E714460A4909688B42E7D05B68034410
S31502003530636013681968E1E7704700BF2CD2022264
S315020035402BC203221CD2022224D2022210D202222F
S3150200355020D2022200F1080343604FF0FF3282605C
S31502003560C360036100230360704700230361704751
S3150200357043684B609A688A60516099600861036883
S3150200358001330360704730B40D68B5F1FF3F11D0C7
S3150200359000F108031C465B681A68AA42FAD96368F6
S315020035A04B6099608C606160086103680133036057
S315020035B030BC70470469F2E70369416882688A6031
S315020035C0416851605A68824204BF82685A6000228A
S315020035D00261186801381860704710B50446FFF793
S315020035E019FEA46BFFF734FEB4FA84F0400910BD4D
S315020035F070B504461646856B026C5AB903681BB150
S3150200360000200135A56370BD806801F0E5F900234D
S31502003610A360F6E76EB9406807F060FB6368226C48
S3150200362013446360A26830469342EAD32368636018
S31502003630E7E7C06807F052FB226C5142E3689B1A27
S31502003640E3602268934202D2A3680B44E360022E2F
S3150200365001D00020D5E715B1013D0020D1E70020B9
S31502003660CFE70346026C6AB110B50846D968114421
S31502003670D9609C68A14224BF1968D960D96807F04D
S315020036802DFB10BD704770B50546FFF7C3FD95F8D3
S31502003690454064B2002C0FDD05F1240602E0013C30
S315020036A064B24CB16B6A3BB1304601F0C7F80028F0
S315020036B0F5D001F07BF9F2E7FF2385F84530FFF7F5
S315020036C0C7FDFFF7A7FD95F8444064B2002C0FDD55
S315020036D005F1100602E0013C64B24CB12B693BB124
S315020036E0304601F0ABF80028F5D001F05FF9F2E7B9
S315020036F0FF2385F84430FFF7ABFD70BD38B558B1EE
S315020037000D460446C36B1BB1026CA2FB03233BB1FD
S31502003710012383F31088FEE7012383F31088FEE773
S31502003720FFF778FD2268216CE36B01FB03F3D018E7
S31502003730A0600020A06362605B1A1A44E260FF2365
S3150200374084F8443084F84530A5B923691BB9FFF7DC
S315020037507FFD012038BD04F1100001F06FF800284A
S31502003760F5D0094B4FF080525A60BFF34F8FBFF32B
S315020037706F8FECE704F11000FFF7ECFE04F1240072
S31502003780FFF7E8FEE3E700BF00ED00E04BB110B53E
S3150200379082B01C4608B142B119BB012383F31088DB
S315020037A0FEE7012383F31088FEE70029F5D15023B3
S315020037B00193019B502B19D1019B2246012384F8C8
S315020037C046302260E063216419462046FFF796FFE1
S315020037D09DF8103084F84C30204602B010BD019B93
S315020037E0ECE750230193019B502BF8D0012383F37E
S315020037F01088FEE7F8B550B10D4614460646A1FB01
S31502003800002323B901FB00F010F1510F03D9012364
S3150200381083F31088FEE75030FFF768FD074678B15C
S31502003820002380F8463000F15003002D08BF0346FE
S315020038300360C66305640121FFF760FF87F84C4009
S315020038403846F8BD2DE9F04784B0019260B10E46C4
S315020038501D46044661B1022D11D1E36B012B0ED038
S31502003860012383F31088FEE7012383F31088FEE722
S31502003870036C002BEFD0012383F31088FEE701F0DF
S315020038809BF8814628B9019B2BB1012383F310884B
S31502003890FEE74FF000090027DFF80C8133E02A46E5
S315020038A031462046FFF7A4FE636A73B938B13E4B30
S315020038B04FF080525A60BFF34F8FBFF36F8FFFF7FF
S315020038C0C7FC012004B0BDE8F08704F1240000F033
S315020038D0B5FF0028F3D0344B4FF080525A60BFF345
S315020038E04F8FBFF36F8FEAE7FFF7B2FC0020E9E7DD
S315020038F002A801F015F814E02046FFF7C4FE00F016
S3150200390093FD4FF00109FFF785FCA26BE36B9A4228
S31502003910C5D3022DC3D0019B002BE5D0B9F1000F10
S31502003920E6D0FFF795FC00F0A5FCFFF773FC94F8D0
S31502003930442052B2B2F1FF3F08BF84F8447094F8B3
S31502003940452052B2B2F1FF3F08BF84F84570FFF737
S315020039507FFC01A902A800F0EFFFF0B9FFF75AFCBD
S31502003960D4F838A0D4F83C90FFF772FCCA45C3D10C
S31502003970019904F1100000F027FF2046FFF783FEAD
S3150200398000F052FD0028BCD14FF08053C8F8043035
S31502003990BFF34F8FBFF36F8FB3E72046FFF773FE78
S315020039A000F042FD00208DE700ED00E02DE9F04336
S315020039B085B0019260B10D46044669B100F0FCFF84
S315020039C0814680B9019B83B1012383F31088FEE708
S315020039D0012383F31088FEE7036C002BEED001234C
S315020039E083F31088FEE74FF000090026DFF8FC801B
S315020039F036E029462046FFF734FE7B1EA363236981
S31502003A002BB9FFF725FC012005B0BDE8F08304F1D0
S31502003A10100000F013FF0028F3D0344B4FF0805211
S31502003A205A60BFF34F8FBFF36F8FEAE7FFF710FCC1
S31502003A300020E9E702A800F073FF1CE02046FFF72A
S31502003A4022FE00F0F1FC09E02046FFF71CFE00F022
S31502003A50EBFC2046FFF7C1FD002844D14FF00109D7
S31502003A60FFF7D8FBA76B002FC3D1019B002BDDD03C
S31502003A70B9F1000FDED0FFF7EBFB00F0FBFBFFF71F
S31502003A80C9FB94F844305BB2B3F1FF3F08BF84F838
S31502003A90446094F845305BB2B3F1FF3F08BF84F847
S31502003AA04560FFF7D5FB01A902A800F045FF0028F3
S31502003AB0CAD12046FFF791FD0028BFD0019904F133
S31502003AC0240000F081FE2046FFF7DDFD00F0ACFC8D
S31502003AD00028C3D14FF08053C8F80430BFF34F8F8C
S31502003AE0BFF36F8FBAE700208EE700BF00ED00E05C
S31502003AF038B130B50446F9B1104B0020844608228D
S31502003B000CE0012383F31088FEE70C4800EBCC009F
S31502003B1010E00CF1010C0833013A0AD09E465D68AA
S31502003B20A542F2D00028F4D11D68002D08BF184620
S31502003B30EFE708B10160446030BD00BF2CC203222A
S31502003B40844650B100230B48082250F833106145D1
S31502003B5007D00133013AF8D17047012383F3108865
S31502003B60FEE7054A002142F8331002EBC302516018
S31502003B70704700BF30C203222CC2032238B110B5EF
S31502003B800446FFF7DDFF94F8463023B110BD01234A
S31502003B9083F31088FEE72046FFF768FCF6E770B568
S31502003BA004460D461646FFF735FB94F844305BB2E1
S31502003BB0B3F1FF3F04BF002384F8443094F8453044
S31502003BC05BB2B3F1FF3F04BF002384F84530FFF731
S31502003BD03FFBA36B1BB12046FFF755FD70BD324676
S31502003BE0294604F1240000F003FEF4E728B14169F6
S31502003BF00F4A914205D000207047012383F31088B3
S31502003C00FEE7826A0B498A420ED00AB1002070474B
S31502003C1090F87020D2B2012A08D090F87100C0B292
S31502003C20013818BF012070470020704700207047F6
S31502003C3098C20322C4C203220368FBB170B50D46C3
S31502003C4000F10806C468A64205D1002015E0A0B915
S31502003C506468A64210D0E06800F1330E05F1FF3C1D
S31502003C6020221EF9013F1CF9011F9942F0D1002BB7
S31502003C70EDD0013AF5D1EBE7002070BD0020704788
S31502003C80074B1B681B6823B9064B4FF0FF321A60BD
S31502003C907047034B1B68DB681A68024B1A60704751
S31502003CA0DCC2032274C203222DE9F8430746894681
S31502003CB09846089E0A9C95002A46A521206B06F086
S31502003CC067FF043D236B2B4423F007056565B9F1B5
S31502003CD0000F10D009F1FF3104F133034FF0200C2D
S31502003CE011F9012F03F8012F12B1BCF1010CF7D122
S31502003CF0002384F85330372E03D9012383F3108827
S31502003D00FEE7E6622666201DFFF72FFC04F1180087
S31502003D10FFF72BFC2461C6F13806A66164624346AE
S31502003D203A46216B2846FFF75BFA2060099B03B1EE
S31502003D301C60BDE8F883000070B50546FFF76AFA15
S31502003D40364A136801331360354B1B68002B41D08A
S31502003D50344B1B683BB9324B1B68DA6AEB6A9A42F0
S31502003D609CBF2F4B1D60304A136801331360AB654D
S31502003D70EB6A2E4A1268934284BF2C4A13602C4A7D
S31502003D8003EB830302EB83035B68AB609868E8602E
S31502003D90291D41609960EB6A03EB830102EB810006
S31502003DA0686152F82130013342F82130FFF750FAA8
S31502003DB01C4B1B686BB11A4B1B68DA6AEB6A9A4298
S31502003DC007D21C4B4FF080525A60BFF34F8FBFF39E
S31502003DD06F8F70BD124B1D601368012BC3D1144C3B
S31502003DE004F58C662046FFF7B5FB1434B442F9D1CC
S31502003DF0114E3046FFF7AEFB104C2046FFF7AAFBEA
S31502003E000F48FFF7A7FB0F48FFF7A4FB0E48FFF783
S31502003E10A1FB0E4B1E600E4B1C60A4E794C203224C
S31502003E2068C7032288C2032278C203228CC20322F5
S31502003E3008C3032200ED00E0F4C20322E0C203221B
S31502003E40C4C20322B0C2032298C20322DCC20322E6
S31502003E50D8C2032210B5044690F872303BB1012B4A
S31502003E600CD0022B09D0012383F31088FEE7006BE6
S31502003E70FFF7FCFA2046FFF7F9FA10BDFFF7F6FA4C
S31502003E80FBE70000F8B50E4B1B68BBB10D4F0E4E9B
S31502003E900B4CFFF7BFF9FB68DD68281DFFF78CFBAB
S31502003EA03368013B33602368013B2360FFF7D0F997
S31502003EB02846FFF7CFFF2368002BEAD1F8BD00BFE3
S31502003EC0ACC20322B0C2032294C2032208B5074C35
S31502003ED0074E4FF08055FFF7D5FF2368012BFAD91D
S31502003EE07560BFF34F8FBFF36F8FF4E708C30322EA
S31502003EF000ED00E02DE9F04104460E46264B1D6812
S31502003F00264B1F68264BD3F80080264B18680430D0
S31502003F10FFF752FBB4F1FF3F0DD02C44214B1B6837
S31502003F205C60A5421CD91F4B196804314046FFF755
S31502003F302AFBBDE8F08106B31B4A5168194B186883
S31502003F40816018688C68C4601868043060601868FC
S31502003F50043088601B685A61136801331360E8E70E
S31502003F60104B196804313846FFF70DFB0F4B1B68DF
S31502003F70A342DED90D4B1C60DBE76B1E094A1268B1
S31502003F8053609D42CFD8074B196804313846FFF774
S31502003F90FAFA064B1B68CCE790C20322DCC2032264
S31502003FA0D8C2032268C7032298C2032274C203221C
S31502003FB02DE9F04186B00D460D9E002105916EB1A8
S31502003FC0044690461F460E9B63B174230493049BDA
S31502003FD0742B0BD0012383F31088FEE7012383F3AE
S31502003FE01088FEE7012383F31088FEE7049B742200
S31502003FF000210E9806F0CCFD0E9B1E6302230E9A3C
S3150200400082F8723000230393029205AB01930C9B54
S3150200401000933B46424629462046FFF745FE0E9848
S31502004020FFF78AFE059806B0BDE8F0812DE9F04358
S3150200403085B005460E46144698469000FFF756F997
S3150200404010B381467420FFF751F90746C8B17422AE
S31502004050002106F09DFDC7F83090002303930297D6
S315020040600D9B01930C9B00934346224631462846FC
S31502004070FFF71AFE3846FFF75FFE012005B0BDE8DE
S31502004080F0834846FFF7F2F94FF0FF30F6E70000FB
S3150200409038B50446FFF7BEF83CB3251D2846FFF7A0
S315020040A08BFAA36A1BB104F11800FFF785FA1E4AC0
S315020040B01368013313601D4B1A681D4B1B680BB145
S315020040C0A24215D01B4A1368013B1360FFF7D8FDC5
S315020040D0FFF7BEF82046FFF7BDFE154B1B681BB166
S315020040E0124B1B68A3420ED038BD104B1C68D4E796
S315020040F029461148FFF73CFA104A13680133136048
S31502004100FFF7A6F8E9E70E4B1B681BB1012383F301
S315020041101088FEE70B4B4FF080525A60BFF34F8F69
S31502004120BFF36F8FE0E700BF78C2032268C703229E
S3150200413088C2032294C20322B0C20322ACC2032263
S315020041406CC2032200ED00E038B568B10446204B8C
S315020041501B68834207D0FFF75DF82046FFF746FD4E
S3150200416030B9FFF775F838BD012383F31088FEE7EF
S31502004170251D2846FFF720FAE36A164A126893427B
S3150200418084BF144A1360144A03EB830302EB8303CE
S315020041905B68A3609968E1604D609D60E36A03EB2A
S315020041A0830102EB8100606152F82130013342F84B
S315020041B02130074B1B68DA6AE36A9A42D1D2074B6F
S315020041C04FF080525A60BFF34F8FBFF36F8FC8E72D
S315020041D068C703228CC2032208C3032200ED00E053
S315020041E010B590B01C4908AA11F9013B02F8013B2F
S315020041F0002BF9D100240594069407AA06A905A85E
S3150200420000F0EEFE059B0293069B01930094234663
S31502004210079A08A91148FFF7CBFE114B1860B8B1EF
S3150200422000F0B0FE012806D0B0F1FF3F10D1012305
S3150200423083F31088FEE7012383F31088094A4FF0BF
S31502004240FF311160084A1360084B1C60FFF730F813
S31502004250074B1B6810B010BD84D70002CD3E00028A
S3150200426070C2032274C2032288C2032290C20322AE
S31502004270C0D90002024A136801331360704700BFB7
S315020042806CC20322014B1868704700BF90C203221A
S315020042905A4B1B68002B40F0AB802DE9F047584B78
S315020042A01C6801341C609CB9564B1B681B681BB109
S315020042B0012383F31088FEE7524A1168524B1868AD
S315020042C010601960514A136801331360FFF7D8FC76
S315020042D04F4B1B68A34278D84A4B1B681B684BB1ED
S315020042E00020DFF820C10546DFF838E1494ADFF849
S315020042F028A134E00020464B4FF0FF321A6065E0F9
S31502004300434B196062E0D96ADEF80080414588BFF6
S31502004310CEF8001001EB810102EB81014968996038
S31502004320D1F80880C3F80C80C8F804708F60D96A87
S3150200433001EB810702EB8708C3F8148052F82710B5
S31502004340013142F82710DAF80070D96AFB6A9942FD
S3150200435088BF0120DCF800301B68002BCBD0DCF8CC
S315020043600030DB68DB6859688C42C9D3D3F8148005
S315020043709968DF688F60996879601F1DD8F8041004
S31502004380B94204BFD968C8F804105D61D8F80010B4
S315020043900139C8F80010D3F82880B8F1000FB2D05E
S315020043A0196ADE69B160DE694E6003F11809D8F850
S315020043B00410494504BF196AC8F804109D62D8F86A
S315020043C000100139C8F800109DE70020124B1B6847
S315020043D0DB6A03EB83030F4A52F82330022B28BF12
S315020043E001200E4B1B68002B18BF0120BDE8F08789
S315020043F00B4A136801331360002070476CC2032214
S3150200440090C20322DCC20322D8C203227CC2032248
S3150200441074C2032208C3032268C7032280C203228E
S3150200442084C203228CC203222DE9F843FEF7F2FE70
S315020044304D4B1B681BB9012383F31088FEE74A4BD9
S315020044401A68013A1A601B68002B40F08480474BB9
S315020044501B68002B00F08580454B1B68002B5AD049
S31502004460DFF80CC10020DFF820E1424A424C434EFD
S315020044704FF00109DCF80C30DB689F6A196ADD69C6
S31502004480A960DD694D6003F118087968414504BFEA
S31502004490196A796098623968013939605F69D96841
S315020044A09D68A9609D684D6003F1040879684145DD
S315020044B004BFD96879605861396801393960D96AA7
S315020044C0DEF80070B94288BFCEF8001001EB810118
S315020044D002EB8101496899608F68DF60C7F8048042
S315020044E0C1F80880D96A01EB810702EB8708C3F895
S315020044F0148052F82710013142F827102768D96A2A
S31502004500FB6A994288BFC6F80090DCF80030002B9F
S31502004510B0D1FFF7B5FB1A4B1C686CB1174E0125DB
S3150200452001E0013C05D0FFF7B3FE0028F9D0356063
S31502004530F7E7134B00221A60104B1C6864B10E4B4E
S315020045401B68104B4FF080525A60BFF34F8FBFF378
S315020045506F8F012400E00024FEF77AFE2046BDE8B4
S31502004560F8830024F8E700BF6CC2032294C2032238
S31502004570C4C2032208C3032268C7032280C20322DD
S3150200458084C2032200ED00E08CC2032210B540B9BA
S315020045900E4B4FF080525A60BFF34F8FBFF36F8FAF
S315020045A010BD0446FFF766FE094B1B68012B03D0BC
S315020045B0012383F31088FEE700212046FFF79AFCC9
S315020045C0FFF732FF0028EBD1E2E700BF00ED00E083
S315020045D06CC20322F8B5054606F08DFB1F2803D9E7
S315020045E0012383F31088FEE7FFF744FE174CA4F27B
S315020045F04C4700E01C4629462046FFF71DFB0646AF
S3150200460050B9A4F11403BC42F4D1114B18682946DF
S31502004610FFF712FB064618B1FFF706FF3046F8BD54
S315020046200C4B18682946FFF707FB06460028F3D10C
S3150200463029460948FFF700FB06460028ECD1294621
S315020046400648FFF7F9FA0646E6E700BF54C7032213
S31502004650DCC20322D8C2032298C20322B0C20322BA
S31502004660224B1B681BB1224B01221A607047204B5A
S3150200467000221A601F4B1B6803EB83011E4A52F885
S3150200468021208AB963B103EB83011B4A02EB810243
S315020046901946013B52F8140C30B9143A0139F8D1D3
S315020046A0012383F31088FEE7134A03EB830102EB2F
S315020046B0810148684068486003EB830102EB81028E
S315020046C0083290420CD003EB83010B4A02EB8102C3
S315020046D05268D168094A116006490B60136870472F
S315020046E0054A02EB8102D1685160ECE76CC20322F3
S315020046F080C203228CC2032208C3032268C7032294
S3150200470038B50446FEF786FD3CB3251D2846FEF75E
S3150200471053FFA36A1BB104F11800FEF74DFF2946A9
S315020047202348FEF725FF94F87030DBB2012B04BF55
S31502004730002384F8703094F87130DBB2012B04BF89
S31502004740002384F87130FEF783FD1A4B1B683BB9D0
S31502004750194B1B68A3420AD038BD174B1C68D4E715
S31502004760FEF758FDFFF78CFAFEF772FDF0E7114BE4
S315020047701B687BB1114B1B681BB1012383F31088A5
S31502004780FEE70F4B4FF080525A60BFF34F8FBFF3D5
S315020047906F8FE1E70B4B1A68054B1B689A4203D1F0
S315020047A0054B00221A60D7E7FFF75AFFD4E700BF8E
S315020047B098C2032288C2032268C703226CC203225C
S315020047C000ED00E094C2032258B110B50C46074A28
S315020047D011681831FEF7D7FE01212046FFF78AFB42
S315020047E010BD012383F31088FEE700BF68C70322CA
S315020047F038B5E0B18C461146054642680E4B18683C
S31502004800C261186894680462186818306060186893
S31502004810183090601B689D622B6801332B6000295B
S315020048200CBF60464FF0FF30FFF764FB38BD012333
S3150200483083F31088FEE700BF68C70322C368DB68FC
S31502004840002B51D010B49A6AD869196A8160D86966
S31502004850486003F118005168814204BF196A516029
S3150200486000219962116801391160274A1268002AEB
S315020048703ED15A699868D968816098684860181D5F
S315020048805168814204BFD96851600021596111689B
S3150200489001391160DA6A1D4909688A4284BF1B49D7
S315020048A00A601B4902EB820201EB820252689A609D
S315020048B09468DC6060609060DA6A02EB820001EB69
S315020048C080045C6151F82020013241F82020114A0F
S315020048D01168DA6ACB6A9A4283BF01200E4B1860CE
S315020048E000205DF8044B7047012383F31088FEE72E
S315020048F00A4A5168D9618C681C62606088609A6253
S31502004900116801311160E2E76CC203228CC20322F4
S3150200491008C3032268C7032280C20322C4C2032239
S31502004920034B1B680360034B1B684360704700BF61
S315020049307CC2032290C20322B8B170B50C4605466A
S31502004940B9B1FEF767FC174B1A682368B3F1FF3F4C
S3150200495022D06968144800682E6886420DD09142BA
S315020049600BD800232360012417E0012383F3108868
S31502004970FEE7012383F31088FEE7501A834203D829
S3150200498000232360012408E09B1A0B442360284677
S31502004990FFF7C6FF002400E00024FEF759FC20467C
S315020049A070BD00BF90C203227CC20322014B0122CA
S315020049B01A60704780C20322054B1B6833B1054B50
S315020049C01868B0FA80F0400940007047012070472D
S315020049D088C203226CC2032200283FD038B504469F
S315020049E0204B1B68834203D0012383F31088FEE722
S315020049F0436E1BB9012383F31088FEE7013B43662E
S31502004A00C16A026E91422BD00BB1002038BD051D42
S31502004A102846FEF7D1FD236EE362C3F13802A26196
S31502004A20114A1268934284BF0F4A13600F4A03EB7E
S31502004A30830302EB83035B68A3609968E1604D60C0
S31502004A409D60E36A03EB830102EB8100606152F829
S31502004A502130013342F821300120D7E70020704788
S31502004A600020D3E768C703228CC2032208C30322AD
S31502004A70F8B5012803D9012383F31088FEE704461B
S31502004A800E4617461D46FFF7F5FBFEF7C3FB2C4BFA
S31502004A901B68234493F87030DBB2022B2FD02849CF
S31502004AA00B6803EB84039A6E22EA06029A660B6887
S31502004AB02344012283F87020069B1BBBFEF7C8FB2A
S31502004AC0FFF7B2FCFEF7A6FB35B11D4B1B6804F1DE
S31502004AD01A0253F822302B60194B1B68234493F8B1
S31502004AE07030DBB2022B20D00025154B1B68234405
S31502004AF0002283F87020FEF7ABFB2846F8BDFEF7CE
S31502004B00A7FBDDE7FEF7A4FB01210698FFF7F2F902
S31502004B10FFF78AFC0028D5D10A4B4FF080525A6023
S31502004B20BFF34F8FBFF36F8FCCE7054B1B6803EBC9
S31502004B3084039A6E22EA07029A660125D5E700BF28
S31502004B4068C7032200ED00E0F8B5012903D9012365
S31502004B5083F31088FEE707460C4616461D46B8B193
S31502004B60FEF758FB069B2BB104F11A0357F82330C4
S31502004B70069A13603A1992F87030DBB2022182F873
S31502004B807010042D24D8DFE805F00C0713191D0058
S31502004B90012383F31088FEE707EB8404A26E3243F7
S31502004BA0A266012B1CD00124FEF752FB2046F8BD5B
S31502004BB007EB8404A26E0132A266F2E71A3447F8C2
S31502004BC02460EEE7022B4FD01A3447F82460E8E758
S31502004BD0274A1268002AE4D0012383F31088FEE7ED
S31502004BE07B69B968FA688A60B9685160391D5A6882
S31502004BF08A4204BFFA685A6000227A611A68013A48
S31502004C001A60FB6A1B4A1268934284BF194A1360F0
S31502004C10194A03EB830302EB83035B68BB60986864
S31502004C20F86041609960FB6A03EB830102EB810045
S31502004C30786152F82130013342F82130BB6A1BB148
S31502004C40012383F31088FEE70C4B1B68DA6AFB6AC2
S31502004C509A420BD20A4B4FF080525A60BFF34F8FE3
S31502004C60BFF36F8F01249FE700249DE701249BE792
S31502004C7090C203228CC2032208C3032268C70322FE
S31502004C8000ED00E008B54160006191420CD8D21AED
S31502004C9083699A4201D3012008BD011D094B186898
S31502004CA0FEF771FC0020F7E79A4201D2994206D23A
S31502004CB0011D054B1868FEF766FC0020ECE7012093
S31502004CC0EAE700BF68C803226CC8032270B504462F
S31502004CD00D46164604E0A3691D44236A20469847FA
S31502004CE0A1692B46324629442046FFF7CBFF00280E
S31502004CF0F1D170BD70B505460E460D4B1B68DB68DB
S31502004D00DC68201DFEF758FC94F8283013F0040FD7
S31502004D1007D123F0010384F82830236A20469847F6
S31502004D2070BD324629462046FFF7D0FFF5E700BFA1
S31502004D306CC80322F8B50546FFF7A4FA0446104BE1
S31502004D401B68834205D800232B600D4B1C6020464E
S31502004D50F8BD0C4B1B681A685AB14FF0FF37094E63
S31502004D60DB6839461868FFF7C5FF33681A68002AF8
S31502004D70F6D1054A10680349086013600123E3E788
S31502004D805CC803226CC8032268C803222DE9F041DD
S31502004D9086B05C4E5C4D33681F68002F00F0908031
S31502004DA0DB681F68FFF766FA02A8FFF7C3FF04462F
S31502004DB0029A4AB9874200F29380FFF735FB2146F1
S31502004DC03846FFF797FF01E0FFF72EFB0023029319
S31502004DD00393049305931C4606E005990498039BE6
S31502004DE09847029B002B09DA224602A92868FEF799
S31502004DF0DDFD0028CFD0029B002BEEDB049F7B69F2
S31502004E0013B1381DFEF7D8FB01A8FFF793FF8046C2
S31502004E10029B013B082BE7D8DFE803F005052930A2
S31502004E2044050529300097F8283043F0010387F836
S31502004E302830039BB969024619443846FFF722FF18
S31502004E400028D1D097F8283013F0040F07D123F0A9
S31502004E50010387F828303B6A38469847C4E7BB699E
S31502004E604246039919443846FFF730FFF3E797F8AD
S31502004E70283023F0010387F82830B5E797F8283061
S31502004E8043F0010387F828300399B96131B103462B
S31502004E90024601443846FFF7F5FEA5E7012383F3F0
S31502004EA01088FEE797F8283013F0020F04D023F09B
S31502004EB0010387F8283097E73846FEF7D7FA93E7D3
S31502004EC0FFF7D8F902A8FFF735FF0446029B002B2D
S31502004ED07FF47AAF0D4B1B681A68B2FA82F2520956
S31502004EE0391B2868FEF75BFEFFF79EFA00287FF45F
S31502004EF06DAF074B4FF080525A60BFF34F8FBFF32F
S31502004F006F8F63E76CC8032264C8032268C8032252
S31502004F1000ED00E030B583B0FEF77CF9114B1B685B
S31502004F201BB1FEF795F903B030BD0F4D2846FEF7CB
S31502004F3011FB0E4C2046FEF70DFB0D4B1D600D4B73
S31502004F401C60002300930C4B0C4A10210A20FEF72A
S31502004F501DFC044B18600028E3D00949FEF7C8FD82
S31502004F60DFE700BF64C8032284C8032270C8032295
S31502004F706CC8032268C803226CC70322BCC703227B
S31502004F808CD7000210B588B0FFF7C4FF104B1B6820
S31502004F90CBB100240594069407AA06A905A800F039
S31502004FA02BF8059B0293069B01930223009323464B
S31502004FB0079A08490848FEF7FBFF084B186010B12C
S31502004FC0012008B010BD012383F31088FEE700BF5D
S31502004FD064C8032294D700028D4D000260C80322E2
S31502004FE0034B0360034B0B6080231360704700BFC3
S31502004FF014CF032214CD0322034B0360034B0B6031
S315020050004FF4807313607047A0CC0322A0C803221A
S31502005010024A136801331360704700BF88020222F6
S3150200502008B5FBF783FB08BD08B5FBF711FD08BD04
S3150200503008B5FBF787FB08BD0379022B00D0704742
S31502005040014B01221A70FAE7040000222DE9F0470B
S3150200505082B04B494B4800F085FA4B4C0C21204656
S31502005060FCF76EF8494D4A49284601F0ABF9284645
S3150200507001F08EF9284601F057F94649464800F0F4
S3150200508071FA4649464800F06DFA4649464800F02C
S3150200509069FA464D01224FF48571284601F03EF821
S315020050A04FF47A714FF4FA7001F048FD00224FF482
S315020050B08571284601F032F83D493E48FBF7B4F9BE
S315020050C01C212046FCF73CF84FF47A714FF4C87065
S315020050D001F034FD2D212046FCF732F84FF47A71A7
S315020050E04FF4FA7001F02AFD44212046FCF728F815
S315020050F04FF47A714FF4167001F020FD64212046B8
S31502005100FCF71EF82C48FFF765FA0546DFF8C4A03F
S315020051105046FFF75FFA06462848FFF75BFA07464E
S31502005120DFF8B4904846FFF755FA80462448FFF761
S3150200513051FA0190CDF800803B4632462946204678
S31502005140FBF720FD5046FFF745FA01461D4C204667
S31502005150FCF7ACFF4846FFF73DFA01462046FCF74E
S31502005160A7FF194C2046FFF735FA184BC3F8F80487
S315020051702046FFF72FFA164B1860FFF731F8FEE7C5
S3150200518094DA00024CD0032260D1022290CF03228D
S31502005190C4D90002ECD90002B0CF032220DA000201
S315020051A0E4CF032260DA000218D0032288CF03225A
S315020051B09CD7000298C8032260D7000244D7000297
S315020051C05CD70002ECD0022240D40002E4CB0222D9
S315020051D09C0A022268D7000250D7000210B582B09C
S315020051E0074C0023009301231A4606492046FBF783
S315020051F0A7F8054A0549204601F046FF02B010BD50
S3150200520098C8032254DA0002000000224F0300026B
S3150200521008B5074B4FF002725A64002283F85420F5
S315020052204AF20152A3F86420FFF710FF08BD00BF3F
S3150200523000F00040022800D0704708B50249034832
S3150200524001F068F808BD00BFACDB000288CF03227C
S3150200525008B5FFF7DDFF002008BD8161C2610020AD
S31502005260704710B4446AA36823F44013A360446AE7
S31502005270A36C13F0804FFBD0A36823F01003A36046
S31502005280446A237F13F0100FFBD142610161A368C8
S3150200529043F01013A36000205DF8044B704781624F
S315020052A00263C362002070474FF0FF334B600B600E
S315020052B000207047844611F0020F1DD0426A93689F
S315020052C023F440139360426A936C13F0804FFBD031
S315020052D0936823F010039360DCF82420137F13F005
S315020052E0100FFBD10020CCF8140011F0010F1CBFE7
S315020052F00020CCF81C0070470620F6E70346C26978
S315020053000A600020D8617047062070470620704761
S3150200531030B4530902F01F050124AC402033144D6A
S3150200532045F82340BFF34F8FBFF36F8F114B02F542
S31502005330C65C53F82C4024F4803443F82C4053F8CE
S315020053402C30002A0CDB0901C9B202F1604303F5D5
S31502005350614383F80013084B43F8220030BC7047C0
S3150200536002F00F040901C9B2044B1955F3E700BF55
S3150200537000E100E00060004014D1032214ED00E0D9
S3150200538070B584B005460E469446C46ACCB194E81C
S315020053900F000DF1100E0EE90F002B6A1B78236029
S315020053A0A66084F804C02B6BE360AB6A204698477C
S315020053B0EC6A24B104AB13E90F0084E80F0004B0D1
S315020053C070BD6C46E9E7000038B54268374B9A4231
S315020053D06AD10446426A936823F440139360426A90
S315020053E0936823F010039360426A137F13F0100F41
S315020053F0FBD1236A93F90730580903F01F030121F1
S3150200540001FA03F32A4A203042F82030BFF34F8FC5
S31502005410BFF36F8F236A93F90930580903F01F030C
S3150200542001FA03F3203042F82030BFF34F8FBFF367
S315020054306F8F606A836823F480338360236A93F9EB
S315020054400530580903F01F0301FA03F3203042F82E
S315020054502030BFF34F8FBFF36F8F236A93F90B3060
S31502005460580903F01F0301FA03F3203042F82030F3
S31502005470BFF34F8FBFF36F8FEFF3108581F3108861
S315020054800C4A5068236A93F800C04FF0004323FA8F
S315020054900CF30343536053681E2001F04FFB85F360
S315020054A010880020606038BD0720FCE7424943535C
S315020054B000E100E00030204070B5036ADD69002398
S315020054C083606B7C03B970BD0446184B93F8543065
S315020054D003F00F03072B22D8DFE803F006060604C3
S315020054E0251B1D1F062601E001269E400F4B93F841
S315020054F0550000F00F0001F0BBFA6B7C0C4A1268F3
