S01D000041726D53796E635F536F6C7574696F6E5F435055302E7372656317
S3150200000080020222B97F00021D7E0002B57F000235
S31502000010B57F0002B57F0002B57F0002B57F000200
S31502000020000000000000000000000000E9340002A9
S31502000030B57F0002000000000135000269350002AA
S31502000040F1760002F9650002556500028D6600022E
S31502000050D9660002F9650002556500028D66000246
S31502000060D9660002F9650002556500028D66000236
S31502000070D9660002F9650002556500028D66000226
S31502000080D9660002C16E0002E57400020D5E00022E
S315020000900000000001010000BCE90002ECE90002D8
S315020000A05200000024000000BCE90002ECE9000254
S315020000B03A00000024000000BCE90002ECE900025C
S315020000C03600000026000000BCE90002ECE900024E
S315020000D0140000001200000068EB000294EB00021C
S315020000E0870000001200000001000000000000006E
S315020000F00000000074000022000000000000000062
S3150200010000000000A0C204221040000010400000BF
S315020001101040000010400000010000000100000035
S3150200012000001888000000000000000001004000E6
S31502000130098B000239A700024300000000000000FC
S3150200014000000000000000000000000000000000A7
S315020001500000000000000000430000000000000054
S315020001600000000000000000000000000000000087
S315020001700000000000000000430000000000000034
S315020001800000000000000000000000000000000067
S315020001900000000000000000430000000000000014
S315020001A00000000000000000000000000000000047
S315020001B000000000000000004300000000000000F4
S315020001C00000000000000000000000000000000027
S315020001D000000000000000004300000000000000D4
S315020001E00000000000000000000000000000000007
S315020001F000000000000000004300000000000000B4
S3150200020000000000000000000000000000000000E6
S315020002100000000000000000A1E100021BD700025E
S3150200022000000000F8FE000204FC000295FD000238
S3150200023095FD000295FD000295FD000295FD000266
S3150200024095FD000295FD000295FD000295FD000256
S31502000250FFFFFFFFFFFFFFFFFFFFFFFFFFFF0000A4
S31502000260010041534349490000000000000000001C
S315020002700000000000000000000000000000000076
S3150200028000004153434949000000000000000000FD
S315020002900000000000000000000000000000000056
S315020002A00000000018020022000000000CC5042213
S315020002B074C50422DCC50422000000000000000010
S315020002C00000000000000000000000000000000026
S315020002D00000000000000000000000000000000016
S315020002E00000000000000000000000000000000006
S309020002F00000000002
S315020003000348044B834202D0034B03B1184770479C
S31502000310640200226402002200000000064B074924
S31502000320C91A891048BF0131491003D0044B0BB1D9
S3150200033001481847704700BF640200226402002287
S315020003400000000010B5064C237843B9FFF7D8FF2A
S31502000350044B13B10448AFF300800123237010BD90
S31502000360B00202220000000028F1C90208B5054BBE
S315020003701BB105490548AFF30080BDE80840FFF709
S31502000380CDBF00BF00000000B402022228F1C9025C
S315020003900160027143719DF800308371704710B598
S315020003A00446006808B105F0BFFE204610BD0000F5
S315020003B0F0B5ADF5057D07460C46037943BB002033
S315020003C0C0F5FF720132214604AB18440BF09CFFC4
S315020003D000238DF80F32224B1B7853B94FF47A76ED
S315020003E001251F4C3146284607F0B0FC2378002B26
S315020003F0F8D01B4B00221A7004A80CF01EF8024615
S315020004003B6804A9186805F0DBFD0DF5057DF0BD16
S31502000410144B1968144AA2FB01329209134BA3FB2F
S315020004200203DB0A4FF47A7000FB121102911048A4
S31502000430A0FB02514909C1EB0111A2EB8101019115
S315020004404FF4616101FB1322A0FB020252090092E2
S31502000450084A4FF4007104A80BF094FEB0E700BFFF
S3150200046004000022CC020222D34D6210C5B3A2912F
S315020004708988888820E500020EB410B5C3B0044608
S3150200048045AB53F8042B01934FF4807102A80BF08D
S31502000490F9FE02A92046FFF78BFF43B0BDE81040E4
S315020004A003B0704708B4F0B5ADF50C7D04460E46B0
S315020004B0154691AB53F8042B4B934CAF4FF4807116
S315020004C038460BF0DFFE019700962B46074A4FF49B
S315020004D0907103A80BF056FE03A92046FFF768FFAA
S315020004E00DF50C7DBDE8F04001B070473CE5000219
S315020004F00CB430B5ADF51F7D04460A46A2AB53F8DF
S31502000500045B5D934FF480715EA80BF0BBFE6379CA
S31502000510002B144B144A18BF1346A279CAB1ADB1C7
S315020005202A68A9685EA80290019100920F4A4FF4C8
S31502000530B07105A80BF026FE05A92046FFF738FF85
S315020005400DF51F7DBDE8304002B07047084A002114
S31502000550E8E75EAA0092074A4FF4B07105A80BF0CD
S3150200056011FEE9E768E5000250E5000274E50002C3
S3150200057074E7000284E500020CB430B5ADF51F7DC8
S3150200058004460A46A2AB53F8045B5D934FF48071AE
S315020005905EA80BF077FE6379002B144B144A18BF42
S315020005A01346A279CAB1ADB12A68A9685EA80290BB
S315020005B0019100920F4A4FF4B07105A80BF0E2FDCB
S315020005C005A92046FFF7F4FE0DF51F7DBDE8304074
S315020005D002B07047084A0021E8E75EAA0092074A7D
S315020005E04FF4B07105A80BF0CDFDE9E7A4E50002D2
S315020005F08CE5000274E5000274E7000284E500025D
S315020006000EB410B5ADF50D7D04468FAB53F8042B31
S315020006104B934FF480714CA80BF034FE6379002B98
S315020006204CAB0093094A0A4B08BF1346094A4FF4DA
S31502000630907103A80BF0A6FD03A92046FFF7B8FEAA
S315020006400DF50D7DBDE8104003B07047C4E500020C
S31502000650B0E5000284E500020EB410B5ADF50D7DDD
S3150200066004468FAB53F8042B4B934FF480714CA87E
S315020006700BF008FE6379002B4CAB0093094A0A4B38
S3150200068008BF1346094A4FF4907103A80BF07AFD8E
S3150200069003A92046FFF78CFE0DF50D7DBDE810403F
S315020006A003B07047E4E50002CCE5000284E50002EF
S315020006B00160426000228260C26002610275704778
S315020006C0026943689A420DD202688368D1548368EC
S315020006D001334268B3FBF2FC02FB1C3383600369FD
S315020006E0013303610A2904BF0123037570470269B6
S315020006F09AB110B4C3680168C95C01334468B3FB9C
S31502000700F4FC04FB1C33C360013A02610AB90023FC
S31502000710037508465DF8044B70474FF0FF3070478B
S3150200072000697047007D70472DE9F041037DCBB12A
S31502000730064688464D1E571E00243046FFF7D7FF51
S31502000740002808DBBC4205D0013405F8010F0A284F
S31502000750F3D100E03C46002308F804303375204606
S31502000760BDE8F0810024FAE710B5044603F078FFED
S31502000770A06023685B682046984710BD08B50379D8
S31502000780042B00D008BD017A0148FFF799FFF9E76B
S31502000790E804022208B50379042B00D008BD017AC9
S315020007A00148FFF78DFFF9E7D00202222DE9F04F4B
S315020007B02DED088BA1B007464A48FFF7B3FF20B9D3
S315020007C021B0BDEC088BBDE8F08F80226946454812
S315020007D0FFF7AAFF0028F3D04FF0000A08EE10AA8E
S315020007E008EE90AA09EE10AA09EE90AA0AEE10AA3D
S315020007F00AEE90AA0BEE10AA0BEE90AAD346684612
S315020008000026B0464FF02C093FE0F0EE40BA19E060
S31502000810B0EE40BA16E0F0EE40AA13E0B0EE40AAFF
S3150200082010E0F0EE409A0DE0B0EE409A0AE0F0EEEB
S31502000830408A07E0B0EE408A04E010EE10AA01E01A
S3150200084010EE10BA0136E4B20D2C19D8092EB7DD16
S31502000850C7F830B0C7ED0DBA87ED0EBAC7ED0FAACD
S3150200086087ED10AAC7ED119A87ED129AC7ED138A82
S3150200087087ED148AC7F854A0012387F859309FE7F9
S31502000880284600F8019B0A2EE2D090F90040054660
S315020008904CB12C2C07D00A2C05D00D2C03D015F9FF
S315020008A0014F002CF5D185F8008041460AF0C8FDBB
S315020008B0092EC7D801A353F826F000BF410800024B
S315020008C00B08000211080002170800021D080002A8
S315020008D023080002290800022F0800023508000238
S315020008E03B080002E80402222DE9F0438FB080465D
S315020008F02A4D4FF0AA090DF119062846FFF710FFF7
S31502000900192847D92846FFF7F2FEAA28F5D18DF80D
S3150200091000906F463C462846FFF7E9FE04F8010FB1
S31502000920B442F8D19DF819300D2BE6D107AB4FF042
S31502000930040E4EF001E0B9787A7842EA01221A8072
S315020009403979FA7842EA01225A80B9797A7942EA01
S3150200095001229A80063706330FF013C801278DF855
S31502000960347007AC0FCCC8F81400C8F81810C8F8D1
S315020009701C20C8F8203003CCC8F82400C8F8281078
S31502000980FBB288F82C3088F8587003F069FEC8F874
S315020009905C00B2E70FB0BDE8F08300BFD0020222CE
S315020009A030B593B004460D46EC4600F1300EBEE873
S315020009B00F00ACE80F00BEE80F00ACE80F009EE89F
S315020009C003008CE803000DF1280C6069A169E26955
S315020009D0236AACE80F00606AA16AACE8030094F8E7
S315020009E02C308CF800301195206900231A4669468E
S315020009F0006803F00DF913B030BD10B5044603F0DC
S31502000A002FFE94F8583043B9E36D73B1C31A94F8C4
S31502000A1059200AB14F2B0CD810BD002384F8583048
S31502000A2001462046FFF7BCFFF6E794F85930002B43
S31502000A30F2D001462046FFF7B3FFEDE738B504468C
S31502000A4008490948FFF7DCFD03252046FFF74CFF5E
S31502000A502046FFF7ABFE2046FFF7CFFF284603F0FE
S31502000A6083FFF2E7ECE50002A0BB042208B54FF4CF
S31502000A70806205490548FFF71BFE4FF400720449E0
S31502000A800448FFF715FE08BD00050222E80402220B
S31502000A90E8020222D002022210B504460379042B90
S31502000AA003D02379022B05D010BD017A0348FFF744
S31502000AB007FEF6E7024B01221A70F5E784090222C5
S31502000AC0050000220FB4F0B583B008AB53F8042B2F
S31502000AD001937D2117480BF0D5FB002824DB154B2B
S31502000AE0FF221A5403445A709A70C61C124B1B7882
S31502000AF093B901254FF47A770F4C04E0284603F0A8
S31502000B0033FF237843B904F04DF90228F6D039466B
S31502000B10284607F01BF9F4E7074B00221A70324603
S31502000B200449064805F04CFA03B0BDE8F04004B0AB
S31502000B30704700BF0409022205000022A4C3042252
S31502000B4008B5DFED087A20EE270AFDEEC07A17EE29
S31502000B50902A01310448FFF7B5FF032003F004FF92
S31502000B6008BD00BF0000C84204E6000208B5013114
S31502000B700348FFF7A7FF032003F0F6FE08BD00BFF8
S31502000B8014E6000210B50C46FDEEC07A17EE901A76
S31502000B900948FFF797FF032003F0E6FE002C43F611
S31502000BA0B1614EF2492318BF19460448FFF78AFF7E
S31502000BB0032003F0D9FE10BD28E600023CE600023F
S31502000BC0016142618361009BC361019B03624162D1
S31502000BD0029B83627047000010B582B0044600692A
S31502000BE0A0B100210091032394F82C2004F0A2F96D
S31502000BF094F82C30002B064B064A18BF1346009376
S31502000C00054B064A06490748FFF74CFC02B010BDE1
S31502000C1054E6000250E600025CE6000260E60002CC
S31502000C2068E60002A0BB0422406950B100B583B059
S31502000C300A4600210091032304F07CF903B05DF813
S31502000C4004FB704738B500F1140400F1280501E0F1
S31502000C50AC4206D054F8040F0028F9D003F03EFF48
S31502000C60F6E738BD38B500F1140400F1280501E0B5
S31502000C70AC4206D054F8040F0028F9D003F052FC17
S31502000C80F6E738BD10B5012812D00446022811D065
S31502000C9040B315491548FFF715FF032003F064FE1C
S31502000CA0032C43F6B1644EF2492308BF1C460AE000
S31502000CB00F4900E00F490D48FFF704FF032003F038
S31502000CC053FE43F6B16421460B48FFF7FBFE0320B1
S31502000CD003F04AFE21460948FFF7F4FE032003F01B
S31502000CE043FE10BD0649E6E78CE6000294E60002E2
S31502000CF07CE6000274E60002A8E6000240E6000274
S31502000D0084E600022DE9F0410446624D624E634FCD
S31502000D100FE002F065FC624B01221A7002F07EFCC3
S31502000D200320FFF7AFFF5F4B5F4A60496048FFF75A
S31502000D30B9FB2846FFF7DBFC0028C0F2A880423840
S31502000D401128F6D801A353F820F000BF950D000232
S31502000D50330D0002330D0002130D0002330D0002A3
S31502000D60330D0002330D0002330D0002330D000273
S31502000D70330D0002630E0002330D0002330D000232
S31502000D80330D00021B0E0002330D0002FB0D0002A2
S31502000D90790E000294F82D30002BCAD102F020FC05
S31502000DA0444B01221A7002F039FC02F019FC3C4B4A
S31502000DB093F8008002F032FCB8F1000F16D002F070
S31502000DC00FFC374B00221A7002F028FC94F83430DC
S31502000DD053B994F82C00FFF755FF374B374A33497E
S31502000DE03348FFF75FFBA4E70320F4E7344B334AAB
S31502000DF02E492F48FFF756FB9BE794F82D30002B20
S31502000E0097D194F82C0080F0010084F82C00FFF7AB
S31502000E1039FF2046FFF7E0FE8BE794F82C30002BD3
S31502000E2087D194F82D0080F0010084F82D0040004F
S31502000E30FFF728FF94F82D305BB194F82E20164B5D
S31502000E401A702046FFF7FEFE02212046FFF7ECFE4F
S31502000E506FE703212046FFF7E7FE2046FFF702FF72
S31502000E6067E7012384F82E303370164B164A17496A
S31502000E700F48FFF717FB5CE7002384F82E30337028
S31502000E803B46114A11490A48FFF70CFB51E7BDE8F8
S31502000E90F08100BF840902221C0A022210E7000226
S31502000EA058000022BCE60002C4E60002CCE60002BC
S31502000EB0A0BB0422E40A0222D4E60002ECE6000207
S31502000EC0F4E60002FCE6000260E6000204E7000225
S31502000ED008B501460348FFF7F5FD032003F044FD7C
S31502000EE008BD00BF18E7000210B50246074C21787C
S31502000EF00748FFF7E7FD032003F036FD23780133A9
S31502000F00DBB2052B28BF0023237010BD0009022285
S31502000F1028E700022DE9F04F2DED028BA5B08146A0
S31502000F20B449B548FFF76CFBC82003F01DFD00204D
S31502000F30FFF7A8FE4FF0000A83E10D9B042B40F059
S31502000F408E8199F82D30002B00F0898189F82DA029
S31502000F504846FFF787FE4846FFF73EFE5046FFF734
S31502000F6091FEA64BA64AA749A348FFF79BFA76E14C
S31502000F700E98FFF7ADFF80E119AC0FAD0FCD0FC490
S31502000F800FCD0FC495E8030084E80300DDED196A6E
S31502000F90B3EE047AC6EE877ACDED197ADDED1A6ADA
S31502000FA0B3EE0E7AC6EE877ACDED1A7AF2EE047AAF
S31502000FB0DDED1B6A86EEA77A8DED1B7ADDED1C6AE6
S31502000FC086EEA77A8DED1C7ADDED1E6A86EEA77A8D
S31502000FD08DED1E7A19AB04931D460024B5EC010A69
S31502000FE021464846FFF7ACFD0134062CF6D1DFF860
S31502000FF03C8220AD844B09939B464746049B0024C2
S3150200100005940694CDF828800B9698461FE0DBEDF2
S31502001010007AF4EEC87AF1EE10FA51D82B780693DC
S31502001020002B53D10122069205995346002A51D12B
S315020010300122A240D9F8303023EA02030591C9F809
S315020010403030013401350BF1040B062C49D0B8ECD3
S31502001050018AF7EC017AF4EEC87AF1EE10FAD6DBE1
S315020010602B78002B40F02181012206920126A64010
S31502001070D9F8302016421FD1002B644A644B08BFB0
S3150200108013460793631C079A00920893614A20212C
S315020010900FA80BF077F80FA8FFF726FFB7EEC88A5E
S315020010A08DED028B079A0192089B00935A4B5B4A7D
S315020010B05B495148FFF7F6F9D9F830303343BEE7BA
S315020010C029780B460A460029B0D1ADE7069A13469F
S315020010D00592CBE70591C9E7059306934C4B079317
S315020010E0D0E7DDF828800B9E059B3BB399F8343098
S315020010F07BB1069B002B47D00DF17F05002401270B
S315020011004EF249264FF2245BCDF81490DDF8249076
S315020011104CE0012389F834300320FFF7B3FD069B28
S3150200112093B399F83430002BE6D14FF224513D485F
S31502001130FFF7C8FC012389F83530DDE799F834302A
S3150200114073B9069B002BF0D199F83530002BD3D01A
S3150200115089F835A043F6B1613248FFF7B3FCCBE715
S3150200116089F834A002F03CFA2F4B1C7802F056FAAA
S31502001170002CD4D199F82C3013B999F82D305E0091
S315020011803046FFF77FFDCAE799F83530002BB3D01A
S3150200119099F83430002BAFD1DAE721460598FFF7EC
S315020011A0E5FC013409F10409062C1FD0049BF3EC7B
S315020011B0017A0493B8EC017A3946B4EEE77AF1EE95
S315020011C010FA08DA99ED007AB4EEE77AF1EE10FA3F
S315020011D094BF0121002115F8013F3246002BDCD1D4
S315020011E0002943F6B16218BF5A46D6E7DDF81490D5
S315020011F051E000BF64E70002A0BB042278E70002C8
S31502001200ECE6000298E7000268EE00024CE70002F4
S315020012103CE700029CE70002A4E70002C4E60002E3
S31502001220B8E7000240E600025800002280EE000203
S3150200123051469DED0F0A4846FFF7A4FC282003F00D
S3150200124093FBCDF834A0CDF800A00DAB4FF0FF32E2
S315020012505146504603F002FE01283FF46EAECDF829
S3150200126038A0CDF800A00EAB4FF0FF325146012058
S3150200127003F0F4FD01283FF47BAE4846FFF742FD3A
S31502001280D9F8383052460FA9186802F075FD06469D
S3150200129001283FF471AED9F83C3052460FA91868BE
S315020012A002F06AFD0128C9D1C2E70126A640D9F893
S315020012B0302016423FF410AF05930693FCE600BFBA
S315020012C010B501281FD0022843F6B16448F2104334
S315020012D018BF1C460E490F4B18BF19460E48FFF79A
S315020012E0F1FB032003F040FB21460C48FFF7EAFB23
S315020012F0032003F039FB21460948FFF7E3FB0320ED
S3150200130003F032FB10BD4FF224540649E6E700BF54
S31502001310C8E70002C0E70002D8E70002ECE70002D5
S3150200132000E80002D0E7000208B501460748FFF7C9
S31502001330C9FB032003F018FB43F6B1610448FFF72B
S31502001340C1FB032003F010FB08BD00BF10E800023A
S31502001350ECE7000210B50C460448FFF7B3FB642C19
S3150200136000D010BD0248FFF7ADFBFAE728E80002FD
S315020013703CE8000208B5802202490348FFF798F9C3
S3150200138008BD00BF9C0902228409022200F54040E2
S31502001390D0F8040550B100B583B00A460021009189
S315020013A0032303F0C7FD03B05DF804FB7047F0B5F5
S315020013B089B0044600F54043B3F8F6346BB904F538
S315020013C04044B4F8F634A4F8F834003B18BF0123BD
S315020013D084F8FD34012009B0F0BD01ADD0F80D004E
S315020013E0D4F81110D4F81520D4F819300FC5D4F852
S315020013F01D00D4F82110D4F8252007C5174604F19C
S315020014000D0C002504F540460DF1040EDCF8000033
S31502001410DCF80410DCF80820DCF80C30AEE80F002B
S31502001420DCF81000DCF81410DCF81820AEE807002F
S31502001430D31B07930DF1040EBEE80F00CCF8000093
S31502001440CCF80410CCF80820CCF80C30BEE8070023
S31502001450CCF81000CCF81410CCF8182001350CF199
S315020014601C0CB6F8F634AB42CED8A8E72DE9F0410B
S315020014709CB00646A249A348FFF7C2F800238DF89E
S315020014806C301BA801F06AFF18B106F540449E4F66
S315020014908FE19E4A9E499B48FFF72AF8F5E7D4F862
S315020014A00835002213A9186802F066FC012817D035
S315020014B000238DF848309DF84830002B5AD1B4F8F5
S315020014C0F634002B6CD01BA93046FFF770FF0028BC
S315020014D060D0B4F8F6248F498A48FFF7BDF864E075
S315020014E00BAD0DF14C0CBCE80F000FC59CE80700D4
S315020014F085E8070001238DF84830DCE7C3EBC30318
S315020015009D000D3506EB050E0DF12C0CBCE80F0007
S315020015107051CEF80410CEF80820CEF80C30BCE894
S315020015200700CEF81000CEF81410CEF81820B4F842
S31502001530F6340133A4F8F63421E013AD0DF1100CA4
S31502001540BCE80F000FC59CE8070085E807000123E9
S315020015508DF868300DF12C0C0DF14C0EBEE80F0023
S31502001560ACE80F009EE80F008CE80F009DF84830AB
S31502001570002BA4D0B4F8F634B3F5E16FBED3D4F899
S315020015800835002204A9186802F0F6FB0128D4D017
S315020015900023DDE7604A61495A48FEF7A9FF04E0E5
S315020015A03A465F495748FEF7E7FF0023A4F8F634A8
S315020015B01AE05C4A5C495348FEF7DEFF04213046D6
S315020015C0FFF7E4FE10E0002384F8FC34574A137058
S315020015D0A4F8FA341D46D4F80C352A4613A918681D
S315020015E002F0CAFB0128F6D094F8FC34002B00F076
S315020015F0AB80B4F8FA34B4F8F8249A4273D9C3EB40
S31502001600C3039B000D3306EB030C13ADF058DCF855
S315020016100410DCF80820DCF80C300FC5DCF81000EA
S31502001620DCF81410DCF8182007C5D4F80055154468
S315020016304FF0010802E0404603F096F903F010F875
S31502001640281A0028F7DC03F00BF81990D4F80C05D9
S3150200165000231A4613A9006802F0DAFA012823D1F8
S31502001660B4F8FA3401339BB2A4F8FA3413F07F0FBC
S315020016701ED0B4F8F824B4F8FA349342C0F0998034
S315020016802B4B1B78FBB10023A4F8FA3402F0E8FFD7
S31502001690C4F80005274B284A28491A48FEF702FFD4
S315020016A0012003F061F984E0012003F05DF980E096
S315020016B0B4F8F82401920093214B1F4A1F4911489E
S315020016C0FEF7F0FED5E71F490E48FEF7C5FF0023D9
S315020016D084F8FC34154A1370A4F8FA34042130460F
S315020016E0FFF754FE65E0002384F8FC340F4A1370BA
S315020016F0A4F8FA3404213046FFF748FE59E000BF49
S3150200170050E80002A0BB0422180000223800002282
S3150200171068E8000290E8000228000022B0E8000211
S31502001720D0E800020800002210E900021D0A022287
S315020017301C0A022258E9000260E6000250E9000291
S315020017403CE9000264E90002D4F8083500220BA93C
S31502001750186802F011FB012860D000238DF868306A
S315020017609DF8683013B3B4F8F634B3F5E16F63D27B
S31502001770C3EBC3039D000D3506EB050E0DF14C0CB4
S31502001780BCE80F007051CEF80410CEF80820CEF84F
S315020017900C30BCE80700CEF81000CEF81410CEF8D4
S315020017A01820B4F8F6340133A4F8F634212003F0F5
S315020017B0DBF800200390009003AB4FF0FF320146A6
S315020017C003F04CFB01287FF40FAF039B012B3FF480
S315020017D066AE022B7FF4F7AE0025D4F810352A4602
S315020017E013A9186802F0C8FA0128F6D094F8FD3455
S315020017F0002B3FF4DEAE012384F8FC34134A137047
S315020018000023A4F8FA3402F02BFFC4F80005B4F85A
S31502001810F8240F490F48FEF71FFFE5E613AD0DF159
S315020018202C0CBCE80F000FC59CE8070085E80700F2
S3150200183001238DF8683093E74FF4E16206490548C3
S31502001840FEF70AFF0548FFF74FFBAFE71D0A022224
S31502001850F0E80002A0BB04228CE90002B0E9000213
S31502001860B5EEC00AF1EE10FA11D9DFED0D7AB4EE3B
S31502001870E70AF1EE10FA0FDA80EE277ADFED097A3F
S3150200188027EE277ADFED087A77EEC77A01E0DFEDF9
S31502001890067AC0ED047A7047DFED047AF9E700BFF5
S315020018A000008C429A99993E7B14AE3E0AD7233D9C
S315020018B02DE9F0472DED048BB4B00446704971480A
S315020018C0FEF79EFEDFED708A9FED708A9FED709A9D
S315020018D046E0DDED027AB8EEE70A80EE090A204616
S315020018E0FFF7BEFF94ED047AB7EEC77A8DED007B63
S315020018F0684B694A69496348FEF7D4FD8DE0059B4A
S315020019000F93069B1093079B1193089B1293099BB7
S3150200191013930A9B14931595CDF82C90CDF830802D
S315020019200D970E95A06900231A460FA9006802F0CA
S315020019306FF9E06900231A460BA9006802F068F9FC
S3150200194003960495206A00231A4603A9006802F04A
S315020019505FF9606A00231A4603A9006802F058F983
S31502001960636900228DF87C204FF0FF320FA91868B8
S3150200197002F002FA0128F3D148220FA921A80AF09F
S315020019804FFD9DED0F5ADDED105A9DED116ADDED0D
S31502001990126A9DED137ADDED147ADDF85490DDF8C6
S315020019A05880179E189F9DF87CA0209D00200F90BE
S315020019B01090119012901390149015900B900C9019
S315020019C00D900E900390049025EE285A8DED055A3F
S315020019D065EEA85ACDED065A26EE286A8DED076AFF
S315020019E066EE886A76EE856ACDED086A27EE087A93
S315020019F037EE257A8DED097A67EE887A77EE867A62
S31502001A00CDED0A7A0290009002AB4FF0FF3201460A
S31502001A1003F024FA01283FF45CAFBAF1000F3FF459
S31502001A206EAFD4ED045AB7EE006A36EE656A0DF172
S31502001A30AA0205AB08A908460232B2F906C007EEA9
S31502001A4090CAF8EEE77AD3ED006AB2F900C007EE63
S31502001A5010CAB8EEC77A27EE257A66EE266A37EE00
S31502001A60267AA3EC017A91ED007A65EEA77A26EE44
S31502001A70077A77EE877AE1EC017A9842DCD13EE783
S31502001A8018EA0002A0BB04220000AF430000824312
S31502001A900000C84230EA000244EA00024CEA0002B0
S31502001AA030B587B090F868307BB9144600F1500320
S31502001AB04FF0060E4EF001E054F804CB43F804CB87
S31502001AC00FF007C0012380F8683000F15003EC469E
S31502001AD064469FED2F6ADFED2F6A4FF0060E4EF039
S31502001AE001E0F2EC017A93ED007A67EE867A27EE50
S31502001AF0267A77EE877AE3EC017AE4EC017A0FF044
S31502001B0011C0254C3830B1EE006A9FED245ADFED44
S31502001B10245A4FF0000E06230AE0A1F802E082F8EA
S31502001B2004E00C3102340CF1040C0430013B2CD0DD
S31502001B300A468D68002DF2D0DCED007A90ED007A2F
S31502001B4077EEC77AF0EEE77AF4EEC67AF1EE10FA9D
S31502001B50E3D467EE857A258807EE105AB8EE477AFF
S31502001B6067EE256AF4EEE67AF1EE10FA58BFF0EE69
S31502001B70676AF4EEC76AF1EE10FA37FE267ABCEE11
S31502001B80C77A17EE105A4D80C9E707B030BD00BFBD
S31502001B90AE47613E14AE473F24EF0002EC51383E99
S31502001BA0CDCC4C3D70B5B8B004465D495D48FEF7F4
S31502001BB027FD00255C4E21E0E36A2A4625A918681E
S31502001BC002F0DAF801283FD08DF844509DF84430EF
S31502001BD0002B49D00AAA04F1100125A801F0DAFB6C
S31502001BE0109B37930AAA25A92046FFF759FF206BB7
S31502001BF02B462A4625A9006802F00AF8636B2A4694
S31502001C0025A9186802F0B8F80128D5D10DF1680C9B
S31502001C100DF1940EBEE80F00ACE80F00BEE80F000F
S31502001C20ACE80F009EE803008CE803001AAA04F150
S31502001C3038034FF0060E4EF001E052F8041B43F84B
S31502001C40041B0FF007C0B7E70DF1280C0DF1940E37
S31502001C50BEE80F00ACE80F009EE807008CE807001C
S31502001C6001238DF84430B1E7A36A0A2225A9186830
S31502001C7002F082F8012842D08DF864509DF8643053
S31502001C80002BBBD012AA04F1100125A801F082FB99
S31502001C90189B379312AA25A92046FFF701FF9DED4F
S31502001CA0177AB7EEC77A8DED087B9DED167AB7EEF9
S31502001CB0C77A8DED067B9DED157AB7EEC77A8DED67
S31502001CC0047B9DED147AB7EEC77A8DED027B9DED0E
S31502001CD0137AB7EEC77A8DED007BDDED127AB7EE99
S31502001CE0E77A53EC172B31460E48FEF7B5FC206B0C
S31502001CF02B462A4625A9006801F08AFF7EE70DF1E8
S31502001D00480C0DF1940EBEE80F00ACE80F009EE8F9
S31502001D1007008CE8070001238DF86430AEE700BFA8
S31502001D2058EA0002A0BB042278EA000210B52DEDA3
S31502001D30048B82B09FED348A9FED349ADFED348AAC
S31502001D4010240094F0EE481A96234FF4FA6200210A
S31502001D50B3EE041AF0EE490AB0EE680A2D4801F015
S31502001D6047FB0094F0EE481A962340F6B83201215A
S31502001D70B3EE0E1ADFED280A9FED280A284801F075
S31502001D8037FB0094F0EE481A96234FF47A7200213C
S31502001D90B2EE041AF0EE490AB0EE680A214801F0E2
S31502001DA027FB0094F0EE481A96234FF47A7201212B
S31502001DB0B2EE041ADFED1C0A9FED1C0A1C4801F064
S31502001DC017FB0094F0EE481A962364220021B7EE20
S31502001DD0001AF0EE490AB0EE680A164801F008FB4E
S31502001DE00094F0EE481A96234FF47A720121B2EE6D
S31502001DF0041AF0EE490AB0EE680A0F4801F0F8FA42
S31502001E0002B0BDEC048B10BD6666E63F0000B4422C
S31502001E100000B4C2C00A02220000FA420000B4C1A5
S31502001E20A00A0222800A0222000000000000F4C278
S31502001E30600A0222400A0222200A02222DE9F04FFB
S31502001E4083B08B4601921F460D9D0E9E0F9CDDF8B8
S31502001E5040A0DDF84490DDF84880DFEDAD7A70EE03
S31502001E60A70A32EE272A70EEE77A20EE007A67EEAC
S31502001E70A76A37EE267A61EE016A37EE267AF1EE26
S31502001E80C76A9FEDA47AF4EEC76AF1EE10FA40F340
S31502001E9029819FEDA16A86EE267A60EE076A9FED9A
S31502001EA09F6A76EE866A67EE870ADFED995A70EECA
S31502001EB0A50A21EE077A37EE067AC5ED006AC6ED67
S31502001EC0000A84ED007A9FED957A30EE070A31EE2C
S31502001ED0C00ADFED8F6A77EEA67A72EE677A31EE86
S31502001EE0071A32EEC11A20EE007A67EEA76A37EEBB
S31502001EF0267A61EE016A37EE267AF1EEC76A9FED1F
S31502001F00857AF4EEC76AF1EE10FA40F3F0809FED9F
S31502001F10846A86EE267A20EE070AD5ED006A76EE08
S31502001F20806ACAED006A67EE877AD6ED006A76EEB7
S31502001F30A77AC9ED007A21EE071AD4ED002A71EECE
S31502001F40222AC8ED002AD4ED000AF1EE600A95EDC8
S31502001F50000A06F03DFF8BED000AD5ED007AD6EDBC
S31502001F60006A94ED007A67EEA77A66EEA66A77EEC5
S31502001F70A67A27EE077A77EE877AB1EEE77A27EE28
S31502001F80077ADFED687A77EEC77A9FED677A87EE92
S31502001F90870AFFEE007AB4EEE70AF1EE10FA00F1D4
S31502001FA0AB80F7EE007AB4EE670AF1EE10FA37FE6E
S31502001FB0800A06F0E1FEDFED5D7A30EE670A019BEC
S31502001FC083ED000ADAED007A99ED007ADFED506AC8
S31502001FD037EE667AD8ED006A67EEA77A27EE077AB9
S31502001FE077EE877A66EEA66A77EEA67AB1EEE77A9A
S31502001FF027EE077ADFED4E7A77EEC77A9FED4D7AB6
S3150200200087EE870AFFEE007AB4EEE70AF1EE10FADF
S3150200201075D4F7EE007AB4EE670AF1EE10FA37FEDF
S31502002020800A06F0A9FEDFED447A30EE670A0C9BC1
S3150200203083ED000A95ED006ADFED377A86EE277AA0
S31502002040D6ED004A94ED005AC5EE276A66EEA67AE8
S31502002050DFED325A77EEA57A67EE075A77EEA57A62
S31502002060F1EEE75ADFED357AF4EEE75AF1EE10FAC1
S3150200207048DDC6EEA50AB1EE477AC7EE256ADAED65
S31502002080007A77EEC67A9FED267A87EE870AD9ED31
S31502002090007A77EEE47AC7EE875A98ED006A36EE52
S315020020A0456AC6EE077A60EE800A9FED1C7A25EE37
S315020020B0876A70EE860A66EEA76A70EEA60A20EEB8
S315020020C0070A30EE250A67EE877A30EE270AF1EE26
S315020020D0600AB1EE400A06F07BFE87ED000A03B005
S315020020E0BDE8F08FF0EE406AB0EE417AE5E6CAED61
S315020020F0001A89ED002A24E7BFEE000A59E7BFEE6F
S31502002100000A8EE7DFED056AF7EE000AB7E700BFC1
S315020021100000F2420AD7233CAE17844300000000B7
S31502002120DD8439435BE9A447C5BC7947DB0FC93F68
S315020021308189CB475673BF47DB0F49406F12833AFB
S3150200214070B52DED028B9AB004462A492A48FEF74D
S3150200215057FA9FED2A8A2A4D23694FF0FF3213A9B7
S31502002160186801F009FE0128F6D1199E12AB0693F2
S3150200217011AB059310AB04930FAB03930EAB029313
S315020021800DAB01930CAB00930BAB0AAA09A9DDEDCB
S31502002190182A9DED172ADDED161A9DED151ADDEDAD
S315020021A0140A9DED130A2046FFF748FE1996DDED47
S315020021B0097A67EE887ACDED137ADDED0A7A67EE53
S315020021C0887ACDED147ADDED0B7A67EE887ACDED5D
S315020021D0157ADDED0C7A67EE887ACDED167A1795CB
S315020021E01895606900231A4613A9006801F010FDCC
S315020021F0B2E700BFC0EA0002A0BB0422E02E65429D
S315020022000000C07FB5EEC00AF1EE10FA09D4DFED88
S315020022100C7AB4EEE70AF1EE10FA04DD9FED080A35
S3150200222001E09FED080A9FED067AC0EE077A9FED60
S31502002230067A67EE877A9FED050A37EEC00A70477F
S315020022400000C84200000000000034430000B4420F
S3150200225010B400F12003B6EE086AF5EE006A062213
S3150200226004E083ED007A0433013A12D0B1EC017A2C
S3150200227090F83840002CF4D0D3ED007A67EE867AD7
S3150200228027EE267A77EE877AC3ED007A41ED017A58
S31502002290E9E7012380F838305DF8044B7047000007
S315020022A02DE9F04182B01D491D4803F043FD074662
S315020022B018B1384602B0BDE8F0811A4C204603F048
S315020022C0FFFC4FF00041204603F030FD02238DF85B
S315020022D0043005238DF8053030238DF80630462369
S315020022E08DF8073001AE3C460E4D4FF0010816F848
S315020022F0012B2146284603F0EDFC08FA04F1284694
S3150200230003F014FD0134042CF1D1064C204603F0EF
S31502002310FDFC204603F002FDCBE700BF00F40002FD
S315020023205C000022A0C204222DE9F84390F8F47062
S31502002330F7B104468846D0F8F060082E1BDC06EB9F
S31502002340860345460F3304EB830308F1140941461D
S315020023504FF0050E4EF001E051F8042B43F8042B22
S315020023600FF007C0082E0EDC0136C4F8F060002715
S315020023703846BDE8F883A02200F150013C3009F04E
S315020023808FFF2823DDE700F057FFB42204F13C015A
S315020023900AF046F8002000F057FF00F051FFA9EBC3
S315020023A0050EAEF1040E4FEA9E0E0EF1010E4EF030
S315020023B001E0D5ED007AB0EC017A77EE877AE5ECAA
S315020023C0017A0FF00BC002F04BF9D4F80C2102F19E
S315020023D03E0344F823000132104981FB0231D31730
S315020023E0C3EB610303EB8303D31AC4F80C3183B93D
S315020023F0012284F810213E3354F82330C01A0328F0
S31502002400B6D980084FF47A73B3FBF0F0FEF78CFF6F
S31502002410AEE794F81021002AAAD0ECE76766666652
S315020024202DE9F04F2DED088B8BB0044663496448C5
S31502002430FEF7E6F82046FFF733FF00280CBF01231C
S31502002440002384F8F43016D15E495D48FEF7D8F8C9
S315020024500220FEF735FFDFED5C8A4FF0000908EE39
S31502002460109A0025DFED59AA9FED59AADFF870816F
S315020024709FED58BA3AE0584A58495148FEF738F89B
S315020024800020FEF71DFFE6E79DED038ADDF81090BA
S31502002490DDED058A33E0DDF80CB0DDF810A09DED28
S315020024A0059ADDED069A099F33E0D4F820012B4602
S315020024B02A4603A9006801F0ABFB002E6BD1A06986
S315020024C060B1DDED047A67EE8B7A00950323FDEEAB
S315020024D0E77A17EE902A294602F02CFDD4F81C0161
S315020024E002232A4603A9006801F092FBD4F81831A8
S315020024F02A4603A9186801F03FFC0128C4D0D4F883
S3150200250014314FF0FF3203A9186801F035FC012897
S31502002510C1D00997CDF80CB0CDF810A0CDED069A32
S3150200252069EE2A7A28EE0A7A77EE877ACDED057A6F
S31502002530CDF81C90B0EE680A2046FFF763FE8DEDDB
S31502002540080A03A92046FFF7EFFE03A92046FFF774
S315020025507FFE02952369002B2DD0009502AB4FF02A
S31502002560FF322946284602F079FC029B267F012883
S3150200257004D1012B14BF002301232377237F002BD1
S3150200258093D1002E9BD0D4F820012B462A4603A9CC
S31502002590006801F03DFB237F002B90D1606928B1D2
S315020025A0009503230122294602F0C4FC4146044851
S315020025B0FEF752F883E7267FE0E700BFD4EA00027F
S315020025C0A0BB0422ECEA000200004842AE47613E8C
S315020025D014AE473F0000C8424800002208EB000242
S315020025E038EB0002016170474161704781617047B3
S315020025F02DE9F04FADB004467948A063794BE36309
S315020026005822002109F066FE28220021E06B09F01B
S3150200261061FE7549754804F0D3FB75497548FDF7A7
S31502002620EFFF0027DFF8DCB1DFF8DCA17AE04C250A
S315020026302A4605A918A809F0F3FE2A4618A904F1A4
S315020026406C0009F0EDFE012576E005AA03AB93E8DE
S31502002650030082E8030004F1B80383E8030073E091
S3150200266004F14005284605F0FFFB0828FAD04C2263
S3150200267004F16C01A06B09F0D3FEA36BD4F8B82069
S31502002680DA64A36B1E65A36B83F85480A36B83F88D
S315020026905590284605F0F4FBA121544804F0E0FBCE
S315020026A094F82420131D44F823600132524B83FB15
S315020026B002135B1003EB8303D31ADAB284F82420E5
S315020026C0C2B9012284F825204C4A1068002853D04A
S315020026D0043354F82330F61A3A46032E04D9B608C0
S315020026E04FF47A72B2FBF6F200970323012102F04D
S315020026F021FC41E094F82520002A3DD0E4E730464B
S3150200270005F0BEFB04F14405206B3B463A462946DA
S31502002710006801F07DFA606B02233A46294600689A
S3150200272001F076FAA36A212205A9186801F024FBB2
S315020027303D4601283FF47BAFE36A3A4603A918688F
S3150200274001F01AFB012880D001F08AFF064600F04C
S3150200275047FF9BF800809AF800908AF8007000F014
S315020027605DFF002D7FF47CAFB8F1000F7FF478AFE8
S31502002770B9F1000F7FF474AF214B1B78002BD1D037
S315020027801F4B1F7004F14006304605F06DFB08280A
S31502002790FAD0E56B6B6AD4F8C0209342AFD0C4F886
S315020027A0C03004F1440C0FCDACE80F000FCDACE8FD
S315020027B00F0095E803008CE80300D4ED127AF1EEDF
S315020027C0677AC4ED127AD4ED147AF1EE677AC4ED23
S315020027D0147AD4ED167AF1EE677AC4ED167A8EE79C
S315020027E028401C2200401C2214F50002D8C30422F1
S315020027F0BCEB0002A0BB042267666666E00A022200
S31502002800E50A022258000022E40A02228368B3F58E
S31502002810803F00D070474368A22BFBD1014B0122B7
S315020028201A70F7E7E50A022210B50446006801F0BD
S315020028308BFB204610BD10B50446006801F084FBF0
S31502002840204610BD10B50446006801F07DFB204607
S3150200285010BD10B50446006801F076FB204610BD97
S3150200286010B50446006801F06FFB204610BD10B596
S315020028700446006801F068FB204610BD10B5044608
S31502002880006801F061FB204610BD10B504460846FB
S3150200289000222260082101F093F904E0206801F089
S315020028A053FB05F0FDFD2060204610BD10B5044621
S315020028B00846002222601C2101F082F904E0206809
S315020028C001F042FB05F0ECFD2060204610BD10B57C
S315020028D00446084600222260282101F071F904E02C
S315020028E0206801F031FB05F0DBFD2060204610BDBB
S315020028F070B50022534B1A604821042001F060F99A
S31502002900504B1860504A5149184605F04FFD0022B7
S315020029104F4B1A601C21042001F052F94C4B1860EF
S31502002920494C22464B49184605F040FD4A4D0221C4
S315020029302846FFF7AAFF494E22463146284605F0A9
S3150200294035FD474D02212846FFF79FFF22463146B5
S31502002950284605F02BFD0022424B1A601021042066
S3150200296001F02EF905E0374B186801F0EDFA05F093
S3150200297097FD3C4B1860344C22463B49184605F0FD
S3150200298015FD3A4E04213046FFF790FF384D224698
S315020029902946304605F00AFD364E01213046FFF73C
S315020029A085FF22462946304605F000FD324E0821B3
S315020029B03046FFF77BFF22462946304605F0F6FCF5
S315020029C02E4E20213046FFF771FF22462946304619
S315020029D005F0ECFC00222A4B1A604C21042001F07F
S315020029E0EFF805E01A4B186801F0AEFA05F058FD4B
S315020029F0234B1860144C22462249184605F0D6FC91
S31502002A00214D04212846FFF762FF204E2246314619
S31502002A10284605F0CBFC1E4D01212846FFF757FF3D
S31502002A2022463146284605F0C1FC70BD0D4B18689A
S31502002A3001F08AFA05F034FD114B186801F084FAA8
S31502002A4005F02EFD140B02220000002229280002A6
S31502002A50100B0222372800020C0B02224528000224
S31502002A60080B0222040B022253280002000B022248
S31502002A7061280002FC0A0222F80A0222F40A022251
S31502002A80F00A02226F280002EC0A02227D280002C6
S31502002A90E80A022210B50446034B0360406808B1F7
S31502002AA001F0E4FC204610BDCCEF000210B504464E
S31502002AB0034B0360406808B101F0D8FC204610BD04
S31502002AC0CCEF000210B50446034B0360406808B120
S31502002AD001F0CCFC204610BDCCEF000210B5044636
S31502002AE0034B0360406808B101F0C0FC204610BDEC
S31502002AF0CCEF000210B50446034B0360406808B1F0
S31502002B0001F0B4FC204610BDCCEF000210B504461D
S31502002B10034B0360406808B101F0A8FC204610BDD3
S31502002B20CCEF000210B50446034B0360406808B1BF
S31502002B3001F09CFC204610BDCCEF000210B5044605
S31502002B40034B0360406808B101F090FC204610BDBB
S31502002B50CCEF000210B50446034B0360406808B18F
S31502002B6001F084FC204610BDCCEF000270B50D4981
S31502002B700D48FDF745FD0D4D01264FF4857432468D
S31502002B802146284604F0CAF9642001F0EDFE00222F
S31502002B902146284604F0C2F94FF4617001F0E4FEC2
S31502002BA0EDE700BFE8EB0002A0BB042298C20422B4
S31502002BB010B5044601F054FDA06023685B68204608
S31502002BC0984710BD30B583B004460846194600231F
S31502002BD06360A3600D4D25602373231D019300904E
S31502002BE023460B4801F010FC07E00A4B236060689D
S31502002BF008B101F03BFC05F053FC012814BF00208C
S31502002C0001202073204603B030BD00BFDCEF000276
S31502002C10B12B0002CCEF00022DE9F04184B0984BB3
S31502002C2000225A609A60974919601A731A1D019216
S31502002C30032200924FF400729349944801F0E4FB98
S31502002C408F4B012814BF002001201873904A1A6086
S31502002C50904A9149184605F0A9FB904B00225A600A
S31502002C609A60884919601A731A1D0192032200920A
S31502002C704FF480628A49854801F0C6FB874D0128D8
S31502002C8014BF002001202873864B2B60864B2B61D4
S31502002C9000246C61AC61EC612C626C62AC62AC8546
S31502002CA02822214605F1300009F014FB85F8584028
S31502002CB085F85940EC65774A7C49284605F076FB4B
S31502002CC07B4B5C609C606F4A1A601C731A1D0192F2
S31502002CD0032200924FF4C06276496C4801F094FBDD
S31502002CE008E0674B744A1A60586808B101F0BEFBE7
S31502002CF005F0D6FB6E4B012814BF00200120187385
S31502002D006E4A1A6000241C615C619C61DC611C6273
S31502002D105C629C6283F82C4083F82D4083F82E4037
S31502002D201C6383F8344083F83540654A9A63DFF8BA
S31502002D30EC81C3F83C80574E32466249184605F08C
S31502002D4035FB614D614B4FF4006203212846FFF7C4
S31502002D5039FF5F4B2B605F4B2B61534B6B615E4FB1
S31502002D60AF615E4BEB615E4B2B62C5F82480324647
S31502002D705C49284605F01AFB5B4D5C4B4FF400623A
S31502002D8003212846FFF71EFF594B2B602F61594B33
S31502002D906B6132465849284605F008FB574B5C6082
S31502002DA09C60384A1A601C731A1D01920322009213
S31502002DB04FF480625249354801F026FB08E0374B52
S31502002DC03D4A1A60586808B101F050FB05F068FBED
S31502002DD04A4D012814BF002001202873494B2B605D
S31502002DE000242C616C61AC612C772C626C62AC6243
S31502002DF0EC622C636C6385F83840B422214605F1F7
S31502002E003C0009F067FAC5F8F04085F8F440C5F8C9
S31502002E10F840C5F8FC40C5F80041C5F80441C5F8BC
S31502002E200841C5F80C4185F81041324BC5F81431FA
S31502002E302A4BC5F81831344BC5F81C31334BC5F84B
S31502002E402031144A3249284605F0B0FA314B5C600B
S31502002E509C600C4A1A601C731A1D0192022200928F
S31502002E604FF400622C49094801F0CEFA58E0104BA3
S31502002E70114A1A60586808B101F0F8FA05F010FB19
S31502002E8060D30222DCEF0002FCEB0002B12B00024F
S31502002E90ECEF000200000022552B000200D30222B2
S31502002EA004EC00023CEE0002140B02223D2B00024F
S31502002EB0C0D2022298E70002CCEF000260EE0002C6
S31502002EC0EC0A0222252B000298D2022210EC000202
S31502002ED0E8EE00020AD7233D100B0222040B02225F
S31502002EE00C0B02220D2B000280D202221CEC0002E5
S31502002EF04CEF0002000B0222F52A00025CD10222EC
S31502002F0020EC000278EF0002FC0A0222F80A0222F2
S31502002F10DD2A0002480C022228EC0002080B0222DB
S31502002F20704D012814BF00200120287328466E4BDD
S31502002F3040F80D3B4CF2E842002109F0CBF905F5C9
S31502002F4040430024A3F8F644A3F8F844A3F8FA444D
S31502002F5083F8FC4483F8FD44C3F80045C3F80445EE
S31502002F60624AC3F80825624AC3F80C25614AC3F8C7
S31502002F701025614A6149284605F018FA604B5C60E3
S31502002F809C60604A1A601C731A1D01920322009209
S31502002F904FF400625C495D4801F036FA08E05C4B8A
S31502002FA05C4A1A60586808B101F060FA05F078FACE
S31502002FB0534B012814BF0020012018731846564BA4
S31502002FC040F8103B554B0293554B0193554B0093DA
S31502002FD0554B564A564900F0D3F911E0414B4D4A3A
S31502002FE01A60586808B101F041FA05F059FA444BE3
S31502002FF0484A1A60586808B101F038FA05F050FAE2
S315020030003F483C4B83623A4BC3624A4B03634A4B8B
S31502003010436300248463C463046444648464C464B0
S31502003020046544658465C4650466446680F8684040
S31502003030314A424905F0BAF9414B5C609C60314A1B
S315020030401A601C731A1D0192032200924FF4C06289
S315020030503C492E4801F0D8F9394C012814BF00200A
S31502003060012020732346384A43F8102B0025256198
S315020030705D609D60DD601D6184F8245084F82550F2
S315020030802C4BA362314BE362314B23632A4B6363BE
S31502003090A563E56384F840504C22294604F16C008E
S315020030A009F018F9C4F8B850C4F8BC50C4F8C050B6
S315020030B0114A2849204605F079F904B0BDE8F081A5
S315020030C00F4B144A1A60586808B101F0CFF905F09F
S315020030D0E7F91B4B0F4A1A60586808B101F0C6F9A6
S315020030E005F0DEF9480C0222BCEE0002F80A0222C2
S315020030F0F40A0222FC0A022200000022C52A000269
S31502003100DC0B0222DCEF000230EC0002B12B0002E3
S315020031105CD10222CCEF00021CEF0002200A02223E
S31502003120400A0222600A0222800A0222A00A02221F
S31502003130C00A0222F00A0222E80A0222AD2A00028C
S31502003140180B02223CEC0002A4EF00020C0B022236
S31502003150EC0A0222952A000238B5054608461446AC
S315020031609FED100A00232D22294600F029F82B464E
S3150200317022462035D3F800C05C689868D968C2F840
S3150200318000C054609060D16010331032AB42F1D16E
S315020031901C68586899681460506091601B7B1373B1
S315020031A038BD00BFF68FE94008B5084611469FEDC7
S315020031B0030A0023052200F02AF808BD5D22DB3E41
S315020031C022B300B501396FF07F0C4FEA820EAEF1E1
S315020031D0040E4FEA9E0E0EF1010E4EF001E0B0EC27
S315020031E0017AC7EE007AF8FE677AFDEEE77A17EE05
S315020031F0902A1A446245B8BF62467F2AA8BF7F2238
S3150200320001F8012F0FF015C85DF804FB704792B163
S3150200321000B5013842F001E010F9012FD21A07EE8B
S31502003220902AF8EEE77A67EE807AE1EC017A0FF0FF
S315020032300DC85DF804FB704700487047F8D30222B8
S3150200324000487047B4D30222F8B50746194B1E68E8
S31502003250194C2644194D2A4619491A48FFF77CFF8C
S31502003260194B1B68AE4604EB030C203574460FCC93
S31502003270CCF80000CCF80410CCF80820CCF80C30BE
S31502003280A6460CF1100CAC42F0D1234607CBCCF883
S315020032900000CCF80410CCF808201B788CF80C300F
S315020032A0384600F017F8094A31460948FFF77CFF0D
S315020032B0F8BD00BFF4F30002B0D40222C8D3022242
S315020032C0F8D302227CD30222F8F30002B4D30222FC
S315020032D070D3022200B595B00023194A0A920B93C5
S315020032E0184A12680592184A0C920D9360210691AB
S315020032F00E920F930791109211932D230893C8B93A
S315020033000022124B12931392052309930292019300
S3150200331005AB00930AAB0E4A12680E490E4802F03C
S31502003320B9FCB0F1FF3F14BF00200120404215B0A6
S315020033305DF804FB02F1100300221A601A71DFE73E
S3150200334000F20002F0F30002B0D40222C0D402223C
S31502003350F4F1000200F00002A0C2042210B50446F5
S31502003360007800B110BD054B5968186803F03CFCA3
S31502003370B0FA80F040092070F4E700BF24F500029D
S31502003380016042608360009BC360019B0361029BF4
S3150200339043617047F8B52DED028B07460D4616467A
S315020033A04C22002108F096FFDEB100249FED0F8A21
S315020033B003E001340435062C13D0B6EC010AF0EE14
S315020033C0C07AF4EE487AF1EE10FAF2D8286800F0E4
S315020033D03EF804EB4400296807EB800000F053F83E
S315020033E0E7E73846BDEC028BF8BD00BFFFFF7F7FE3
S315020033F000B580ED000AC0ED010A4FF0000EC0F8DC
S3150200340008E0DFF820E0C0F80CE080ED041A017550
S31502003410C2820376BDF804304383C0ED071A5DF815
S3150200342004FB00BF0000C07FF0EE407A90ED000A78
S31502003430B4EEE70AF1EE10FA08DC90ED010AB4EEFA
S31502003440E70AF1EE10FA58BFB0EE670A704710B5F8
S315020034500446FFF7E9FF84ED030A10BD08B5B0EE96
S31502003460C00A90ED077AC0EE077A438B07EE103A50
S31502003470B8EE477A67EE877A90ED040A27EE800A5D
S3150200348005F0B6FC08BD38B52DED028B04460023C7
S3150200349003604360836091ED038AB4EE488AF1EEDD
S315020034A010FA1AD60D460B7DF1EE487A002B48FE2D
S315020034B0277AF5EEC07AF1EE10FAB4BF01230023A3
S315020034C00370CB8A43800B7E0371B0EE480A08462E
S315020034D0FFF7C4FFA06085ED028A2046BDEC028B91
S315020034E038BD00BEFEE700001EF0040F0CBFEFF36E
S315020034F00880EFF309800149084700008D35000274
S315020035000F4B1968EFF309821EF0100F08BF22ED68
S31502003510108A22E9F04FEFF30B8342F8043D0A606A
S315020035204FF0100080F31188BFF34F8FBFF36F8FF8
S3150200353001F084FA4FF0000080F3118800F002B81F
S3150200354070BA0422074801680A6802CA81F30B8826
S31502003550B2E8F04F1EF0100F08BFB2EC108A82F3E9
S315020035600988704770BA042210B5EFF3118410234C
S3150200357083F3118801F07AF818B1034B4FF08052A9
S315020035805A6084F3118810BD00ED00E008B5836926
S3150200359013F8023C022B05D0032B05D9012383F332
S315020035A01088FEE7FFF7CEFF08BD000010B44FF00B
S315020035B0807440F8044C22F0010240F8082C074AB5
S315020035C040F80C2C40F8203C6FF0020340F8243CF3
S315020035D0283140F8481D5DF8044B7047E334000279
S315020035E0EFF31181102383F31188094A136801331B
S315020035F01360012B00D07047064B1960064B5B68BF
S31502003600C3F30803002BF6D0012383F31088FEE7E9
S3150200361014D5022210D5022200ED00E0074B1B68EA
S315020036201BB9012383F31088FEE7013B034A1360AB
S315020036301BB9034B1B6883F31188704714D502220A
S3150200364010D502220A4B1B680A4AA2FB03239B09D6
S31502003650013BB3F1807F0AD24FF0E0225361064B61
S31502003660F02183F823100023936107231361704727
S31502003670F4C40422D34D621000ED00E008B50C4BF1
S31502003680F02283F82220FFF7DDFF0A4A536B43F04C
S315020036904043536362B6BFF36F8FEFF3148C2CF083
S315020036A0040C8CF31488BFF36F8F02DF00BEFDE7B4
S315020036B000ED00E000EF00E070B5431E13F10A0FC3
S315020036C000F2988000F1080410F0070306D0A3F177
S315020036D00902A242C0F08E801030C41A00F0B8FF70
S315020036E04E4B1B68002B00F08C80002C7DDD4C4B72
S315020036F01968A14279D34B4B1B684B4A934202D3BA
S315020037004A4A93421DD9012383F31088FEE74FF4F8
S31502003710F03344480260002141601344083B23F021
S3150200372007033E48036059601960991A5160136095
S315020037303F4B19603A4B1960D7E7012383F3108890
S31502003740FEE7384E3848394D5A68A24208D21A68FE
S3150200375032B18242F1D31E46AA42EED81346F3E7AD
S315020037602E4A12689A4240D0356808352E4A95424A
S3150200377002D32E4A954203D9012383F31088FEE72A
S315020037801A6832605A68A2420AD3121B102A10D94A
S31502003790181910F0070F07D0012383F31088FEE7EC
S315020037A0012383F31088FEE742605C6032681A5197
S315020037B030605A68891A1A4801601D4800688142B9
S315020037C03CBF1B48016042F000425A6000221A6068
S315020037D0184A13680133136001F014F815F0070F45
S315020037E006D0012383F31088FEE701F00BF80025CB
S315020037F0284670BD00F02CFF084B1B68002BF4D145
S315020038000024094A12F0070F81D0D11D21F00701C9
S3150200381002F5F032531A0A467BE700BF28D5022288
S3150200382024D502222CD5022234D5022233B5042213
S3150200383020D502221CD50222002863D038B50546BF
S31502003840A0F10804304B9C420AD3304B9C4207D865
S3150200385050F8043C002B07DB012383F31088FEE7B4
S31502003860012383F31088FEE750F8082C1AB10123CE
S3150200387083F31088FEE723F0004340F8043C00F08F
S31502003880E7FE55F8041C224A13680B441360214BC9
S315020038901A461B689C42FBD81E48824209D01A4827
S315020038A0824202D31948824203D9012383F3108844
S315020038B0FEE7506802EB000C644510D055F8040C84
S315020038C025181946AB4213D02160A24218BF1460D4
S315020038D0114A13680133136000F094FF38BD0144A6
S315020038E05160084611448B4201D01360F0E714463A
S315020038F00A4909688B42E7D05B6803446360136830
S315020039001968E1E7704700BF34D5022233B50422B5
S3150200391024D502222CD5022218D5022228D502222B
S3150200392000F1080343604FF0FF328260C360036117
S3150200393000230360704700230361704743684B60AE
S315020039409A688A605160996008610368013303606E
S31502003950704730B40D68B5F1FF3F11D000F108038E
S315020039601C465B681A68AA42FAD963684B6099607A
S315020039708C606160086103680133036030BC704784
S315020039800469F2E70369416882688A6041685160A6
S315020039905A68824204BF82685A600022026118682D
S315020039A001381860704710B50446FFF719FEA46B7C
S315020039B0FFF734FEB4FA84F0400910BD70B5044630
S315020039C01646856B026C5AB903681BB10020013595
S315020039D0A56370BD806801F0F5F90023A360F6E7E0
S315020039E06EB9406808F01CFD6368226C134463607C
S315020039F0A26830469342EAD323686360E7E7C06869
S31502003A0008F00EFD226C5142E3689B1AE3602268BD
S31502003A10934202D2A3680B44E360022E01D0002037
S31502003A20D5E715B1013D0020D1E70020CFE70346D7
S31502003A30026C6AB110B50846D9681144D9609C680F
S31502003A40A14224BF1968D960D96808F0E9FC10BD03
S31502003A50704770B50546FFF7C3FD95F8454064B259
S31502003A60002C0FDD05F1240602E0013C64B24CB1E4
S31502003A706B6A3BB1304601F0D7F80028F5D001F069
S31502003A808BF9F2E7FF2385F84530FFF7C7FDFFF70D
S31502003A90A7FD95F8444064B2002C0FDD05F110062F
S31502003AA002E0013C64B24CB12B693BB1304601F0F5
S31502003AB0BBF80028F5D001F06FF9F2E7FF2385F88D
S31502003AC04430FFF7ABFD70BD38B558B10D4604461C
S31502003AD0C36B1BB1026CA2FB03233BB1012383F32D
S31502003AE01088FEE7012383F31088FEE7FFF778FDCF
S31502003AF02268216CE36B01FB03F3D018A06000205F
S31502003B00A06362605B1A1A44E260FF2384F84430C1
S31502003B1084F84530A5B923691BB9FFF77FFD01205B
S31502003B2038BD04F1100001F07FF80028F5D0094BEA
S31502003B304FF080525A60BFF34F8FBFF36F8FECE79F
S31502003B4004F11000FFF7ECFE04F12400FFF7E8FE93
S31502003B50E3E700BF00ED00E04BB110B582B01C46B2
S31502003B6008B142B119BB012383F31088FEE7012392
S31502003B7083F31088FEE70029F5D150230193019BB8
S31502003B80502B19D1019B2246012384F8463022602C
S31502003B90E063216419462046FFF796FF9DF8103030
S31502003BA084F84C30204602B010BD019BECE750234E
S31502003BB00193019B502BF8D0012383F31088FEE773
S31502003BC0F8B550B10D4614460646A1FB002323B9AB
S31502003BD001FB00F010F1510F03D9012383F3108882
S31502003BE0FEE75030FFF768FD074678B1002380F8FC
S31502003BF0463000F15003002D08BF03460360C6633A
S31502003C0005640121FFF760FF87F84C403846F8BD8E
S31502003C102DE9F04784B0019260B10E461D46044676
S31502003C2061B1022D11D1E36B012B0ED0012383F377
S31502003C301088FEE7012383F31088FEE7036C002B4E
S31502003C40EFD0012383F31088FEE701F0ABF881463B
S31502003C5028B9019B2BB1012383F31088FEE74FF0AD
S31502003C6000090027DFF80C8133E02A463146204658
S31502003C70FFF7A4FE636A73B938B13E4B4FF0805228
S31502003C805A60BFF34F8FBFF36F8FFFF7C7FC012058
S31502003C9004B0BDE8F08704F1240000F0C5FF002857
S31502003CA0F3D0344B4FF080525A60BFF34F8FBFF3BD
S31502003CB06F8FEAE7FFF7B2FC0020E9E702A801F0FE
S31502003CC025F814E02046FFF7C4FE00F09BFD4FF0F6
S31502003CD00109FFF785FCA26BE36B9A42C5D3022D5D
S31502003CE0C3D0019B002BE5D0B9F1000FE6D0FFF758
S31502003CF095FC00F0ADFCFFF773FC94F8442052B239
S31502003D00B2F1FF3F08BF84F8447094F8452052B2DE
S31502003D10B2F1FF3F08BF84F84570FFF77FFC01A9A7
S31502003D2002A800F0FFFFF0B9FFF75AFCD4F838A05A
S31502003D30D4F83C90FFF772FCCA45C3D1019904F14D
S31502003D40100000F037FF2046FFF783FE00F05AFD11
S31502003D500028BCD14FF08053C8F80430BFF34F8F10
S31502003D60BFF36F8FB3E72046FFF773FE00F04AFDFD
S31502003D7000208DE700ED00E02DE9F04385B00192C9
S31502003D8060B10D46044669B101F00CF8814680B96E
S31502003D90019B83B1012383F31088FEE7012383F39A
S31502003DA01088FEE7036C002BEED0012383F3108804
S31502003DB0FEE74FF000090026DFF8FC8036E02946D0
S31502003DC02046FFF734FE7B1EA36323692BB9FFF758
S31502003DD025FC012005B0BDE8F08304F1100000F0D7
S31502003DE023FF0028F3D0344B4FF080525A60BFF3C2
S31502003DF04F8FBFF36F8FEAE7FFF710FC0020E9E76A
S31502003E0002A800F083FF1CE02046FFF722FE00F026
S31502003E10F9FC09E02046FFF71CFE00F0F3FC204601
S31502003E20FFF7C1FD002844D14FF00109FFF7D8FB87
S31502003E30A76B002FC3D1019B002BDDD0B9F1000F78
S31502003E40DED0FFF7EBFB00F003FCFFF7C9FB94F8AB
S31502003E5044305BB2B3F1FF3F08BF84F8446094F884
S31502003E6045305BB2B3F1FF3F08BF84F84560FFF708
S31502003E70D5FB01A902A800F055FF0028CAD12046A9
S31502003E80FFF791FD0028BFD0019904F1240000F04C
S31502003E9091FE2046FFF7DDFD00F0B4FC0028C3D1F9
S31502003EA04FF08053C8F80430BFF34F8FBFF36F8FC4
S31502003EB0BAE700208EE700BF00ED00E038B130B56A
S31502003EC00446F9B1104B0020844608220CE0012377
S31502003ED083F31088FEE70C4800EBCC0010E00CF1EF
S31502003EE0010C0833013A0AD09E465D68A542F2D01B
S31502003EF00028F4D11D68002D08BF1846EFE708B167
S31502003F000160446030BD00BF34B50422844650B11E
S31502003F1000230B48082250F83310614507D00133BD
S31502003F20013AF8D17047012383F31088FEE7054A68
S31502003F30002142F8331002EBC3025160704700BF02
S31502003F4038B5042234B5042238B110B50446FFF759
S31502003F50DDFF94F8463023B110BD012383F31088A8
S31502003F60FEE72046FFF768FCF6E770B504460D4605
S31502003F701646FFF735FB94F844305BB2B3F1FF3FC8
S31502003F8004BF002384F8443094F845305BB2B3F1A1
S31502003F90FF3F04BF002384F84530FFF73FFBA36BC6
S31502003FA01BB12046FFF755FD70BD3246294604F186
S31502003FB0240000F013FEF4E728B14169134A914246
S31502003FC005D000207047012383F31088FEE7826A3A
S31502003FD00F498A4213D00AB10020704790F8742024
S31502003FE0D2B2012A0DD090F87520D2B2012A0AD097
S31502003FF090F87600C0B2013818BF01207047002041
S315020040007047002070470020704700BFA0B5042209
S31502004010CCB504220368FBB170B50D4600F1080663
S31502004020C468A64205D1002015E0A0B96468A6427C
S3150200403010D0E06800F1330E05F1FF3C20221EF994
S31502004040013F1CF9011F9942F0D1002BEDD0013A34
S31502004050F5D1EBE7002070BD00207047074B1B68C7
S315020040601B6823B9064B4FF0FF321A607047034BA9
S315020040701B68DB681A68024B1A607047E4B50422B3
S315020040807CB504222DE9F843074689469846089EE0
S315020040900A9C95002A46A521206B08F01BF9043DCF
S315020040A0236B2B4423F007056565B9F1000F10D089
S315020040B009F1FF3104F133034FF0200C11F9012FFE
S315020040C003F8012F12B1BCF1010CF7D1002384F8D9
S315020040D05330372E03D9012383F31088FEE7E662B5
S315020040E02666201DFFF727FC04F11800FFF723FCC4
S315020040F02461C6F13806A661646243463A46216BDC
S315020041002846FFF753FA2060099B03B11C60BDE8FD
S31502004110F883000070B50546FFF762FA364A13685F
S3150200412001331360354B1B68002B41D0344B1B689F
S315020041303BB9324B1B68DA6AEB6A9A429CBF2F4B39
S315020041401D60304A136801331360AB65EB6A2E4A71
S315020041501268934284BF2C4A13602C4A03EB8303F2
S3150200416002EB83035B68AB609868E860291D4160D7
S315020041709960EB6A03EB830102EB8100686152F8F6
S315020041802130013342F82130FFF748FA1C4B1B68F5
S315020041906BB11A4B1B68DA6AEB6A9A4207D21C4B5E
S315020041A04FF080525A60BFF34F8FBFF36F8F70BDCF
S315020041B0124B1D601368012BC3D1144C04F58C6697
S315020041C02046FFF7ADFB1434B442F9D1114E304606
S315020041D0FFF7A6FB104C2046FFF7A2FB0F48FFF79E
S315020041E09FFB0F48FFF79CFB0E48FFF799FB0E4B10
S315020041F01E600E4B1C60A4E79CB5042270BA042212
S3150200420090B5042280B5042294B5042210B6042285
S3150200421000ED00E0FCB50422E8B50422CCB5042288
S31502004220B8B50422A0B50422E4B50422E0B50422FE
S3150200423010B5044690F877303BB1012B0CD0022B17
S3150200424009D0012383F31088FEE7006BFFF7F4FA27
S315020042502046FFF7F1FA10BDFFF7EEFAFBE7000082
S31502004260F8B50E4B1B68BBB10D4F0E4E0B4CFFF74C
S31502004270B7F9FB68DD68281DFFF784FB3368013B4D
S3150200428033602368013B2360FFF7C8F92846FFF72E
S31502004290CFFF2368002BEAD1F8BD00BFB4B50422D4
S315020042A0B8B504229CB5042208B5074C074E4FF058
S315020042B08055FFF7D5FF2368012BFAD97560BFF346
S315020042C04F8FBFF36F8FF4E710B6042200ED00E0C4
S315020042D02DE9F04104460E46264B1D68264B1F6803
S315020042E0264BD3F80080264B18680430FFF74AFBAA
S315020042F0B4F1FF3F0DD02C44214B1B685C60A542F4
S315020043001CD91F4B196804314046FFF722FBBDE852
S31502004310F08106B31B4A5168194B18688160186808
S315020043208C68C4601868043060601868043088605D
S315020043301B685A61136801331360E8E7104B19686A
S3150200434004313846FFF705FB0F4B1B68A342DED943
S315020043500D4B1C60DBE76B1E094A126853609D42D7
S31502004360CFD8074B196804313846FFF7F2FA064BE5
S315020043701B68CCE798B50422E4B50422E0B5042212
S3150200438070BA0422A0B504227CB504222DE9F041BC
S3150200439086B00D460D9E002105916EB104469046EB
S315020043A01F460E9B63B178230493049B782B0BD094
S315020043B0012383F31088FEE7012383F31088FEE7C7
S315020043C0012383F31088FEE7049B782200210E98CE
S315020043D007F080FF0E9B1E6302230E9A82F8773047
S315020043E000230393029205AB01930C9B00933B4679
S315020043F0424629462046FFF745FE0E98FFF78AFEFB
S31502004400059806B0BDE8F0812DE9F04385B0054672
S315020044100E46144698469000FFF74EF910B38146B1
S315020044207820FFF749F90746C8B17822002107F03C
S3150200443051FFC7F830900023039302970D9B019317
S315020044400C9B00934346224631462846FFF71AFE46
S315020044503846FFF75FFE012005B0BDE8F083484607
S31502004460FFF7EAF94FF0FF30F6E7000038B50446E9
S31502004470FFF7B6F83CB3251D2846FFF783FAA36A71
S315020044801BB104F11800FFF77DFA1E4A13680133C7
S3150200449013601D4B1A681D4B1B680BB1A24215D047
S315020044A01B4A1368013B1360FFF7D8FDFFF7B6F806
S315020044B02046FFF7BDFE154B1B681BB1124B1B684E
S315020044C0A3420ED038BD104B1C68D4E729461148CA
S315020044D0FFF734FA104A136801331360FFF79EF8A8
S315020044E0E9E70E4B1B681BB1012383F31088FEE735
S315020044F00B4B4FF080525A60BFF34F8FBFF36F8F53
S31502004500E0E700BF80B5042270BA042290B5042207
S315020045109CB50422B8B50422B4B5042274B50422AB
S3150200452000ED00E038B568B10446204B1B688342B3
S3150200453007D0FFF755F82046FFF73EFD30B9FFF7E3
S315020045406DF838BD012383F31088FEE7251D284642
S31502004550FFF718FAE36A164A1268934284BF144AAE
S315020045601360144A03EB830302EB83035B68A360C5
S315020045709968E1604D609D60E36A03EB830102EB9B
S315020045808100606152F82130013342F82130074B35
S315020045901B68DA6AE36A9A42D1D2074B4FF080521D
S315020045A05A60BFF34F8FBFF36F8FC8E770BA04220A
S315020045B094B5042210B6042200ED00E010B590B0C6
S315020045C01C4908AA11F9013B02F8013B002BF9D15B
S315020045D000240594069407AA06A905A800F0F6FE8B
S315020045E0059B0293069B019300942346079A08A90A
S315020045F01148FFF7CBFE114B1860B8B100F0B8FEB8
S31502004600012806D0B0F1FF3F10D1012383F31088B1
S31502004610FEE7012383F31088094A4FF0FF31116048
S31502004620084A1360084B1C60FFF728F8074B1B6803
S3150200463010B010BD44EC0002A942000278B5042273
S315020046407CB5042290B5042298B50422FCF300023C
S31502004650024A136801331360704700BF74B504221F
S31502004660014B1868704700BF98B504225A4B1B6865
S31502004670002B40F0AB802DE9F047584B1C68013403
S315020046801C609CB9564B1B681B681BB1012383F344
S315020046901088FEE7524A1168524B1868106019607A
S315020046A0514A136801331360FFF7D8FC4F4B1B685E
S315020046B0A34278D84A4B1B681B684BB10020DFF82F
S315020046C020C10546DFF838E1494ADFF828A134E07F
S315020046D00020464B4FF0FF321A6065E0434B1960EB
S315020046E062E0D96ADEF80080414588BFCEF8001044
S315020046F001EB810102EB810149689960D1F80880DA
S31502004700C3F80C80C8F804708F60D96A01EB810780
S3150200471002EB8708C3F8148052F82710013142F8D9
S315020047202710DAF80070D96AFB6A994288BF01201D
S31502004730DCF800301B68002BCBD0DCF80030DB68DD
S31502004740DB6859688C42C9D3D3F814809968DF684C
S315020047508F60996879601F1DD8F80410B94204BFAA
S31502004760D968C8F804105D61D8F800100139C8F894
S315020047700010D3F82880B8F1000FB2D0196ADE69AA
S31502004780B160DE694E6003F11809D8F80410494594
S3150200479004BF196AC8F804109D62D8F800100139DE
S315020047A0C8F800109DE70020124B1B68DB6A03EB7A
S315020047B083030F4A52F82330022B28BF01200E4BE7
S315020047C01B68002B18BF0120BDE8F0870B4A13684F
S315020047D0013313600020704774B5042298B5042291
S315020047E0E4B50422E0B5042284B504227CB5042291
S315020047F010B6042270BA042288B504228CB50422AB
S3150200480094B504222DE9F843FEF7EAFE4D4B1B68E8
S315020048101BB9012383F31088FEE74A4B1A68013A53
S315020048201A601B68002B40F08480474B1B68002BE4
S3150200483000F08580454B1B68002B5AD0DFF80CC16F
S315020048400020DFF820E1424A424C434E4FF0010974
S31502004850DCF80C30DB689F6A196ADD69A960DD69DC
S315020048604D6003F118087968414504BF196A7960F9
S3150200487098623968013939605F69D9689D68A960AB
S315020048809D684D6003F104087968414504BFD96803
S3150200489079605861396801393960D96ADEF8007081
S315020048A0B94288BFCEF8001001EB810102EB81010B
S315020048B0496899608F68DF60C7F80480C1F808808C
S315020048C0D96A01EB810702EB8708C3F8148052F814
S315020048D02710013142F827102768D96AFB6A9942E4
S315020048E088BFC6F80090DCF80030002BB0D1FFF785
S315020048F0B5FB1A4B1C686CB1174E012501E0013C51
S3150200490005D0FFF7B3FE0028F9D03560F7E7134B61
S3150200491000221A60104B1C6864B10E4B1B68104BC8
S315020049204FF080525A60BFF34F8FBFF36F8F01244F
S3150200493000E00024FEF772FE2046BDE8F88300245C
S31502004940F8E700BF74B504229CB50422CCB5042254
S3150200495010B6042270BA042288B504228CB5042249
S3150200496000ED00E094B5042210B540B90E4B4FF0AD
S3150200497080525A60BFF34F8FBFF36F8F10BD04464C
S31502004980FFF766FE094B1B68012B03D0012383F355
S315020049901088FEE700212046FFF79AFCFFF732FF58
S315020049A00028EBD1E2E700BF00ED00E074B5042277
S315020049B0F8B5054607F041FD1F2803D9012383F305
S315020049C01088FEE7FFF744FE174CA4F24C4700E0BE
S315020049D01C4629462046FFF71DFB064650B9A4F1A0
S315020049E01403BC42F4D1114B18682946FFF712FB97
S315020049F0064618B1FFF706FF3046F8BD0C4B18689D
S31502004A002946FFF707FB06460028F3D1294609483F
S31502004A10FFF700FB06460028ECD129460648FFF7B9
S31502004A20F9FA0646E6E700BF5CBA0422E4B50422B8
S31502004A30E0B50422A0B50422B8B50422224B1B68B5
S31502004A401BB1224B01221A607047204B00221A60CA
S31502004A501F4B1B6803EB83011E4A52F821208AB9B9
S31502004A6063B103EB83011B4A02EB81021946013B48
S31502004A7052F8140C30B9143A0139F8D1012383F3F0
S31502004A801088FEE7134A03EB830102EB81014868B3
S31502004A904068486003EB830102EB810208329042D0
S31502004AA00CD003EB83010B4A02EB81025268D168F8
S31502004AB0094A116006490B6013687047054A02EB02
S31502004AC08102D1685160ECE774B5042288B50422EC
S31502004AD094B5042210B6042270BA042238B50446EC
S31502004AE0FEF77EFD7CB3251D2846FEF74BFFA36A23
S31502004AF01BB104F11800FEF745FF29462748FEF7C9
S31502004B001DFF94F87430DBB2012B04BF002384F836
S31502004B10743094F87530DBB2012B04BF002384F89D
S31502004B20753094F87630DBB2012B04BF002384F88B
S31502004B307630FEF773FD1A4B1B683BB9194B1B689F
S31502004B40A3420AD038BD174B1C68CCE7FEF748FDD6
S31502004B50FFF784FAFEF762FDF0E7114B1B687BB1A3
S31502004B60114B1B681BB1012383F31088FEE70F4B21
S31502004B704FF080525A60BFF34F8FBFF36F8FE1E75A
S31502004B800B4B1A68054B1B689A4203D1054B002250
S31502004B901A60D7E7FFF752FFD4E700BFA0B5042299
S31502004BA090B5042270BA042274B5042200ED00E026
S31502004BB09CB5042258B110B50C46074A1168183143
S31502004BC0FEF7C7FE01212046FFF782FB10BD012337
S31502004BD083F31088FEE700BF70BA042238B5E0B14D
S31502004BE08C461146054642680E4B1868C261186823
S31502004BF0946804621868183060601868183090600B
S31502004C001B689D622B6801332B6000290CBF60462E
S31502004C104FF0FF30FFF75CFB38BD012383F31088AA
S31502004C20FEE700BF70BA0422C368DB68002B51D0CE
S31502004C3010B49A6AD869196A8160D869486003F122
S31502004C4018005168814204BF196A516000219962B5
S31502004C50116801391160274A1268002A3ED15A6941
S31502004C609868D968816098684860181D51688142C1
S31502004C7004BFD96851600021596111680139116078
S31502004C80DA6A1D4909688A4284BF1B490A601B49C0
S31502004C9002EB820201EB820252689A609468DC603F
S31502004CA060609060DA6A02EB820001EB80045C616C
S31502004CB051F82020013241F82020114A1168DA6A9F
S31502004CC0CB6A9A4283BF01200E4B186000205DF822
S31502004CD0044B7047012383F31088FEE70A4A5168A2
S31502004CE0D9618C681C62606088609A6211680131C1
S31502004CF01160E2E774B5042294B5042210B60422C8
S31502004D0070BA042288B50422CCB50422034B1B6870
S31502004D100360034B1B684360704700BF84B50422DF
S31502004D2098B50422B8B170B50C460546B9B1FEF77E
S31502004D3057FC174B1A682368B3F1FF3F22D0696804
S31502004D40144800682E6886420DD091420BD8002383
S31502004D502360012417E0012383F31088FEE7012371
S31502004D6083F31088FEE7501A834203D80023236098
S31502004D70012408E09B1A0B4423602846FFF7C6FF6E
S31502004D80002400E00024FEF749FC204670BD00BF67
S31502004D9098B5042284B50422014B01221A60704799
S31502004DA088B50422054B1B6833B1054B1868B0FA67
S31502004DB080F04009400070470120704790B50422F8
S31502004DC074B5042200283FD038B50446204B1B6830
S31502004DD0834203D0012383F31088FEE7436E1BB997
S31502004DE0012383F31088FEE7013B4366C16A026E24
S31502004DF091422BD00BB1002038BD051D2846FEF787
S31502004E00C1FD236EE362C3F13802A261114A126840
S31502004E10934284BF0F4A13600F4A03EB830302EBEC
S31502004E2083035B68A3609968E1604D609D60E36AF5
S31502004E3003EB830102EB8100606152F821300133FA
S31502004E4042F821300120D7E7002070470020D3E73F
S31502004E5070BA042294B5042210B60422F8B50228C8
S31502004E6003D9012383F31088FEE704460E4617464C
S31502004E701D46FFF7EDFBFEF7B3FB2C4B1B682344E5
S31502004E8093F87430DBB2022B2FD028490B6803EB60
S31502004E9084039A6E22EA06029A660B68234401226A
S31502004EA083F87420069B1BBBFEF7B8FBFFF7AAFC30
S31502004EB0FEF796FB35B11D4B1B6804F11A0253F837
S31502004EC022302B60194B1B68234493F87430DBB2F3
S31502004ED0022B20D00025154B1B682344002283F8A1
S31502004EE07420FEF79BFB2846F8BDFEF797FBDDE72D
S31502004EF0FEF794FB01210698FFF7EAF9FFF782FC19
S31502004F000028D5D10A4B4FF080525A60BFF34F8F1B
S31502004F10BFF36F8FCCE7054B1B6803EB84039A6ED6
S31502004F2022EA07029A660125D5E700BF70BA042273
S31502004F3000ED00E0F8B5022903D9012383F31088B6
S31502004F40FEE707460C4616461D46B8B1FEF748FB75
S31502004F50069B2BB104F11A0357F82330069A136005
S31502004F603A1992F87430DBB2022182F87410042DD9
S31502004F7024D8DFE805F00C0713191D00012383F37B
S31502004F801088FEE707EB8404A26E3243A266012B69
S31502004F901CD00124FEF742FB2046F8BD07EB840431
S31502004FA0A26E0132A266F2E71A3447F82460EEE7EF
S31502004FB0022B4FD01A3447F82460E8E7274A1268D2
S31502004FC0002AE4D0012383F31088FEE77B69B968DF
S31502004FD0FA688A60B9685160391D5A688A4204BF04
S31502004FE0FA685A6000227A611A68013A1A60FB6A04
S31502004FF01B4A1268934284BF194A1360194A03EB8B
S31502005000830302EB83035B68BB609868F8604160C8
S315020050109960FB6A03EB830102EB8100786152F827
S315020050202130013342F82130BB6A1BB1012383F3DD
S315020050301088FEE70C4B1B68DA6AFB6A9A420BD2AF
S315020050400A4B4FF080525A60BFF34F8FBFF36F8FF8
S3150200505001249FE700249DE701249BE798B50422DB
S3150200506094B5042210B6042270BA042200ED00E0C0
S3150200507008B54160006191420CD8D21A83699A42FE
S3150200508001D3012008BD011D094B1868FEF761FC1A
S315020050900020F7E79A4201D2994206D2011D054B3A
S315020050A01868FEF756FC0020ECE70120EAE700BF8D
S315020050B070BB042274BB042270B504460D46164624
S315020050C004E0A3691D44236A20469847A1692B463A
S315020050D0324629442046FFF7CBFF0028F1D170BDA6
S315020050E070B505460E460D4B1B68DB68DC68201D55
S315020050F0FEF748FC94F8283013F0040F07D123F08A
S31502005100010384F82830236A2046984770BD324648
S3150200511029462046FFF7D0FFF5E700BF74BB0422FD
S31502005120F8B50546FFF79CFA0446104B1B68834206
S3150200513005D800232B600D4B1C602046F8BD0C4B96
S315020051401B681A685AB14FF0FF37094EDB683946B9
S315020051501868FFF7C5FF33681A68002AF6D1054AB0
S3150200516010680349086013600123E3E764BB042265
S3150200517074BB042270BB04222DE9F04186B05C4E5A
S315020051805C4D33681F68002F00F09080DB681F6853
S31502005190FFF75EFA02A8FFF7C3FF0446029A4AB96E
S315020051A0874200F29380FFF72DFB21463846FFF730
S315020051B097FF01E0FFF726FB002302930393049374
S315020051C005931C4606E005990498039B9847029BA3
S315020051D0002B09DA224602A92868FEF7CDFD00282F
S315020051E0CFD0029B002BEEDB049F7B6913B1381DE7
S315020051F0FEF7C8FB01A8FFF793FF8046029B013B1F
S31502005200082BE7D8DFE803F0050529304405052910
S31502005210300097F8283043F0010387F82830039BC3
S31502005220B969024619443846FFF722FF0028D1D051
S3150200523097F8283013F0040F07D123F0010387F8FB
S3150200524028303B6A38469847C4E7BB694246039909
S3150200525019443846FFF730FFF3E797F8283023F072
S31502005260010387F82830B5E797F8283043F00103A1
S3150200527087F828300399B96131B1034602460144E1
S315020052803846FFF7F5FEA5E7012383F31088FEE70C
S3150200529097F8283013F0020F04D023F0010387F8A1
S315020052A0283097E73846FEF7C7FA93E7FFF7D0F9B3
S315020052B002A8FFF735FF0446029B002B7FF47AAF64
S315020052C00D4B1B681A68B2FA82F25209391B28681A
S315020052D0FEF74BFEFFF796FA00287FF46DAF074BF9
S315020052E04FF080525A60BFF34F8FBFF36F8F63E761
S315020052F074BB04226CBB042270BB042200ED00E0E6
S3150200530030B583B0FEF76CF9114B1B681BB1FEF783
S3150200531085F903B030BD0F4D2846FEF701FB0E4C52
S315020053202046FEF7FDFA0D4B1D600D4B1C60002357
S3150200533000930C4B0C4A10210A20FEF70DFC044B7D
S3150200534018600028E3D00949FEF7B8FDDFE700BF81
S315020053506CBB04228CBB042278BB042274BB0422DD
S3150200536070BB042274BA0422C4BA04224CEC0002B2
S3150200537010B588B0FFF7C4FF104B1B68CBB10024F1
S315020053800594069407AA06A905A800F02BF8059B22
S315020053900293069B0193022300932346079A084928
S315020053A00848FEF7F3FF084B186010B1012008B059
S315020053B010BD012383F31088FEE700BF6CBB0422F5
S315020053C054EC00027951000268BB0422034B0360CD
S315020053D0034B0B6080231360704700BF20C2042278
S315020053E020C00422034B0360034B0B604FF480730F
S315020053F013607047A8BF0422A8BB0422024A13689E
S3150200540001331360704700BFCC02022208B5FBF7D6
S31502005410B5F908BD08B5FBF73FFB08BD08B5FBF7B4
S31502005420B9F908BD0379022B00D07047014B01225E
S315020054301A70FAE704000022704700002DE9F04FC7
S3150200544085B05249524800F03DFF524C0C2120468D
S31502005450FBF780FF504D5149284602F0B9F828461D
S3150200546002F09CF8284602F065F84D494D4800F0D6
S3150200547029FF4D494D4800F025FF4D494D4800F0A2
S3150200548021FF4D4D01224FF48571284601F046FD5C
S315020054904FF47A714FF4FA7002F058FC00224FF47E
S315020054A08571284601F03AFD44494548FAF7E4FF7A
S315020054B01C212046FBF74EFF4FF47A714FF4C87059
S315020054C002F044FC2D212046FBF744FF4FF47A718B
S315020054D04FF4FA7002F03AFC44212046FBF73AFFF9
S315020054E04FF47A714FF4167002F030FC64212046B4
S315020054F0FBF730FF3348FFF75BFA0546DFF8E4B007
