S01D000041726D53796E635F536F6C7574696F6E5F435055302E7372656317
S31502000000E0010222E14A000245490002DD4A0002FD
S31502000010DD4A0002DD4A0002DD4A0002DD4A000234
S31502000020000000000000000000000000F11A0002BB
S31502000030DD4A000200000000091B0002711B0002DB
S31502000040B54300022D3D0002893C0002C13D00027B
S315020000500D3E00022D3D0002893C0002C13D000218
S315020000600D3E00022D3D0002893C0002C13D000208
S315020000700D3E00022D3D0002893C0002C13D0002F8
S30D020000800D3E0002913F000251
S3150200008800000000010100001040000010400000BE
S3150200009810400000104000001D5500027D74000249
S315020000A843000000000000000000000000000000FD
S315020000B80000000000000000000000000000000030
S315020000C843000000000000000000000000000000DD
S315020000D80000000000000000000000000000000010
S315020000E843000000000000000000000000000000BD
S315020000F800000000000000000000000000000000F0
S31502000108430000000000000000000000000000009C
S3150200011800000000000000000000000000000000CF
S31502000128430000000000000000000000000000007C
S3150200013800000000000000000000000000000000AF
S31502000148430000000000000000000000000000005C
S31502000158000000000000000000000000000000008F
S31502000168430000000000000000000000000000003C
S31502000178000000000000000000000000000000006F
S31502000188F1AE00026BA4000200000000B8C1000232
S31502000198C8BE000259C0000259C0000259C0000276
S315020001A859C0000259C0000259C0000259C00002D3
S315020001B859C0000259C00002FFFFFFFFFFFFFFFF01
S315020001C8FFFFFFFFFFFF00000100415343494900BB
S315020001D8000000000000000000000000000000000F
S315020001E80000000000000000000041534349490096
S315020001F800000000000000000000000000000000EF
S31502000208000000000000000000000000900100222B
S3150200021800000000CC090322340A03229C0A0322A6
S3150200022800000000000000000000000000000000BE
S3150200023800000000000000000000000000000000AE
S31502000248000000000000000000000000000000009E
S3110200025800000000000000000000000092
S315020002680348044B834202D0034B03B11847704735
S31502000278DC010022DC01002200000000064B0749CF
S31502000288C91A891048BF0131491003D0044B0BB172
S3150200029801481847704700BFDC010022DC01002232
S315020002A80000000010B5064C237843B9FFF7D8FFC3
S315020002B8044B13B10448AFF300800123237010BD29
S315020002C80C0202220000000028F1C90208B5054BFB
S315020002D81BB105490548AFF30080BDE80840FFF7A2
S315020002E8CDBF00BF000000001002022228F1C90299
S315020002F80160027143719DF800308371704710B531
S315020003080446006808B103F0A5FA204610BD0000AD
S31502000318F0B5ADF5057D07460C46037943BB0020CB
S31502000328C0F5FF720132214604AB184408F09CFE60
S3150200033800238DF80F32224B1B7853B94FF47A7685
S3150200034801251F4C3146284604F090FA2378002BE3
S31502000358F8D01B4B00221A7004A808F01EFF0246AA
S315020003683B6804A9186803F0C2F90DF5057DF0BDCE
S31502000378144B1968144AA2FB01329209134BA3FBC8
S315020003880203DB0A4FF47A7000FB1211029110483D
S31502000398A0FB02514909C1EB0111A2EB81010191AE
S315020003A84FF4616101FB1322A0FB0202520900927B
S315020003B8084A4FF4007104A808F084FDB0E700BFAC
S315020003C80400002228020222D34D6210C5B3A2916C
S315020003D889888888E4B2000208B4F0B5ADF50C7DC8
S315020003E804460E46154691AB53F8042B4B934CAF75
S315020003F84FF48071384608F0E5FD019700962B46C2
S31502000408074A4FF4907103A808F05CFD03A9204639
S31502000418FFF77EFF0DF50C7DBDE8F04001B0704791
S3150200042800B300020EB410B5ADF50D7D04468FABD0
S3150200043853F8042B4B934FF480714CA808F0C2FD75
S315020004486379002B4CAB0093094A0A4B08BF134643
S31502000458094A4FF4907103A808F034FD03A920460F
S31502000468FFF756FF0DF50D7DBDE8104003B0704746
S3150200047864B3000250B3000248B300020EB410B5CA
S31502000488ADF50D7D04468FAB53F8042B4B934FF411
S3150200049880714CA808F096FD6379002B4CAB00934B
S315020004A8094A0A4B08BF1346094A4FF4907103A832
S315020004B808F008FD03A92046FFF72AFF0DF50D7D72
S315020004C8BDE8104003B0704784B300026CB3000263
S315020004D848B300020160426000228260C260026183
S315020004E802757047026943689A420DD202688368A8
S315020004F8D154836801334268B3FBF2FC02FB1C3316
S3150200050883600369013303610A2904BF0123037562
S31502000518704702699AB110B4C3680168C95C0133AD
S315020005284468B3FBF4FC04FB1C33C360013A026162
S315020005380AB90023037508465DF8044B70474FF065
S31502000548FF30704700697047007D70472DE9F0411A
S31502000558037DCBB1064688464D1E571E00243046FB
S31502000568FFF7D7FF002808DBBC4205D0013405F89F
S31502000578010F0A28F3D100E03C46002308F80430AC
S3150200058833752046BDE8F0810024FAE784460369FC
S315020005989A4228BF1A461046DCF80C3092B130B59A
S315020005A84C1E42F001E0DCF80010C95C04F8011F99
S315020005B80133DCF80410B3FBF1F501FB15330FF038
S315020005C80FC030BD704710B5044602F0ABFAA06002
S315020005D823685B682046984710BD000008B5037972
S315020005E8042B00D008BD017A0148FFF77BFFF9E723
S315020005F86004022208B50379042B00D008BD017AEB
S315020006080148FFF76FFFF9E7480202222DE9F04792
S31502000618B8B080463148FFF797FF10B938B0BDE841
S31502000628F087802218A92D48FFF790FF0028F5D0F9
S3150200063820220021684608F0FDFC6F4618A800260D
S31502000648B1464FF02C0A0BE087ED000A0136E4B2F8
S315020006580D2C20D9284600F801AB0437082E1CD0E9
S3150200066890F9004005464CB12C2C07D00A2C05D02F
S315020006780D2C03D015F9014F002CF5D185F8009001
S31502000688494607F07DFD052EDEDC87ED000A0136B8
S31502000698E4B20D2C1DD8052EC0DD08AC6D460FCD73
S315020006A80FC495E80F0084E80F0010AC0C4D0FCD6F
S315020006B80FC495E8070003C4227002F033FA1790B4
S315020006C8D8F8100000231A4608A9006801F0A0FD10
S315020006D8A4E7284600F801AB0437C1E76004022202
S315020006E82C0202222DE9F043ABB08046564D4FF05C
S315020006F8AA090DF149062846FFF724FF192840F2F0
S31502000708A0802846FFF705FFAA28F4D18DF8309075
S315020007180CAF3C462846FFF7FCFE04F8010FB4422C
S31502000728F8D19DF849300D2BE5D113AB4FF0040EE5
S315020007384EF001E0B9787A7842EA01221A803979CC
S31502000748FA7842EA01225A80B9797A7942EA01228A
S315020007589A80063706330FF013C801238DF86430E2
S315020007683A4C27460DF14C0CBCE80F000FC79CE823
S31502000778070003C73A70BDF94C3007EE903AF8EE17
S31502000788E77ABDF94E2007EE102AF8EEC76ABDF9D8
S31502000798501007EE101AB8EEC77A67EEA77A66EE19
S315020007A8A66A77EEA67A27EE077A77EE877AB1EE09
S315020007B8E76ABDF9520007EE900AF8EEE77ABDF944
S315020007C8547007EE107AF8EEC76ABDF956C007EEFE
S315020007D810CAB8EEC77A67EEA77A66EEA66A77EE09
S315020007E8A67A27EE077A77EE877AB1EEE77AB7EE38
S315020007F8C77A8DED0A7BCDF820C007970690B7EE2B
S31502000808C66A8DED046B029101920093104B114A50
S3150200081811491248FFF7E0FD202200211AA808F024
S3150200082809FC22AF0FCC0FC794E8070003C73A703A
S31502000838D8F8100000231A461AA9006801F0E8FC45
S3150200084859E72BB0BDE8F083480202222C020222A5
S315020008588CB30002C4B30002CCB300020001032227
S3150200086838B5044607490848FFF708FE0225204618
S31502000878FFF738FF2046FFF7C9FE284602F0D6FAE8
S31502000888F5E700BFD4B300020001032208B54FF40E
S31502000898806205490548FFF71DFE4FF400720449B8
S315020008A80448FFF717FE08BD7804022260040222F4
S315020008B8600202224802022210B504460379042B7A
S315020008C803D02379022B05D010BD017A0348FFF71E
S315020008D809FEF6E7024B01221A70F5E7F80802222A
S315020008E8050000220EB4F0B582B007AB53F8042B0C
S315020008F801937D21134808F065FB00281CDB114B88
S31502000908FF221A5403445A709A70C71C0E4B1B785E
S3150200091853B94FF47A7601250B4C3146284603F033
S31502000928A5FF2378002BF8D0074B00221A703A4607
S315020009380449064802F0DBFE02B0BDE8F04003B007
S31502000948704700BF7808022205000022AC0803227D
S315020009582DE9F04F89B0204C204E04F1100ADFF839
S3150200096890804FF0000910E05846FFF7D2FD013794
S31502000978BD42F9D1039B0093194B1A4A1A491B48DF
S31502000988FFF72AFD0436544522D04046FFF7DAFD22
S3150200099854F8045B8542F5D8CDF81090CDF814903A
S315020009A8CDF81890CDF81C902A4604A94046FFF7C0
S315020009B8EDFD336803932A46194604A808F010FB8E
S315020009C80028DFD1002DD5D00027DFF824B0CBE7E9
S315020009D809B0BDE8F08F00BF28B7000238B7000299
S315020009E8ECB30002F0B30002F8B3000200010322DE
S315020009F8F808022208B5DFED067A20EE270AFDEE90
S31502000A08C07A17EE903A4A1C0249FFF76BFF08BDF7
S31502000A180000C84200B4000270B5054616464C1CD2
S31502000A2822460849FFF75EFF002E4EF2492243F698
S31502000A38B16308BF1346224603492846FFF752FF09
S31502000A4870BD00BF10B4000224B4000238B50446D3
S31502000A580D46FDEEC07A17EE902A0949FFF742FFC6
S31502000A6808492046FFF73EFF002D43F6B1624EF2D3
S31502000A78492318BF1A4604492046FFF733FF38BDF3
S31502000A8838B400024CB4000264B400022DE9F04303
S31502000A9893B0044623492448FFF7F0FC00274FF099
S31502000AA832082BE009AD0DF1040CBCE80F000FC5A6
S31502000AB89CE80F0085E80F009DF81C9009AE0025FA
S31502000AC8B6EC010A29462046FFF794FF0135062DA2
S31502000AD8F6D1002589F001094A4629462046FFF73C
S31502000AE89BFF0135062DF7D113E039469DED010A24
S31502000AF82046FFF7ABFF404602F098F92046FFF77B
S31502000B0827FF23693A4601A9186801F035FC01282E
S31502000B18C8D063693A4601A9186801F02DFC012874
S31502000B28E9D1E2E778B400020001032238B50546A6
S31502000B380C460A460549FFF7D5FE642C00D038BD97
S31502000B4803492846FFF7CEFEF9E700BF8CB4000238
S31502000B58A0B4000208B5802202490348FFF7BAFC8E
S31502000B6808BD00BF10090222F808022210B50024A7
S31502000B7802F10C0E04E00C300C310334092C1CD0A3
S31502000B8813468446B3EC017AD1ED017AD3ED026AB3
S31502000B9867EEA67AD1ED006A27EE267A77EE877A8D
S31502000BA891ED027AD3ED056A27EE267A77EE877AF1
S31502000BB8ECEC017A7345E5D1DDE710BD0B4624312D
S31502000BC8D3ED007A92ED007A67EE877A93ED017A91
S31502000BD8D2ED016A27EE267A77EE877A93ED027AC4
S31502000BE8D2ED026A27EE267A77EE877AE0EC017A68
S31502000BF80C338B42E4D17047F0B52DED068BC9B0A4
S31502000C0815461E4691ED00AADFED6F7A2AEE27AA4F
S31502000C18D1ED019A69EEA79AD1ED02AA6AEEA7AAC0
S31502000C28D1ED038A68EEA78A91ED048A28EE278A0F
S31502000C3891ED059A29EE279AB0EE6A0A04F0DCFECF
S31502000C4810EE107AB0EE6A0A04F0E2FD3F9700242D
S31502000C5840948DED410A4294F7EE00AACDED43AADF
S31502000C684494F1EE407ACDED457A46944797B0EE34
S31502000C784A0A04F0C1FE10EE107AB0EE4A0A04F0EF
S31502000C88C7FDCDED36AA3794389439943A97F1EEE2
S31502000C98407ACDED3B7A3C948DED3D0A3E97B0EE17
S31502000CA8690A04F0A9FE10EE107AB0EE690A04F099
S31502000CB8AFFD2D97F1EE407ACDED2E7A2F948DED7C
S31502000CC8300A3197329433943494CDED35AA36AA44
S31502000CD83FA924A8FFF74AFF2DAA24A91BA8FFF7B4
S31502000CE845FF18941994394B1A9318AA1BA9284632
S31502000CF8FFF764FFB0EE490A04F07EFE10EE107AA2
S31502000D08B0EE490A04F084FD3F978DED410AF1EEF3
S31502000D18407ACDED457A4797B0EE680A04F06CFE44
S31502000D2810EE107AB0EE680A04F072FD3A97F1EE08
S31502000D38407ACDED3B7A8DED3D0A3E97B0EE480AF4
S31502000D4804F05AFE10EE107AB0EE480A04F060FD7E
S31502000D582D97F1EE407ACDED2E7A8DED300A319748
S31502000D6836AA3FA924A8FFF701FF2DAA24A90FA88E
S31502000D78FFF7FCFE0FAA1BA906A8FFF7F7FE0394C6
S31502000D880494134B059303AA06A96846FFF716FFB0
S31502000D98D5ED007A9DED007A77EE877AC6ED007A70
S31502000DA8D5ED017A9DED017A77EE877AC6ED017A5D
S31502000DB8D5ED027A9DED027A77EE877AC6ED027A4A
S31502000DC849B0BDEC068BF0BD35FA8E3C3333B3BE63
S31502000DD8B81E85BE70B52DED048BAAB005465649D8
S31502000DE85648FFF74BFB00249FED558A9FED559A0F
S31502000DF8DFED558ADFED559A04E08DF8A4409DF89B
S31502000E08A43013BB2B698DF85C404FF0FF3209A959
S31502000E18186801F0B1FA0128EFD10DF1640C0DF151
S31502000E28240EBEE80F00ACE80F00BEE80F00ACE8DF
S31502000E380F00BEE80F00ACE80F009EE80F008CE832
S31502000E480F0001238DF8A430D9E70F94009401947A
S31502000E58029406AB03AA19A92846FFF7CDFEDDEDD3
S31502000E68037A67EE887ACDED097ADDED047A67EEC4
S31502000E78887ACDED0A7ADDED057A67EE887ACDEDC8
S31502000E880B7ADDED067A67EE887ACDED0C7ADDED22
S31502000E98077A67EE887ACDED0D7ADDED087A67EE88
S31502000EA8887ACDED0E7A9DF89C300BBB289E0F965C
S31502000EB868692346224609A9006801F0A9F99DED49
S31502000EC81F7AC7EE097A67EEA87ACDED007A9DED0C
S31502000ED8207AC7EE097A67EEA87ACDED017A0296EC
S31502000EE8A869234622466946006801F091F989E70E
S31502000EF80DF1820209AB0CA90232B2F9060007EE1D
S31502000F08100AB8EEC77AD3ED006AB2F9000007EE06
S31502000F18900AF8EEE77A66EEA96A77EEA67AE3EC25
S31502000F28017AD3ED027A67EEA97A77EE877AC3ED6C
S31502000F38027A8B42E0D1B9E7ECB40002000103223F
S31502000F4800007A44333353400000C84200000000D0
S31502000F582DE9F04F83B08B4601921F460D9D0E9EDA
S31502000F680F9CDDF840A0DDF84490DDF84880DFEDFF
S31502000F78AD7A70EEA70A32EE272A70EEE77A20EEED
S31502000F88007A67EEA76A37EE267A61EE016A37EECD
S31502000F98267AF1EEC76A9FEDA47AF4EEC76AF1EEF5
S31502000FA810FA40F329819FEDA16A86EE267A60EE51
S31502000FB8076A9FED9F6A76EE866A67EE870ADFED15
S31502000FC8995A70EEA50A21EE077A37EE067AC5ED2A
S31502000FD8006AC6ED000A84ED007A9FED957A30EE36
S31502000FE8070A31EEC00ADFED8F6A77EEA67A72EE4D
S31502000FF8677A31EE071A32EEC11A20EE007A67EEE8
S31502001008A76A37EE267A61EE016A37EE267AF1EE9C
S31502001018C76A9FED857AF4EEC76AF1EE10FA40F3D5
S31502001028F0809FED846A86EE267A20EE070AD5EDD1
S31502001038006A76EE806ACAED006A67EE877AD6EDAE
S31502001048006A76EEA77AC9ED007A21EE071AD4ED80
S31502001058002A71EE222AC8ED002AD4ED000AF1EE22
S31502001068600A95ED000A04F0B9FB8BED000AD5ED8E
S31502001078007AD6ED006A94ED007A67EEA77A66EEF4
S31502001088A66A77EEA67A27EE077A77EE877AB1EE20
S31502001098E77A27EE077ADFED687A77EEC77A9FED69
S315020010A8677A87EE870AFFEE007AB4EEE70AF1EE70
S315020010B810FA00F1AB80F7EE007AB4EE670AF1EEA9
S315020010C810FA37FE800A04F05DFBDFED5D7A30EE3A
S315020010D8670A019B83ED000ADAED007A99ED007A38
S315020010E8DFED506A37EE667AD8ED006A67EEA77AC0
S315020010F827EE077A77EE877A66EEA66A77EEA67AFB
S31502001108B1EEE77A27EE077ADFED4E7A77EEC77AFF
S315020011189FED4D7A87EE870AFFEE007AB4EEE70A6C
S31502001128F1EE10FA75D4F7EE007AB4EE670AF1EE2C
S3150200113810FA37FE800A04F025FBDFED447A30EE1A
S31502001148670A0C9B83ED000A95ED006ADFED377A94
S3150200115886EE277AD6ED004A94ED005AC5EE276A3E
S3150200116866EEA67ADFED325A77EEA57A67EE075A69
S3150200117877EEA57AF1EEE75ADFED357AF4EEE75A1D
S31502001188F1EE10FA48DDC6EEA50AB1EE477AC7EEC9
S31502001198256ADAED007A77EEC67A9FED267A87EE29
S315020011A8870AD9ED007A77EEE47AC7EE875A98ED80
S315020011B8006A36EE456AC6EE077A60EE800A9FED49
S315020011C81C7A25EE876A70EE860A66EEA76A70EEC4
S315020011D8A60A20EE070A30EE250A67EE877A30EE6F
S315020011E8270AF1EE600AB1EE400A04F0F7FA87ED33
S315020011F8000A03B0BDE8F08FF0EE406AB0EE417A1D
S31502001208E5E6CAED001A89ED002A24E7BFEE000AD0
S3150200121859E7BFEE000A8EE7DFED056AF7EE000A28
S31502001228B7E700BF0000F2420AD7233CAE17844351
S3150200123800000000DD8439435BE9A447C5BC794751
S31502001248DB0FC93F8189CB475673BF47DB0F49403E
S315020012586F12833A000000002DE9F0472DED108B3E
S31502001268C2B081468C498D48FFF708F99FED8CBAC2
S31502001278DFED8CBA82A7D7E900679FED83EB9FED76
S3150200128884FB00240025D9F810304FF0FF323AA922
S31502001298186801F071F80128F5D19DED3A8ADDED5D
S315020012A83B8A9DED3C9ADDED3D9A9DED3EAADDED2C
S315020012B83FAADDF800A139AB069338AB059337ABE5
S315020012C8049336AB039335AB029334AB019333AB3A
S315020012D8009332AB31AA30A9F0EE6A2AB0EE4A2A56
S315020012E8F0EE691AB0EE491AF0EE680AB0EE480A4C
S315020012F84846FFF72DFE4FF00008CDF8F880CDF8E6
S31502001308FC80CDF80481CDF800A101238DF80431C3
S31502001318DDED307A67EE8B7ACDED3A7A9DED317A4C
S3150200132827EE0B7A8DED3B7ADDED326A66EE8B6A35
S31502001338CDED3C6A9DED336A26EE0B6A8DED3D6A6C
S315020013489DED345A9DED354A9DED363A65EE055AC0
S3150200135864EE044A75EEA45A63EE034A75EEA45A7D
S31502001368B1EEE50A9DED372ADDED385A75EEEB3A10
S315020013789DED391A62EE024A63EEA33A74EEA34A67
S3150200138861EE013A74EEA34AB1EEE4CA72EE454A38
S3150200139875EEC42A71EE433A64EEA44A62EEA22AB4
S315020013A874EEA24A63EEA33A74EEA34AB1EEE4DA05
S315020013B8CDE92E67B7EECDDA8DED2CDB8DED2AEB76
S315020013C8B7EECCCA8DED28CB8DED26FBB7EEC00A5B
S315020013D88DED240BB7EEC11A8DED221BB7EEE51A79
S315020013E88DED201BB7EEC22A8DED1E2BB7EEC33A42
S315020013F88DED1C3BB7EEC44A8DED1A4BB7EEC55AB6
S315020014088DED185BB7EEEA5A8DED165BB7EECAAAF2
S315020014188DED14ABB7EEE95A8DED125BB7EEC99AAC
S315020014288DED109BB7EEE85A8DED0E5BB7EEC88AC6
S315020014388DED0C8BCDE90A45CDE90845B7EEC65ABE
S315020014488DED065BB7EEE66A8DED046BB7EEC76AFD
S315020014588DED026BB7EEE77A8DED007B124B134AE0
S3150200146813490E48FEF7B8FF434642463AA9D9F849
S315020014781400006800F0CCFE05E700BFAFF3008059
S31502001488000000A09B30674000000080431B7C40A0
S31502001498000000C0F582704004B500020001032274
S315020014A8E02E65420000F24218B50002D8B50002E5
S315020014B8E0B500022DE9F043A5B004466248E061B2
S315020014C8624B23622422002107F0B4FD2022002168
S315020014D8206A07F0AFFD5E495E4802F0D5FC5D4F13
S315020014E85D4E5E4D14E013AB10AA07CA83E80700E7
S315020014F804F1480C8CE8070027E0404603F050FA4E
S31502001508A06900231A4604F12801006800F080FE4B
S3150200151823694FF0FF3213A9186800F02DFF01283E
S31502001528F6D10DF16C0C0DF14C0EBEE80F00ACE8CD
S315020015380F009EE80F008CE80F006369002210A9CD
S31502001548186800F019FF0128CDD004F12408404696
S3150200155803F01AFA0828FAD01BA900224FF0060E41
S315020015684EF001E0E36951F8040B03EB82031860BD
S3150200157801320FF009C8E369A26C9A61E369E26C69
S31502001588DA61D4F81C9001F0CDFAC9F82000404679
S3150200159803F006FAA121384602F0C6FC94ED137A46
S315020015A8B7EEC77A8DED0E7B94ED127AB7EEC77A4F
S315020015B88DED0C7B9DED207AB7EEC77A8DED0A7B11
S315020015C89DED1F7AB7EEC77A8DED087B9DED1E7AE3
S315020015D8B7EEC77A8DED067B9DED1D7AB7EEC77A13
S315020015E88DED047B9DED1C7AB7EEC77A8DED027BF5
S315020015F89DED1B7AB7EEC77A8DED007B33462A46F8
S3150200160817491848FEF7E8FE174B1B78002B3FF4DC
S315020016187FAF154B00221A70404603F0B5F9082829
S31502001628FAD0236ADA69616D8A423FF466AF626567
S3150200163804F1280E9C46BCE80F00AEE80F009CE8B1
S315020016480F008EE80F0058E720401C2200401C229B
S3150200165814B90002E0080322E4B500023CB600020F
S3150200166844B6000200010322900902228368B3F5F8
S31502001678803F00D070474368A22BFBD1014B012261
S315020016881A70F7E79009022210B50446006800F0BE
S315020016985BFF204610BD10B50446006800F054FFF3
S315020016A8204610BD10B50446006800F04DFF2046DE
S315020016B810BD10B50446006800F046FF204610BD6E
S315020016C810B50446006800F03FFF204610BD000032
S315020016D808B50022334B1A604021042000F070FD41
S315020016E8304B1860304A3149184603F065FB002230
S315020016F82F4B1A601C21042000F062FD2C4B186047
S31502001708294A2C49184603F057FB00222A4B1A602D
S315020017180C21022000F054FD05E0224B186800F067
S3150200172813FF03F0C3FB244B18601F4A23491846CC
S3150200173803F042FB0022224B1A602021042000F00B
S315020017483FFD05E01A4B186800F0FEFE03F0AEFBFB
S315020017581B4B1860144A1B49184603F02DFB00223E
S31502001768194B1A602021042000F02AFD05E0124BCD
S31502001778186800F0E9FE03F099FB134B18600A4A51
S315020017881249184603F018FB08BD0D4B186800F0FD
S31502001798DBFE03F08BFB0C4B186800F0D5FE03F05A
S315020017A885FB00BFA409022200000022911600024E
S315020017B8A00902229F1600029C090222AD16000207
S315020017C898090222BB16000294090222C9160002CF
S315020017D810B50446034B0360406808B101F0F4F8FB
S315020017E8204610BDE4B7000210B50446034B036059
S315020017F8406808B101F0E8F8204610BDE4B70002D7
S3150200180810B50446034B0360406808B101F0DCF8E2
S31502001818204610BDE4B7000210B50446034B036028
S31502001828406808B101F0D0F8204610BDE4B70002BE
S3150200183810B50446034B0360406808B101F0C4F8CA
S31502001848204610BDE4B7000210B50446034B0360F8
S31502001858406808B101F0B8F8204610BDE4B70002A6
S3150200186870B50D4D4FF485740C4E0122214628465B
S3150200187802F0B8FB642001F0D9FA31460848FEF7AF
S31502001888D1FD00222146284602F0ACFB4FF46170D6
S3150200189801F0CCFAE9E700BFE807032248B60002DE
S315020018A80001032210B5044601F03CF9A060236842
S315020018B85B682046984710BD30B583B00446084693
S315020018C8194600236360A3600D4D25602373231D0B
S315020018D80193009023460B4801F044F807E00A4BAF
S315020018E82360606808B101F06FF803F0DFFA012897
S315020018F814BF002001202073204603B030BD00BF6C
S31502001908F4B70002AD180002E4B70002F0B583B0DE
S31502001918534B00225A609A60524919601A731A1D6B
S315020019280192022200924FF400724F494F4801F089
S3150200193819F84B4B012814BF0020012018734C4A92
S315020019481A604C4D2A464C49184603F035FA4B4C58
S315020019584B4B4FF4806203212046FFF7ADFF494BFC
S315020019682360494E26612A464849204603F024FA4E
S31502001978474C484B4FF4806203212046FFF79CFFF1
S31502001988454B23602661454E6661454BA3612A464F
S315020019984449204603F010FA434C444B4FF4006284
S315020019A803212046FFF788FF414B23602661414BFE
S315020019B863612A464049204603F0FEF93F4B00225E
S315020019C85A609A60274919601A731A1D01920222EF
S315020019D800924FF480623A49244800F0C3FF374B1D
S315020019E8012814BF002001201873364A1A60314AAA
S315020019F81A612B4E5E61344F9F610022DA611A62C8
S31502001A0883F824209A64DA641A655A652A462F49A5
S31502001A18184603F0D1F92E4C2E4B4FF44072022190
S31502001A282046FFF749FF2C4B2360276166612A4649
S31502001A382A49204603F0C0F903B0F0BD084B284AEC
S31502001A481A60586808B100F0BFFF03F02FFA1B4B63
S31502001A58234A1A60586808B100F0B6FF03F026FA5E
S31502001A68600A0222F4B7000254B60002AD18000258
S31502001A7804B8000200000022511800024C0A022291
S31502001A885CB60002FCB60002A4090222391800025A
S31502001A98300A022268B600026CB70002A0090222C6
S31502001AA89C09022221180002180A0222E0B5000245
S31502001AB890B700029809022209180002C0090222F8
S31502001AC874B60002BCB7000294090222F11700029A
S31502001AD8A80902227CB6000220B70002D917000222
S31502001AE8E4B7000200BEFEE71EF0040F0CBFEFF3D8
S31502001AF80880EFF30980014908470000951B000298
S31502001B080F4B1968EFF309821EF0100F08BF22ED7A
S31502001B18108A22E9F04FEFF30B8342F8043D0A607C
S31502001B284FF0100080F31188BFF34F8FBFF36F8F0A
S31502001B3801F0A0F94FF0000080F3118800F002B816
S31502001B48D0FF0222074801680A6802CA81F30B8895
S31502001B58B2E8F04F1EF0100F08BFB2EC108A82F3FB
S31502001B6809887047D0FF022210B5EFF311841023BB
S31502001B7883F3118800F0DCFF18B1034B4FF0805253
S31502001B885A6084F3118810BD00ED00E008B5836938
S31502001B9813F8023C022B05D0032B05D9012383F344
S31502001BA81088FEE7FFF7CEFF08BD000010B44FF01D
S31502001BB8807440F8044C22F0010240F8082C074AC7
S31502001BC840F80C2C40F8203C6FF0020340F8243C05
S31502001BD8283140F8481D5DF8044B7047ED1A00029B
S31502001BE8EFF31181102383F31188094A136801332D
S31502001BF81360012B00D07047064B1960064B5B68D1
S31502001C08C3F30803002BF6D0012383F31088FEE7FB
S31502001C18740A0222700A022200ED00E0074B1B68D2
S31502001C281BB9012383F31088FEE7013B034A1360BD
S31502001C381BB9034B1B6883F311887047740A022287
S31502001C48700A02220A4B1B680A4AA2FB03239B0953
S31502001C58013BB3F1807F0AD24FF0E0225361064B73
S31502001C68F02183F823100023936107231361704739
S31502001C78B4090322D34D621000ED00E008B50C4BFF
S31502001C88F02283F82220FFF7DDFF0A4A536B43F05E
S31502001C984043536362B6BFF36F8FEFF3148C2CF095
S31502001CA8040C8CF31488BFF36F8F02DF00BEFDE7C6
S31502001CB800ED00E000EF00E070B5431E13F10A0FD5
S31502001CC800F2988000F1080410F0070306D0A3F189
S31502001CD80902A242C0F08E801030C41A00F01AFF20
S31502001CE84E4B1B68002B00F08C80002C7DDD4C4B84
S31502001CF81968A14279D34B4B1B684B4A934202D3CC
S31502001D084A4A93421DD9012383F31088FEE74FF40A
S31502001D18704344480260002141601344083B23F0A3
S31502001D2807033E48036059601960991A51601360A7
S31502001D383F4B19603A4B1960D7E7012383F31088A2
S31502001D48FEE7384E3848394D5A68A24208D21A6810
S31502001D5832B18242F1D31E46AA42EED81346F3E7BF
S31502001D682E4A12689A4240D0356808352E4A95425C
S31502001D7802D32E4A954203D9012383F31088FEE73C
S31502001D881A6832605A68A2420AD3121B102A10D95C
S31502001D98181910F0070F07D0012383F31088FEE7FE
S31502001DA8012383F31088FEE742605C6032681A51A9
S31502001DB830605A68891A1A4801601D4800688142CB
S31502001DC83CBF1B48016042F000425A6000221A607A
S31502001DD8184A13680133136000F076FF15F0070FEF
S31502001DE806D0012383F31088FEE700F06DFF002575
S31502001DF8284670BD00F08EFE084B1B68002BF4D1F6
S31502001E080024094A12F0070F81D0D11D21F00701DB
S31502001E1802F57042531A0A467BE700BF880A022275
S31502001E28840A02228C0A0222940A022293FA0222C3
S31502001E38800A02227C0A0222002863D038B50546A7
S31502001E48A0F10804304B9C420AD3304B9C4207D877
S31502001E5850F8043C002B07DB012383F31088FEE7C6
S31502001E68012383F31088FEE750F8082C1AB10123E0
S31502001E7883F31088FEE723F0004340F8043C00F0A1
S31502001E8849FE55F8041C224A13680B441360214B79
S31502001E981A461B689C42FBD81E48824209D01A4839
S31502001EA8824202D31948824203D9012383F3108856
S31502001EB8FEE7506802EB000C644510D055F8040C96
S31502001EC825181946AB4213D02160A24218BF1460E6
S31502001ED8114A13680133136000F0F6FE38BD014457
S31502001EE85160084611448B4201D01360F0E714464C
S31502001EF80A4909688B42E7D05B6803446360136842
S31502001F081968E1E7704700BF940A022293FA02228F
S31502001F18840A02228C0A0222780A0222880A0222E9
S31502001F2800F1080343604FF0FF328260C360036129
S31502001F3800230360704700230361704743684B60C0
S31502001F489A688A6051609960086103680133036080
S31502001F58704730B40D68B5F1FF3F11D000F10803A0
S31502001F681C465B681A68AA42FAD963684B6099608C
S31502001F788C606160086103680133036030BC704796
S31502001F880469F2E70369416882688A6041685160B8
S31502001F985A68824204BF82685A600022026118683F
S31502001FA801381860704710B50446FFF719FEA46B8E
S31502001FB8FFF734FEB4FA84F0400910BD70B5044642
S31502001FC81646856B026C5AB903681BB100200135A7
S31502001FD8A56370BD806801F0A5F80023A360F6E743
S31502001FE86EB9406807F0CCF86368226C13446360E4
S31502001FF8A26830469342EAD323686360E7E7C0687B
S3150200200807F0BEF8226C5142E3689B1AE360226825
S31502002018934202D2A3680B44E360022E01D0002049
S31502002028D5E715B1013D0020D1E70020CFE70346E9
S31502002038026C6AB110B50846D9681144D9609C6821
S31502002048A14224BF1968D960D96807F099F810BD6A
S31502002058704770B50546FFF7C3FD95F8454064B26B
S31502002068002C0FDD05F1240602E0013C64B24CB1F6
S315020020786B6A3BB1304600F087FF0028F5D001F0C5
S315020020883BF8F2E7FF2385F84530FFF7C7FDFFF770
S31502002098A7FD95F8444064B2002C0FDD05F1100641
S315020020A802E0013C64B24CB12B693BB1304600F008
S315020020B86BFF0028F5D001F01FF8F2E7FF2385F839
S315020020C84430FFF7ABFD70BD38B558B10D4604462E
S315020020D8C36B1BB1026CA2FB03233BB1012383F33F
S315020020E81088FEE7012383F31088FEE7FFF778FDE1
S315020020F82268216CE36B01FB03F3D018A060002071
S31502002108A06362605B1A1A44E260FF2384F84430D3
S3150200211884F84530A5B923691BB9FFF77FFD01206D
S3150200212838BD04F1100000F02FFF0028F5D0094B46
S315020021384FF080525A60BFF34F8FBFF36F8FECE7B1
S3150200214804F11000FFF7ECFE04F12400FFF7E8FEA5
S31502002158E3E700BF00ED00E04BB110B582B01C46C4
S3150200216808B142B119BB012383F31088FEE70123A4
S3150200217883F31088FEE70029F5D150230193019BCA
S31502002188502B19D1019B2246012384F8463022603E
S31502002198E063216419462046FFF796FF9DF8103042
S315020021A884F84C30204602B010BD019BECE7502360
S315020021B80193019B502BF8D0012383F31088FEE785
S315020021C8F8B550B10D4614460646A1FB002323B9BD
S315020021D801FB00F010F1510F03D9012383F3108894
S315020021E8FEE75030FFF768FD074678B1002380F80E
S315020021F8463000F15003002D08BF03460360C6634C
S3150200220805640121FFF760FF87F84C403846F8BDA0
S315020022182DE9F04784B0019260B10E461D46044688
S3150200222861B1022D11D1E36B012B0ED0012383F389
S315020022381088FEE7012383F31088FEE7036C002B60
S31502002248EFD0012383F31088FEE700F05BFF814697
S3150200225828B9019B2BB1012383F31088FEE74FF0BF
S3150200226800090027DFF80C8133E02A46314620466A
S31502002278FFF7A4FE636A73B938B13E4B4FF080523A
S315020022885A60BFF34F8FBFF36F8FFFF7C7FC01206A
S3150200229804B0BDE8F08704F1240000F075FE0028BA
S315020022A8F3D0344B4FF080525A60BFF34F8FBFF3CF
S315020022B86F8FEAE7FFF7B2FC0020E9E702A800F011
S315020022C8D5FE14E02046FFF7C4FE00F0FDFC4FF0F1
S315020022D80109FFF785FCA26BE36B9A42C5D3022D6F
S315020022E8C3D0019B002BE5D0B9F1000FE6D0FFF76A
S315020022F895FC00F00FFCFFF773FC94F8442052B2E9
S31502002308B2F1FF3F08BF84F8447094F8452052B2F0
S31502002318B2F1FF3F08BF84F84570FFF77FFC01A9B9
S3150200232802A800F0AFFEF0B9FFF75AFCD4F838A0BD
S31502002338D4F83C90FFF772FCCA45C3D1019904F15F
S31502002348100000F0E7FD2046FFF783FE00F0BCFC14
S315020023580028BCD14FF08053C8F80430BFF34F8F22
S31502002368BFF36F8FB3E72046FFF773FE00F0ACFCAE
S3150200237800208DE700ED00E02DE9F04385B00192DB
S3150200238860B10D46044669B100F0BCFE814680B9CB
S31502002398019B83B1012383F31088FEE7012383F3AC
S315020023A81088FEE7036C002BEED0012383F3108816
S315020023B8FEE74FF000090026DFF8FC8036E02946E2
S315020023C82046FFF734FE7B1EA36323692BB9FFF76A
S315020023D825FC012005B0BDE8F08304F1100000F0E9
S315020023E8D3FD0028F3D0344B4FF080525A60BFF326
S315020023F84F8FBFF36F8FEAE7FFF710FC0020E9E77C
S3150200240802A800F033FE1CE02046FFF722FE00F089
S315020024185BFC09E02046FFF71CFE00F055FC20464F
S31502002428FFF7C1FD002844D14FF00109FFF7D8FB99
S31502002438A76B002FC3D1019B002BDDD0B9F1000F8A
S31502002448DED0FFF7EBFB00F065FBFFF7C9FB94F85C
S3150200245844305BB2B3F1FF3F08BF84F8446094F896
S3150200246845305BB2B3F1FF3F08BF84F84560FFF71A
S31502002478D5FB01A902A800F005FE0028CAD120460C
S31502002488FFF791FD0028BFD0019904F1240000F05E
S3150200249841FD2046FFF7DDFD00F016FC0028C3D1FA
S315020024A84FF08053C8F80430BFF34F8FBFF36F8FD6
S315020024B8BAE700208EE700BF00ED00E038B130B57C
S315020024C80446F9B1104B0020844608220CE0012389
S315020024D883F31088FEE70C4800EBCC0010E00CF101
S315020024E8010C0833013A0AD09E465D68A542F2D02D
S315020024F80028F4D11D68002D08BF1846EFE708B179
S315020025080160446030BD00BF94FA0222844650B18D
S3150200251800230B48082250F83310614507D00133CF
S31502002528013AF8D17047012383F31088FEE7054A7A
S31502002538002142F8331002EBC3025160704700BF14
S3150200254898FA022294FA022238B110B50446FFF725
S31502002558DDFF94F8463023B110BD012383F31088BA
S31502002568FEE72046FFF768FCF6E770B504460D4617
S315020025781646FFF735FB94F844305BB2B3F1FF3FDA
S3150200258804BF002384F8443094F845305BB2B3F1B3
S31502002598FF3F04BF002384F84530FFF73FFBA36BD8
S315020025A81BB12046FFF755FD70BD3246294604F198
S315020025B8240000F0C3FCF4E7074B1B681B6823B929
S315020025C8064B4FF0FF321A607047034B1B68DB68F5
S315020025D81A68024B1A60704744FB0222DCFA02228E
S315020025E82DE9F843074689469846089E0A9C9500AF
S315020025F82A46A521206B06F01DFD043D236B2B44BC
S3150200260823F007056565B9F1000F10D009F1FF310E
S3150200261804F133034FF0200C11F9012F03F8012FAF
S3150200262812B1BCF1010CF7D1002384F85330372ECE
S3150200263803D9012383F31088FEE7E6622666201D86
S31502002648FFF779FC04F11800FFF775FC2461C6F15F
S315020026583806A661646243463A46216B2846FFF766
S31502002668A5FA2060099B03B11C60BDE8F883000047
S3150200267870B50546FFF7B4FA364A13680133136094
S31502002688354B1B68002B41D0344B1B683BB9324B88
S315020026981B68DA6AEB6A9A429CBF2F4B1D60304A66
S315020026A8136801331360AB65EB6A2E4A12689342CC
S315020026B884BF2C4A13602C4A03EB830302EB830381
S315020026C85B68AB609868E860291D41609960EB6AAF
S315020026D803EB830102EB8100686152F82130013372
S315020026E842F82130FFF79AFA1C4B1B686BB11A4B5A
S315020026F81B68DA6AEB6A9A4207D21C4B4FF0805281
S315020027085A60BFF34F8FBFF36F8F70BD124B1D60B8
S315020027181368012BC3D1144C04F58C662046FFF7C7
S31502002728FFFB1434B442F9D1114E3046FFF7F8FBD9
S31502002738104C2046FFF7F4FB0F48FFF7F1FB0F4852
S31502002748FFF7EEFB0E48FFF7EBFB0E4B1E600E4B38
S315020027581C60A4E7FCFA0222D0FF0222F0FA022247
S31502002768E0FA0222F4FA022270FB022200ED00E0ED
S315020027785CFB022248FB02222CFB022218FB0222E5
S3150200278800FB022244FB022240FB022210B5044649
S3150200279890F86D303BB1012B0CD0022B09D00123E6
S315020027A883F31088FEE7006BFFF746FB2046FFF728
S315020027B843FB10BDFFF740FBFBE70000F8B50E4BE5
S315020027C81B68BBB10D4F0E4E0B4CFFF709FAFB689F
S315020027D8DD68281DFFF7D6FB3368013B33602368A3
S315020027E8013B2360FFF71AFA2846FFF7CFFF236853
S315020027F8002BEAD1F8BD00BF14FB022218FB022205
S31502002808FCFA022208B5074C074E4FF08055FFF72F
S31502002818D5FF2368012BFAD97560BFF34F8FBFF333
S315020028286F8FF4E770FB022200ED00E02DE9F0411C
S3150200283804460E46264B1D68264B1F68264BD3F8C0
S315020028480080264B18680430FFF79CFBB4F1FF3F63
S315020028580DD02C44214B1B685C60A5421CD91F4B2A
S31502002868196804314046FFF774FBBDE8F08106B3E8
S315020028781B4A5168194B1868816018688C68C460CD
S315020028881868043060601868043088601B685A61EA
S31502002898136801331360E8E7104B196804313846A8
S315020028A8FFF757FB0F4B1B68A342DED90D4B1C6083
S315020028B8DBE76B1E094A126853609D42CFD8074B65
S315020028C8196804313846FFF744FB064B1B68CCE708
S315020028D8F8FA022244FB022240FB0222D0FF02221D
S315020028E800FB0222DCFA02222DE9F04186B00D46EF
S315020028F80D9E002105916EB1044690461F460E9B19
S3150200290863B170230493049B702B0BD0012383F3CA
S315020029181088FEE7012383F31088FEE7012383F379
S315020029281088FEE7049B702200210E9806F082FBAF
S315020029380E9B1E6302230E9A82F86D3000230393C0
S31502002948029205AB01930C9B00933B4642462946ED
S315020029582046FFF745FE0E98FFF78AFE059806B051
S31502002968BDE8F0812DE9F04385B005460E461446CA
S3150200297898469000FFF7A0F910B381467020FFF73A
S315020029889BF90746C8B17022002106F053FBC7F827
S3150200299830900023039302970D9B01930C9B00939F
S315020029A84346224631462846FFF71AFE3846FFF7BF
S315020029B85FFE012005B0BDE8F0834846FFF73CFA02
S315020029C84FF0FF30F6E7000038B50446FFF708F97E
S315020029D83CB3251D2846FFF7D5FAA36A1BB104F1B5
S315020029E81800FFF7CFFA1E4A1368013313601D4B0E
S315020029F81A681D4B1B680BB1A24215D01B4A1368F5
S31502002A08013B1360FFF7D8FDFFF708F92046FFF7E9
S31502002A18BDFE154B1B681BB1124B1B68A3420ED099
S31502002A2838BD104B1C68D4E729461148FFF786FAC9
S31502002A38104A136801331360FFF7F0F8E9E70E4B03
S31502002A481B681BB1012383F31088FEE70B4B4FF07B
S31502002A5880525A60BFF34F8FBFF36F8FE0E700BF14
S31502002A68E0FA0222D0FF0222F0FA0222FCFA02223D
S31502002A7818FB022214FB0222D4FA022200ED00E01D
S31502002A8810B590B01C4908AA11F9013B02F8013B9E
S31502002A98002BF9D100240594069407AA06A905A8CD
S31502002AA800F03AFD059B0293069B01930094234688
S31502002AB8079A08A91148FFF717FF114B1860B8B112
S31502002AC800F0FCFC012806D0B0F1FF3F10D101232B
S31502002AD883F31088FEE7012383F31088094A4FF02F
S31502002AE8FF311160084A1360084B1C60FFF7C6F8ED
S31502002AF8074B1B6810B010BD80B600020D280002F5
S31502002B08D8FA0222DCFA0222F0FA0222F8FA0222A1
S31502002B180CB80002024A136801331360704700BFFB
S31502002B28D4FA0222014B1868704700BFF8FA02224B
S31502002B385A4B1B68002B40F0AB802DE9F047584BE7
S31502002B481C6801341C609CB9564B1B681B681BB178
S31502002B58012383F31088FEE7524A1168524B18681C
S31502002B6810601960514A136801331360FFF724FD98
S31502002B784F4B1B68A34278D84A4B1B681B684BB15C
S31502002B880020DFF820C10546DFF838E1494ADFF8B8
S31502002B9828A134E00020464B4FF0FF321A6065E068
S31502002BA8434B196062E0D96ADEF80080414588BF66
S31502002BB8CEF8001001EB810102EB810149689960A8
S31502002BC8D1F80880C3F80C80C8F804708F60D96AF7
S31502002BD801EB810702EB8708C3F8148052F8271025
S31502002BE8013142F82710DAF80070D96AFB6A99426D
S31502002BF888BF0120DCF800301B68002BCBD0DCF83C
S31502002C080030DB68DB6859688C42C9D3D3F8148074
S31502002C189968DF688F60996879601F1DD8F8041073
S31502002C28B94204BFD968C8F804105D61D8F8001023
S31502002C380139C8F80010D3F82880B8F1000FB2D0CD
S31502002C48196ADE69B160DE694E6003F11809D8F8BF
S31502002C580410494504BF196AC8F804109D62D8F8D9
S31502002C6800100139C8F800109DE70020124B1B68B6
S31502002C78DB6A03EB83030F4A52F82330022B28BF81
S31502002C8801200E4B1B68002B18BF0120BDE8F087F8
S31502002C980B4A13680133136000207047D4FA0222E4
S31502002CA8F8FA022244FB022240FB0222E4FA02223A
S31502002CB8DCFA022270FB0222D0FF0222E8FA022282
S31502002CC8ECFA0222F4FA02222DE9F843FEF788FF0B
S31502002CD84D4B1B681BB9012383F31088FEE74A4B49
S31502002CE81A68013A1A601B68002B40F08480474B29
S31502002CF81B68002B00F08580454B1B68002B5AD0B9
S31502002D08DFF80CC10020DFF820E1424A424C434E6C
S31502002D184FF00109DCF80C30DB689F6A196ADD6935
S31502002D28A960DD694D6003F118087968414504BF59
S31502002D38196A796098623968013939605F69D968B0
S31502002D489D68A9609D684D6003F10408796841454C
S31502002D5804BFD96879605861396801393960D96A16
S31502002D68DEF80070B94288BFCEF8001001EB810187
S31502002D7802EB8101496899608F68DF60C7F80480B1
S31502002D88C1F80880D96A01EB810702EB8708C3F804
S31502002D98148052F82710013142F827102768D96A99
S31502002DA8FB6A994288BFC6F80090DCF80030002B0F
S31502002DB8B0D1FFF701FC1A4B1C686CB1174E0125FE
S31502002DC801E0013C05D0FFF7B3FE0028F9D03560D3
S31502002DD8F7E7134B00221A60104B1C6864B10E4BBE
S31502002DE81B68104B4FF080525A60BFF34F8FBFF3E8
S31502002DF86F8F012400E00024FEF710FF2046BDE88D
S31502002E08F8830024F8E700BFD4FA0222FCFA022269
S31502002E182CFB022270FB0222D0FF0222E8FA0222CF
S31502002E28ECFA022200ED00E0F4FA022210B540B9EB
S31502002E380E4B4FF080525A60BFF34F8FBFF36F8F1E
S31502002E4810BD0446FFF766FE094B1B68012B03D02B
S31502002E58012383F31088FEE700212046FFF7E6FCEC
S31502002E68FFF732FF0028EBD1E2E700BF00ED00E0F2
S31502002E78D4FA0222224B1B681BB1224B01221A608A
S31502002E887047204B00221A601F4B1B6803EB830115
S31502002E981E4A52F821208AB963B103EB83011B4A01
S31502002EA802EB81021946013B52F8140C30B9143A66
S31502002EB80139F8D1012383F31088FEE7134A03EB9D
S31502002EC8830102EB810148684068486003EB83018D
S31502002ED802EB8102083290420CD003EB83010B4AC3
S31502002EE802EB81025268D168094A116006490B60F1
S31502002EF813687047054A02EB8102D1685160ECE714
S31502002F08D4FA0222E8FA0222F4FA022270FB022218
S31502002F18D0FF022258B110B50C46074A116818317B
S31502002F28FFF717F801212046FFF780FC10BD0123A1
S31502002F3883F31088FEE700BFD0FF022238B5E0B15E
S31502002F488C461146054642680E4B1868C2611868D7
S31502002F5894680462186818306060186818309060BF
S31502002F681B689D622B6801332B6000290CBF6046E3
S31502002F784FF0FF30FFF75AFC38BD012383F3108860
S31502002F88FEE700BFD0FF0222C368DB68002B51D0E0
S31502002F9810B49A6AD869196A8160D869486003F1D7
S31502002FA818005168814204BF196A5160002199626A
S31502002FB8116801391160274A1268002A3ED15A69F6
S31502002FC89868D968816098684860181D5168814276
S31502002FD804BFD9685160002159611168013911602D
S31502002FE8DA6A1D4909688A4284BF1B490A601B4975
S31502002FF802EB820201EB820252689A609468DC60F4
S3150200300860609060DA6A02EB820001EB80045C6120
S3150200301851F82020013241F82020114A1168DA6A53
S31502003028CB6A9A4283BF01200E4B186000205DF8D6
S31502003038044B7047012383F31088FEE70A4A516856
S31502003048D9618C681C62606088609A621168013175
S315020030581160E2E7D4FA0222F4FA022270FB022293
S31502003068D0FF0222E8FA02222CFB0222034B1B683B
S315020030780360034B1B684360704700BFE4FA0222F1
S31502003088F8FA0222B8B170B50C460546B9B1FEF790
S31502003098A7FD174B1A682368B3F1FF3F22D0696868
S315020030A8144800682E6886420DD091420BD8002338
S315020030B82360012417E0012383F31088FEE7012326
S315020030C883F31088FEE7501A834203D8002323604D
S315020030D8012408E09B1A0B4423602846FFF7C6FF23
S315020030E8002400E00024FEF799FD204670BD00BFCB
S315020030F8F8FA0222E4FA0222014B01221A60704708
S31502003108E8FA0222054B1B6833B1054B1868B0FA78
S3150200311880F040094000704701207047F0FA022209
S31502003128D4FA022200283FD038B50446204B1B6841
S31502003138834203D0012383F31088FEE7436E1BB94B
S31502003148012383F31088FEE7013B4366C16A026ED8
S3150200315891422BD00BB1002038BD051D2846FEF73B
S3150200316811FF236EE362C3F13802A261114A1268A3
S31502003178934284BF0F4A13600F4A03EB830302EBA1
S3150200318883035B68A3609968E1604D609D60E36AAA
S3150200319803EB830102EB8100606152F821300133AF
S315020031A842F821300120D7E7002070470020D3E7F4
S315020031B8D0FF0222F4FA022270FB022208B541600D
S315020031C8006191420CD8D21A83699A4201D301202E
S315020031D808BD011D094B1868FEF7BBFE0020F7E77C
S315020031E89A4201D2994206D2011D054B1868FEF78A
S315020031F8B0FE0020ECE70120EAE700BFD000032278
S31502003208D400032270B504460D46164604E0A369A7
S315020032181D44236A20469847A1692B46324629440B
S315020032282046FFF7CBFF0028F1D170BD70B50546E1
S315020032380E460D4B1B68DB68DC68201DFEF7A2FEF6
S3150200324894F8283013F0040F07D123F0010384F809
S315020032582830236A2046984770BD324629462046BA
S31502003268FFF7D0FFF5E700BFD4000322F8B50546FD
S31502003278FFF758FC0446104B1B68834205D8002307
S315020032882B600D4B1C602046F8BD0C4B1B681A6858
S315020032985AB14FF0FF37094EDB6839461868FFF70F
S315020032A8C5FF33681A68002AF6D1054A1068034929
S315020032B8086013600123E3E7C4000322D400032253
S315020032C8D00003222DE9F04186B05C4E5C4D33688E
S315020032D81F68002F00F09080DB681F68FFF71AFC52
S315020032E802A8FFF7C3FF0446029A4AB9874200F2C8
S315020032F89380FFF7E9FC21463846FFF797FF01E07E
S31502003308FFF7E2FC002302930393049305931C46FA
S3150200331806E005990498039B9847029B002B09DA55
S31502003328224602A92868FFF727F80028CFD0029B71
S31502003338002BEEDB049F7B6913B1381DFEF722FED4
S3150200334801A8FFF793FF8046029B013B082BE7D8AB
S31502003358DFE803F00505293044050529300097F80A
S31502003368283043F0010387F82830039BB9690246DF
S3150200337819443846FFF722FF0028D1D097F828309B
S3150200338813F0040F07D123F0010387F828303B6AAC
S3150200339838469847C4E7BB694246039919443846F2
S315020033A8FFF730FFF3E797F8283023F0010387F891
S315020033B82830B5E797F8283043F0010387F8283014
S315020033C80399B96131B10346024601443846FFF70B
S315020033D8F5FEA5E7012383F31088FEE797F8283060
S315020033E813F0020F04D023F0010387F8283097E779
S315020033F83846FEF721FD93E7FFF78CFB02A8FFF795
S3150200340835FF0446029B002B7FF47AAF0D4B1B68EF
S315020034181A68B2FA82F25209391B2868FFF7A5F828
S31502003428FFF752FC00287FF46DAF074B4FF080522E
S315020034385A60BFF34F8FBFF36F8F63E7D40003223F
S31502003448CC000322D000032200ED00E030B583B0A1
S31502003458FEF7C6FB114B1B681BB1FEF7DFFB03B079
S3150200346830BD0F4D2846FEF75BFD0E4C2046FEF793
S3150200347857FD0D4B1D600D4B1C60002300930C4B32
S315020034880C4A10210A20FEF767FE044B1860002832
S31502003498E3D00949FFF712F8DFE700BFCC000322A1
S315020034A8EC000322D8000322D4000322D000032210
S315020034B8D4FF02222400032288B6000210B588B07F
S315020034C8FFF7C4FF104B1B68CBB100240594069482
S315020034D807AA06A905A800F02BF8059B0293069BE6
S315020034E80193022300932346079A08490848FFF7DF
S315020034F8FBF9084B186010B1012008B010BD012372
S3150200350883F31088FEE700BFCC00032290B60002C0
S31502003518CD320002C8000322034B0360034B0B6043
S3150200352880231360704700BF7807032278050322B9
S31502003538034B0360034B0B604FF4807313607047B1
S315020035480805032208010322024A1368013313609D
S31502003558704700BF2802022208B5FDF73FF808BDEA
S3150200356808B5FDF747F808BD08B5FDF7A5F908BD82
S315020035780379022B00D07047014B01221A70FAE731
S315020035880400002238B52C492C4800F031FA2C4C9C
S315020035980C212046FDF7CAFA2A4D2B49284600F087
S315020035A875FE284600F058FE284600F021FE2749F7
S315020035B8274800F01DFA2749274800F019FA274933
S315020035C8274800F015FA274D01224FF4857128463F
S315020035D800F008FD4FF47A714FF4FA7001F046F9DB
S315020035E800224FF48571284600F0FCFC1C21204677
S315020035F8FDF79CFA4FF47A714FF4C87001F036F968
S315020036082D212046FDF792FA4FF47A714FF4FA709B
S3150200361801F02CF944212046FDF788FA4FF47A7115
S315020036284FF4167001F022F964212046FDF77EFA5E
S31502003638FFF726FAFEE700BFE0B80002AC0803224D
S31502003648A8090222F007032210B8000238B80002BD
S31502003658100803226CB8000244080322ACB8000220
S3150200366878080322E807032210B582B0074C002324
S31502003678009301231A4606492046FCF739FE054AF5
S315020036880549204601F098FB02B010BD000103224D
S31502003698A0B80002000000220703000208B5074B83
S315020036A84FF002725A64002283F854204AF20152F9
S315020036B8A3F86420FFF766FF08BD00BF00F00040CC
S315020036C8022800D0704708B50249034800F086FD73
S315020036D808BD00BF24B90002E807032208B5FFF7B0
S315020036E8DDFF002008BD8161C2610020704710B469
S315020036F8446AA36823F44013A360446AA36C13F0D4
S31502003708804FFBD0A36823F01003A360446A237F8B
S3150200371813F0100FFBD142610161A36843F0101345
S31502003728A36000205DF8044B704781620263C3629E
S31502003738002070474FF0FF334B600B600020704744
S31502003748844611F0020F1DD0426A936823F440138F
S315020037589360426A936C13F0804FFBD0936823F010
S3150200376810039360DCF82420137F13F0100FFBD1AB
S315020037780020CCF8140011F0010F1CBF0020CCF871
S315020037881C0070470620F6E70346C2690A60002055
S31502003798D8617047062070470620704730B453092F
S315020037A802F01F050124AC402033144D45F823408E
S315020037B8BFF34F8FBFF36F8F114B02F5C65C53F8F9
S315020037C82C4024F4803443F82C4053F82C30002A39
S315020037D80CDB0901C9B202F1604303F5614383F8C0
S315020037E80013084B43F8220030BC704702F00F045E
S315020037F80901C9B2044B1955F3E700BF00E100E01D
S31502003808006000405C09032214ED00E070B584B044
S3150200381805460E469446C46ACCB194E80F000DF1EB
S31502003828100E0EE90F002B6A1B782360A66084F837
S3150200383804C02B6BE360AB6A20469847EC6A24B156
S3150200384804AB13E90F0084E80F0004B070BD6C46A0
S31502003858E9E7000038B54268374B9A426AD104460E
S31502003868426A936823F440139360426A936823F08A
S3150200387810039360426A137F13F0100FFBD1236A79
S3150200388893F90730580903F01F03012101FA03F3DC
S315020038982A4A203042F82030BFF34F8FBFF36F8F8A
S315020038A8236A93F90930580903F01F0301FA03F34F
S315020038B8203042F82030BFF34F8FBFF36F8F606A14
S315020038C8836823F480338360236A93F905305809A1
S315020038D803F01F0301FA03F3203042F82030BFF346
S315020038E84F8FBFF36F8F236A93F90B30580903F092
S315020038F81F0301FA03F3203042F82030BFF34F8F3B
S31502003908BFF36F8FEFF3108581F310880C4A506866
S31502003918236A93F800C04FF0004323FA0CF30343DB
S31502003928536053681E2000F0A1FF85F3108800201B
S31502003938606038BD0720FCE74249435300E100E0D6
S315020039480030204070B5036ADD69002383606B7C12
S3150200395803B970BD0446184B93F8543003F00F03AD
S31502003968072B22D8DFE803F006060604251B1D1FCF
S31502003978062601E001269E400F4B93F8550000F0FB
S315020039880F0000F00DFF6B7C0C4A126802FB03F372
S31502003998B0FBF6F0B3FBF0F30133A360D9E70326D5
S315020039A8EAE70526E8E70A26E6E7083B10269E40E8
S315020039B8E2E70826E0E700BF00E00140B409032277
S315020039C8F8B504460D46426A936823F4401723F471
S315020039D8441323F01103936000260661FFF7B2FF32
S315020039E8636A2A681A61636A9F603046F8BD0000F6
S315020039F8F8B504460D460B7803F5800303F55653CE
S31502003A081B0243620023037001624A6982628A6961
S31502003A180263C362CE698378012262F3010383706B
S31502003A284B78002B08BF0222837862F30103837066
S31502003A3891F90B20897AFFF7B1FE95F905202979C4
S31502003A482046FFF7ABFE95F90720A9792046FFF72E
S31502003A58A5FE95F90920297A2046FFF79FFEEFF37E
S31502003A681087012181F310887D4B5A6895F800C0AA
S31502003A784FF0004020FA0CF022EA00025A605B6816
S31502003A881E2000F0F3FE87F31088636A4FF4806203
S31502003A989A60EA6950686B781B0203F44073E97806
S31502003AA8890301F480410B431178090601F040713C
S31502003AB80B435178C90389B20B43517B490501F47B
S31502003AC800110B4343F48053616A4B6111788B1ED4
S31502003AD8DBB2012B40F2BD800368616A0B61117B80
S31502003AE801F0030141F03001AB7833B1022B14BF68
S31502003AF84FF440734FF48073194393781B0703F00E
S31502003B0880530B43616ACB60636A00219961297805
S31502003B1801238B40C3F3090313B1636A51495962FE
S31502003B28937B03F00103D17B01F01F0143EA0123D2
S31502003B38127C02F01F0243EA0243626A13630025FB
S31502003B4825616561A561E5612046FFF7FBFE73897C
S31502003B58A381636A444A9A66236A93F90530434AFB
S31502003B6803F5C65152F8210065F3104042F82100C8
S31502003B7852F82110BFF35F8F03F01F00012101FAEB
S31502003B8800F05B099B0003F1604303F56143C3F848
S31502003B9880011860236A93F90B3003F5C65052F870
S31502003BA8206065F3104642F8206052F82000BFF301
S31502003BB85F8F03F01F0001FA00F05B099B0003F117
S31502003BC8604303F56143C3F880011860236A93F9D9
S31502003BD8073003F5C65052F8206065F3104642F8DE
S31502003BE8206052F82000BFF35F8F03F01F0001FA2E
S31502003BF800F05B099B0003F1604303F56143C3F8D8
S31502003C0880011860236A93F9093003F5C65052F801
S31502003C18206065F3104642F8206052F82020BFF370
S31502003C285F8F03F01F0291405B099B0003F160431B
S31502003C3803F56143C3F880111960636A0C4A9A60F6
S31502003C48626A137F13F0010FFBD00A4B63600020F0
S31502003C58F8BD0229084B094918BF0B463DE700BFC4
S31502003C680030204000001F1F1000079D0060004022
S31502003C78110401004249435324FF00FF04FF00FFD9
S31502003C8838B5EFF30383103B5BB2244A03F5C651FA
S31502003C9852F8210020F4803042F8210052F82120FF
S31502003CA81F4A52F82340236A1B6913B16369EBB1B1
S31502003CB838BD6369D3B1A37803F00303022B0DD091
S31502003CC8636A226912781A71A37803F00303626998
S31502003CD8D21A626122691A442261E7E7626A236993
S31502003CE81B8823F4DC439BB25360EDE7636A9D6845
S31502003CF825F4801545F40015A06860B9636A9D60CD
S31502003D0800232361A36A002BD2D0802200212046F9
S31502003D18FFF77CFDCCE700F0A3FDEFE7006000406B
S31502003D285C09032210B582B0EFF30383103B5BB242
S31502003D381F4A03F5C65152F8210020F4803042F892
S31502003D48210052F821201B4A52F82340A37803F097
S31502003D580303022B636A07BF1968C1F308011978BE
S31502003D68C9B20191E3693BB9A36A1BB10422204691
S31502003D78FFF74CFD02B010BDA27802F0030201A9BA
S31502003D88A06905F0FDF9A27802F00302A3691344BB
S31502003D98A361E3699B1AE361002BEBD1A36A002BAB
S31502003DA8E8D0012200212046FFF730FDE2E700BFF6
S31502003DB8006000405C09032210B5EFF30383103B51
S31502003DC85CB20E4B53F82400426A936823F44013FC
S31502003DD823F010039360836A1BB102220021FFF7C6
S31502003DE815FD074A04F5C65352F8231021F480310B
S31502003DF842F8231052F8233010BD00BF5C09032293
S31502003E080060004038B5EFF30383103B5CB21C4BED
S31502003E1853F82400837803F00303022B436A07BF8F
S31502003E281968C1F308011978C9B2456AAA6CC2F3BE
S31502003E38006CC2F300731B0143EA4C13C2F3C0625F
S31502003E4843EAC20C624613F0100F05D0AB6C13F4AA
S31502003E58004F08BF4CF04002AB6E43F0C853AB6646
S31502003E68836A0BB1FFF7D2FC064A04F5C65352F829
S31502003E78231021F4803142F8231052F8233038BD3A
S31502003E885C0903220060004041608B680361CB68CD
S31502003E988361002343610A681E4B03EB4213836066
S31502003EA80A681D4B03EB4213C36091F90430002BD9
S31502003EB803DA1A4B03600020704710B44A791201DC
S31502003EC8D2B203F1604101F5614181F80023144A37
S31502003ED842F82300134A03F5C65152F8214024F446
S31502003EE8803442F8214052F82120BFF35F8F03F055
S31502003EF81F0101228A405B099B0003F1604303F517
S31502003F086143C3F880211A60044B036000205DF800
S31502003F18044B704700010240C00002404350495218
S31502003F285C0903220060004083681A6812F4003FA5
S31502003F3806BF996000200C20704770B584B005460C
S31502003F480E464469F4B194E80F000DF1100C0CE921
S31502003F580F006B681B682360A660AB69E360B6F561
S31502003F68803F06BFEB68DB68002363602B69204647
S31502003F7898476C6924B104AB13E90F0084E80F0073
S31502003F8804B070BD6C46E4E738B5EFF30383103B23
S31502003F985BB2124A03F5C65152F8210020F480306A
S31502003FA842F8210052F821200D4A52F82350EB68B4
S31502003FB81C6814F4803F03D134F4403406D138BD6A
S31502003FC84FF480312846FFF7B8FFF5E72146284621
S31502003FD8FFF7B3FFEB681C61F1E700BF0060004022
S31502003FE85C090322CBB20120984080B262B902462C
S31502003FF800200B0A5B0103F1804303F5800340EAC4
S3150200400802409860002070470022F2E710B411F4CB
S31502004018803F0ED0030A0C4A1B0153FA80F352F86A
S31502004028234024F4803442F8234021F4803442F8B1
S315020040382340030A1B0153FA80F0034B43F820106E
S315020040485DF8044B704700BF000840400388002B08
S315020040587AD02DE9F04F83B007464FF00008DFF813
S31502004068F0A04FF00109DFF8ECB065E09AF84C2CA5
S3150200407809FA04F3D9B20191134230D004F12003AC
S315020040881BF81330DB0937D00134032C4FD07B6879
S31502004098991935F8022B89889142F5D19B5903F073
S315020040A8B853B3F1807FE1D09AF84C2C09FA04F39D
S315020040B8D9B2019113422CD104F120031BF8133013
S315020040C8DB09E1D004F120021BF8123023F0800349
S315020040D80BF812304946C82000F0C8FBD4E7484618
S315020040E800F0B4FC9AF84C3C019A13438AF84C3C0B
S315020040F8484600F079FCC1E704F120021BF81230A9
S3150200410843F080030BF812304946C82000F0AEFB94
S31502004118BAE7484600F09AFC9AF84C3C019A23EA18
S3150200412802038AF84C3C484600F05EFCC4E708F1F4
S3150200413801083B88434504D94FEAC806034D0024C3
S31502004148A5E703B0BDE8F08F704700BFE8B90002E3
S3150200415800E001400020204038B50546FFF776FF0B
S31502004168EFF31081012383F310881A4B1B6823B9D6
S31502004178194B00221A7540221A75164A136801331A
S31502004188136081F310882B886BB100246B6803EBEC
S31502004198C40253F834109088FFF738FF01342A888E
S315020041A8A3B29A42F2D8EFF31083012282F310885F
S315020041B8084A12681AB107490A68013A0A60054AA2
S315020041C8126822B9044A002111758021117583F3F8
S315020041D8108838BD58090322000D404008B5034B24
S315020041E803600846FFF7B8FF002008BD54524F5037
S315020041F8037B43B183680269013A43F80C2BF12227
S315020042081A700020704783680269013A92B223F84D
S31502004218082BF4E7037B53B181680C310B7803F062
S315020042280102C3F340039A42F8D10020704781681D
S315020042380831F3E7016143681A7C064B43F82210FA
S315020042480139037B13B1836819607047836889B2A1
S3150200425819807047FC08032270B50446FFF7DAFF97
S31502004268064648B9237B4BB1A5680C3563681B78AB
S31502004278012B06D0F1232B70304670BDA568083590
S31502004288F4E721692046FFF7D5FFF3E72DE9F04168
S3150200429805460E464160002707730B7C3E4C04EB2D
S315020042A803248460EFF31088012181F310883B4AC6
S315020042B8D068337CC3F1050301FA03F320EA03034A
S315020042C8D360D3681E2000F0D1FA88F310882772CB
S315020042D8237A13F0020FFBD10023A3722B7B7BB147
S315020042E8AA680C32F369197808461C79DB7803F058
S315020042F8070341B9307A18B380F00200000105E0DD
S31502004308AA680832EEE750291DD0317A14710024C2
S3150200431894710343DBB25370C9B29170716828462F
S31502004328FFF788FF96F91230A3420EDA73696B61BA
S31502004338B369EB610020A861194B2B60BDE8F081D7
S3150200434800210846E2E70021E0E7727C1201D2B2B8
S3150200435803F1604101F5614181F80023114A42F8EF
S315020043682350114A03F5C65152F8210020F4803031
S3150200437842F8210052F82120BFF35F8F03F01F0194
S3150200438801228A405B099B0003F1604303F56143FE
S31502004398C3F880211A60C9E7001022400030204085
S315020043A8544741005C0903220060004070B584B09E
S315020043B8EFF30383103B5BB2224A03F5C65152F868
S315020043C8210020F4803042F8210052F821201E4AAA
S315020043D852F82340237B4BB3A5680C352B78DBB206
S315020043E862681278012A24D06269D2B1A66936B304
S315020043F896E807000DF1100C0CE9070013F0200FE0
S315020044081CBF00233371E3693360636930469847FA
S31502004418A36923B104AA12E9070083E807002B78E7
S31502004428DBB203F00F032B7004B070BDA568083524
S31502004438D4E7F4222A7003F0F0032B70D4E701AE16
S31502004448DCE700BF006000405C09032290F800C068
S315020044584CF0400C80F800C090F800C05FEADC1C03
S31502004468FAD00A7043F0C0030370037803F0BF035F
S3150200447803700378DB09FCD1704700001A4A92F8E8
S315020044882630DBB2928C02F00F02A2F10801032950
S3150200449825D8DFE801F0020C141C144A52F823301E
S315020044A8134AA2FB03235B08124A136070470F4A9A
S315020044B852F823300E4AA2FB03239B08F4E70B4A61
S315020044C852F823300A4AA2FB0323DB08ECE7074A21
S315020044D852F82330064AA2FB03231B09E4E70349E1
S315020044E851F82330D340DFE700E00140E001022221
S315020044F8ABAAAAAAB4090322034B00221A701A7895
S315020045081A781B78704700BF00C01340044B5B68DB
S31502004518C3F30903642B02D9014B01221A707047AF
S3150200452800C013407047000070B5844C4AF203532A
S31502004538A4F8FA33824B834A1A60834A5A604FF4C4
S3150200454800429A608149D9601A61814A5A61814A50
S31502004558DA61814A1A62814A9A61814A5A62814AB1
S315020045689A62FFF78BFF0A2384F8503A092384F8E4
S31502004578A23094F8003C2BB994F8013C13F0030FCF
S3150200458800F0D7806D4B93F8003C002B00F0C380F7
S315020045986A4B002283F8012C83F8002C674B002211
S315020045A883F832201A4692F83C3013F0080FFAD0F4
S315020045B8624B6D4AC3F8C82040F22342A3F84E2044
S315020045C8002083F84A004FF60212C3F8AC2040F2E4
S315020045D85142A3F84C20BFF34F8FBFF36F8F634A44
S315020045E8516921F400315161C2F85002BFF34F8F6D
S315020045F8BFF36F8F5E490A6822F440520A60BFF31E
S315020046084F8FBFF36F8F1A7D012161F302021A756C
S315020046181A46137D13F0100FFBD1554A136843F45B
S3150200462840531360BFF34F8FBFF36F8F4F4B5B69D6
S3150200463813F4003F13D1BFF34F8FBFF36F8F4B4B6A
S315020046480022C3F85022BFF34F8FBFF36F8F5A6908
S3150200465842F400325A61BFF34F8FBFF36F8F374B65
S31502004668002283F82A201A4692F83C3013F0200FCB
S31502004678FAD0FFF741FF3F4B5B68FA2B05D03D4B5B
S315020046883D4959605A68FA2AFBD13A4B9B687D2BF9
S3150200469805D0384B394999609A687D2AFBD1274C4F
S315020046A8374B236242F22013A384052384F826306B
S315020046B8FFF7E4FE01211E2000F0D8F8FFF726FFD7
S315020046C8FFF7DCFE2F4B4AF201521A80BFF35F8FC7
S315020046D801251D72BFF35F8F4FF425461E8084F8AD
S315020046E85350032284F83E20832384F83E300A235B
S315020046F825492648FFF7AAFE0A2302222449254805
S31502004708FFF7A4FE06232A4623492448FFF79EFEFE
S31502004718A4F8FA6370BD0121084B83F8001CC8206F
S3150200472800F0A4F8054A92F8003CDBB2012BFAD154
S315020047382EE74FF47A70FFF7F5FE2FE700E0014007
S31502004748E0010222006CDC0200127A0000366E01D9
S3150200475800CA9A3B5543DE130084D7170046C32383
S315020047680008AF2F00389C1C022B010000ED00E068
S3150200477800E001E000C01340FA00001E7D0000E1DF
S3150200478832342332002000406EE0014076E00140D8
S3150200479854E0014055E001405CE001405DE0014023
S315020047A8014B53F820007047E001022238B5284C25
S315020047B8002584F828500121C82000F057F884F80B
S315020047C82450224692F82430002BFBD1204A92F834
S315020047D8243043F0020382F8243092F8243013F08E
S315020047E8020FFAD11A4B002283F822201A4692F8AF
S315020047F82230002BFBD1164A92F8403023F0800370
S3150200480882F8403092F84030DB09FBD1104A92F820
S31502004818423023F0800382F8423092F84230DB09B4
S31502004828FBD10B4A92F8443023F0800382F84430D5
S3150200483892F84430DB09FBD1012000F007F9054B59
S31502004848002283F84C2C012000F0CEF838BD00BFB8
S315020048580020204000E00140704700BEFEE700004D
S31502004868A0F101000028FBD1704700BFF8B500FB94
S3150200487801F12F4B1B682F4A934219D303F5742370
S3150200488803F23F2302F1854202F5071202F683423A
S31502004898A2FB03239B0CA3FB01014FF0FF338342C8
S315020048A84FF000038B4140D308B1FFF7D9FFF8BD9B
S315020048B82148B0FBF3F04FF0000C0A46634652EA71
S315020048C84F13561A914294BF1F465F1E56EA8F0728
S315020048D88C19224647F1000352EACF034FF0FF3400
S315020048E894427CEB030C02D3B2FBF0F0DCE7B1FB9B
S315020048F8F0F14FF0000C0A46634652EA4F13541A77
S31502004908914294BF1D465D1E54EA8F050B1918463F
S3150200491845F1000150EACF014FF0FF3383427CEBA9
S31502004928010CC1D24FF0FF30BFE74FF0FF30BCE7B2
S31502004938B409032200127A0000CA9A3BF8B5104B52
S31502004948D3F80021D3F820511540002401260D4F33
S3150200495802E00134152C0AD006FA04F32B42F8D0E9
S3150200496857F82430002BF4D0E0B29847F1E7044B0D
S31502004978C3F810511A46D2F820312B42FBD1F8BDA2
S3150200498800C00040040903220278044B53F82200AF
S31502004998003818BF0120C000704700BF000002405F
S315020049A80278034B012143F822100020704700BF0A
S315020049B80000024010B40A4800220A4C122302E000
S315020049C80132013B08D030F8021F0029F8D002F55F
S315020049D8C65C44F82C10F3E75DF8044B704700BF39
S315020049E896B9000200600040EFF31082012383F3B8
S315020049F81088134B33F810309BB233B1104931F893
S31502004A081030013B9BB221F810300D4B33F81030B1
S31502004A189BB293B910B40B49B1F8FA339BB20A4C5C
S31502004A2834F8100043F4254323EA0003A1F8FA33C5
S31502004A3882F310885DF8044B704782F3108870473A
S31502004A48A409032200E0014020BC000210B4EFF3DF
S31502004A581081012383F310880F4B33F810309BB271
S31502004A686BB90E4AB2F8FA339BB20D4C34F810C041
S31502004A7843EA0C0343F425439BB2A2F8FA33064AE7
S31502004A8832F8103001339BB222F8103081F31088C5
S31502004A985DF8044B704700BFA409032200E00140F9
S31502004AA820BC000208B5094B1A688318B3F5803F83
S31502004AB804D807481044054A136008BD04F040FBB1
S31502004AC80C2303604FF0FF30F7E700BFB00903225B
S31502004AD8E001002200BE704708B500F03DF8FEF777
S31502004AE8FDFDFEE72DE9F8430646194BD3F800808B
S31502004AF8B8F1000F13D0002425465F68A14603E0EB
S31502004B0801350C3445450AD03B195A7AB242F7D1D7
S31502004B1838595A68121A494604F08CFAF0E70C4BCF
S31502004B289F6897B10024DD6802E00134BC420CD0CC
S31502004B38210105EB04135A7BB242F6D168585A682A
S31502004B48121A996804F01CFBEFE7BDE8F88300BF68
S31502004B58F0B900020000000070B58D4B8D4A5A610B
S31502004B68BFF34F8FBFF36F8F1B6803F47002B2F562
S31502004B78801F00F0958013F4600F00F09680864A35
S31502004B88136823F004031360BFF34F8FBFF36F8FCD
S31502004B987F4B4FF47002C3F88820804A9A6000203F
S31502004BA8FEF78EFDFFF7C0FC7D4B4AF20252A3F8D0
S31502004BB8FA23002283F8B02A4FF42542A3F8FA23EF
S31502004BC80120FEF77DFD774B83F30A88724B1B683B
S31502004BD813F0020F04D06E4B9B68B3F1007F78D0B6
S31502004BE80020FFF77FFFFFF749FCFFF7DFFD0320F1
S31502004BF8FFF72CFF00236C4819464FF00E0E4EF0B5
S31502004C0801E003F10C0220F8221001330FF007C865
S31502004C180320FFF7E9FE0320FFF718FF634B002284
S31502004C285A609A60DA601A610320FFF7DDFE5C4B70
S31502004C38D3F8D83313F0020F6FD0594BD3F8D833C1
S31502004C48574BD3F8D83313F0040F00F08380544B34
S31502004C58D3F8D8330120FFF745FFBFF34F8FBFF3D1
S31502004C686F8F4B4B0022C3F85022BFF34F8FBFF30F
S31502004C786F8F4F4B4F4A9B1A9E10002B07DD154626
S31502004C88002455F8043B98470134A642F9DC022071
S31502004C98FEF716FDFFF78EFE0020FFF7DDFD70BD5D
S31502004CA813F00F0F7FF46BAF65E73B4A136843F0C7
S31502004CB804031360BFF34F8FBFF36F8F4FF0E022E9
S31502004CC8936843F480339360BFF34F8FBFF36F8FBC
S31502004CD85EE7314A13695169C3F3C30309330122F3
S31502004CE802FA03F3DB0800240025002043F005C07E
S31502004CF8E0E802450FF005C0C1F3C303093302FA1F
S31502004D0803F3DB084FF0005243F007C0AFF300800D
S31502004D18E2E802450FF005C062E7214B93F810312D
S31502004D28002B8DD00120FFF791FE1D4A92F8103113
S31502004D3803F0C003802BF9D1194B002283F8102106
S31502004D481A4692F81031DBB23F2BFAD80120FFF748
S31502004D584BFE75E7124B93F81431002B3FF47AAFEA
S31502004D680120FFF773FE0E4A92F8143103F0C003CE
S31502004D78802BF9D10A4B002283F814211A4692F89D
S31502004D881431DBB23F2BFAD80120FFF72DFE61E77B
S31502004D9800ED00E001020E0000E001E00000000262
S31502004DA800E00140E0010122000D404000402040A1
S31502004DB82CC3000214C300020B460146184603F030
S31502004DC82DBA7FB50024102315461268CDE90234A0
S31502004DD80368CDE900449E696B46B0479DF80430E6
S31502004DE803F00603062B05BF009B012020462B6015
S31502004DF804B070BD009890420CBF0620012070478F
S31502004E08034B10B50446036000F01BFC204610BD98
S31502004E1860BC000210B50446FFF7F2FF08212046DF
S31502004E2800F042F8204610BD2DE9F041DDF8188061
S31502004E381F4606461546DDE90834984507D10799FF
S31502004E4800F002FC18B165710020BDE8F081394610
S31502004E58304600F0F9FB0028F6D00123C4F800809A
S31502004E682571A371F0E738B515461C4600F0ECFB30
S31502004E7820B108232560E3600623237138BD2DE996
S31502004E88F04105460C4616461F4600F0DDFB48B9BA
S31502004E98032F07D823683246294620465B69BDE8B0
S31502004EA8F0411847BDE8F08100F0E4BB1EB400F0FB
S31502004EB89CF81EBC02F0BEF80378472B17D143783C
S31502004EC84E2B14D18378552B11D1C378432B0ED18F
S31502004ED80379432B0BD143792B2B08D183792B2BBF
S31502004EE805D1C07901288CBF002001207047002017
S31502004EF8704700002DE9F3411D4603780E46024627
S31502004F08472BC17913D143784E2B10D18378552B71
S31502004F180DD1C378432B0AD10379462B07D143799E
S31502004F284F2B04D18379522B01D1002930D0104658
S31502004F38FFF7C2FF80F001040023E4B200200190CB
S31502004F484BBB54BB01290ABF52F8203CA2F12003ED
S31502004F58783B01290CBF52F8202C58321C68019262
S31502004F68236820469B689847C8B1019B02271B689D
S31502004F780193336801AA21463046D3F810800123EB
S31502004F88C04770B1019B2B60384602B0BDE8F0817C
S31502004F9801230C46D2E7044CE2E7044CE0E701277A
S31502004FA8E7E70746F0E700BFA4BC0002D0BC000250
S31502004FB810B5044600F032F802462046A4F1200154
S31502004FC8FFF77AFF60B154F8043C0133012B44F829
S31502004FD8043C03D1936844F8083C9160012010BD53
S31502004FE89368002BF9D000F095FA10B500F016F880
S31502004FF8826801460AB900F08DFA02F120042046B9
S31502005008FFF75AFF40B1D369013BD36113B99069DF
S3150200501888609361204610BD8860FBE700487047A8
S31502005028B809032200231A4630B510F8015B05F0C9
S315020050387F049440073223432C06F6D40B6030BD16
S3150200504800231A4630B510F8014B04F07F05954047
S3150200505807322B432506F6D41F2A06D8640642BF12
S315020050684FF0FF3404FA02F213430B6030BD5028A6
S315020050782DE9F3410646884615461F4608D1D01C37
S3150200508820F0030050F8044B3C6002B0BDE8F08102
S3150200509800F00F030C2B2ED8DFE803F025071D2599
S315020050A8292D2D2D2D182125290001A92846FFF77E
S315020050B8B9FF019C002CE7D006F07003102B08BF3D
S315020050C8A8463306444448BF2468DDE701A92846B2
S315020050D8FFF7B6FFEDE7284630F8024BEAE728461F
S315020050E830F9024BE6E7284650F8044BE2E7284631
S315020050F850F8084BDEE702F0BDF908B50346084644
S31502005108FF2B0DD003F07003302B0FD004D8202BC1
S3150200511808D005D902F0AEF9402B0BD0502BF9D1A5
S31502005128002008BDBDE8084002F0A1B9BDE8084064
S3150200513802F09AB9BDE8084002F086B970B50C4685
S3150200514815461E4601462046FFF7D7FF3346014657
S315020051582A462046BDE87040FFF789BF73B50C465C
S315020051681546064608B102F06FF92246286012F87B
S31502005178011BFF291CD02B1D3046FFF7DFFF024615
S31502005188104610F8013BFF2B14D0102301A92B75EA
S31502005198FFF748FF019B0344EB6001A910F8013BA6
S315020051A86B75FFF73FFF019B03442B6102B070BD8D
S315020051B86860E5E72B750023EEE71FB503AB0A46E1
S315020051C800930023194601F051FB039805B05DF8D8
S315020051D804FB00002DE9F04F002393B005460C4668
S315020051E8079300F003031646012B10D0022B03D0B7
S315020051F8002B3BD101073BD53146204602F00EF97A
S3150200520818B1092013B0BDE8F08F0820FAE70207A3
S3150200521823D5022305F008050C2230460C941D43BB
S315020052280CAB00930023194601F046FB062D21D14B
S31502005238D4F83080B8F1000FD4E90A790CBF4FF0E0
S31502005248010A4FF0030A15F0080500F00981BAF1C0
S31502005258010F40F0018100F05DF90F6A30460D2119
S31502005268FFF7ABFF8742D4D10623D3E702F002F950
S315020052780123CFE7304602F0EDF881460028BBD07D
S315020052880CAA01463046FFF769FF9DF844B031463D
S3150200529803905846FFF731FF0F2102900E903046D1
S315020052A8FFF78BFF20F00108039A08F1FF38109FD9
S315020052B8974215D800274FF0010AB846EB07C2D520
S315020052C8BAF1020F98D0079D0D213046FFF775FFF8
S315020052D8C4F83080C4E90805C4E90A79062091E7CA
S315020052E89DF845A008AB00205146FFF727FF09ABFA
S315020052F8024651460020FFF721FF0AAB02465146F5
S315020053080020FFF71BFF0BA9FFF78CFE0C9B0899E1
S3150200531802460B44434551D809990B444345C6D91D
S31502005328DDF82880B8F1000F01D00D9B98440B9B3D
S31502005338002B3BD0B8F1000F3FF45EAF15F0080220
S3150200534804923DD0472222704E2262705522A270E4
S315020053584322E270462222714F2262715222A271C0
S315020053680022E271013BF8180023039309A9FFF70B
S3150200537867FE0AA90590FFF763FE099F002F68D00A
S3150200538842DDBBF1FF0F3BD00BF00703042B3FF6C0
S315020053986DAF01A252F823F0DB53000275520002E8
S315020053A80D540002DB53000205540002B8F1000F47
S315020053B83FF422AF00274FF0020A7FE73A4676E724
S315020053C8E279012A0CBF54F8202C04F158020792FC
S315020053D8C8E704220F990BAB584602FB171202992B
S315020053E8FFF745FE0B9931B13CB307AB00222046C5
S315020053F8FFF780FD08B34FF0030A5FE70822E9E7E3
S315020054080022E7E70222E5E76FF040420F9BD21B34
S3150200541803EB820AC4B10499B1B9079BAAF1040A3B
S315020054280B935AF8041F0029E5D00BAB002251440E
S315020054382046FFF75FFD0028F3D00A98002859D0C6
S31502005448059B0344184691E753F82230002BF4D102
S31502005458D1E701230393F0E7002F1FDA00F06AF879
S31502005468BAF1010F02D1204600F023F9002F15DA0E
S315020054780CAA49463046FFF771FE31469DF84400AC
S31502005488FFF73BFEFA430F9B03EB820353F82520F3
S3150200549852BB0422C4E90A50C4E90C2300230BAD0B
S315020054A830460B941A461946009501F005FA002370
S315020054B801223046194600950B9701F0FDF90F2196
S315020054C83046FFF77AFE00F0010000230F2240EA79
S315020054D80800009519460B90304601F0EDF9BAF12D
S315020054E8020F03D007208DE60135CFE72046FFF7E6
