S01D000041726D53796E635F536F6C7574696F6E5F435055302E7372656317
S31502000000E001022289560002ED54000285560002E2
S315020000108556000285560002855600028556000264
S31502000020000000000000000000000000FD240002A5
S315020000308556000200000000152500027D250002FB
S31502000040C14D00023947000295460002CD47000223
S31502000050194800023947000295460002CD470002C0
S31502000060194800023947000295460002CD470002B0
S31502000070194800023947000295460002CD470002A0
S30D02000080194800029D49000225
S3150200008800000000010100001040000010400000BE
S315020000981040000010400000C56000027D8000028A
S315020000A843000000000000000000000000000000FD
S315020000B80000000000000000000000000000000030
S315020000C843000000000000000000000000000000DD
S315020000D80000000000000000000000000000000010
S315020000E843000000000000000000000000000000BD
S315020000F800000000000000000000000000000000F0
S31502000108430000000000000000000000000000009C
S3150200011800000000000000000000000000000000CF
S31502000128430000000000000000000000000000007C
S3150200013800000000000000000000000000000000AF
S31502000148430000000000000000000000000000005C
S31502000158000000000000000000000000000000008F
S31502000168430000000000000000000000000000003C
S31502000178000000000000000000000000000000006F
S31502000188D1BA00024BB000020000000020CF0002E4
S3150200019830CC0002C1CD0002C1CD0002C1CD0002A1
S315020001A8C1CD0002C1CD0002C1CD0002C1CD0002FF
S315020001B8C1CD0002C1CD0002FFFFFFFFFFFFFFFF17
S315020001C8FFFFFFFFFFFF00000100415343494900BB
S315020001D8000000000000000000000000000000000F
S315020001E80000000000000000000041534349490096
S315020001F800000000000000000000000000000000EF
S31502000208000000000000000000000000900100222B
S3150200021800000000640B0322CC0B0322340C0322D9
S3150200022800000000000000000000000000000000BE
S3150200023800000000000000000000000000000000AE
S31502000248000000000000000000000000000000009E
S3110200025800000000000000000000000092
S315020002680348044B834202D0034B03B11847704735
S31502000278DC010022DC01002200000000064B0749CF
S31502000288C91A891048BF0131491003D0044B0BB172
S3150200029801481847704700BFDC010022DC01002232
S315020002A80000000010B5064C237843B9FFF7D8FFC3
S315020002B8044B13B10448AFF300800123237010BD29
S315020002C80C0202220000000028F1C90208B5054BFB
S315020002D81BB105490548AFF30080BDE80840FFF7A2
S315020002E8CDBF00BF000000001002022228F1C90299
S315020002F80160027143719DF800308371704710B531
S315020003080446006808B103F0ABFF204610BD0000A2
S31502000318F0B5ADF5057D07460C46037943BB0020CB
S31502000328C0F5FF720132214604AB184409F082FC7B
S3150200033800238DF80F32224B1B7853B94FF47A7685
S3150200034801251F4C3146284605F064F82378002B10
S31502000358F8D01B4B00221A7004A809F004FD0246C5
S315020003683B6804A9186803F0C8FE0DF5057DF0BDC3
S31502000378144B1968144AA2FB01329209134BA3FBC8
S315020003880203DB0A4FF47A7000FB1211029110483D
S31502000398A0FB02514909C1EB0111A2EB81010191AE
S315020003A84FF4616101FB1322A0FB0202520900927B
S315020003B8084A4FF4007104A809F084FBB0E700BFAD
S315020003C80400002228020222D34D6210C5B3A2916C
S315020003D889888888F4BE00020EB410B5C3B00446F4
S315020003E845AB53F8042B01934FF4807102A809F028
S315020003F8E9FB02A92046FFF78BFF43B0BDE8104090
S3150200040803B0704708B4F0B5ADF50C7D04460E4648
S31502000418154691AB53F8042B4B934CAF4FF48071AE
S31502000428384609F0CFFB019700962B46074A4FF448
S31502000438907103A809F046FB03A92046FFF768FF57
S315020004480DF50C7DBDE8F04001B0704710BF000203
S315020004580EB410B5ADF50D7D04468FAB53F8042BDB
S315020004684B934FF480714CA809F0ACFB6379002BCF
S315020004784CAB0093094A0A4B08BF1346094A4FF484
S31502000488907103A809F01EFB03A92046FFF740FF57
S315020004980DF50D7DBDE8104003B0704774BF00022C
S315020004A860BF000258BF00020EB410B5ADF50D7D4F
S315020004B804468FAB53F8042B4B934FF480714CA828
S315020004C809F080FB6379002B4CAB0093094A0A4B6F
S315020004D808BF1346094A4FF4907103A809F0F2FAC5
S315020004E803A92046FFF714FF0DF50D7DBDE8104060
S315020004F803B0704794BF00027CBF000258BF0002D7
S315020005080160426000228260C26002610275704721
S31502000518026943689A420DD202688368D154836895
S3150200052801334268B3FBF2FC02FB1C3383600369A6
S31502000538013303610A2904BF01230375704702695F
S315020005489AB110B4C3680168C95C01334468B3FB45
S31502000558F4FC04FB1C33C360013A02610AB90023A6
S31502000568037508465DF8044B70474FF0FF30704735
S3150200057800697047007D70472DE9F041037DCBB1D4
S31502000588064688464D1E571E00243046FFF7D7FFFB
S31502000598002808DBBC4205D0013405F8010F0A28F9
S315020005A8F3D100E03C46002308F8043033752046B0
S315020005B8BDE8F0810024FAE7844603699A4228BF17
S315020005C81A461046DCF80C3092B130B54C1E42F091
S315020005D801E0DCF80010C95C04F8011F0133DCF8FD
S315020005E80410B3FBF1F501FB15330FF00FC030BD54
S315020005F8704710B5044602F09BFFA06023685B684B
S315020006082046984710BD000008B50379042B00D090
S3150200061808BD017A0148FFF77BFFF9E76004022269
S3150200062808B50379042B00D008BD017A0148FFF703
S315020006386FFFF9E7480202222DE9F047B8B0804673
S315020006483148FFF797FF10B938B0BDE8F087802226
S3150200065818A92D48FFF790FF0028F5D0202200217F
S31502000668684609F0CDFA6F4618A80026B1464FF03B
S315020006782C0A0BE087ED000A0136E4B20D2C20D9CC
S31502000688284600F801AB0437082E1CD090F9004022
S3150200069805464CB12C2C07D00A2C05D00D2C03D0BC
S315020006A815F9014F002CF5D185F80090494608F056
S315020006B867FB052EDEDC87ED000A0136E4B20D2C57
S315020006C81DD8052EC0DD08AC6D460FCD0FC495E8C2
S315020006D80F0084E80F0010AC0C4D0FCD0FC495E83F
S315020006E8070003C4227002F023FF1790D8F81000FF
S315020006F800231A4608A9006802F090FAA4E72846D9
S3150200070800F801AB0437C1E7600402222C02022278
S315020007182DE9F043ABB08046564D4FF0AA090DF1CC
S3150200072849062846FFF724FF192840F2A0802846E2
S31502000738FFF705FFAA28F4D18DF830900CAF3C4696
S315020007482846FFF7FCFE04F8010FB442F8D19DF8DB
S3150200075849300D2BE5D113AB4FF0040E4EF001E0F4
S31502000768B9787A7842EA01221A803979FA7842EA1D
S3150200077801225A80B9797A7942EA01229A800637A1
S3150200078806330FF013C801238DF864303A4C274616
S315020007980DF14C0CBCE80F000FC79CE8070003C715
S315020007A83A70BDF94C3007EE903AF8EEE77ABDF9A1
S315020007B84E2007EE102AF8EEC76ABDF9501007EE6A
S315020007C8101AB8EEC77A67EEA77A66EEA66A77EEC9
S315020007D8A67A27EE077A77EE877AB1EEE76ABDF947
S315020007E8520007EE900AF8EEE77ABDF9547007EE62
S315020007F8107AF8EEC76ABDF956C007EE10CAB8EE07
S31502000808C77A67EEA77A66EEA66A77EEA67A27EE23
S31502000818077A77EE877AB1EEE77AB7EEC77A8DED81
S315020008280A7BCDF820C007970690B7EEC66A8DED0B
S31502000838046B029101920093104B114A1149124816
S31502000848FFF7E0FD202200211AA809F0D9F922AF04
S315020008580FCC0FC794E8070003C73A70D8F8100000
S3150200086800231A461AA9006802F0D8F959E72BB0EC
S31502000878BDE8F083480202222C0202229CBF000233
S31502000888D4BF0002DCBF00029802032238B5044630
S3150200089807490848FFF708FE02252046FFF738FFF2
S315020008A82046FFF7C9FE284602F0C6FFF5E700BF55
S315020008B8E4BF00029802032208B54FF48062054994
S315020008C80548FFF71DFE4FF4007204490448FFF776
S315020008D817FE08BD78040222600402226002022280
S315020008E84802022210B504460379042B03D0237961
S315020008F8022B05D010BD017A0348FFF709FEF6E779
S31502000908024B01221A70F5E7F808022205000022B6
S315020009180EB4F0B582B007AB53F8042B01937D21D0
S31502000928134809F04FF900281CDB114BFF221A5411
S3150200093803445A709A70C71C0E4B1B7853B94FF46E
S315020009487A7601250B4C3146284604F063FD237856
S31502000958002BF8D0074B00221A703A46044906487B
S3150200096803F0CBFB02B0BDE8F04003B0704700BF0E
S315020009787808022205000022440A03222DE9F04FD4
S3150200098889B0204C204E04F1100ADFF890804FF00F
S31502000998000910E05846FFF7D2FD0137BD42F9D1EA
S315020009A8039B0093194B1A4A1A491B48FFF72AFD5B
S315020009B80436544522D04046FFF7DAFD54F8045B64
S315020009C88542F5D8CDF81090CDF81490CDF8189048
S315020009D8CDF81C902A4604A94046FFF7EDFD336878
S315020009E803932A46194604A809F0FAF80028DFD123
S315020009F8002DD5D00027DFF824B0CBE709B0BDE833
S31502000A08F08F00BFF8C3000208C40002FCBF000250
S31502000A1800C0000208C0000298020322F808022257
S31502000A2808B5DFED087A20EE270AFDEEC07A17EE42
S31502000A38903A4A1C0449FFF76BFF032002F0FCFEBA
S31502000A4808BD00BF0000C84210C0000270B50546C6
S31502000A5816464C1C22460B49FFF75AFF032002F0A2
S31502000A68EBFE002E4EF2492243F6B16308BF134647
S31502000A78224605492846FFF74BFF032002F0DCFE13
S31502000A8870BD00BF20C0000234C0000238B504465B
S31502000A980D46FDEEC07A17EE902A0E49FFF738FF8B
S31502000AA8032002F0C9FE0C492046FFF731FF032056
S31502000AB802F0C2FE002D43F6B1624EF2492318BF78
S31502000AC81A4606492046FFF723FF032002F0B4FE22
S31502000AD838BD00BF48C000025CC0000274C00002F4
S31502000AE82DE9F0412DED028B96B004462A492B4892
S31502000AF8FFF7DAFC0027DFF8A88039E00BAD0DF125
S31502000B08040CBCE80F000FC5BCE80F000FC59CE833
S31502000B18030085E803000BAE0025B6EC010A294658
S31502000B282046FFF77DFF0135062DF6D10DF1470662
S31502000B38002516F8012F82F0010229462046FFF702
S31502000B4885FF0135062DF4D11DE09DED018AB7EE2C
S31502000B58C87A53EC172B41461048FFF73DFC394635
S31502000B68B0EE480A2046FFF791FF322002F064FEF3
S31502000B782046FFF703FF23693A4601A9186802F0DF
S31502000B8801F90128BAD063693A4601A9186802F040
S31502000B98F9F80128E9D1D8E788C0000298020322A9
S31502000BA89CC0000238B505460C460A460549FFF7B9
S31502000BB8AFFE642C00D038BD03492846FFF7A8FECD
S31502000BC8F9E700BFB0C00002C4C0000208B580221F
S31502000BD802490348FFF794FC08BD00BF1009022228
S31502000BE8F808022210B5002402F10C0E04E00C30BB
S31502000BF80C310334092C1CD013468446B3EC017A13
S31502000C08D1ED017AD3ED026A67EEA67AD1ED006AD2
S31502000C1827EE267A77EE877A91ED027AD3ED056A80
S31502000C2827EE267A77EE877AECEC017A7345E5D1D8
S31502000C38DDE710BD0B462431D3ED007A92ED007A3A
S31502000C4867EE877A93ED017AD2ED016A27EE267A64
S31502000C5877EE877A93ED027AD2ED026A27EE267A42
S31502000C6877EE877AE0EC017A0C338B42E4D170474F
S31502000C78F0B52DED068BC9B015461E4691ED00AAB4
S31502000C88DFED6F7A2AEE27AAD1ED019A69EEA79AC5
S31502000C98D1ED02AA6AEEA7AAD1ED038A68EEA78A5F
S31502000CA891ED048A28EE278A91ED059A29EE279A6C
S31502000CB8B0EE6A0A05F0A0FC10EE107AB0EE6A0AE7
S31502000CC805F0A6FB3F97002440948DED410A429415
S31502000CD8F7EE00AACDED43AA4494F1EE407ACDEDA3
S31502000CE8457A46944797B0EE4A0A05F085FC10EE17
S31502000CF8107AB0EE4A0A05F08BFBCDED36AA379488
S31502000D08389439943A97F1EE407ACDED3B7A3C9491
S31502000D188DED3D0A3E97B0EE690A05F06DFC10EEC0
S31502000D28107AB0EE690A05F073FB2D97F1EE407A58
S31502000D38CDED2E7A2F948DED300A31973294339475
S31502000D483494CDED35AA36AA3FA924A8FFF74AFF5F
S31502000D582DAA24A91BA8FFF745FF18941994394B05
S31502000D681A9318AA1BA92846FFF764FFB0EE490A88
S31502000D7805F042FC10EE107AB0EE490A05F048FB7F
S31502000D883F978DED410AF1EE407ACDED457A4797C8
S31502000D98B0EE680A05F030FC10EE107AB0EE680A7A
S31502000DA805F036FB3A97F1EE407ACDED3B7A8DEDBA
S31502000DB83D0A3E97B0EE480A05F01EFC10EE107A80
S31502000DC8B0EE480A05F024FB2D97F1EE407ACDEDF8
S31502000DD82E7A8DED300A319736AA3FA924A8FFF755
S31502000DE801FF2DAA24A90FA8FFF7FCFE0FAA1BA92B
S31502000DF806A8FFF7F7FE03940494134B059303AA78
S31502000E0806A96846FFF716FFD5ED007A9DED007A2A
S31502000E1877EE877AC6ED007AD5ED017A9DED017AED
S31502000E2877EE877AC6ED017AD5ED027A9DED027ADA
S31502000E3877EE877AC6ED027A49B0BDEC068BF0BD2D
S31502000E4835FA8E3C3333B3BEB81E85BE2DE9F04162
S31502000E582DED028BACB005465C495D48FFF724FBD5
S31502000E684FF0000844469FED5B8ADFED5B8A04E09B
S31502000E788DF8AC409DF8AC3013BB2B698DF86440F5
S31502000E884FF0FF320BA9186801F07CFF0128EFD159
S31502000E980DF16C0C0DF12C0EBEE80F00ACE80F003C
S31502000EA8BEE80F00ACE80F00BEE80F00ACE80F0082
S31502000EB89EE80F008CE80F0001238DF8AC30D9E7C5
S31502000EC81194019402940394049408AB05AA1BA9ED
S31502000ED82846FFF7CDFEDDED057A67EE887ACDED79
S31502000EE80B7ADDED067A67EE887ACDED0C7ADDEDC2
S31502000EF8077A67EE887ACDED0D7ADDED087A67EE28
S31502000F08887ACDED0E7ADDED097A67EE887ACDED2F
S31502000F180F7ADDED0A7A67EE887ACDED107A9DF8BA
S31502000F28A470002F2ED1219B01932A9E0296A869AE
S31502000F382346224601A9006801F070FEE8692346A5
S31502000F48224601A9006801F069FE229B03930496D2
S31502000F58286A2346224603A9006801F05FFE002F8D
S31502000F688BD002F0E5FA0746A0EB0803272B84D9B3
S31502000F7811966869234622460BA9006801F04EFEBF
S31502000F88B8467AE70DF18A020BAB0EA90232B2F91C
S31502000F98060007EE100AB8EEC77AD3ED006AB2F970
S31502000FA8000007EE900AF8EEE77A66EEA86A77EE90
S31502000FB8A67AE3EC017AD3ED027A67EEA87A77EE9F
S31502000FC8877AC3ED027A9942E0D1ACE710C10002F2
S31502000FD89802032200007A4400000000F0B5A5B08A
S31502000FE8044629492948FFF75FFA294F294E2A4D0F
S31502000FF805E000238DF840309DF84030C3B9636C94
S315020010084FF0FF3211A9186801F0BCFE0128F0D191
S315020010180DF1240C0DF1440EBEE80F00ACE80F00EA
S315020010289EE807008CE8070001238DF84030E3E7C5
S3150200103809AA04F1100111A801F060F80F9B239385
S31502001048A06C00231A4611A9006801F0E7FD1C9B53
S3150200105807939DF86C300693BDF86A3005939DF8A0
S3150200106868300493139B03939DF848300293BDF8A6
S31502001078463001939DF8443000933B463246294652
S315020010880248FFF7BFF9BAE728C10002980203220D
S3150200109848C10002D4BF000278C1000210B52DED86
S315020010A8048B82B09FED328A9FED329ADFED328A47
S315020010B810240094F0EE481AB62396220021B3EEC5
S315020010C8041AF0EE490AB0EE680A2C4801F07CF8D8
S315020010D80094F0EE481AB62396220121B3EE0E1AB0
S315020010E8DFED270A9FED270A274801F06DF80094DD
S315020010F8F0EE481AB62396220021B2EE041AF0EE52
S31502001108490AB0EE680A214801F05EF80094F0EE4A
S31502001118481AB62396220121B2EE041ADFED1C0AFA
S315020011289FED1C0A1C4801F04FF80094F0EE481A8D
S31502001138B62396220021B7EE001AF0EE490AB0EE5F
S31502001148680A164801F040F80094F0EE481AB623E9
S3150200115896220121B2EE041AF0EE490AB0EE680AA6
S315020011680F4801F031F802B0BDEC048B10BD00BF88
S315020011786666E63F0000B4420000B4C2300A0222A4
S315020011880000FA420000B4C1100A0222F009022243
S31502001198000000000000F4C2D0090222B0090222AF
S315020011A8900902222DE9F04F83B08B4601921F4621
S315020011B80D9D0E9E0F9CDDF840A0DDF84490DDF8EB
S315020011C84880DFEDAD7A70EEA70A32EE272A70EE76
S315020011D8E77A20EE007A67EEA76A37EE267A61EE9C
S315020011E8016A37EE267AF1EEC76A9FEDA47AF4EE23
S315020011F8C76AF1EE10FA40F329819FEDA16A86EEDD
S31502001208267A60EE076A9FED9F6A76EE866A67EE31
S31502001218870ADFED995A70EEA50A21EE077A37EEAC
S31502001228067AC5ED006AC6ED000A84ED007A9FEDDE
S31502001238957A30EE070A31EEC00ADFED8F6A77EE4D
S31502001248A67A72EE677A31EE071A32EEC11A20EEE4
S31502001258007A67EEA76A37EE267A61EE016A37EEFA
S31502001268267AF1EEC76A9FED857AF4EEC76AF1EE41
S3150200127810FA40F3F0809FED846A86EE267A20EE15
S31502001288070AD5ED006A76EE806ACAED006A67EE4D
S31502001298877AD6ED006A76EEA77AC9ED007A21EE4C
S315020012A8071AD4ED002A71EE222AC8ED002AD4EDD7
S315020012B8000AF1EE600A95ED000A05F063F88BED77
S315020012C8000AD5ED007AD6ED006A94ED007A67EE4B
S315020012D8A77A66EEA66A77EEA67A27EE077A77EEF9
S315020012E8877AB1EEE77A27EE077ADFED687A77EE44
S315020012F8C77A9FED677A87EE870AFFEE007AB4EE21
S31502001308E70AF1EE10FA00F1AB80F7EE007AB4EED6
S31502001318670AF1EE10FA37FE800A05F007F8DFEDE4
S315020013285D7A30EE670A019B83ED000ADAED007AF0
S3150200133899ED007ADFED506A37EE667AD8ED006AE3
S3150200134867EEA77A27EE077A77EE877A66EEA66AB7
S3150200135877EEA67AB1EEE77A27EE077ADFED4E7ACE
S3150200136877EEC77A9FED4D7A87EE870AFFEE007A07
S31502001378B4EEE70AF1EE10FA75D4F7EE007AB4EE97
S31502001388670AF1EE10FA37FE800A04F0CFFFDFEDA6
S31502001398447A30EE670A0C9B83ED000A95ED006AE3
S315020013A8DFED377A86EE277AD6ED004A94ED005AB3
S315020013B8C5EE276A66EEA67ADFED325A77EEA57A89
S315020013C867EE075A77EEA57AF1EEE75ADFED357A38
S315020013D8F4EEE75AF1EE10FA48DDC6EEA50AB1EECA
S315020013E8477AC7EE256ADAED007A77EEC67A9FED76
S315020013F8267A87EE870AD9ED007A77EEE47AC7EE7F
S31502001408875A98ED006A36EE456AC6EE077A60EEA6
S31502001418800A9FED1C7A25EE876A70EE860A66EECA
S31502001428A76A70EEA60A20EE070A30EE250A67EECC
S31502001438877A30EE270AF1EE600AB1EE400A04F026
S31502001448A1FF87ED000A03B0BDE8F08FF0EE406A0F
S31502001458B0EE417AE5E6CAED001A89ED002A24E7DC
S31502001468BFEE000A59E7BFEE000A8EE7DFED056A0E
S31502001478F7EE000AB7E700BF0000F2420AD7233C9C
S31502001488AE17844300000000DD8439435BE9A447B4
S31502001498C5BC7947DB0FC93F8189CB475673BF471E
S315020014A8DB0F49406F12833A2DE9F0472DED0C8B7D
S315020014B8C2B0804688498948FEF7F6FF9FED88BA8A
S315020014C8DFF830927EA7D7E900679FED7FCB9FEDC5
S315020014D880DB00240025D8F810304FF0FF323BA9F4
S315020014E8186801F04FFC0128F5D19DED3B8ADDED28
S315020014F83C8A9DED3D9ADDED3E9A9DED3FAADDEDD6
S3150200150840AADDF804A13AAB069339AB059338AB8A
S31502001518049337AB039336AB029335AB019334ABE3
S31502001528009333AB32AA31A9F0EE6A2AB0EE4A2A00
S31502001538F0EE691AB0EE491AF0EE680AB0EE480AF9
S315020015484046FFF72FFECDF804A1DDED317A67EEAE
S315020015588B7ACDED3B7A9DED327A27EE0B7A8DEDBD
S315020015683C7ADDED336A66EE8B6ACDED3D6A9DED1A
S31502001578346A26EE0B6A8DED3E6ACDF8FC90CDF8FC
S3150200158800919DED355ADDED36BADDED375A65EE39
S31502001598054A2BEEAB4A74EE844A25EEA54A74EE4A
S315020015A8844AB1EEE42A9DED384ADDED394ADFED8B
S315020015B84D3A74EEE33A9DED3A3A64EE042A63EE46
S315020015C8A33A72EEA33A63EE032A73EEA23AB1EE97
S315020015D8E31A74EE453A74EEEB1A73EE652A63EE75
S315020015E8A33A61EEA11A73EEA13A62EEA22A73EE4B
S315020015F8A23AB1EEE30ACDE92E67B7EEC00A8DED3F
S315020016082C0B8DED2ACBB7EEC11A8DED281B8DED6D
S3150200161826DBB7EEC22A8DED242BB7EEC33A8DED43
S31502001628223BB7EEE43A8DED203BB7EEC44A8DED88
S315020016381E4BB7EEE53A8DED1C3BB7EEEB4A8DED48
S315020016481A4BB7EEC55A8DED185BB7EEEA5A8DED11
S31502001658165BB7EECAAA8DED14ABB7EEE95A8DED55
S31502001668125BB7EEC99A8DED109BB7EEE85A8DED6F
S315020016780E5BB7EEC88A8DED0C8BCDE90A45CDE92E
S315020016880845B7EEC65A8DED065BB7EEE66A8DEDEE
S31502001698046BB7EEC76A8DED026BB7EEE77A8DED8E
S315020016A8007B114B114A12490C48FEF7ABFE002388
S315020016B81A463BA9D8F81400006801F0AFFA0AE7FF
S315020016C8000000A09B30674000000080431B7C405E
S315020016D8000000C0F582704080C100029802032211
S315020016E8E02E65420000F24294C1000254C2000292
S315020016F85CC200020000C07FB5EEC00AF1EE10FA25
S3150200170809D4DFED0C7AB4EEE70AF1EE10FA04DD3D
S315020017189FED080A01E09FED080A9FED067AC0EEE2
S31502001728077A9FED067A67EE877A9FED050A37EE06
S31502001738C00A70470000C842000000000000344397
S315020017480000B442F0B52DED028BA7B0044650490D
S315020017585048FEF7A9FE00259FED4F8ADFED4F8A16
S315020017685DE01EAE0DF13C0CBCE80F000FC69CE80E
S31502001778070086E8070001267CE0D0ED007A67EECE
S31502001788A87A91ED007A77EE877AE3EC017A04314A
S315020017980430013A04D0002EEFD1D1ED007AF4E7F5
S315020017A8B0EE680A25B1B0EE480A2046FFF7A4FF54
S315020017B88DED140AE06900231A460FA9006801F0A4
S315020017C82DFAB7EEC87A8DED0C7B9DED147AB7EE3D
S315020017D8C77A8DED0A7B9DED137AB7EEC77A8DED42
S315020017E8087B9DED127AB7EEC77A8DED067B9DEDE5
S315020017F8117AB7EEC77A8DED047B9DED107AB7EEB6
S31502001808C77A8DED027B9DED0F7AB7EEC77A8DED1D
S31502001818007B234B234A24491E48FEF7F3FDA3699E
S3150200182800221EA9186801F0ADFA012804BF9DED31
S315020018381E8A012523694FF0FF321EA9186801F096
S31502001848A1FA0128EBD10DF1580C0DF1780EBEE87C
S315020018580F00ACE80F009EE807008CE80700174661
S31502001868636900220FA9186801F08CFA01283FF46F
S3150200187878AF002600230F931093119312931393B4
S31502001888149315970FAB16A91EA8052283E700BF66
S3150200189860C20002980203220000484200000000CB
S315020018A878C20002B8C20002C0C200022DE9F043A3
S315020018B8B1B004465448E061544B236254220021D5
S315020018C808F09EF928220021206A08F099F9504961
S315020018D8504802F0DFFF0026DFF83891DFF848812A
S315020018E84D4F55E04C252A4609A91CA808F02EFAA0
S315020018F82A461CA904F1500008F028FA50E009AA61
S3150200190807AB93E8030082E8030004F19C0383E82B
S3150200191803004DE004F12406304603F009FE0828C8
S31502001928FAD04C2204F15001E06908F00FFAE36993
S31502001938D4F89C20DA64E3691D65304603F004FE98
S31502001948A121484602F0F6FFA36D059394F8543098
S315020019580493B4F85230039394F85030029394EDFA
S31502001968277AB7EEC77A8DED007B43463A462B496E
S315020019782B48FEF747FD2E4620E0284603F0E4FDF5
S31502001988A06900231A4604F12801006801F046F905
S3150200199823690A2209A9186801F0F4F90128A1D0D5
S315020019A86369002207A9186801F0ECF90128A6D094
S315020019B801F0BEFD0546831B132BABD8194B1B78CA
S315020019C8002BE5D0174B00221A7004F1240528468D
S315020019D803F0AEFD0828FAD0236A5A6AD4F8A4108E
S315020019E88A42CAD0C4F8A42004F1280E9C46BCE850
S315020019F80F00AEE80F00BCE80F00AEE80F009CE847
S31502001A0803008EE80300B8E728401C2200401C2287
S31502001A1844C60002780A0322F8C2000200C3000282
S31502001A2898020322500A0222C8C200028368B3F54A
S31502001A38803F00D070474368A22BFBD1014B01229D
S31502001A481A70F7E7500A022210B50446006801F038
S31502001A5881FA204610BD10B50446006801F07AFAEC
S31502001A68204610BD10B50446006801F073FA2046F8
S31502001A7810BD10B50446006801F06CFA204610BD88
S31502001A8810B50446006801F065FA204610BD10B587
S31502001A980446006801F05EFA204610BD10B50446F9
S31502001AA8006801F057FA204610BD10B504460846EC
S31502001AB800222260082101F089F804E0206801F07A
S31502001AC849FA03F0C7FF2060204610BD10B5044648
S31502001AD80846002222601C2101F078F804E02068FA
S31502001AE801F038FA03F0B6FF2060204610BD000068
S31502001AF870B500224E4B1A604021042001F066F8A8
S31502001B084B4B18604B4A4C49184603F029FF0022F2
S31502001B184A4B1A601C21042001F058F8474B1860FA
S31502001B28444C22464649184603F01AFF454D0221FF
S31502001B382846FFF7BAFF444E22463146284603F0A6
S31502001B480FFF424D02212846FFF7AFFF22463146D4
S31502001B58284603F005FF00223D4B1A60082104209F
S31502001B6801F034F805E0324B186801F0F3F903F096
S31502001B7871FF374B18602F4C22463649184603F038
S31502001B88EFFE354E04213046FFF7A0FF334D2246BD
S31502001B982946304603F0E4FE314E04213046FFF76B
S31502001BA895FF22462946304603F0DAFE2D4E0421D9
S31502001BB83046FFF78BFF22462946304603F0D0FE11
S31502001BC80022294B1A604C21042000F0FFFF05E091
S31502001BD81A4B186801F0BEF903F03CFF224B186055
S31502001BE8144A2249184603F0BBFE0022204B1A600B
S31502001BF82821042000F0EAFF05E0154B186801F0D9
S31502001C08A9F903F027FF1A4B18600A4A1949184618
S31502001C1803F0A6FE70BD144B186801F09BF903F099
S31502001C2819FF134B186801F095F903F013FF00BF6B
S31502001C38780A022200000022511A0002740A0222BD
S31502001C485F1A0002700A02226D1A00026C0A022248
S31502001C58680A02227B1A0002640A0222891A000210
S31502001C68600A02225C0A0222580A0222971A000213
S31502001C78540A0222A51A000210B50446034B036051
S31502001C88406808B101F0A6FB204610BD14C5000243
S31502001C9810B50446034B0360406808B101F09AFB8D
S31502001CA8204610BD14C5000210B50446034B036056
S31502001CB8406808B101F08EFB204610BD14C500022B
S31502001CC810B50446034B0360406808B101F082FB75
S31502001CD8204610BD14C5000210B50446034B036026
S31502001CE8406808B101F076FB204610BD14C5000213
S31502001CF810B50446034B0360406808B101F06AFB5D
S31502001D08204610BD14C5000210B50446034B0360F5
S31502001D18406808B101F05EFB204610BD14C50002FA
S31502001D2810B50446034B0360406808B101F052FB44
S31502001D38204610BD14C5000270B50D4D4FF48574CA
S31502001D480C4E01222146284602F052FE642001F07A
S31502001D5873FD31460848FEF77BFB002221462846DA
S31502001D6802F046FE4FF4617001F066FDE9E700BF36
S31502001D788009032204C300029802032210B504460E
S31502001D8801F0D6FBA06023685B682046984710BD21
S31502001D9830B583B004460846194600236360A3603B
S31502001DA80D4D25602373231D0193009023460B488E
S31502001DB801F0DEFA07E00A4B2360606808B101F019
S31502001DC809FB03F047FE012814BF002001202073F7
S31502001DD8204603B030BD00BF24C50002851D00029F
S31502001DE814C50002F0B585B0864B00225A609A6087
S31502001DF8854919601A731A1D0192012200924FF43D
S31502001E0800728249824801F0B3FA7E4B012814BF58
S31502001E180020012018737F4A1A607F4D2A467F499F
S31502001E28184603F09DFD7E4C7E4B4FF480620321DB
S31502001E382046FFF7ADFF7C4B23607C4E26612A467F
S31502001E487B49204603F08CFD7A4C7B4B4FF480622B
S31502001E5803212046FFF79CFF784B23602661784FC3
S31502001E686761784BA361784BE361784E26622A460E
S31502001E787749204603F074FD764C774B4FF400629F
S31502001E8803212046FFF784FF744B23602761744FB2
S31502001E9867612A467349204603F062FD724C734B0A
S31502001EA84FF4806203212046FFF772FF704B2360CE
S31502001EB82761704B6361A6616F4BE3612A466F49DE
S31502001EC8204603F04DFD6E4B00225A609A604E4939
S31502001ED819601A731A1D0192032200924FF40062C6
S31502001EE868494B4801F044FA654B012814BF0020A3
S31502001EF8012018731846644B40F8103B634B029353
S31502001F08634B0193634B0093634B644A644900F045
S31502001F18E1F811E03B4B634A1A60586808B101F0D0
S31502001F2859FA03F097FD564B5E4A1A60586808B18B
S31502001F3801F050FA03F08EFD51484F4B43645A4B59
S31502001F488364354A594903F00BFD594B00225A60FE
S31502001F589A602D4919601A731A1D0192032200927A
S31502001F684FF4806253492A4801F002FA504C01287C
S31502001F7814BF0020012020734F4B23604A4B236174
S31502001F88304B63614D4EA6610025E561256284F8F2
S31502001F9824504C22294604F1500007F031FEC4F8B9
S31502001FA89C50C4F8A050C4F8A4501B4D2A46444974
S31502001FB8204603F0D5FC434C434B4FF440720221B2
S31502001FC82046FFF7E5FE414B236026611E4B6361FF
S31502001FD82A463F49204603F0C3FC05B0F0BD284B0C
S31502001FE8304A1A60586808B101F0F4F903F032FD74
S31502001FF82F4B2C4A1A60586808B101F0EBF903F026
S3150200200829FD00BFF80B022224C5000210C30002F4
S31502002018851D000234C5000200000022291D0002A7
S31502002028E40B022218C30002CCC30002780A022279
S31502002038111D0002C00B022224C300023CC4000286
S31502002048740A0222700A02226C0A0222680A022210
S31502002058F91C0002A80B02225CC2000294C4000208
S31502002068640A0222E11C0002880B022230C3000223
S31502002078C0C40002600A02225C0A0222C91C0002CB
S315020020883C0B022238C3000270C4000290090222E5
S31502002098B0090222D0090222F0090222100A0222FB
S315020020A8300A022214C50002580A0222B11C000292
S315020020B8940A022244C30002ECC40002540A022211
S315020020C8991C00027C0A02224CC30002F0C30002D9
S315020020D8811C0002016042608360009BC360019B11
S315020020E80361029B436100238361C3610362436206
S315020020F88362C36280F83030704700002DE9F843E6
S315020021082DED048B06460F4615464C22002107F094
S3150200211877FD002D4DD097F8308088F001083C46AF
S3150200212807F11809DFED258A9FED259ADFED259A35
S3150200213802E004344C4524D0B5EC018AF0EEC87AA4
S31502002148F4EE497AF1EE10FAF3D8B0EE480A2068AE
S3150200215800F069F8D4ED067A38EE678AB0EEC88AD6
S31502002168B4EE698AF1EE10FAA8BF4FF001082068AA
S3150200217800F002F9B4EE680AF1EE10FA70FE288A47
S31502002188D7E7B8F1000F14D03D1F002404EB440032
S31502002198B0EE680A55F8041F06EB800000F002F953
S315020021A82B689B68AB610134062CEFD1012387F8B3
S315020021B830303046BDEC048BBDE8F88300000000E1
S315020021C8FFFF7F7F0AD7233C00B580ED000AC0EDEA
S315020021D8010A4FF0000EC0F808E0DFF820E0C0F868
S315020021E80CE080ED041A0175C2820376BDF804304C
S315020021F84383C0ED071A5DF804FB00BF0000C07FE9
S31502002208F0EE407A90ED000AB4EEE70AF1EE10FA23
S3150200221808DC90ED010AB4EEE70AF1EE10FA58BFAF
S31502002228B0EE670A704710B50446FFF7E9FF84ED7A
S31502002238030A10BD08B5B0EEC00A90ED077AC0EEE3
S31502002248077A438B07EE103AB8EE477A67EE877A33
S3150200225890ED040A27EE800A04F0A4F808BD0000EF
S3150200226882B00191A9B107EE901AB8EE677ADFED4E
S315020022780A7A77EEC77A9FED097A67EE877A9FED33
S31502002288087A67EE877AB7EE007A87EE270A02B0EF
S3150200229870479FED040AFAE70000804300004842AF
S315020022A8BD37863500000000B5EEC00AF1EE10FA19
S315020022B853D908B52DED028BB0EE608AF5EEC00A49
S315020022C8F1EE10FA4CD9DFED287AF4EEE70AF1EED0
S315020022D810FAC8BFB0EE678ADFED247AC0EE278A05
S315020022E8FFF7BEFFF0EE407AB5EEC00AF1EE10FA3D
S315020022F821D988EE006AB6EE007A28EE077A27EE2A
S31502002308067ADFED1B5AC7EE256A76EEA66AF4EE62
S31502002318E86AF1EE10FA15DA78EEE68ADFED147A53
S3150200232868EEA78A88EE880A36EE066A30EE060A4C
S31502002338BDEC028B08BDDFED0E7A68EEA78A88EE41
S31502002348880AF5E768EEA58A68EE808AB1EEE87A29
S3150200235837EE077A87EE270AEAE79FED060A7047FD
S315020023689FED040AE4E700BF00409C450000B44321
S31502002378000070420000000008B5C28A00EE902AEA
S31502002388D0ED037A90ED027A77EEC77AF0EEE77A25
S3150200239890ED040A017EF8EE600A27EE800AFFF73E
S315020023A883FF08BD2DE9F8432DED048B074600236C
S315020023B8036043608360D1ED038AF4EE688AF1EE26
S315020023C810FA13D60D46F0EE409A91ED028A38EECF
S315020023D8C88AB0EEC88AD1ED047A28EE278ADFEDDC
S315020023E8437AB4EEE78AF1EE10FA04D53846BDEC24
S315020023F8048BBDE8F883B1F8168091F8189049461F
S3150200240807EE908AF8EE670AB0EE480A2846FFF702
S315020024184BFFB0EE409AB4EE690AF1EE10FA48BFE5
S31502002428B0EE699A41F28833984528BF9846012644
S3150200243818E0A8EB060404EBD47406EB6404A4B211
S31502002448494607EE904AF8EE670AB0EE480A284669
S31502002458FFF72AFFB4EEC09AF1EE10FA46BF01342E
S31502002468A6B2A046B045E4D8494607EE906AF8EE09
S31502002478670AB0EE480A2846FFF716FFF0EE409ABA
S31502002488731E494600EE903AF8EEE00AB0EE480AA4
S315020024982846FFF709FF30EE490AB0EEC00A79EE80
S315020024A8C99AF0EEE99AB4EEE90AF1EE10FA44BFD7
S315020024B806F1FF36B6B22B7DF1EE687A002B48FE9E
S315020024C8A77AF5EEC07AF1EE10FAB4BF012300231B
S315020024D83B707E8087F80490B0EE680A2846FFF7BC
S315020024E8A9FEB860C5ED028A80E700BF17B7D138E2
S315020024F800BEFEE71EF0040F0CBFEFF30880EFF3F1
S315020025080980014908470000A12500020F4B1968F6
S31502002518EFF309821EF0100F08BF22ED108A22E996
S31502002528F04FEFF30B8342F8043D0A604FF01000B8
S3150200253880F31188BFF34F8FBFF36F8F01F0A0F9B5
S315020025484FF0000080F3118800F002B868010322F8
S31502002558074801680A6802CA81F30B88B2E8F04F95
S315020025681EF0100F08BFB2EC108A82F30988704772
S315020025786801032210B5EFF31184102383F311883F
S3150200258800F0DCFF18B1034B4FF080525A6084F317
S31502002598118810BD00ED00E008B5836913F8023C06
S315020025A8022B05D0032B05D9012383F31088FEE7F6
S315020025B8FFF7CEFF08BD000010B44FF0807440F854
S315020025C8044C22F0010240F8082C074A40F80C2C69
S315020025D840F8203C6FF0020340F8243C283140F8CA
S315020025E8481D5DF8044B7047F9240002EFF3118188
S315020025F8102383F31188094A136801331360012BE8
S3150200260800D07047064B1960064B5B68C3F3080394
S31502002618002BF6D0012383F31088FEE70C0C022266
S31502002628080C022200ED00E0074B1B681BB90123C8
S3150200263883F31088FEE7013B034A13601BB9034B79
S315020026481B6883F3118870470C0C0222080C0222BD
S315020026580A4B1B680A4AA2FB03239B09013BB3F1F7
S31502002668807F0AD24FF0E0225361064BF02183F8AD
S315020026782310002393610723136170474C0B03222F
S31502002688D34D621000ED00E008B50C4BF02283F83A
S315020026982220FFF7DDFF0A4A536B43F04043536398
S315020026A862B6BFF36F8FEFF3148C2CF0040C8CF325
S315020026B81488BFF36F8F02DF00BEFDE700ED00E06E
S315020026C800EF00E070B5431E13F10A0F00F298807E
S315020026D800F1080410F0070306D0A3F10902A2428A
S315020026E8C0F08E801030C41A00F01AFF4E4B1B68D9
S315020026F8002B00F08C80002C7DDD4C4B1968A14222
S3150200270879D34B4B1B684B4A934202D34A4A9342AC
S315020027181DD9012383F31088FEE74FF4704344481A
S315020027280260002141601344083B23F007033E4838
S31502002738036059601960991A516013603F4B19601A
S315020027483A4B1960D7E7012383F31088FEE7384E20
S315020027583848394D5A68A24208D21A6832B18242BA
S31502002768F1D31E46AA42EED81346F3E72E4A12685A
S315020027789A4240D0356808352E4A954202D32E4AE7
S31502002788954203D9012383F31088FEE71A6832605B
S315020027985A68A2420AD3121B102A10D9181910F025
S315020027A8070F07D0012383F31088FEE7012383F37B
S315020027B81088FEE742605C6032681A5130605A68D7
S315020027C8891A1A4801601D48006881423CBF1B48A5
S315020027D8016042F000425A6000221A60184A1368E1
S315020027E80133136000F076FF15F0070F06D00123B8
S315020027F883F31088FEE700F06DFF0025284670BDBA
S3150200280800F08EFE084B1B68002BF4D10024094AFF
S3150200281812F0070F81D0D11D21F0070102F570428F
S31502002828531A0A467BE700BF200C02221C0C02221E
S31502002838240C02222C0C02222BFC0222180C022245
S31502002848140C0222002863D038B50546A0F1080404
S31502002858304B9C420AD3304B9C4207D850F8043C72
S31502002868002B07DB012383F31088FEE7012383F39A
S315020028781088FEE750F8082C1AB1012383F3108852
S31502002888FEE723F0004340F8043C00F049FE55F801
S31502002898041C224A13680B441360214B1A461B6810
S315020028A89C42FBD81E48824209D01A48824202D369
S315020028B81948824203D9012383F31088FEE7506838
S315020028C802EB000C644510D055F8040C251819467D
S315020028D8AB4213D02160A24218BF1460114A136892
S315020028E80133136000F0F6FE38BD01445160084614
S315020028F811448B4201D01360F0E714460A4909686D
S315020029088B42E7D05B680344636013681968E1E7A2
S31502002918704700BF2C0C02222BFC02221C0C02223E
S31502002928240C0222100C0222200C022200F10803B7
S3150200293843604FF0FF328260C36003610023036085
S31502002948704700230361704743684B609A688A6040
S31502002958516099600861036801330360704730B4B7
S315020029680D68B5F1FF3F11D000F108031C465B68FC
S315020029781A68AA42FAD963684B6099608C606160EA
S31502002988086103680133036030BC70470469F2E7E3
S315020029980369416882688A60416851605A6882425E
S315020029A804BF82685A6000220261186801381860FA
S315020029B8704710B50446FFF719FEA46BFFF734FEFD
S315020029C8B4FA84F0400910BD70B504461646856B04
S315020029D8026C5AB903681BB100200135A56370BDA4
S315020029E8806801F0A5F80023A360F6E76EB940688F
S315020029F807F0ACF96368226C13446360A268304638
S31502002A089342EAD323686360E7E7C06807F09EF952
S31502002A18226C5142E3689B1AE3602268934202D20F
S31502002A28A3680B44E360022E01D00020D5E715B156
S31502002A38013D0020D1E70020CFE70346026C6AB1C8
S31502002A4810B50846D9681144D9609C68A14224BFCA
S31502002A581968D960D96807F079F910BD704770B559
S31502002A680546FFF7C3FD95F8454064B2002C0FDD15
S31502002A7805F1240602E0013C64B24CB16B6A3BB133
S31502002A88304600F087FF0028F5D001F03BF8F2E760
S31502002A98FF2385F84530FFF7C7FDFFF7A7FD95F831
S31502002AA8444064B2002C0FDD05F1100602E0013C39
S31502002AB864B24CB12B693BB1304600F06BFF00287B
S31502002AC8F5D001F01FF8F2E7FF2385F84430FFF747
S31502002AD8ABFD70BD38B558B10D460446C36B1BB184
S31502002AE8026CA2FB03233BB1012383F31088FEE7A2
S31502002AF8012383F31088FEE7FFF778FD2268216C2D
S31502002B08E36B01FB03F3D018A0600020A0636260A8
S31502002B185B1A1A44E260FF2384F8443084F845308D
S31502002B28A5B923691BB9FFF77FFD012038BD04F15A
S31502002B38100000F02FFF0028F5D0094B4FF0805205
S31502002B485A60BFF34F8FBFF36F8FECE704F11000A3
S31502002B58FFF7ECFE04F12400FFF7E8FEE3E700BF07
S31502002B6800ED00E04BB110B582B01C4608B142B187
S31502002B7819BB012383F31088FEE7012383F3108828
S31502002B88FEE70029F5D150230193019B502B19D159
S31502002B98019B2246012384F846302260E0632164C1
S31502002BA819462046FFF796FF9DF8103084F84C30F8
S31502002BB8204602B010BD019BECE750230193019B0E
S31502002BC8502BF8D0012383F31088FEE7F8B550B1ED
S31502002BD80D4614460646A1FB002323B901FB00F065
S31502002BE810F1510F03D9012383F31088FEE7503001
S31502002BF8FFF768FD074678B1002380F8463000F1F2
S31502002C085003002D08BF03460360C663056401210D
S31502002C18FFF760FF87F84C403846F8BD2DE9F047C4
S31502002C2884B0019260B10E461D46044661B1022D7A
S31502002C3811D1E36B012B0ED0012383F31088FEE733
S31502002C48012383F31088FEE7036C002BEFD00123E0
S31502002C5883F31088FEE700F05BFF814628B9019BE3
S31502002C682BB1012383F31088FEE74FF000090027F2
S31502002C78DFF80C8133E02A4631462046FFF7A4FEE8
S31502002C88636A73B938B13E4B4FF080525A60BFF34C
S31502002C984F8FBFF36F8FFFF7C7FC012004B0BDE863
S31502002CA8F08704F1240000F075FE0028F3D0344BB7
S31502002CB84FF080525A60BFF34F8FBFF36F8FEAE728
S31502002CC8FFF7B2FC0020E9E702A800F0D5FE14E0FF
S31502002CD82046FFF7C4FE00F0FDFC4FF00109FFF79E
S31502002CE885FCA26BE36B9A42C5D3022DC3D0019B26
S31502002CF8002BE5D0B9F1000FE6D0FFF795FC00F0FE
S31502002D080FFCFFF773FC94F8442052B2B2F1FF3F6E
S31502002D1808BF84F8447094F8452052B2B2F1FF3FD6
S31502002D2808BF84F84570FFF77FFC01A902A800F0E6
S31502002D38AFFEF0B9FFF75AFCD4F838A0D4F83C90A5
S31502002D48FFF772FCCA45C3D1019904F1100000F0DD
S31502002D58E7FD2046FFF783FE00F0BCFC0028BCD145
S31502002D684FF08053C8F80430BFF34F8FBFF36F8F0D
S31502002D78B3E72046FFF773FE00F0ACFC00208DE7B0
S31502002D8800ED00E02DE9F04385B0019260B10D46F1
S31502002D98044669B100F0BCFE814680B9019B83B145
S31502002DA8012383F31088FEE7012383F31088FEE7E5
S31502002DB8036C002BEED0012383F31088FEE74FF055
S31502002DC800090026DFF8FC8036E029462046FFF790
S31502002DD834FE7B1EA36323692BB9FFF725FC01206A
S31502002DE805B0BDE8F08304F1100000F0D3FD002819
S31502002DF8F3D0344B4FF080525A60BFF34F8FBFF374
S31502002E086F8FEAE7FFF710FC0020E9E702A800F057
S31502002E1833FE1CE02046FFF722FE00F05BFC09E0C9
S31502002E282046FFF71CFE00F055FC2046FFF7C1FDC1
S31502002E38002844D14FF00109FFF7D8FBA76B002FF2
S31502002E48C3D1019B002BDDD0B9F1000FDED0FFF70D
S31502002E58EBFB00F065FBFFF7C9FB94F844305BB265
S31502002E68B3F1FF3F08BF84F8446094F845305BB27B
S31502002E78B3F1FF3F08BF84F84560FFF7D5FB01A908
S31502002E8802A800F005FE0028CAD12046FFF791FDE8
S31502002E980028BFD0019904F1240000F041FD204624
S31502002EA8FFF7DDFD00F016FC0028C3D14FF0805372
S31502002EB8C8F80430BFF34F8FBFF36F8FBAE700200D
S31502002EC88EE700BF00ED00E038B130B50446F9B12F
S31502002ED8104B0020844608220CE0012383F3108855
S31502002EE8FEE70C4800EBCC0010E00CF1010C0833AD
S31502002EF8013A0AD09E465D68A542F2D00028F4D16E
S31502002F081D68002D08BF1846EFE708B10160446046
S31502002F1830BD00BF2CFC0222844650B100230B4868
S31502002F28082250F83310614507D00133013AF8D127
S31502002F387047012383F31088FEE7054A002142F809
S31502002F48331002EBC3025160704700BF30FC022205
S31502002F582CFC022238B110B50446FFF7DDFF94F8BF
S31502002F68463023B110BD012383F31088FEE72046BD
S31502002F78FFF768FCF6E770B504460D461646FFF7F6
S31502002F8835FB94F844305BB2B3F1FF3F04BF00232C
S31502002F9884F8443094F845305BB2B3F1FF3F04BF7E
S31502002FA8002384F84530FFF73FFBA36B1BB120468D
S31502002FB8FFF755FD70BD3246294604F1240000F09C
S31502002FC8C3FCF4E7074B1B681B6823B9064B4FF093
S31502002FD8FF321A607047034B1B68DB681A68024B9C
S31502002FE81A607047DCFC022274FC02222DE9F843BF
S31502002FF8074689469846089E0A9C95002A46A521B0
S31502003008206B06F0FDFD043D236B2B4423F00705D8
S315020030186565B9F1000F10D009F1FF3104F13303E8
S315020030284FF0200C11F9012F03F8012F12B1BCF150
S31502003038010CF7D1002384F85330372E03D9012324
S3150200304883F31088FEE7E6622666201DFFF779FC01
S3150200305804F11800FFF775FC2461C6F13806A6616B
S31502003068646243463A46216B2846FFF7A5FA206072
S31502003078099B03B11C60BDE8F883000070B50546DC
S31502003088FFF7B4FA364A136801331360354B1B68E7
S31502003098002B41D0344B1B683BB9324B1B68DA6AAA
S315020030A8EB6A9A429CBF2F4B1D60304A1368013364
S315020030B81360AB65EB6A2E4A1268934284BF2C4AA8
S315020030C813602C4A03EB830302EB83035B68AB6052
S315020030D89868E860291D41609960EB6A03EB8301F1
S315020030E802EB8100686152F82130013342F821303F
S315020030F8FFF79AFA1C4B1B686BB11A4B1B68DA6A04
S31502003108EB6A9A4207D21C4B4FF080525A60BFF3C1
S315020031184F8FBFF36F8F70BD124B1D601368012B63
S31502003128C3D1144C04F58C662046FFF7FFFB143412
S31502003138B442F9D1114E3046FFF7F8FB104C20463F
S31502003148FFF7F4FB0F48FFF7F1FB0F48FFF7EEFB1B
S315020031580E48FFF7EBFB0E4B1E600E4B1C60A4E7F6
S3150200316894FC02226801032288FC022278FC0222CD
S315020031788CFC022208FD022200ED00E0F4FC022289
S31502003188E0FC0222C4FC0222B0FC022298FC0222C3
S31502003198DCFC0222D8FC022210B5044690F86D30F7
S315020031A83BB1012B0CD0022B09D0012383F31088E3
S315020031B8FEE7006BFFF746FB2046FFF743FB10BD11
S315020031C8FFF740FBFBE70000F8B50E4B1B68BBB1E7
S315020031D80D4F0E4E0B4CFFF709FAFB68DD68281DEA
S315020031E8FFF7D6FB3368013B33602368013B236054
S315020031F8FFF71AFA2846FFF7CFFF2368002BEAD112
S31502003208F8BD00BFACFC0222B0FC022294FC0222EA
S3150200321808B5074C074E4FF08055FFF7D5FF2368D0
S31502003228012BFAD97560BFF34F8FBFF36F8FF4E79F
S3150200323808FD022200ED00E02DE9F04104460E46A3
S31502003248264B1D68264B1F68264BD3F80080264B53
S3150200325818680430FFF79CFBB4F1FF3F0DD02C44ED
S31502003268214B1B685C60A5421CD91F4B19680431A7
S315020032784046FFF774FBBDE8F08106B31B4A516866
S31502003288194B1868816018688C68C460186804301D
S3150200329860601868043088601B685A6113680133D5
S315020032A81360E8E7104B196804313846FFF757FBF5
S315020032B80F4B1B68A342DED90D4B1C60DBE76B1E66
S315020032C8094A126853609D42CFD8074B19680431E0
S315020032D83846FFF744FB064B1B68CCE790FC0222F4
S315020032E8DCFC0222D8FC02226801032298FC022294
S315020032F874FC02222DE9F04186B00D460D9E00218E
S3150200330805916EB1044690461F460E9B63B1702323
S315020033180493049B702B0BD0012383F31088FEE7DA
S31502003328012383F31088FEE7012383F31088FEE75F
S31502003338049B702200210E9806F062FC0E9B1E6307
S3150200334802230E9A82F86D3000230393029205AB8C
S3150200335801930C9B00933B46424629462046FFF7BB
S3150200336845FE0E98FFF78AFE059806B0BDE8F0817D
S315020033782DE9F04385B005460E4614469846900058
S31502003388FFF7A0F910B381467020FFF79BF90746AD
S31502003398C8B17022002106F033FCC7F8309000232A
S315020033A8039302970D9B01930C9B00934346224677
S315020033B831462846FFF71AFE3846FFF75FFE012018
S315020033C805B0BDE8F0834846FFF73CFA4FF0FF30F8
S315020033D8F6E7000038B50446FFF708F93CB3251DA1
S315020033E82846FFF7D5FAA36A1BB104F11800FFF7BE
S315020033F8CFFA1E4A1368013313601D4B1A681D4B18
S315020034081B680BB1A24215D01B4A1368013B136015
S31502003418FFF7D8FDFFF708F92046FFF7BDFE154B63
S315020034281B681BB1124B1B68A3420ED038BD104B4A
S315020034381C68D4E729461148FFF786FA104A13682A
S3150200344801331360FFF7F0F8E9E70E4B1B681BB16F
S31502003458012383F31088FEE70B4B4FF080525A6024
S31502003468BFF34F8FBFF36F8FE0E700BF78FC0222EE
S315020034786801032288FC022294FC0222B0FC022282
S31502003488ACFC02226CFC022200ED00E010B590B002
S315020034981C4908AA11F9013B02F8013B002BF9D194
S315020034A800240594069407AA06A905A800F03AFD81
S315020034B8059B0293069B019300942346079A08A943
S315020034C81148FFF717FF114B1860B8B100F0FCFC62
S315020034D8012806D0B0F1FF3F10D1012383F31088EB
S315020034E8FEE7012383F31088094A4FF0FF31116082
S315020034F8084A1360084B1C60FFF7C6F8074B1B689F
S3150200350810B010BD50C300021932000270FC02222C
S3150200351874FC022288FC022290FC02223CC50002AC
S31502003528024A136801331360704700BF6CFC02221B
S31502003538014B1868704700BF90FC02225A4B1B6861
S31502003548002B40F0AB802DE9F047584B1C6801343C
S315020035581C609CB9564B1B681B681BB1012383F37D
S315020035681088FEE7524A1168524B186810601960B3
S31502003578514A136801331360FFF724FD4F4B1B684A
S31502003588A34278D84A4B1B681B684BB10020DFF868
S3150200359820C10546DFF838E1494ADFF828A134E0B8
S315020035A80020464B4FF0FF321A6065E0434B196024
S315020035B862E0D96ADEF80080414588BFCEF800107D
S315020035C801EB810102EB810149689960D1F8088013
S315020035D8C3F80C80C8F804708F60D96A01EB8107BA
S315020035E802EB8708C3F8148052F82710013142F813
S315020035F82710DAF80070D96AFB6A994288BF012057
S31502003608DCF800301B68002BCBD0DCF80030DB6816
S31502003618DB6859688C42C9D3D3F814809968DF6885
S315020036288F60996879601F1DD8F80410B94204BFE3
S31502003638D968C8F804105D61D8F800100139C8F8CD
S315020036480010D3F82880B8F1000FB2D0196ADE69E3
S31502003658B160DE694E6003F11809D8F804104945CD
S3150200366804BF196AC8F804109D62D8F80010013917
S31502003678C8F800109DE70020124B1B68DB6A03EBB3
S3150200368883030F4A52F82330022B28BF01200E4B20
S315020036981B68002B18BF0120BDE8F0870B4A136888
S315020036A801331360002070476CFC022290FC022250
S315020036B8DCFC0222D8FC02227CFC022274FC0222D6
S315020036C808FD02226801032280FC022284FC0222EF
S315020036D88CFC02222DE9F843FEF788FF4D4B1B6846
S315020036E81BB9012383F31088FEE74A4B1A68013A8D
S315020036F81A601B68002B40F08480474B1B68002B1E
S3150200370800F08580454B1B68002B5AD0DFF80CC1A8
S315020037180020DFF820E1424A424C434E4FF00109AD
S31502003728DCF80C30DB689F6A196ADD69A960DD6915
S315020037384D6003F118087968414504BF196A796032
S3150200374898623968013939605F69D9689D68A960E4
S315020037589D684D6003F104087968414504BFD9683C
S3150200376879605861396801393960D96ADEF80070BA
S31502003778B94288BFCEF8001001EB810102EB810144
S31502003788496899608F68DF60C7F80480C1F80880C5
S31502003798D96A01EB810702EB8708C3F8148052F84D
S315020037A82710013142F827102768D96AFB6A99421D
S315020037B888BFC6F80090DCF80030002BB0D1FFF7BE
S315020037C801FC1A4B1C686CB1174E012501E0013C3D
S315020037D805D0FFF7B3FE0028F9D03560F7E7134B9B
S315020037E800221A60104B1C6864B10E4B1B68104B02
S315020037F84FF080525A60BFF34F8FBFF36F8F012489
S3150200380800E00024FEF710FF2046BDE8F8830024F6
S31502003818F8E700BF6CFC022294FC0222C4FC0222D6
S3150200382808FD02226801032280FC022284FC02228D
S3150200383800ED00E08CFC022210B540B90E4B4FF0A9
S3150200384880525A60BFF34F8FBFF36F8F10BD044685
S31502003858FFF766FE094B1B68012B03D0012383F38E
S315020038681088FEE700212046FFF7E6FCFFF732FF45
S315020038780028EBD1E2E700BF00ED00E06CFC022273
S31502003888224B1B681BB1224B01221A607047204B40
S3150200389800221A601F4B1B6803EB83011E4A52F86B
S315020038A821208AB963B103EB83011B4A02EB810229
S315020038B81946013B52F8140C30B9143A0139F8D1B9
S315020038C8012383F31088FEE7134A03EB830102EB15
S315020038D8810148684068486003EB830102EB810274
S315020038E8083290420CD003EB83010B4A02EB8102A9
S315020038F85268D168094A116006490B601368704715
S31502003908054A02EB8102D1685160ECE76CFC02229F
S3150200391880FC02228CFC022208FD02226801032294
S3150200392858B110B50C46074A11681831FFF717F84F
S3150200393801212046FFF780FC10BD012383F310887E
S31502003948FEE700BF6801032238B5E0B18C4611468E
S31502003958054642680E4B1868C26118689468046284
S315020039681868183060601868183090601B689D6285
S315020039782B6801332B6000290CBF60464FF0FF30DD
S31502003988FFF75AFC38BD012383F31088FEE700BF10
S3150200399868010322C368DB68002B51D010B49A6A07
S315020039A8D869196A8160D869486003F118005168B4
S315020039B8814204BF196A516000219962116801396E
S315020039C81160274A1268002A3ED15A699868D9684E
S315020039D8816098684860181D5168814204BFD96899
S315020039E8516000215961116801391160DA6A1D496D
S315020039F809688A4284BF1B490A601B4902EB820294
S31502003A0801EB820252689A609468DC60606090609A
S31502003A18DA6A02EB820001EB80045C6151F820202D
S31502003A28013241F82020114A1168DA6ACB6A9A42B1
S31502003A3883BF01200E4B186000205DF8044B7047C7
S31502003A48012383F31088FEE70A4A5168D9618C6814
S31502003A581C62606088609A62116801311160E2E74F
S31502003A686CFC02228CFC022208FD02226801032257
S31502003A7880FC0222C4FC0222034B1B680360034B30
S31502003A881B684360704700BF7CFC022290FC02223E
S31502003A98B8B170B50C460546B9B1FEF7A7FD174B86
S31502003AA81A682368B3F1FF3F22D069681448006890
S31502003AB82E6886420DD091420BD80023236001243A
S31502003AC817E0012383F31088FEE7012383F31088A6
S31502003AD8FEE7501A834203D800232360012408E034
S31502003AE89B1A0B4423602846FFF7C6FF002400E012
S31502003AF80024FEF799FD204670BD00BF90FC022205
S31502003B087CFC0222014B01221A60704780FC0222C9
S31502003B18054B1B6833B1054B1868B0FA80F04009AB
S31502003B28400070470120704788FC02226CFC022282
S31502003B3800283FD038B50446204B1B68834203D081
S31502003B48012383F31088FEE7436E1BB9012383F32F
S31502003B581088FEE7013B4366C16A026E91422BD08A
S31502003B680BB1002038BD051D2846FEF711FF236E4E
S31502003B78E362C3F13802A261114A1268934284BF12
S31502003B880F4A13600F4A03EB830302EB83035B6856
S31502003B98A3609968E1604D609D60E36A03EB830167
S31502003BA802EB8100606152F82130013342F821307C
S31502003BB80120D7E7002070470020D3E768010322D7
S31502003BC88CFC022208FD022208B54160006191427E
S31502003BD80CD8D21A83699A4201D3012008BD011D65
S31502003BE8094B1868FEF7BBFE0020F7E79A4201D296
S31502003BF8994206D2011D054B1868FEF7B0FE002051
S31502003C08ECE70120EAE700BF680203226C020322FE
S31502003C1870B504460D46164604E0A3691D44236A98
S31502003C2820469847A1692B46324629442046FFF783
S31502003C38CBFF0028F1D170BD70B505460E460D4B77
S31502003C481B68DB68DC68201DFEF7A2FE94F82830A4
S31502003C5813F0040F07D123F0010384F82830236AEE
S31502003C682046984770BD324629462046FFF7D0FFC0
S31502003C78F5E700BF6C020322F8B50546FFF758FCC4
S31502003C880446104B1B68834205D800232B600D4B54
S31502003C981C602046F8BD0C4B1B681A685AB14FF0D7
S31502003CA8FF37094EDB6839461868FFF7C5FF3368E0
S31502003CB81A68002AF6D1054A106803490860136093
S31502003CC80123E3E75C0203226C0203226802032251
S31502003CD82DE9F04186B05C4E5C4D33681F68002FB3
S31502003CE800F09080DB681F68FFF71AFC02A8FFF74E
S31502003CF8C3FF0446029A4AB9874200F29380FFF745
S31502003D08E9FC21463846FFF797FF01E0FFF7E2FC98
S31502003D18002302930393049305931C4606E0059930
S31502003D280498039B9847029B002B09DA224602A9AC
S31502003D382868FFF727F80028CFD0029B002BEEDB76
S31502003D48049F7B6913B1381DFEF722FE01A8FFF70F
S31502003D5893FF8046029B013B082BE7D8DFE803F076
S31502003D680505293044050529300097F8283043F01F
S31502003D78010387F82830039BB96902461944384675
S31502003D88FFF722FF0028D1D097F8283013F0040F46
S31502003D9807D123F0010387F828303B6A384698474B
S31502003DA8C4E7BB694246039919443846FFF730FF10
S31502003DB8F3E797F8283023F0010387F82830B5E7A8
S31502003DC897F8283043F0010387F828300399B96138
S31502003DD831B10346024601443846FFF7F5FEA5E728
S31502003DE8012383F31088FEE797F8283013F0020FB1
S31502003DF804D023F0010387F8283097E73846FEF700
S31502003E0821FD93E7FFF78CFB02A8FFF735FF04466F
S31502003E18029B002B7FF47AAF0D4B1B681A68B2FA25
S31502003E2882F25209391B2868FFF7A5F8FFF752FCF8
S31502003E3800287FF46DAF074B4FF080525A60BFF3EC
S31502003E484F8FBFF36F8F63E76C020322640203226C
S31502003E586802032200ED00E030B583B0FEF7C6FB28
S31502003E68114B1B681BB1FEF7DFFB03B030BD0F4DCC
S31502003E782846FEF75BFD0E4C2046FEF757FD0D4B16
S31502003E881D600D4B1C60002300930C4B0C4A10213D
S31502003E980A20FEF767FE044B18600028E3D009499A
S31502003EA8FFF712F8DFE700BF640203228402032247
S31502003EB8700203226C020322680203226C010322A7
S31502003EC8BC01032258C3000210B588B0FFF7C4FF2D
S31502003ED8104B1B68CBB100240594069407AA06A9C1
S31502003EE805A800F02BF8059B0293069B0193022373
S31502003EF800932346079A08490848FFF7FBF9084B37
S31502003F08186010B1012008B010BD012383F3108890
S31502003F18FEE700BF6402032260C30002D93C000226
S31502003F2860020322034B0360034B0B60802313607A
S31502003F38704700BF1009032210070322034B0360D0
S31502003F48034B0B604FF4807313607047A00603227D
S31502003F58A0020322024A136801331360704700BFA6
S31502003F682802022208B5FCF74FFB08BD08B5FCF784
S31502003F78B9FC08BD08B5FCF753FB08BD0379022B4B
S31502003F8800D07047014B01221A70FAE7040000229A
S31502003F9838B52C492C4800F031FA2C4C0C21204615
S31502003FA8FCF700FE2A4D2B49284600F075FE2846E6
S31502003FB800F058FE284600F021FE2749274800F05F
S31502003FC81DFA2749274800F019FA2749274800F019
S31502003FD815FA274D01224FF48571284600F008FD8F
S31502003FE84FF47A714FF4FA7001F014FA00224FF482
S31502003FF88571284600F0FCFC1C212046FCF7D2FD00
S315020040084FF47A714FF4C87001F004FA2D21204654
S31502004018FCF7C8FD4FF47A714FF4FA7001F0FAF919
S3150200402844212046FCF7BEFD4FF47A714FF4167010
S3150200403801F0F0F964212046FCF7B4FDFFF726FAF1
S31502004048FEE700BF10C60002440A03227C0A0222C7
S315020040588809032240C5000268C50002A80903228E
S315020040689CC50002DC090322DCC50002100A0322F1
S315020040788009032210B582B0074C0023009301235E
S315020040881A4606492046FCF733F9054A05492046E9
S3150200409801F066FC02B010BD98020322D0C50002E8
S315020040A8000000220703000208B5074B4FF0027210
S315020040B85A64002283F854204AF20152A3F8642073
S315020040C8FFF766FF08BD00BF00F00040022800D0D7
S315020040D8704708B50249034800F086FD08BD00BFCF
S315020040E854C600028009032208B5FFF7DDFF002047
S315020040F808BD8161C2610020704710B4446AA36892
S3150200410823F44013A360446AA36C13F0804FFBD0D8
S31502004118A36823F01003A360446A237F13F0100FE9
S31502004128FBD142610161A36843F01013A36000202A
S315020041385DF8044B704781620263C36200207047D0
S315020041484FF0FF334B600B6000207047844611F036
S31502004158020F1DD0426A936823F440139360426AA1
S31502004168936C13F0804FFBD0936823F0100393608F
S31502004178DCF82420137F13F0100FFBD10020CCF8B3
S31502004188140011F0010F1CBF0020CCF81C00704768
S315020041980620F6E70346C2690A600020D86170471E
S315020041A8062070470620704730B4530902F01F05EF
S315020041B80124AC402033144D45F82340BFF34F8FFA
S315020041C8BFF36F8F114B02F5C65C53F82C4024F4EB
S315020041D8803443F82C4053F82C30002A0CDB0901B2
S315020041E8C9B202F1604303F5614383F80013084B31
S315020041F843F8220030BC704702F00F040901C9B225
S31502004208044B1955F3E700BF00E100E000600040E7
S31502004218F40A032214ED00E070B584B005460E4692
S315020042289446C46ACCB194E80F000DF1100E0EE95B
S315020042380F002B6A1B782360A66084F804C02B6BD8
S31502004248E360AB6A20469847EC6A24B104AB13E9EB
S315020042580F0084E80F0004B070BD6C46E9E7000061
S3150200426838B54268374B9A426AD10446426A93681D
S3150200427823F440139360426A936823F01003936011
S31502004288426A137F13F0100FFBD1236A93F90730A2
S31502004298580903F01F03012101FA03F32A4A2030C1
S315020042A842F82030BFF34F8FBFF36F8F236A93F91B
S315020042B80930580903F01F0301FA03F3203042F8C4
S315020042C82030BFF34F8FBFF36F8F606A836823F482
S315020042D880338360236A93F90530580903F01F0374
S315020042E801FA03F3203042F82030BFF34F8FBFF3B1
S315020042F86F8F236A93F90B30580903F01F0301FAEB
S3150200430803F3203042F82030BFF34F8FBFF36F8F8D
S31502004318EFF3108581F310880C4A5068236A93F8E4
S3150200432800C04FF0004323FA0CF30343536053686B
S315020043381E2001F06FF885F310880020606038BDF2
S315020043480720FCE74249435300E100E000302040E1
S3150200435870B5036ADD69002383606B7C03B970BD9F
S315020043680446184B93F8543003F00F03072B22D850
S31502004378DFE803F006060604251B1D1F062601E0D4
S3150200438801269E400F4B93F8550000F00F0000F0EF
S31502004398D9FF6B7C0C4A126802FB03F3B0FBF6F0FA
S315020043A8B3FBF0F30133A360D9E70326EAE7052650
S315020043B8E8E70A26E6E7083B10269E40E2E70826D3
S315020043C8E0E700BF00E001404C0B0322F8B50446C3
S315020043D80D46426A936823F4401723F4441323F0E4
S315020043E81103936000260661FFF7B2FF636A2A6823
S315020043F81A61636A9F603046F8BD0000F8B5044644
S315020044080D460B7803F5800303F556531B024362E8
S315020044180023037001624A6982628A690263C3627F
S31502004428CE698378012262F3010383704B78002BED
S3150200443808BF0222837862F30103837091F90B2085
S31502004448897AFFF7B1FE95F9052029792046FFF703
S31502004458ABFE95F90720A9792046FFF7A5FE95F93F
S315020044680920297A2046FFF79FFEEFF310870121DC
S3150200447881F310887D4B5A6895F800C04FF00040CA
S3150200448820FA0CF022EA00025A605B681E2000F04D
S31502004498C1FF87F31088636A4FF480629A60EA69FB
S315020044A850686B781B0203F44073E978890301F4B8
S315020044B880410B431178090601F040710B4351788C
S315020044C8C90389B20B43517B490501F400110B4319
S315020044D843F48053616A4B6111788B1EDBB2012B60
S315020044E840F2BD800368616A0B61117B01F003012A
S315020044F841F03001AB7833B1022B14BF4FF440734D
S315020045084FF48073194393781B0703F080530B43C8
S31502004518616ACB60636A00219961297801238B401D
S31502004528C3F3090313B1636A51495962937B03F0D2
S315020045380103D17B01F01F0143EA0123127C02F039
S315020045481F0243EA0243626A136300252561656115
S31502004558A561E5612046FFF7FBFE7389A381636ABD
S31502004568444A9A66236A93F90530434A03F5C651C3
S3150200457852F8210065F3104042F8210052F8211042
S31502004588BFF35F8F03F01F00012101FA00F05B09F8
S315020045989B0003F1604303F56143C3F88001186089
S315020045A8236A93F90B3003F5C65052F8206065F377
S315020045B8104642F8206052F82000BFF35F8F03F0DE
S315020045C81F0001FA00F05B099B0003F1604303F543
S315020045D86143C3F880011860236A93F9073003F52B
S315020045E8C65052F8206065F3104642F8206052F829
S315020045F82000BFF35F8F03F01F0001FA00F05B098A
S315020046089B0003F1604303F56143C3F88001186018
S31502004618236A93F9093003F5C65052F8206065F308
S31502004628104642F8206052F82020BFF35F8F03F04D
S315020046381F0291405B099B0003F1604303F5614346
S31502004648C3F880111960636A0C4A9A60626A137F1A
S3150200465813F0010FFBD00A4B63600020F8BD022954
S31502004668084B094918BF0B463DE700BF00302040FA
S3150200467800001F1F1000079D006000401104010082
S315020046884249435324FF00FF04FF00FF38B5EFF306
S315020046980383103B5BB2244A03F5C65152F8210044
S315020046A820F4803042F8210052F821201F4A52F89D
S315020046B82340236A1B6913B16369EBB138BD636989
S315020046C8D3B1A37803F00303022B0DD0636A2269E0
S315020046D812781A71A37803F003036269D21A626127
S315020046E822691A442261E7E7626A23691B8823F46E
S315020046F8DC439BB25360EDE7636A9D6825F4801537
S3150200470845F40015A06860B9636A9D6000232361B9
S31502004718A36A002BD2D0802200212046FFF77CFD17
S31502004728CCE700F071FEEFE700600040F40A0322CE
S3150200473810B582B0EFF30383103B5BB21F4A03F551
S31502004748C65152F8210020F4803042F8210052F86E
S3150200475821201B4A52F82340A37803F00303022BB5
S31502004768636A07BF1968C1F308011978C9B20191CA
S31502004778E3693BB9A36A1BB104222046FFF74CFD45
S3150200478802B010BDA27802F0030201A9A06905F0E1
S31502004798DDFAA27802F00302A3691344A361E3696E
S315020047A89B1AE361002BEBD1A36A002BE8D0012206
S315020047B800212046FFF730FDE2E700BF0060004017
S315020047C8F40A032210B5EFF30383103B5CB20E4BD7
S315020047D853F82400426A936823F4401323F0100323
S315020047E89360836A1BB102220021FFF715FD074A6F
S315020047F804F5C65352F8231021F4803142F82310E7
S3150200480852F8233010BD00BFF40A032200600040AC
S3150200481838B5EFF30383103B5CB21C4B53F8240004
S31502004828837803F00303022B436A07BF1968C1F3AF
S3150200483808011978C9B2456AAA6CC2F3006CC2F3B8
S3150200484800731B0143EA4C13C2F3C06243EAC20C6B
S31502004858624613F0100F05D0AB6C13F4004F08BF75
S315020048684CF04002AB6E43F0C853AB66836A0BB199
S31502004878FFF7D2FC064A04F5C65352F8231021F470
S31502004888803142F8231052F8233038BDF40A032245
S315020048980060004041608B680361CB688361002336
S315020048A843610A681E4B03EB421383600A681D4B79
S315020048B803EB4213C36091F90430002B03DA1A4B57
S315020048C803600020704710B44A791201D2B203F18C
S315020048D8604101F5614181F80023144A42F8230038
S315020048E8134A03F5C65152F8214024F4803442F89B
S315020048F8214052F82120BFF35F8F03F01F010122E6
S315020049088A405B099B0003F1604303F56143C3F8E0
S3150200491880211A60044B036000205DF8044B70473F
S3150200492800010240C000024043504952F40A0322E1
S315020049380060004083681A6812F4003F06BF996057
S3150200494800200C20704770B584B005460E464469AF
S31502004958F4B194E80F000DF1100C0CE90F006B6826
S315020049681B682360A660AB69E360B6F5803F06BFA5
S31502004978EB68DB68002363602B69204698476C69FD
S3150200498824B104AB13E90F0084E80F0004B070BD2C
S315020049986C46E4E738B5EFF30383103B5BB2124A81
S315020049A803F5C65152F8210020F4803042F821005E
S315020049B852F821200D4A52F82350EB681C6814F469
S315020049C8803F03D134F4403406D138BD4FF48031E8
S315020049D82846FFF7B8FFF5E721462846FFF7B3FF53
S315020049E8EB681C61F1E700BF00600040F40A03228D
S315020049F8CBB20120984080B262B9024600200B0A67
S31502004A085B0103F1804303F5800340EA02409860A4
S31502004A18002070470022F2E710B411F4803F0ED04E
S31502004A28030A0C4A1B0153FA80F352F8234024F472
S31502004A38803442F8234021F4803442F82340030AA2
S31502004A481B0153FA80F0034B43F820105DF8044B20
S31502004A58704700BF000840400388002B7AD02DE932
S31502004A68F04F83B007464FF00008DFF8F0A04FF08A
S31502004A780109DFF8ECB065E09AF84C2C09FA04F360
S31502004A88D9B20191134230D004F120031BF8133036
S31502004A98DB0937D00134032C4FD07B68991935F8D6
S31502004AA8022B89889142F5D19B5903F0B853B3F189
S31502004AB8807FE1D09AF84C2C09FA04F3D9B2019115
S31502004AC813422CD104F120031BF81330DB09E1D081
S31502004AD804F120021BF8123023F080030BF812307F
S31502004AE84946C82000F096FCD4E7484600F082FD05
S31502004AF89AF84C3C019A13438AF84C3C484600F013
S31502004B0847FDC1E704F120021BF8123043F0800387
S31502004B180BF812304946C82000F07CFCBAE7484632
S31502004B2800F068FD9AF84C3C019A23EA02038AF8D7
S31502004B384C3C484600F02CFDC4E708F101083B88C6
S31502004B48434504D94FEAC806034D0024A5E703B036
S31502004B58BDE8F08F704700BF48C7000200E0014079
S31502004B680020204038B50546FFF776FFEFF310819F
S31502004B78012383F310881A4B1B6823B9194B0022A9
S31502004B881A7540221A75164A13680133136081F39F
S31502004B9810882B886BB100246B6803EBC40253F8A8
S31502004BA834109088FFF738FF01342A88A3B29A4254
S31502004BB8F2D8EFF31083012282F31088084A1268AA
S31502004BC81AB107490A68013A0A60054A126822B9FF
S31502004BD8044A002111758021117583F3108838BDA6
S31502004BE8F00A0322000D404008B5034B036008464D
S31502004BF8FFF7B8FF002008BD54524F50037B43B15C
S31502004C0883680269013A43F80C2BF1221A700020D4
S31502004C18704783680269013A92B223F8082BF4E7CF
S31502004C28037B53B181680C310B7803F00102C3F39D
S31502004C3840039A42F8D10020704781680831F3E7A9
S31502004C48016143681A7C064B43F822100139037B3B
S31502004C5813B1836819607047836889B219807047EF
S31502004C68940A032270B50446FFF7DAFF064648B9E6
S31502004C78237B4BB1A5680C3563681B78012B06D0DC
S31502004C88F1232B70304670BDA5680835F4E7216913
S31502004C982046FFF7D5FFF3E72DE9F04105460E4614
S31502004CA84160002707730B7C3E4C04EB03248460A7
S31502004CB8EFF31088012181F310883B4AD068337CD0
S31502004CC8C3F1050301FA03F320EA0303D360D368A9
S31502004CD81E2000F09FFB88F310882772237A13F0B0
S31502004CE8020FFBD10023A3722B7B7BB1AA680C327D
S31502004CF8F369197808461C79DB7803F0070341B98A
S31502004D08307A18B380F00200000105E0AA6808327A
S31502004D18EEE750291DD0317A1471002494710343A9
S31502004D28DBB25370C9B2917071682846FFF788FFE3
S31502004D3896F91230A3420EDA73696B61B369EB61B5
S31502004D480020A861194B2B60BDE8F08100210846B6
S31502004D58E2E70021E0E7727C1201D2B203F1604178
S31502004D6801F5614181F80023114A42F82350114A9C
S31502004D7803F5C65152F8210020F4803042F821008A
S31502004D8852F82120BFF35F8F03F01F0101228A40E8
S31502004D985B099B0003F1604303F56143C3F8802175
S31502004DA81A60C9E7001022400030204054474100EB
S31502004DB8F40A03220060004070B584B0EFF303835F
S31502004DC8103B5BB2224A03F5C65152F8210020F481
S31502004DD8803042F8210052F821201E4A52F8234018
S31502004DE8237B4BB3A5680C352B78DBB26268127845
S31502004DF8012A24D06269D2B1A66936B396E80700B9
S31502004E080DF1100C0CE9070013F0200F1CBF00234C
S31502004E183371E3693360636930469847A36923B1FE
S31502004E2804AA12E9070083E807002B78DBB203F02D
S31502004E380F032B7004B070BDA5680835D4E7F422B9
S31502004E482A7003F0F0032B70D4E701AEDCE700BF4B
S31502004E5800600040F40A032290F800C04CF0400CAF
S31502004E6880F800C090F800C05FEADC1CFAD00A702D
S31502004E7843F0C0030370037803F0BF03037003789B
S31502004E88DB09FCD1704700001A4A92F82630DBB2D9
S31502004E98928C02F00F02A2F10801032925D8DFE855
S31502004EA801F0020C141C144A52F82330134AA2FBCE
S31502004EB803235B08124A136070470F4A52F82330DD
S31502004EC80E4AA2FB03239B08F4E70B4A52F8233047
S31502004ED80A4AA2FB0323DB08ECE7074A52F8233007
S31502004EE8064AA2FB03231B09E4E7034951F82330C8
S31502004EF8D340DFE700E00140E0010222ABAAAAAAFA
S31502004F084C0B0322034B00221A701A781A781B7864
S31502004F18704700BF00C01340044B5B68C3F3090324
S31502004F28642B02D9014B01221A70704700C0134044
S31502004F3870470000F8B506465A4BB3F8FA43A4B2CE
S31502004F484AF20352A3F8FA2303F5F21303F5805340
S31502004F585B6813F4803F19D00025534B5B6813F442
S31502004F68003F25D04F4A92F8753003F00F034F4998
S31502004F7851F8233092F86D2002F00F02072A68D8FA
S31502004F88DFE802F02B2B2B296C616365EFF31087A0
S31502004F98012585F31088444B5A6842F480325A60D8
S31502004FA85B6829461E2000F035FA87F31088D4E795
S31502004FB845F00205EFF31087012181F310883A4B79
S31502004FC85A6842F400325A605B681E2000F022FAE0
S31502004FD887F31088C6E7062202E0012101FA02F2E7
S31502004FE8B3FBF2F3324AA2FB03239B0C012103FA19
S31502004FF801F000F00FFA2B4A92F8753043F040039D
S3150200500882F8753092F87530DB09FBD07278254B39
S3150200501883F86D20327842F0400283F875203278A0
S3150200502883F875201A4692F87530DB09FBD115F01C
S31502005038010F15D115F0020F23D144F42544194B5B
S31502005048A3F8FA43F8BD0322CAE70522C8E70A22EB
S31502005058C6E7083A102101FA02F2C1E70822BFE7B9
S31502005068EFF31086012181F310880F4B5A6822F458
S3150200507880325A605B681E2000F0CCF986F31088ED
S31502005088D8E7EFF31085012181F31088064B5A6899
S3150200509822F400325A605B681E2000F0BBF985F3E1
S315020050A81088CAE700E0014000302040E0010222F1
S315020050B883DE1B43F0B583B0884C4AF20353A4F847
S315020050C8FA33874B874A1A60874A5A604FF4004276
S315020050D89A608649D9601A61854A5A61854ADA61AF
S315020050E8854A1A62854A9A61854A5A62854A9A6245
S315020050F8FFF7CAFE0A2384F8503A092384F8A23035
S3150200510894F8003C2BB994F8013C13F0030F00F015
S31502005118E080724B93F8003C002B00F0CC806F4B7A
S31502005128002283F8012C83F8002C6C4B002283F8AA
S3150200513832201A4692F83C3013F0080FFAD0674B21
S31502005148714AC3F8C82040F22742A3F84E2000202D
S3150200515883F84A004FF60212C3F8AC2040F25142D5
S31502005168A3F84C20BFF34F8FBFF36F8F674A51697D
S3150200517821F400315161C2F85002BFF34F8FBFF3D9
S315020051886F8F63490A6822F440520A60BFF34F8F51
S31502005198BFF36F8F1A7D012161F302021A751A464F
S315020051A8137D13F0100FFBD1594A136843F4405389
S315020051B81360BFF34F8FBFF36F8F544B5B6913F4C2
S315020051C8003F13D1BFF34F8FBFF36F8F4F4B0022B0
S315020051D8C3F85022BFF34F8FBFF36F8F5A6942F459
S315020051E800325A61BFF34F8FBFF36F8F3B4B0022DA
S315020051F883F82A201A4692F83C3013F0200FFAD088
S31502005208FFF780FE434B5B68FA2B05D0414B4249B8
S3150200521859605A68FA2AFBD13E4B9B687D2B05D00A
S315020052283C4B3E4999609A687D2AFBD12B4C3C4BF4
S31502005238236242F22013A384052684F82660FFF728
S3150200524823FE01211E2000F0E5F8FFF765FEFFF7B1
S315020052581BFE344B4AF201521A80BFF35F8F0122BA
S315020052681A72BFF35F8F4FF425451D8084F85320C9
S31502005278032784F83E70832384F83E302A4B1B8822
S31502005288ADF8043001A8FFF755FE0A233A46274926
S315020052982748FFF7E1FD0A23022226492648FFF797
S315020052A8DBFD0A23324625492548FFF7D5FDA4F832
S315020052B8FA5303B0F0BD0121084B83F8001CC8203D
S315020052C800F0A8F8054A92F8003CDBB2012BFAD1A5
S315020052D825E74FF47A70FFF72BFE26E700E0014038
S315020052E8E0010222006CDC0200127A0000366E012E
S315020052F800CA9A3B5543DE130084D71700A3E1116F
S315020053080008AF2F00389C1C022B010000ED00E0BC
S3150200531800E001E000C01340FA00001E7D0000E133
S31502005328323423320020004080C900026EE0014078
S3150200533876E0014054E0014055E001405CE001405E
S315020053485DE00140014B53F820007047E00102225C
S3150200535838B5284C002584F828500121C82000F0C9
S3150200536859F884F82450224692F82430002BFBD1AF
S31502005378204A92F8243043F0020382F8243092F845
S31502005388243013F0020FFAD11A4B002283F8222096
S315020053981A4692F82230002BFBD1164A92F8403070
S315020053A823F0800382F8403092F84030DB09FBD1C3
S315020053B8104A92F8423023F0800382F8423092F87B
S315020053C84230DB09FBD10B4A92F8443023F08003C2
S315020053D882F8443092F84430DB09FBD1012000F010
S315020053E809F9054B002283F84C2C012000F0D0F86D
S315020053F838BD00BF0020204000E00140704700BED3
S31502005408FEE7000000000000A0F101000028FBD121
S31502005418704700BFF8B500FB01F12F4B1B682F4AF6
S31502005428934219D303F5742303F23F2302F185420B
S3150200543802F5071202F68342A2FB03239B0CA3FB87
S3150200544801014FF0FF3383424FF000038B4140D3F3
S3150200545808B1FFF7D9FFF8BD2148B0FBF3F04FF0CA
S31502005468000C0A46634652EA4F13561A914294BFF3
S315020054781F465F1E56EA8F078C19224647F100031C
S3150200548852EACF034FF0FF3494427CEB030C02D36B
S31502005498B2FBF0F0DCE7B1FBF0F14FF0000C0A4684
S315020054A8634652EA4F13541A914294BF1D465D1E33
S315020054B854EA8F050B19184645F1000150EACF0147
S315020054C84FF0FF3383427CEB010CC1D24FF0FF3021
S315020054D8BFE74FF0FF30BCE74C0B032200127A00FD
S315020054E800CA9A3BF8B5104BD3F80021D3F82051DD
