S015000041726D73796E635F52413850312E7372656387
S31502000000E00102227D6A0002256800028D6A000272
S315020000108D6A00028D6A00028D6A00028D6A0002F4
S31502000020000000000000000000000000690300025A
S315020000308D6A000200000000A503000215040002FA
S31502000040195F0002AB4C0002C34B0002754D000261
S31502000050C74D00024955000205570002F958000231
S3150200006049550002CD560002AB4C0002C34B0002BA
S30D02000070754D0002C74D0002A6
S31502000078000000001040000010400000430000008D
S315020000880000000000000000000000000000000060
S31502000098000000000000000000000000430000000D
S315020000A80000000000000000000000000000000040
S315020000B800000000000000000000000043000000ED
S315020000C80000000000000000000000000000000020
S315020000D800000000000000000000000043000000CD
S315020000E80000000000000000000000000000000000
S315020000F800000000000000000000000043000000AD
S3150200010800000000000000000000000000000000DF
S31502000118000000000000000000000000430000008C
S3150200012800000000000000000000000000000000BF
S31502000138000000000000000000000000430000006C
S31502000148000000000000000000000000000000009F
S31502000158000000000000000000000000538E0002AC
S31502000168B184000200000000F0A10002729F0002A2
S3150200017870A0000270A0000270A0000270A0000227
S3150200018870A0000270A0000270A0000270A0000217
S3150200019870A00002FFFFFFFFFFFFFFFFFFFFFFFF49
S315020001A8FFFF0000010041534349490000000000D7
S315020001B8000000000000000000000000000000002F
S315020001C800000000000041534349490000000000B6
S315020001D8000000000000000000000000000000000F
S315020001E800000000000000007C0100220000000060
S315020001F83C050322A40503220C0603220000000084
S3150200020800000000000000000000000000000000DE
S3150200021800000000000000000000000000000000CE
S3150200022800000000000000000000000000000000BE
S30D020002380000000000000000B6
S315020002400348044B834202D0034B03B1184770475D
S31502000250C8010022C801002200000000064B07491F
S31502000260C91A891048BF0131491003D0044B0BB19A
S3150200027001481847704700BFC8010022C801002282
S315020002800000000010B5064C237843B9FFF7D8FFEB
S31502000290044B13B10448AFF300800123237010BD51
S315020002A00C0202220000000028F1C90208B5054B23
S315020002B01BB105490548AFF30080BDE80840FFF7CA
S315020002C0CDBF00BF000000001002022228F1C902C1
S315020002D080B483B000AF03463960FB7197F90730EB
S315020002E0002B0ADB3B68DAB20C4997F90730120198
S315020002F0D2B20B4483F800230AE03B68DAB208491B
S31502000300FB7903F00F03043B1201D2B20B441A76B7
S3150200031000BF0C37BD465DF8047B704700E100E084
S3150200032000ED00E080B582B000AF78607B68013BEB
S31502000330B3F1807F01D301230FE00A4A7B68013BB8
S3150200034053600F214FF0FF30FFF7C2FF054B00222B
S315020003509A60044B07221A60002318460837BD46E6
S3150200036080BD00BF10E000E01EF0040F0CBFEFF3EB
S315020003700880EFF309800149084700BF5D040002C7
S3150200038080B400AF62B600BFBFF36F8F00BFEFF35A
S31502000390148C2CF0040C8CF31488BFF36F8F02DFDD
S315020003A000BEFDE7104B1968EFF309821EF0100F2D
S315020003B008BF22ED108A22E9F04FEFF30B8342F8D1
S315020003C0043D0A604FF0100080F31188BFF34F8F8F
S315020003D0BFF36F8F01F05EFF4FF0000080F31188CC
S315020003E000F004B800BF00008CF20222084801683F
S315020003F00A6802CA81F30B88B2E8F04F1EF0100FAA
S3150200040008BFB2EC108A82F30988704700BF000069
S315020004108CF2022280B584B000AFEFF311837B60C9
S315020004207B68FB601023BB60BB6883F3118800BF47
S3150200043001F01AFE0346002B03D0074B4FF0805201
S315020004405A60FB683B603B6883F3118800BF00BFBC
S315020004501037BD4680BD00BF00ED00E080B586B016
S3150200046000AF78607B689B697B617B69023B1B7886
S31502000470FB74FB7C022B03D1FFF7B8FF00BF0AE037
S31502000480FB7C032B07D90123FB60FB6883F31088EF
S3150200049000BF00BFFDE700BF1837BD4680BD0000A4
S315020004A080B485B000AFF860B9607A603B60FB68E3
S315020004B0043BFB60FB684FF080721A60FB68043BEA
S315020004C0FB607B6823F00102FB681A60FB68043B51
S315020004D0FB60114AFB681A60FB68143BFB603A68D2
S315020004E0FB681A60FB68043BFB60FB686FF0020264
S315020004F01A60FB68203BFB60FB68043BFB60BB6841
S3150200050003F12802FB681A60FB6818461437BD46D9
S315020005105DF8047B704700BF1D05000280B400AF82
S3150200052000BE00BFFDE7000080B500AFFF216FF0FF
S315020005300100FFF7CDFE00F06DF8064B5B68054A39
S3150200054043F040435360FFF71BFF01F0A3FE002375
S31502000550184680BD30EF00E080B485B000AFEFF3FF
S3150200056011837B607B68FB601023BB60BB6883F3EF
S31502000570118800BF0F4B1B6801330E4A13600D4BE7
S315020005801B68012B10D10C4AFB6813600B4B5B688E
S31502000590C3F30803002B07D001233B603B6883F3B8
S315020005A0108800BF00BFFDE700BF1437BD465DF8E7
S315020005B0047B7047280202222C02022200ED00E090
S315020005C080B483B000AF114B1B68002B07D1012307
S315020005D07B607B6883F3108800BF00BFFDE70B4B8F
S315020005E01B68013B094A1360084B1B68002B06D1A6
S315020005F0074B1B683B603B6883F3118800BF00BF53
S315020006000C37BD465DF8047B704700BF2802022204
S315020006102C02022280B500AF054B1B68054AA2FBDD
S3150200062003239B091846FFF77DFE00BF80BD00BF6E
S3150200063038050322D34D621080B58EB000AF7860C4
S315020006400023FB627B68002B22D00823DB437A68F7
S315020006509A421BD808227B6813447B607B6803F0AE
S315020006600703002B14D07B6803F00703C3F10803CA
S31502000670BB62BB6ADB437A689A4204D87A68BB6A71
S3150200068013447B6004E000237B6001E000237B606F
S3150200069001F0C4FB6E4B1B68002B01D100F050F930
S315020006A07B68002BC0F2BF807B68002B00F0BB800A
S315020006B0684B1B687A689A4200F2B580664B3B63C8
S315020006C0654B1B687B637B6B644A934205D37B6BEA
S315020006D0634A934201D8012300E00023002B21D173
S315020006E001233B623B6A83F3108800BF00BFFDE72C
S315020006F07B6B3B637B6B1B687B637B6B574A9342CB
S3150200070005D37B6B564A934201D8012300E00023AE
S31502000710002B07D10123FB61FB6983F3108800BF1D
S3150200072000BFFDE77B6B5B687A689A4203D97B6BF5
S315020007301B68002BDCD1464B1B687A6B9A4272D03F
S315020007403B6B1B6808221344FB62FB6A434A9342D3
S3150200075005D3FB6A424A934201D8012300E00023F3
S31502000760002B07D10123BB61BB6983F3108800BF4D
S3150200077000BFFDE77B6B1A683B6B1A607B6B5B689D
S315020007807A689A4207D901237B617B6983F31088D1
S3150200079000BF00BFFDE77B6B5A687B68D21A08234D
S315020007A05B009A4220D97A6B7B6813447B627B6A30
S315020007B003F00703002B07D001233B613B6983F358
S315020007C0108800BF00BFFDE77B6B5A687B68D21AB0
S315020007D07B6A5A607B6B7A685A603B6B1A687B6AE3
S315020007E01A603B6B7A6A1A601A4B1A687B6B5B68F3
S315020007F0D31A184A1360174B1A681A4B1B689A4287
S3150200080003D2144B1B68174A13607B6B5B6843F079
S3150200081000427B6B5A607B6B00221A60124B1B688C
S315020008200133114A136001F007FBFB6A03F0070369
S31502000830002B07D00123FB60FB6883F3108800BFFF
S3150200084000BFFDE7FB6A18463837BD4680BD00BFCC
S3150200085038F202223CF2022230F202223002022254
S315020008602FF2022240F2022244F2022280B588B01E
S3150200087000AF78607B68FB617B68002B54D008234D
S315020008805B42FA691344FB61FB69BB61BB69284A97
S31502000890934205D3BB69274A934201D8012300E05C
S315020008A00023002B07D101237B617B6983F3108828
S315020008B000BF00BFFDE7BB695B68002B07DB0123B6
S315020008C03B613B6983F3108800BF00BFFDE7BB694C
S315020008D01B68002B07D00123FB60FB6883F310889B
S315020008E000BF00BFFDE7BB695B68002B1CDABB6972
S315020008F01B68002B18D1BB695B6823F00042BB69F9
S315020009005A6001F08BFABB695A680B4B1B68134499
S31502000910094A1360B86900F06DF8084B1B68013389
S31502000920064A136001F088FA00BF2037BD4680BD33
S31502000930300202222FF202223CF2022248F2022264
S3150200094080B485B000AF4FF47043BB60244BFB60AC
S31502000950FB6803F00703002B0CD0FB680733FB6030
S31502000960FB6823F00703FB60BA68FB68D31A1C4ACC
S315020009701344BB60FB681B4A13601A4B00225A6081
S31502000980FA68BB6813447B6008227B689B1A7B600B
S315020009907B6823F007037B607B68134A1360124B64
S315020009A01B6800225A60104B1B6800221A60FB6803
S315020009B03B603B687A68D21A3B685A600A4B1A68EF
S315020009C03B681A603B685B68084A13603B685B6871
S315020009D0074A136000BF1437BD465DF8047B7047B3
S315020009E03002022230F2022238F2022240F20222BF
S315020009F03CF2022280B487B000AF7860344B7B6150
S31502000A0002E07B691B687B617B691B687A689A4294
S31502000A10F7D87B692E4A934214D07B692D4A9342BA
S31502000A2005D37B692C4A934201D8012300E00023B7
S31502000A30002B07D10123FB60FB6883F3108800BFFC
S31502000A4000BFFDE77B693B617B695B683A691344DA
S31502000A507A689A4208D17B695A687B685B681A444D
S31502000A607B695A607B697B607B683B617B685B68FC
S31502000A703A691A447B691B689A4218D17B691A68DB
S31502000A80164B1B689A420DD07B685A687B691B68B5
S31502000A905B681A447B685A607B691B681A687B68C4
S31502000AA01A6008E00D4B1A687B681A6003E07B69DE
S31502000AB01A687B681A607A697B689A4202D07B69F7
S31502000AC07A681A6000BF1C37BD465DF8047B704722
S31502000AD030F20222300202222FF2022238F20222DF
S31502000AE080B483B000AF78607B6803F108027B684C
S31502000AF05A607B684FF0FF329A607B6803F1080206
S31502000B007B68DA607B6803F108027B681A617B689E
S31502000B1000221A6000BF0C37BD465DF8047B7047A1
S31502000B2080B483B000AF78607B6800221A6100BF90
S31502000B300C37BD465DF8047B704780B485B000AFC4
S31502000B40786039607B685B68FB603B68FA685A606C
S31502000B50FB689A683B689A60FB689B683A685A60C9
S31502000B60FB683A689A603B687A681A617B681B6818
S31502000B705A1C7B681A6000BF1437BD465DF8047BB9
S31502000B80704780B485B000AF786039603B681B68F7
S31502000B90BB60BB68B3F1FF3F03D17B681B69FB6097
S31502000BA00CE07B680833FB6002E0FB685B68FB6075
S31502000BB0FB685B681B68BA689A42F6D2FB685A6899
S31502000BC03B685A603B685B683A689A603B68FA68B9
S31502000BD09A60FB683A685A603B687A681A617B6871
S31502000BE01B685A1C7B681A6000BF1437BD465DF845
S31502000BF0047B704780B485B000AF78607B681B6960
S31502000C00FB607B685B687A6892689A607B689B681F
S31502000C107A6852685A60FB685B687A689A4203D1BE
S31502000C207B689A68FB685A607B6800221A61FB68D7
S31502000C301B685A1EFB681A60FB681B681846143745
S31502000C40BD465DF8047B704780B586B000AF78601C
S31502000C50396001237B617B683B613B69002B07D1CD
S31502000C600123FB60FB6883F3108800BF00BFFDE72A
S31502000C703B69002B5ED03B69DB6B002B5AD03B698C
S31502000C801A6C3B69DB6B0021A3FB0223002B00D00D
S31502000C9001210B46002B4DD1FFF75EFC3B691A681A
S31502000CA03B69DB6B3969096C01FB03F31A443B6947
S31502000CB09A603B6900229A633B691A683B695A60EB
S31502000CC03B691A683B69DB6B013B3969096C01FBBD
S31502000CD003F31A443B69DA603B69FF2283F8442036
S31502000CE03B69FF2283F845203B68002B15D13B69FF
S31502000CF01B69002B1BD03B691033184601F08AFB97
S31502000D000346002B13D0144B4FF080525A60BFF3A8
S31502000D104F8F00BFBFF36F8F09E03B691033184650
S31502000D20FFF7DEFE3B6924331846FFF7D9FEFFF7CD
S31502000D3047FC01E000237B617B69002B07D101237D
S31502000D40BB60BB6883F3108800BF00BFFDE77B6909
S31502000D5018461837BD4680BD00ED00E080B58CB060
S31502000D6002AFF860B9607A603B6000237B623B6841
S31502000D70002B07D101233B623B6A83F3108800BF35
S31502000D8000BFFDE7FB68002B2DD03B68002B2AD065
S31502000D907B68002B02D0BB68002B24D07B68002B1B
S31502000DA002D1BB68002B1ED150237B617B69502B7D
S31502000DB007D00123FB61FB6983F3108800BF00BFE4
S31502000DC0FDE77B693B687B627B6A012283F84620EA
S31502000DD097F830207B6A009313467A68B968F868F8
S31502000DE000F060F80AE07B6A002B07D10123BB61A1
S31502000DF0BB6983F3108800BF00BFFDE77B6A184614
S31502000E002837BD4680BD80B58AB002AFF860B960AA
S31502000E101346FB710023FB61FB68002B32D00021D5
S31502000E20BA68FB68A3FB0223002B00D001210B4604
S31502000E30002B27D1FB68BA6802FB03F313F1510FAB
S31502000E4020D8FB68BA6802FB03F3BB61BB69503367
S31502000E501846FFF7F1FBF861FB69002B1DD0FB6911
S31502000E607B617B6950337B61FB69002283F84620F4
S31502000E70FA79FB69009313467A69B968F86800F053
S31502000E8011F80AE0FB69002B07D101233B613B699C
S31502000E9083F3108800BF00BFFDE7FB6918462037C1
S31502000EA0BD4680BD80B584B000AFF860B9607A6097
S31502000EB0FB70BB68002B03D1BB69BA691A6002E0FA
S31502000EC0BB697A681A60BB69FA68DA63BB69BA6891
S31502000ED01A640121B869FFF7B7FEBB69FA7883F88D
S31502000EE04C2000BF1037BD4680BD000080B58EB0D5
S31502000EF000AFF860B9607A603B6000237B63FB68F1
S31502000F003B633B6B002B07D10123BB62BB6A83F3B6
S31502000F10108800BF00BFFDE7BB68002B03D13B6B07
S31502000F201B6C002B01D1012300E00023002B07D10B
S31502000F3001237B627B6A83F3108800BF00BFFDE753
S31502000F403B68022B03D13B6BDB6B012B01D10123E7
S31502000F5000E00023002B07D101233B623B6A83F3A7
S31502000F60108800BF00BFFDE701F07CFC0346002BA2
S31502000F7002D17B68002B01D1012300E00023002B64
S31502000F8007D10123FB61FB6983F3108800BF00BF11
S31502000F90FDE7FFF7E1FA3B6B9A6B3B6BDB6B9A4221
S31502000FA002D33B68022B2CD13A68B968386B00F041
S31502000FB091F9F8623B6B5B6A002B11D03B6B2433D1
S31502000FC0184601F027FA0346002B16D0424B4FF083
S31502000FD080525A60BFF34F8F00BFBFF36F8F0CE092
S31502000FE0FB6A002B09D03C4B4FF080525A60BFF38C
S31502000FF04F8F00BFBFF36F8F00BFFFF7E1FA0123E8
S3150200100066E07B68002B03D1FFF7DAFA00235FE084
S315020010107B6B002B06D107F11403184601F0D0FAB8
S3150200102001237B63FFF7CCFA00F0F8FEFFF794FA90
S315020010303B6B93F844305BB2B3F1FF3F03D13B6B9A
S31502001040002283F844203B6B93F845305BB2B3F140
S31502001050FF3F03D13B6B002283F84520FFF7B0FA2E
S315020010603A1D07F114031146184601F0BFFA03466A
S31502001070002B25D1386B00F025FA0346002B19D038
S315020010803B6B10337A681146184601F05FF9386BEC
S3150200109000F0B0F900F0D0FE0346002B7FF479AFE2
S315020010A00D4B4FF080525A60BFF34F8F00BFBFF314
S315020010B06F8F0CE0386B00F09DF900F0BDFE68E71B
S315020010C0386B00F097F900F0B7FE002300E060E706
S315020010D018463837BD4680BD00ED00E080B58CB0BD
S315020010E000AFF860B9607A600023FB62FB68BB62FE
S315020010F0BB6A002B07D101233B623B6A83F310884C
S3150200110000BF00BFFDE7BB68002B03D1BB6A1B6CA7
S31502001110002B01D1012300E00023002B07D101237C
S31502001120FB61FB6983F3108800BF00BFFDE701F096
S3150200113099FB0346002B02D17B68002B01D10123C8
S3150200114000E00023002B07D10123BB61BB6983F3B7
S31502001150108800BF00BFFDE7FFF7FEF9BB6A9B6B75
S315020011607B627B6A002B21D0B968B86A00F01CF951
S315020011707B6A5A1EBB6A9A63BB6A1B69002B11D033
S31502001180BB6A1033184601F045F90346002B09D015
S315020011903F4B4FF080525A60BFF34F8F00BFBFF3F1
S315020011A06F8F00BFFFF70CFA01236CE07B68002B00
S315020011B003D1FFF705FA002365E0FB6A002B06D18F
S315020011C007F11003184601F0FBF90123FB62FFF752
S315020011D0F7F900F023FEFFF7BFF9BB6A93F8443034
S315020011E05BB2B3F1FF3F03D1BB6A002283F844200E
S315020011F0BB6A93F845305BB2B3F1FF3F03D1BB6ADA
S31502001200002283F84520FFF7DBF93A1D07F11003A8
S315020012101146184601F0EAF90346002B24D1B86AB2
S3150200122000F03AF90346002B18D0BB6A24337A68D9
S315020012301146184601F08AF8B86A00F0DBF800F0A9
S31502001240FBFD0346002B87D1114B4FF080525A60AB
S31502001250BFF34F8F00BFBFF36F8F13E0B86A00F082
S31502001260C9F800F0E9FD77E7B86A00F0C3F800F0C4
S31502001270E3FDB86A00F010F90346002B3FF46CAFA9
S31502001280002300E068E718463037BD4680BD00BF40
S3150200129000ED00E080B584B000AF78607B68FB604B
S315020012A0FB68002B07D10123BB60BB6883F3108860
S315020012B000BF00BFFDE7F86800F068F9FB6893F825
S315020012C04630002B02D1F868FFF7D0FA00BF10377C
S315020012D0BD4680BD80B586B000AFF860B9607A6061
S315020012E000237B61FB689B6B3B61FB681B6C002BDD
S315020012F00DD1FB681B68002B4DD1FB689B68184615
S3150200130001F0CEFA7861FB6800229A6043E07B68BE
S31502001310002B19D1FB685868FB681B6C1A46B96822
S3150200132006F07EFCFB685A68FB681B6C1A44FB6875
S315020013305A60FB685A68FB689B689A422BD3FB6823
S315020013401A68FB685A6026E0FB68D868FB681B6C63
S315020013501A46B96806F064FCFB68DA68FB681B6C1F
S315020013605B421A44FB68DA60FB68DA68FB681B6852
S315020013709A4207D2FB689A68FB681B6C5B421A4466
S31502001380FB68DA607B68022B05D13B69002B02D031
S315020013903B69013B3B613B695A1CFB689A637B696B
S315020013A018461837BD4680BD80B582B000AF78605A
S315020013B039607B681B6C002B18D07B68DA687B6807
S315020013C01B6C1A447B68DA607B68DA687B689B6808
S315020013D09A4203D37B681A687B68DA607B68D968AD
S315020013E07B681B6C1A46386806F01AFC00BF083781
S315020013F0BD4680BD80B584B000AF7860FFF7ACF81B
S315020014007B6893F84530FB7311E07B685B6A002BBF
S3150200141012D07B682433184600F0FCFF0346002BEB
S3150200142001D001F043F9FB7B013BDBB2FB7397F979
S315020014300F30002BE9DC00E000BF7B68FF2283F857
S315020014404520FFF7BDF8FFF787F87B6893F844302D
S31502001450BB7311E07B681B69002B12D07B681033CB
S31502001460184600F0D7FF0346002B01D001F01EF903
S31502001470BB7B013BDBB2BB7397F90E30002BE9DC79
S3150200148000E000BF7B68FF2283F84420FFF798F84C
S3150200149000BF1037BD4680BD80B584B000AF78600E
S315020014A0FFF75AF87B689B6B002B02D10123FB6086
S315020014B001E00023FB60FFF783F8FB68184610374C
S315020014C0BD4680BD80B584B000AF7860FFF744F8B2
S315020014D07B689A6B7B68DB6B9A4202D10123FB60C5
S315020014E001E00023FB60FFF76BF8FB681846103734
S315020014F0BD4680BD80B487B000AF786039600023F6
S315020015003B617B68002B07D10123FB60FB6883F3F9
S31502001510108800BF00BFFDE73B68002B24D00023E4
S315020015207B611EE0184A7B69DB0013445B687A68BC
S315020015309A4205D17B69DB00134A13443B6113E0EF
S315020015403B69002B0AD1104A7B6952F83330002BD3
S3150200155004D17B69DB000C4A13443B617B6901338E
S315020015607B617B69072BDDD93B69002B05D03B6983
S315020015703A681A603B697A685A6000BF1C37BD46F2
S315020015805DF8047B704700BF4CF2022280B485B03E
S3150200159000AF78607B68002B07D10123BB60BB6874
S315020015A083F3108800BF00BFFDE70023FB6016E04F
S315020015B0104AFB68DB0013445B687A689A420BD1D7
S315020015C00C4AFB68002142F833100A4AFB68DB002A
S315020015D0134400225A6006E0FB680133FB60FB6895
S315020015E0072BE5D900BF00BF1437BD465DF8047B63
S315020015F0704700BF4CF2022280B586B000AFF86099
S31502001600B9607A60FB687B61FEF7A6FF7B6993F897
S3150200161044305BB2B3F1FF3F03D17B69002283F80A
S3150200162044207B6993F845305BB2B3F1FF3F03D1A7
S315020016307B69002283F84520FEF7C2FF7B699B6B1C
S31502001640002B06D17B6924337A68B968184600F004
S315020016509FFE7869FFF7CEFE00BF1837BD4680BDF4
S3150200166080B58EB004AFF860B9607A603B607B6B80
S31502001670002B07D101233B623B6A83F3108800BF2C
S3150200168000BFFDE7BB6B002B07D10123FB61FB69A2
S3150200169083F3108800BF00BFFDE770237B617B697F
S315020016A0702B07D00123BB61BB6983F3108800BF8F
S315020016B000BFFDE77B69BB6B002B1FD07B6B002B4A
S315020016C01CD0BB6B7B6270220021786A06F072FA2C
S315020016D07B6A7A6B1A637B6A022283F86D20002387
S315020016E003937B6A0293FB6B01933B6B00933B680C
S315020016F07A68B968F86800F08FF801E000237B6227
S315020017007B6A18462837BD4680BD80B58AB004AFCD
S31502001710F860B9607A603B6000233B6107F1100311
S315020017200393BB6A02937B6A01933B6A00933B680D
S315020017307A68B968F868FFF793FF78617B69002BCE
S3150200174002D0786900F0F8F83B6918461837BD46AA
S3150200175080BD80B58AB004AFF860B9607A603B603C
S315020017607B689B001846FEF767FF38613B69002BD2
S3150200177013D07020FEF760FF78617B69002B08D0DA
S3150200178070220021786906F015FA7B693A691A63B4
S3150200179005E03869FFF76AF801E000237B617B699F
S315020017A0002B11D07B69002283F86D20002303935E
S315020017B07B6902937B6A01933B6A00933B687A6872
S315020017C0B968F86800F028F87B6918461837BD46EC
S315020017D080BD80B588B002AFF860B9607A603B60C0
S315020017E07B6A01933B6A00933B687A68B968F8683A
S315020017F0FFF7AFFF38613B69002B05D0386900F06F
S315020018009BF801237B6102E04FF0FF337B617B692A
S3150200181018461837BD4680BD80B588B000AFF8605F
S31502001820B9607A603B603B6B186B7B689B001A461B
S31502001830A52106F0BFF93B6B1A6B7B6803F1804367
S31502001840013B9B001344BB61BB6923F00703BB61E9
S31502001850BB6903F00703002B07D001237B617B6979
S3150200186083F3108800BF00BFFDE73B6BBA695A6578
S31502001870BB68002B20D00023FB6114E0BA68FB6929
S31502001880134493F900103A6BFB69134434330A4646
S315020018901A70BA68FB69134493F90030002B06D01C
S315020018A0FB690133FB61FB691F2BE7D900E000BF2F
S315020018B03B6B002283F85320BB6A372B07D90123DF
S315020018C03B613B6983F3108800BF00BFFDE7BB6A3B
S315020018D0372B01D93723BB623B6BBA6ADA623B6BA1
S315020018E0BA6A1A663B6B04331846FFF719F93B6B63
S315020018F018331846FFF714F93B6B3A6B1A61BB6A49
S31502001900C3F138023B6B9A613B6B3A6B5A623B6B93
S31502001910196B3B68FA68B869FEF7C2FD02463B6B73
S315020019201A60FB6A002B02D0FB6A3A6B1A6000BF90
S315020019302037BD4680BD000080B584B000AF786018
S31502001940FEF70AFE434B1B680133424A1360424BC1
S315020019501B68002B09D1404A7B6813603D4B1B680C
S31502001960012B10D100F0C8FE0DE03C4B1B68002B8A
S3150200197009D1394B1B68DA6A7B68DB6A9A4202D85C
S31502001980354A7B681360364B1B680133344A136051
S31502001990334B1A687B689A657B68DA6A314B1B6837
S315020019A09A4203D97B68DB6A2E4A13607B68DA6A3D
S315020019B02D4913469B0013449B000B4404331B68BA
S315020019C0FB607B68FA689A60FB689A687B68DA60F3
S315020019D0FB689B687A6804325A607B681A1DFB684A
S315020019E09A607B68DA6A13469B0013449B001E4A80
S315020019F01A447B685A617B68DA6A1B4913469B0064
S31502001A0013449B000B441B687A68D26A591C164819
S31502001A1013469B0013449B0003441960FEF7D0FD56
S31502001A200E4B1B68002B10D00B4B1B68DA6A7B68C7
S31502001A30DB6A9A4209D20D4B4FF080525A60BFF3CD
S31502001A404F8F00BFBFF36F8F00BF00BF1037BD4679
S31502001A5080BD00BF60F702228CF202226CF70222DE
S31502001A607CF7022268F7022290F2022200ED00E0E1
S31502001A7080B586B000AF786000237B61FEF76CFD0F
S31502001A807B68002B02D1344B1B6800E07B683B610C
S31502001A903B6904331846FFF7ADF83B699B6A002B96
S31502001AA004D03B6918331846FFF7A4F82B4B1B6882
S31502001AB001332A4A1360284B1B683A699A4201D1BC
S31502001AC0012300E00023FB60254B1B68002B10D08E
S31502001AD0FB68002B0DD03B69043319462148FFF7FA
S31502001AE02CF8214B1B6801331F4A136001237B61CB
S31502001AF006E01E4B1B68013B1C4A136000F096FE73
S31502001B00FEF75EFD7B69012B02D0386900F062FEAA
S31502001B10134B1B68002B1AD00F4B1B683A699A426B
S31502001B2015D1134B1B68002B07D00123BB60BB6882
S31502001B3083F3108800BF00BFFDE70E4B4FF08052C3
S31502001B405A60BFF34F8F00BFBFF36F8F00BF00BF56
S31502001B501837BD4680BD00BF8CF202227CF70222F6
S31502001B606CF7022234F7022248F7022260F70222B9
S31502001B7088F7022200ED00E080B58AB000AF7860F7
S31502001B80396000237B627B68002B07D101237B61CE
S31502001B907B6983F3108800BF00BFFDE73B68002B1B
S31502001BA007D101233B613B6983F3108800BF00BF65
S31502001BB0FDE700F033F9294B1B683B62284B1B6893
S31502001BC0012B07D00123FB60FB6883F3108800BF5B
S31502001BD000BFFDE77B681B683A681344FB617B68BC
S31502001BE01B683A6A9A420BD27B681B68FA699A4268
S31502001BF011D2FA693B6A9A420DD901237B620AE045
S31502001C007B681B68FA699A4203D3FA693B6A9A426D
S31502001C1001D901237B627B68FA691A607B6A002B11
S31502001C2006D0FA693B6AD31A0021184600F0CAFEAA
S31502001C3000F002F9B861BB69002B09D1094B4FF0DC
S31502001C4080525A60BFF34F8F00BFBFF36F8F00BF42
S31502001C507B6A18462837BD4680BD00BF64F702225C
S31502001C6088F7022200ED00E080B584B000AF78600C
S31502001C700023FB607B68002B14D000F0CFF8124BD8
S31502001C801B68012B07D00123BB60BB6883F3108856
S31502001C9000BF00BFFDE70021786800F093FE00F068
S31502001CA0CBF8F860FB68002B09D1084B4FF0805245
S31502001CB05A60BFF34F8F00BFBFF36F8F00BF00BFE5
S31502001CC01037BD4680BD00BF88F7022200ED00E056
S31502001CD080B594B004AF0123FB6300233B6300236A
S31502001CE07B6315E02C4A7B6B134493F9001007F1D2
S31502001CF010027B6B13440A461A7007F110027B6BC3
S31502001D00134493F90030002B06D07B6B01337B63BF
S31502001D107B6B1F2BE6DD00E000BF0023BB6331E0D7
S31502001D201E4B3B630023FB600023BB603A1D07F199
S31502001D30080107F10C03184602F066F87868BB68DA
S31502001D40FA6807F11001029201930023009300231F
S31502001D500246386BFFF7D9FC02461149BB6B41F8C4
S31502001D6023200F4ABB6B52F82330002B02D00123EB
S31502001D70FB6301E00023FB63FB6B002B06D0BB6B0E
S31502001D800133BB63BB6B002BCADD00E000BFFB6BFC
S31502001D9018464037BD4680BD3C990002C526000262
S31502001DA084F7022280B584B000AFFFF791FFF86096
S31502001DB0FB68012B02D100F075FEF860FB68012B6F
S31502001DC012D10123BB60BB6883F3108800BF0F4B9F
S31502001DD04FF0FF321A600E4B01221A600D4B0022A1
S31502001DE01A60FEF7A1FB0BE0FB68B3F1FF3F07D1D8
S31502001DF001237B607B6883F3108800BF00BFFDE789
S31502001E00054B1B6800BF1037BD4680BD80F7022216
S31502001E106CF7022264F702223899000280B400AFFE
S31502001E20044B1B680133034A136000BFBD465DF8CD
S31502001E30047B704788F7022280B588B000AF002382
S31502001E40FB610023BB61FEF787FB00233B61754BF9
S31502001E501B68002B07D101233B603B6883F3108884
S31502001E6000BF00BFFDE76F4B1B68013B6D4A136065
S31502001E706C4B1B68002B40F0CD806B4B1B68002B14
S31502001E8000F0C8808FE0694BDB68DB68FB61FB69A9
S31502001E909B6AFB60FB69DB69FA69126A9A60FB69F5
S31502001EA01B6AFA69D2695A60FB685A68FB69183379
S31502001EB09A4203D1FB691A6AFB685A60FB690022DF
S31502001EC09A62FB681B685A1EFB681A60FB695B69AB
S31502001ED0BB60FB699B68FA69D2689A60FB69DB683A
S31502001EE0FA6992685A60BB685A68FB6904339A4277
S31502001EF003D1FB69DA68BB685A60FB6900225A6142
S31502001F00BB681B685A1EBB681A60FB69DA6A484BD3
S31502001F101B689A4203D9FB69DB6A454A1360FB696F
S31502001F20DA6A444913469B0013449B000B4404336C
S31502001F301B687B60FB697A689A607B689A68FB69B2
S31502001F40DA607B689B68FA6904325A60FB691A1D7B
S31502001F507B689A60FB69DA6A13469B0013449B000E
S31502001F60344A1A44FB695A61FB69DA6A31491346F3
S31502001F709B0013449B000B441B68FA69D26A591CE6
S31502001F802C4813469B0013449B0003441960FB69CB
S31502001F90DA6A294B1B68DB6A9A4204D9274A3B69EB
S31502001FA0012142F82310214B1B68002B7FF46BAFF3
S31502001FB0FB69002B01D000F039FC214B1B687B61C9
S31502001FC07B69002B12D000F04FF80346002B04D099
S31502001FD01A4A3B69012142F823107B69013B7B6166
S31502001FE07B69002BEFD1164B00221A60134A3B691C
S31502001FF052F82330002B0DD00123BB610E4B1B6818
S31502002000104B4FF080525A60BFF34F8F00BFBFF3A1
S315020020106F8F00BFFEF7D4FABB6918462037BD465C
S3150200202080BD00BF88F7022260F7022220F7022253
S3150200203068F7022290F202228CF2022274F702223E
S3150200204070F7022200ED00E080B483B000AF054BCA
S315020020501B687B607B6818460C37BD465DF8047BBF
S31502002060704700BF64F7022280B58AB000AF002332
S315020020707B627D4B1B68002B40F0EC807B4B1B6820
S3150200208001333B62794A3B6A13603B6A002B1DD1DE
S31502002090774B1B681B68002B07D001237B607B688C
S315020020A083F3108800BF00BFFDE7714B1B68FB611D
S315020020B0704B1B686E4A13606E4AFB6913606E4B67
S315020020C01B6801336C4A136000F0B0FB6B4B1B6854
S315020020D03A6A9A42C0F0A980654B1B681B68002BBE
S315020020E004D1664B4FF0FF321A609EE0604B1B68CC
S315020020F0DB68DB68BB61BB695B687B613A6A7B69EB
S315020021009A4203D25D4A7B6913608EE0BB695B69C2
S315020021103B61BB699B68BA69D2689A60BB69DB6836
S31502002120BA6992685A603B695A68BB6904339A4233
S3150200213003D1BB69DA683B695A60BB6900225A61FE
S315020021403B691B685A1E3B691A60BB699B6A002B76
S315020021501ED0BB699B6AFB60BB69DB69BA69126AFE
S315020021609A60BB691B6ABA69D2695A60FB685A6887
S31502002170BB6918339A4203D1BB691A6AFB685A6073
S31502002180BB6900229A62FB681B685A1EFB681A60CA
S31502002190BB69DA6A3A4B1B689A4203D9BB69DB6AA6
S315020021A0374A1360BB69DA6A364913469B00134401
S315020021B09B000B4404331B68BB60BB69BA689A6018
S315020021C0BB689A68BB69DA60BB689B68BA69043205
S315020021D05A60BB691A1DBB689A60BB69DA6A134604
S315020021E09B0013449B00274A1A44BB695A61BB6988
S315020021F0DA6A244913469B0013449B000B441B686E
S31502002200BA69D26A591C1F4813469B0013449B00A5
S3150200221003441960BB69DA6A1B4B1B68DB6A9A4284
S315020022207FF65AAF01237B6256E7174B1B68DA6AC1
S31502002230144913469B0013449B000B441B68012B55
S3150200224001D901237B62114B1B68002B07D00123A6
S315020022507B6204E00E4B1B6801330D4A13607B6AF6
S3150200226018462837BD4680BD88F7022264F7022247
S3150200227018F702221CF7022278F7022280F70222BE
S3150200228068F7022290F202228CF2022274F70222EC
S3150200229070F7022280B485B000AF274B1B68002B73
S315020022A003D0264B01221A603FE0244B00221A601B
S315020022B0234B1B68FB600DE0FB68002B07D1012353
S315020022C07B607B6883F3108800BF00BFFDE7FB6875
S315020022D0013BFB601B49FA6813469B0013449B00B3
S315020022E00B441B68002BE7D0FA6813469B00134485
S315020022F09B00144A1344BB60BB685B685A68BB68A0
S315020023005A60BB685A68BB6808339A4203D1BB68F5
S31502002310DA68BB685A60BB685B68DB680A4A1360A6
S31502002320074AFB681360084B1B6800BF1437BD469B
S315020023305DF8047B704700BF88F7022274F7022219
S3150200234068F7022290F202228CF2022280B584B051
S3150200235000AF786039607B68002B07D10123FB60F0
S31502002360FB6883F3108800BF00BFFDE7074B1B68BD
S31502002370183319467868FEF704FC0121386800F024
S3150200238021FB00BF1037BD4680BD00BF8CF2022282
S3150200239080B586B000AFF860B9607A60FB68002B42
S315020023A007D101233B613B6983F3108800BF00BF5D
S315020023B0FDE7FB685B687B61154B1B687A69DA612E
S315020023C0134B1B687A6992681A62114B1A687B6909
S315020023D09B6818325A600E4B1B6803F118027B6920
S315020023E09A600B4B1B68FA689A62FB681B685A1C58
S315020023F0FB681A607B68002B02D04FF0FF33BB608C
S315020024007968B86800F0DEFA00BF1837BD4680BDAD
S315020024108CF2022280B48BB000AF78607B68DB68F6
S31502002420DB683B623B6A002B07D10123FB60FB683A
S3150200243083F3108800BF00BFFDE73B6A9B6AFB611E
S315020024403B6ADB693A6A126A9A603B6A1B6A3A6AB3
S31502002450D2695A60FB695A683B6A18339A4203D1B9
S315020024603B6A1A6AFB695A603B6A00229A62FB69F6
S315020024701B685A1EFB691A604B4B1B68002B61D105
S315020024803B6A5B697B613B6A9B683A6AD2689A607F
S315020024903B6ADB683A6A92685A607B695A683B6AA9
S315020024A004339A4203D13B6ADA687B695A603B6A13
S315020024B000225A617B691B685A1E7B691A603B6A55
S315020024C0DA6A3A4B1B689A4203D93B6ADB6A374A95
S315020024D013603B6ADA6A364913469B0013449B0033
S315020024E00B4404331B683B613B6A3A699A603B6959
S315020024F09A683B6ADA603B699B683A6A04325A60B8
S315020025003B6A1A1D3B699A603B6ADA6A13469B006C
S3150200251013449B00264A1A443B6A5A613B6ADA6AAA
S31502002520234913469B0013449B000B441B683A6ADB
S31502002530D26A591C1E4813469B0013449B0003444F
S3150200254019601BE01B4B5B68BB613B6ABA69DA61C7
S31502002550BB699A683B6A1A62BB699B683A6A183217
S315020025605A603B6A03F11802BB699A603B6A114AD8
S315020025709A62104B1B6801330E4A13603B6ADA6A91
S315020025800D4B1B68DB6A9A4205D901237B620B4B12
S3150200259001221A6001E000237B627B6A18462C370F
S315020025A0BD465DF8047B704788F7022268F702226F
S315020025B090F2022220F702228CF2022274F7022201
S315020025C080B483B000AF7860064B1A687B681A60E5
S315020025D0054B1A687B685A6000BF0C37BD465DF82A
S315020025E0047B704778F7022264F7022280B588B02E
S315020025F000AF786039607B68002B07D101233B610D
S315020026003B6983F3108800BF00BFFDE73B68002BE0
S3150200261007D10123FB60FB6883F3108800BF00BF6C
S31502002620FDE7FDF799FF1F4B1B68BB617B685B6883
S31502002630BA69D31A7B613B681B68B3F1FF3F02D1CB
S315020026400023FB6126E07B681A68174B1B689A42D7
S315020026500AD07B685B68BA699A4205D30123FB619B
S315020026603B6800221A6015E03B681B687A699A4249
S315020026700BD23B681A687B69D21A3B681A60786883
S31502002680FFF79EFF0023FB6104E03B6800221A600D
S315020026900123FB61FDF794FFFB6918462037BD460F
S315020026A080BD00BF64F7022278F7022280B400AF31
S315020026B0034B01221A6000BFBD465DF8047B7047DA
S315020026C074F7022280B582B000AF786000F054F849
S315020026D0074B1B68012BF9D9064B4FF080525A6003
S315020026E0BFF34F8F00BFBFF36F8F00BFEEE700BF90
S315020026F090F2022200ED00E080B582B000AF002326
S315020027007B600CE07A6813469B0013449B00124AD6
S3150200271013441846FEF7E4F97B6801337B607B6855
S31502002720372BEFD90D48FEF7DBF90D48FEF7D8F93E
S315020027300C48FEF7D5F90C48FEF7D2F90B48FEF71E
S31502002740CFF90B4B054A1A600A4B054A1A6000BFBD
S315020027500837BD4680BD00BF90F20222F0F6022283
S3150200276004F7022220F7022234F702224CF7022251
S3150200277018F702221CF7022280B582B000AF19E0D8
S31502002780FDF7EAFE104BDB68DB687B607B6804338F
S315020027901846FEF72FFA0D4B1B68013B0B4A1360D6
S315020027A00B4B1B68013B0A4A1360FDF709FF786869
S315020027B000F010F8064B1B68002BE1D100BF00BFEA
S315020027C00837BD4680BD00BF34F7022260F70222F9
S315020027D048F7022280B584B000AF78607B6893F830
S315020027E06D30002B08D17B681B6B1846FEF73EF84E
S315020027F07868FEF73BF815E07B6893F86D30012B9D
S3150200280003D17868FEF732F80CE07B6893F86D30F6
S31502002810022B07D00123FB60FB6883F3108800BFFD
S3150200282000BFFDE700BF1037BD4680BD80B400AFD4
S315020028300A4B1B681B68002B04D1094B4FF0FF3271
S315020028401A6005E0054B1B68DB681B68044A1360C7
S3150200285000BFBD465DF8047B704700BF18F7022231
S3150200286080F7022280B483B000AF0B4B1B68002BAB
S3150200287002D101237B6008E0084B1B68002B02D1C2
S3150200288002237B6001E000237B607B6818460C37DD
S31502002890BD465DF8047B70476CF7022288F7022278
S315020028A080B588B000AF78607B68BB610023FB61AE
S315020028B07B68002B7AD0404B1B68BA699A4207D0D4
S315020028C001233B613B6983F3108800BF00BFFDE72C
S315020028D0BB695B6E002B07D10123FB60FB6883F3A8
S315020028E0108800BF00BFFDE7BB695B6E5A1EBB695D
S315020028F05A66BB69DA6ABB691B6E9A4256D0BB69D5
S315020029005B6E002B52D1BB6904331846FEF772F98F
S31502002910BB691A6EBB69DA62BB69DB6AC3F138024C
S31502002920BB699A61BB69DA6A244B1B689A4203D96E
S31502002930BB69DB6A214A1360BB69DA6A204913461E
S315020029409B0013449B000B4404331B687B61BB69E9
S315020029507A699A607B699A68BB69DA607B699B6867
S31502002960BA6904325A60BB691A1D7B699A60BB69EF
S31502002970DA6A13469B0013449B00114A1A44BB6948
S315020029805A61BB69DA6A0E4913469B0013449B00DF
S315020029900B441B68BA69D26A591C094813469B0044
S315020029A013449B00034419600123FB61FB6918462B
S315020029B02037BD4680BD00BF8CF2022268F7022294
S315020029C090F2022280B588B000AF786039602F4B52
S315020029D01B68FB612E4B1B68BB612E4B1B687B6120
S315020029E02D4B1B6804331846FEF704F97B68B3F1D6
S315020029F0FF3F24D13B68002B21D0284B5B683B610B
S31502002A00254B1B683A699A60234B1B683A699268A0
S31502002A10DA60214B1A683B699B6804325A601E4B86
S31502002A201B681A1D3B699A601B4B1B681B4A5A613D
S31502002A301A4B1B680133194A136000BF22E0FA6978
S31502002A407B681344FB60144B1B68FA685A60FA6889
S31502002A50FB699A4207D2104B1B6804331946786900
S31502002A60FEF78FF80EE00C4B1B6804331946B86963
S31502002A70FEF787F80A4B1B68FA689A4202D2084A9E
S31502002A80FB68136000BF2037BD4680BD64F7022293
S31502002A9018F702221CF702228CF202224CF70222BB
S31502002AA080F7022280B58AB004AF00237B6100F072
S31502002AB07DFA1B4B1B68002B21D00023FB600023F1
S31502002AC0BB603A1D07F1080107F10C03184601F035
S31502002AD0B5F97968BB68FA680292019302230093FA
S31502002AE000230A460F491048FEF70FFE03460F4A17
S31502002AF013600E4B1B68002B01D001237B617B699F
S31502002B00002B07D101233B613B6983F3108800BF89
S31502002B1000BFFDE77B6918461837BD4680BD00BF7A
S31502002B20BCF7022244990002D52B0002C0F702220A
S31502002B3080B584B000AFF860B9607A6008E0FB68DF
S31502002B409B69BA681344BB60FB681B6AF8689847BE
S31502002B50FB689A69BB68D118BB687A68F86800F0A6
S31502002B60E1F80346002BEAD100BF00BF1037BD468D
S31502002B7080BD000080B584B000AF78603960144B28
S31502002B801B68DB68DB68FB60FB6804331846FEF7EC
S31502002B9031F8FB6893F8283003F00403002B05D0C4
S31502002BA03A687968F868FFF7C3FF08E0FB6893F8AC
S31502002BB0283023F00103DAB2FB6883F82820FB6889
S31502002BC01B6AF868984700BF1037BD4680BD00BF34
S31502002BD0B4F7022280B584B000AF786007F108032B
S31502002BE0184600F05BF8F860BB681946F86800F012
S31502002BF005F800F0D9F800BFF0E7000080B584B010
S31502002C0000AF78603960FFF709F907F10803184643
S31502002C1000F068F8F860BB68002B31D13B68002BE6
S31502002C200AD17A68FB689A4206D8FFF705F9F9686D
S31502002C307868FFF79FFF26E03B68002B08D0144B0D
S31502002C401B681B68002B01D1012300E000233B60B7
S31502002C50104B18687A68FB68D31A3A681946FEF769
S31502002C60CBFCFFF7E9F80346002B0CD10A4B4FF0D9
S31502002C7080525A60BFF34F8F00BFBFF36F8F02E0DF
S31502002C80FFF7DAF8FFE700BF1037BD4680BD00BF89
S31502002C90B8F70222BCF7022200ED00E080B485B04C
S31502002CA000AF78600E4B1B681B68002B01D1012216
S31502002CB000E000227B681A607B681B68002B05D146
S31502002CC0074B1B68DB681B68FB6001E00023FB60A7
S31502002CD0FB6818461437BD465DF8047B704700BF93
S31502002CE0B4F7022280B584B000AF7860FFF7ACF982
S31502002CF0F8600B4B1B68FA689A4205D200F030F96D
S31502002D007B6801221A6002E07B6800221A60044A8C
S31502002D10FB681360FB6818461037BD4680BD00BFCE
S31502002D20C4F7022280B586B000AFF860B9607A6057
S31502002D303B6000237B61FB68BA685A60FB68FA68ED
S31502002D401A61BA687B689A4212D87A683B68D21AC4
S31502002D50FB689B699A4202D301237B611BE0104BFD
S31502002D601A68FB68043319461046FDF70AFF12E09B
S31502002D707A683B689A4206D2BA683B689A4202D39C
S31502002D8001237B6107E0074B1A68FB680433194687
S31502002D901046FDF7F6FE7B6918461837BD4680BD1C
S31502002DA0B8F70222B4F7022280B58AB000AF3B1D03
S31502002DB000221A605A609A60DA60BFE07B68002BD4
S31502002DC015DA3B1D04337B627B6A002B07D1012394
S31502002DD0BB61BB6983F3108800BF00BFFDE77B6A56
S31502002DE01B687A6A50687A6A9268114698477B68C5
S31502002DF0002BC0F2A380FB683B623B6A5B69002B37
S31502002E0004D03B6A04331846FDF7F4FE3B461846E7
S31502002E10FFF768FFF8617B68013B082B00F28B80A5
S31502002E2001A252F823F000BF4D2E00024D2E0002E1
S31502002E30B52E0002C92E00020D2F00024D2E0002F1
S31502002E404D2E0002B52E0002C92E00023B6A93F8EF
S31502002E50283043F00103DAB23B6A83F82820BA68C5
S31502002E603B6A9B69D118BB68FA69386AFFF75AFF51
S31502002E700346002B61D03B6A93F8283003F0040323
S31502002E80002B09D0BA683B6A9B691344FA69194652
S31502002E90386AFFF74DFE08E03B6A93F8283023F0C4
S31502002EA00103DAB23B6A83F828203B6A1B6A386A56
S31502002EB0984742E03B6A93F8283023F00103DAB2DE
S31502002EC03B6A83F8282039E03B6A93F8283043F0BE
S31502002ED00103DAB23B6A83F82820BA683B6A9A6130
S31502002EE03B6A9B69002B07D101237B617B6983F3D4
S31502002EF0108800BF00BFFDE73B6A9A69FB69D118DB
S31502002F00FB69FA69386AFFF70DFF17E03B6A93F827
S31502002F10283003F00203002B03D1386AFDF7A6FC22
S31502002F200CE03B6A93F8283023F00103DAB23B6ADD
S31502002F3083F8282002E000BF00E000BF074B1B68B1
S31502002F40391D00221846FEF7C9F80346002B7FF406
S31502002F5035AF00BF00BF2837BD4680BDBCF7022291
S31502002F6080B582B000AF09E00E4B1B68DB681B68B8
S31502002F703B604FF0FF313868FFF7FCFD094B1B68D9
S31502002F801B68002BF0D1074B1B687B60064B1B6846
S31502002F90044A1360044A7B68136000BF0837BD46C3
S31502002FA080BD00BFB4F70222B8F7022280B582B014
S31502002FB002AFFDF7D1FA154B1B68002B20D114483E
S31502002FC0FDF78EFD1348FDF78BFD134B104A1A6071
S31502002FD0124B104A1A6000230093114B114A10211A
S31502002FE00A20FDF7BBFE0346084A1360074B1B681F
S31502002FF0002B05D0054B1B680B491846FEF77AFADB
S31502003000FDF7DEFA00BFBD4680BD00BFBCF7022257
S315020030108CF70222A0F70222B4F70222B8F70222A4
S3150200302068F80222C8F702224C99000280B400AF67
S3150200303000231846BD465DF8047B704780B500AF95
S31502003040FFF702F80346184680BD80B582B000AF8E
S315020030507860FFF7F3FF02467B689A607B681B681D
S3150200306004331B687868984700BF0837BD4680BDA1
S3150200307080B582B000AF786039607B680833396802
S315020030801846FEF779FD0346012B0CBF01230023E8
S31502003090DBB218460837BD4680BD80B582B000AFA8
S315020030A07860786800F009F80346184600F008F9D7
S315020030B0034618460837BD4680BD80B582B000AFCC
S315020030C07860FFF7B3FF0346002B0AD0786800F05A
S315020030D002F9034683F00103DBB2002B01D0012380
S315020030E000E00023002B7B68184600F001F9034636
S315020030F018460837BD4680BDF0B52DED028B95B05A
S3150200310006AFF8605349544800F022FDFB681B697C
S31502003110194607F114034FF0FF32184600F0A4F8DF
S3150200312007F11403184600F0BFF80346002BEDD052
S3150200313007F114031846FFF7B0FF0346D3ED007AF2
S315020031409FED467A67EE877ABDEEE78A07F11403AA
S315020031501846FFF7A2FF0346D3ED017A9FED3F7AA9
S3150200316067EE877AFDEEE78A07F114031846FFF742
S3150200317094FF0346D3ED027A9FED387A67EE877A9B
S31502003180FDEEE77A17EE904A07F114031846FFF7A9
S3150200319084FF0346D3ED037A9FED307A67EE877A92
S315020031A0FDEEE77A17EE905A07F114031846FFF779
S315020031B074FF0346D3ED047A9FED287A67EE877A89
S315020031C0FDEEE77A17EE906A07F114031846FFF749
S315020031D064FF0346D3ED057A9FED207A67EE877A80
S315020031E0FDEEE77AC7ED027A07F114031846FFF7F8
S315020031F054FF0346D3ED067A9FED197A67EE877A76
S31502003200FDEEE77AC7ED017A07F114031846FFF7D8
S3150200321044FF0346D3ED077A9FED117A67EE877A6C
S31502003220FDEEE77A17EE903A05937B680493BB6846
S31502003230039302960195009418EE903A18EE102A1E
S315020032400849054800F034FCFB681E211846FFF7C2
S315020032500FFF5BE754990002B403032200007A448D
S315020032600000C8426C99000290B58DB000AFF860BC
S31502003270B9607A60BB681B6807F110017A68184664
S31502003280FDF72CFF0346012B06D107F11003194661
S31502003290F86800F038F803E02146F86800F072F8A2
S315020032A0F8683437BD4690BD80B582B000AF78600D
S315020032B0786800F010F8034618460837BD4680BD08
S315020032C080B483B000AF78607B6818460C37BD4681
S315020032D05DF8047B704780B483B000AF78607B688A
S315020032E093F8203018460C37BD465DF8047B7047CC
S315020032F080B483B000AF78607B6818460C37BD4651
S315020033005DF8047B7047B0B582B000AF7860396073
S315020033107C68386800F044F803461A462946204677
S3150200332000F05AF87B6818460837BD46B0BD80B52E
S3150200333082B000AF78607B68184600F062F87B685E
S31502003340002283F820207B6818460837BD4680BDD8
S3150200335080B582B000AF78607B681846FFF7E7FF5A
S315020033607B6818460837BD4680BD80B582B000AF7F
S3150200337078607B681846FFF7EBFF7B6818460837CC
S31502003380BD4680BD80B582B000AF786039707B687B
S315020033901846FFF7EAFF7B6818460837BD4680BD28
S315020033A080B483B000AF78607B6818460C37BD46A0
S315020033B05DF8047B704790B585B000AFF86039724E
S315020033C07A60FB687A682146184600F025F8FB68A1
S315020033D018461437BD4690BDB0B584B000AFF8604C
S315020033E039727A60FC687868FFF7DAFF03461A4694
S315020033F029462046FFF7DFFFFB6818461037BD4611
S31502003400B0BD80B483B000AF78607B6818460C37D5
S31502003410BD465DF8047B7047B0B584B000AFF86076
S3150200342039727A60FC687868FFF7BAFF03461A4673
S315020034302946204600F009F8FB68012283F820207D
S31502003440FB6818461037BD46B0BDB0B584B000AFB4
S31502003450F86039727A607868FFF7A2FF0246FB6865
S315020034601C4615460FCD0FC495E80F0084E80F00E1
S31502003470FB6818461037BD46B0BD80B582B000AFB6
S3150200348078607868FEF7F0FB00BF0837BD4680BD5E
S3150200349080B485B000AFF860B9607A60FB68BA683C
S315020034A01A60FB687A685A60FB6800229A60FB68B9
S315020034B00022DA60FB6800221A61FB6800221A7594
S315020034C0FB6818461437BD465DF8047B704780B426
S315020034D083B000AF78600B46FB707B681A697B6825
S315020034E05B689A4217D27B681A687B689B681344AA
S315020034F0FA781A707B689B6801337A685268B3FB64
S31502003500F2F101FB02F29A1A7B689A607B681B69E8
S315020035105A1C7B681A61FB780A2B02D17B6801224E
S315020035201A7500BF0C37BD465DF8047B704780B53F
S3150200353084B000AF7860786800F076F80346002B16
S3150200354002D04FF0FF3321E07B681A687B68DB68A4
S3150200355013441B78FB737B68DB6801337A68526815
S31502003560B3FBF2F101FB02F29A1A7B68DA607B681E
S315020035701B695A1E7B681A61786800F055F8034683
S31502003580002B02D07B6800221A75FB7B1846103787
S31502003590BD4680BD80B483B000AF78607B681B7D7A
S315020035A018460C37BD465DF8047B704780B586B079
S315020035B000AFF860B9607A60FB681B7D83F0010397
S315020035C0DBB2002B01D000232AE000237B610BE053
S315020035D03B69D8B2BA687B69591C796113440246C1
S315020035E01A703B690A2B11D0F868FFF7A0FF386101
S315020035F03B69002B06DB7B68013B7A699A4201D262
S31502003600012300E00023002BE2D100E000BFBA68EC
S315020036107B69134400221A70FB6800221A757B69C3
S3150200362018461837BD4680BD80B483B000AF7860B7
S315020036307B681B69002B0CBF01230023DBB21846F3
S315020036400C37BD465DF8047B7047000080B582B03A
S3150200365000AF78607B681B79042B06D17B689B6878
S31502003660DBB219460348FFF732FF00BF0837BD46F3
S3150200367080BD00BFB8FC022280B5B2B000AF786050
S315020036805549564800F064FA5548FFF783FF03464A
S31502003690002B00F09C8007F12C038022194650482B
S315020036A0FFF784FFC7F8B400D7F8B430002B00F058
S315020036B08E8007F10C0320220021184604F07AFAC4
S315020036C00023C7F8C43007F12C03C7F8C030002323
S315020036D0C7F8BC306AE0D7F8C030C7F8B83004E0A3
S315020036E0D7F8B8300133C7F8B830D7F8B83093F9FD
S315020036F00030002B11D0D7F8B83093F900302C2BBC
S315020037000BD0D7F8B83093F900300A2B05D0D7F88A
S31502003710B83093F900300D2BE2D1D7F8B8301B78C8
S3150200372087F8B330D7F8B83000221A700021D7F8DC
S31502003730C00004F075F987ED2B0AD7F8BC30052BCB
S3150200374009DCD7F8BC309B00C8333B44BC3BD7F8F6
S31502003750AC201A600AE0D7F8BC30063B06339B0061
S31502003760C8333B44BC3BD7F8AC201A60D7F8C43008
S315020037700133C7F8C43097F9B330002B1AD097F942
S31502003780B3300A2B16D097F9B3300D2B12D0D7F8D7
S31502003790B83097F8B3201A70D7F8B8300133C7F8A3
S315020037A0C030D7F8BC300133C7F8BC30D7F8BC30CC
S315020037B0072B90DDD7F8C430052B08DD7B681B6923
S315020037C0184607F10C030022194600F00BF80220F6
S315020037D0FFF753FE58E700BFAC990002B403032279
S315020037E0B8FC022280B584B000AFF860B9607A6096
S315020037F0FB68186800237A68B968FDF777FB034609
S31502003800012B0CBF01230023DBB218461037BD463D
S3150200381080BD000080B500AF4FF4806202490348C4
S31502003820FFF736FE00BF80BDB8F80222B8FC0222BE
S3150200383080B500AFFFF7EEFF80BD80B485B000AF64
S31502003840F860B96011461A460B46FB711346BB7106
S31502003850FB68BA681A60FB68FA791A71FB68BA796A
S315020038605A71FB6818461437BD465DF8047B7047EB
S3150200387080B582B000AF78607B681B68002B04D0ED
S315020038807B681B68184600F09DFE7B681846083761
S31502003890BD4680BD90B5ADF50D7D04AF07F5087345
S315020038A0A3F50773186007F50873A3F50873196083
S315020038B00023C7F81C3207F50873A3F507731B68C4
S315020038C01B79002B5CD007F50873A3F507731868FC
S315020038D000F090F8C7F81802D7F81832414AA2FB4E
S315020038E003239B09C7F81432D7F814323E4AA2FBC7
S315020038F00323DB0AC7F81032D7F814223A4BA3FB8C
S315020039000213DB0A4FF4616101FB03F3D31A374A50
S31502003910A2FB03235B09C7F80C32D7F81422334BF8
S31502003920A3FB021359090B461B015B1A9B00D31A10
S31502003930C7F80832D7F818222A4BA3FB02139B09B1
S315020039404FF47A7101FB03F3D31A07F108000293CD
S31502003950D7F808320193D7F80C320093D7F8103211
S31502003960234A4FF4007104F0B7F80346C7F81C3235
S31502003970D7F81C32B3F5007F02D30023C7F81C32F6
S3150200398007F10802D7F81C32D018D7F81C32C3F553
S31502003990FF73013307F50872A2F508711A46096822
S315020039A004F022F907F50873A3F50673002283F8DB
S315020039B0FF2107F50873A3F507731B681B681C68CC
S315020039C007F10803184604F038F9024607F108031E
S315020039D01946204600F087FE00BF07F50977BD4667
S315020039E090BD00BFD34D6210C5B3A2918988888865
S315020039F0D899000280B483B000AF7860034B1B688D
S31502003A0018460C37BD465DF8047B7047D0FC02228F
S31502003A100EB480B5ADF50F7D02AF07F50C73A3F5B5
S31502003A200B73186007F5107207F50C73A3F5847310
S31502003A301A6007F50C73A3F5847307F596701B6875
S31502003A40D7F83C224FF4807104F0A6F807F50C7300
S31502003A50A3F50B731B685B79002B01D0114B00E0B9
S31502003A60114BC7F82C3207F1080007F5967300933D
S31502003A70D7F82C320D4A4FF4907104F02DF807F165
S31502003A80080207F50C73A3F50B7311461868FFF7C6
S31502003A9001FF00BF07F50D77BD46BDE8804003B0C4
S31502003AA0704700BF589A00026C9A00022C9A0002D4
S31502003AB00EB480B5ADF50F7D02AF07F50C73A3F515
S31502003AC00B73186007F5107207F50C73A3F5847370
S31502003AD01A6007F50C73A3F5847307F596701B68D5
S31502003AE0D7F83C224FF4807104F056F807F50C73B0
S31502003AF0A3F50B731B685B79002B01D0114B00E019
S31502003B00114BC7F82C3207F1080007F5967300939C
S31502003B10D7F82C320D4A4FF4907103F0DDFF07F10E
S31502003B20080207F50C73A3F50B7311461868FFF725
S31502003B30B1FE00BF07F50D77BD46BDE8804003B074
S31502003B40704700BF749A00028C9A00022C9A0002F7
S31502003B500EB480B5ADF50F7D02AF07F50C73A3F574
S31502003B600B73186007F5107207F50C73A3F58473CF
S31502003B701A6007F50C73A3F5847307F596701B6834
S31502003B80D7F83C224FF4807104F006F807F50C735F
S31502003B90A3F50B731B685B79002B01D0114B00E078
S31502003BA0114BC7F82C3207F1080007F596730093FC
S31502003BB0D7F82C320D4A4FF4907103F08DFF07F1BE
S31502003BC0080207F50C73A3F50B7311461868FFF785
S31502003BD061FE00BF07F50D77BD46BDE8804003B024
S31502003BE0704700BF989A0002B09A00022C9A00020F
S31502003BF080B500AFFEF7D6F800BF80BD80B582B0B3
S31502003C0000AF7860084A7B681A607B685B68002BA5
S31502003C1004D07B685B681846FDF72AFF7B68184666
S31502003C200837BD4680BD00BFC89B000280B483B082
S31502003C3000AF7860074A7B681A607B6800225A6088
S31502003C407B6800229A607B6818460C37BD465DF891
S31502003C50047B7047C89B000280B586B002AFF8604D
S31502003C60B9607A603B60FB681846FFF7DFFF0F4AD0
S31502003C70FB681A60FB6800221A73FB68043301931F
S31502003C80BB680093FB687A6839680948FDF7A1FDAD
S31502003C900346012B0CBF01230023DAB2FB681A7319
S31502003CA0FB6818461037BD4680BD00BFB89B0002B0
S31502003CB0B53C000280B582B000AF78607868FFF745
S31502003CC0C4F900BF0837BD4680BD000080B400AF0E
S31502003CD0044B1B680133034A136000BFBD465DF8FF
S31502003CE0047B7047D0FC022280B582B000AF7860B8
S31502003CF0054A7B681A607B681846FFF77FFF7B6878
S31502003D0018460837BD4680BDB89B000280B582B012
S31502003D1000AF78607868074B4FF400720221FFF714
S31502003D209BFF054A7B681A607B6818460837BD46C2
S31502003D3080BD00BFE09A0002A89B000280B582B057
S31502003D4000AF786001224FF485710B4801F02CF91F
S31502003D506420FFF792FB09490948FFF759FE002242
S31502003D604FF48571044801F01FF94FF46170FFF7B3
S31502003D7084FB00BFE6E700BFF8030322E89A0002CD
S31502003D80B403032280B582B000AF786039607868E8
S31502003D90084B4FF480620321FFF75EFF064A7B68F9
S31502003DA01A607B683A681A617B6818460837BD460E
S31502003DB080BD00BFF49A0002D099000280B582B09D
S31502003DC000AF786039607868084B4FF400720421BE
S31502003DD0FFF742FF064A7B681A607B683A681A61F7
S31502003DE07B6818460837BD4680BD00BF049B0002AB
S31502003DF0A499000280B582B000AF7860FFF766FF33
S31502003E0000BF0837BD4680BD80B485B000AFF860FC
S31502003E10B9607A60FB68074A1A60BB68064A1A608C
S31502003E207B6880221A6000BF1437BD465DF8047BAA
S31502003E30704700BFD4FC022244FD022280B485B042
S31502003E4000AFF860B9607A60FB68074A1A60BB681F
S31502003E50064A1A607B684FF480721A6000BF1437F4
S31502003E60BD465DF8047B704744FF0222B4FF02227E
S31502003E7080B582B000AF00237B603149314801F042
S31502003E80A7FE78607B68002B05D02F4B2F4A402176
S31502003E902F4802F0DDFB2B4801F022FF78607B6899
S31502003EA0002B05D0284B294A4321294802F0D0FB92
S31502003EB0244801F043FF78607B68002B05D0224B33
S31502003EC0224A4521224802F0C3FB2249224800F039
S31502003ED0B7FA78607B68002B05D01B4B1B4A48213A
S31502003EE01B4802F0B5FB1D491D4800F0A9FA78608F
S31502003EF07B68002B05D0144B144A4A21144802F061
S31502003F00A7FB01224FF48571164801F04DF84FF4D4
S31502003F107A714FF4FA7002F0A5FB00224FF4857114
S31502003F20104801F041F810491048FFF771FD104999
S31502003F300E48FFF76DFDFFF75BFE00BFFDE700BF12
S31502003F404C9C0002680403220C9B0002209B000288
S31502003F50309B0002249C000234040322E49B0002EC
S31502003F6000040322F8030322449B0002B403032243
S31502003F70689B000280B582B000AF78607868FFF770
S31502003F8065FB00BF0837BD4680BD80B483B000AF75
S31502003F90786000BF0C37BD465DF8047B704780B47D
S31502003FA083B000AF78607B6800221A607B6818468F
S31502003FB00C37BD465DF8047B704780B582B000AF12
S31502003FC0786039607B681846FFF7E9FF00222021F6
S31502003FD03868FCF718FF02467B681A607B68184649
S31502003FE00837BD4680BD80B582B000AF78607B6879
S31502003FF01B681846FDF74EF97B6818460837BD461A
S3150200400080BD80B582B000AF78607B681846FFF746
S31502004010EAFF7B6818460837BD4680BD80B582B088
S3150200402000AF7860054A7B681A607B681846FFF71E
S315020040305BFE7B6818460837BD4680BDA89B00021A
S3150200404080B582B000AF7860054A7B681A607B68EB
S315020040501846FFF749FE7B6818460837BD4680BDFD
S31502004060D099000280B582B000AF7860054A7B68BD
S315020040701A607B681846FFF737FE7B6818460837D2
S31502004080BD4680BDA499000280B500AF012300227F
S3150200409016491748FFF7D1FB164A1749144802F08A
S315020040A0FDFE04211548FFF788FF124A14491348FA
S315020040B002F0F4FE1348FFF729FE0E4A1249114890
S315020040C002F0ECFE0D491148FFF75CFE094A104961
S315020040D00E4802F0E3FE09490E48FFF76FFE054A55
S315020040E00D490C4802F0DAFE00BF80BD049C0002B6
S315020040F0B40303220000002271380002BC0303222B
S3150200410003400002C00303221D400002D003032223
S3150200411041400002E40303226540000280B500AF7D
S31502004120FFF7B2FF80BD80B500AFFFF7A1FE00BF6B
S3150200413080BD000080B582B000AF0346FB71FB79FB
S31502004140022B03D10349044800F01AFF00BF0837C7
S31502004150BD4680BDCC9C0002F803032280B500AFA9
S31502004160FFF7E1FF0023184680BD000080B483B04C
S3150200417000AF03463960FB7197F90730002B0ADB63
S315020041803B68DAB20C4997F907301201D2B20B44F6
S3150200419083F800230AE03B68DAB20849FB7903F0A8
S315020041A00F03043B1201D2B20B441A7600BF0C373E
S315020041B0BD465DF8047B704700E100E000ED00E0DB
S315020041C080B483B000AFEFF303837B607B683B6010
S315020041D03B88C3F308039BB2DBB2103BDBB25BB294
S315020041E018460C37BD465DF8047B704780B483B031
S315020041F000AF78607B68022B04D801227B6802FA42
S3150200420003F31DE07B68032B01D1062318E07B68CC
S31502004210042B01D1082313E07B68052B01D103236C
S315020042200EE07B68062B01D1052309E07B68072B8C
S3150200423001D10A2304E07B68083B102202FA03F349
S3150200424018460C37BD465DF8047B704780B584B0CE
S3150200425000AF0F4B93F85430DBB2FB60FB6803F000
S315020042600F031846FFF7C2FFB860094B93F85530A3
S31502004270DBB203F00F03FB71FB79184602F06CF90F
S315020042800246BB68B2FBF3F318461037BD4680BD43
S3150200429000E0014080B483B000AF03463960FB7191
S315020042A097F9073004493A6841F8232000BF0C37D2
S315020042B0BD465DF8047B7047F004032280B483B0E8
S315020042C000AF0346FB7197F90730044A52F82330D0
S315020042D018460C37BD465DF8047B7047F00403228E
S315020042E080B483B000AF0346FB710C4997F90730DF
S315020042F003F5C65251F8223023F4803341F82230B6
S31502004300064A97F9073003F5C65352F8233000BF21
S315020043100C37BD465DF8047B704700BF0060004065
S3150200432080B584B000AF0346FB7197F90730184693
S31502004330FFF7D6FFBFF35F8F00BF97F90730FB6029
S31502004340FB6803F01F02074997F907305B09012052
S3150200435000FA02F2603341F8232000BF1037BD464F
S3150200436080BD00BF00E100E080B584B000AF034627
S31502004370B9607A60FB7397F90F30B9681846FFF790
S31502004380F5FE97F90F3079681846FFF783FF00BFED
S315020043901037BD4680BD000080B485B000AF03462D
S315020043A0FB7197F90730FB60FB6803F01F020749B0
S315020043B0FB685B09012000FA02F241F8232000BFE4
S315020043C01437BD465DF8047B704700BF00E100E08C
S315020043D080B582B000AF0346FB7197F907301846E5
S315020043E0FFF79EFF97F907301846FFF7D5FF00BF84
S315020043F00837BD4680BD000080B485B000AF0346D5
S31502004400FB7197F90730FB60FB6803F01F020B494B
S3150200441097F907305B09012000FA02F2203341F8CE
S315020044202320BFF34F8F00BFBFF36F8F00BF00BFC4
S315020044301437BD465DF8047B704700BF00E100E01B
S3150200444080B58AB000AF786039607B687B623B6872
S315020044501B7803F5800303F556531B021A467B6A43
S315020044605A627B6A00221A707B6A3A681A623B6851
S315020044705A697B6A9A623B689A697B6A1A637B6AA3
S315020044800022DA623B68DB693B627A6A9378012131
S3150200449061F3010393703B685B78002B05D17A6A5E
S315020044A09378022161F3010393703968786A00F008
S315020044B020FB4FF48063FB610023BB61EFF31083A3
S315020044C0FB60FB68BB6101233B613B6983F3108898
S315020044D000BF394B5A683B681B7819464FF00043B8
S315020044E0CB40DB43344913404B60334B5B680121BD
S315020044F01E2002F0B7F8BB697B617B6983F31088E3
S3150200450000BF7B6A5B6AFA699A603968786A00F06A
S31502004510F5F97B6A00221A617B6A00225A617B6A7C
S3150200452000229A617B6A0022DA61786A00F09CFABC
S315020045303B6A5A897B6A9A817B6A5B6A1F4A9A66D8
S31502004540FB6943F00103FB617B6A1B6A93F9053041
S315020045501846FFF73DFF7B6A1B6A93F90B30184634
S31502004560FFF736FFFB6943F48033FB617B6A1B6A04
S3150200457093F907301846FFF72BFF7B6A1B6A93F9FC
S3150200458009301846FFF724FFFB6943F01003FB616D
S315020045907B6A5B6AFA699A607B6A5B6A1B7FC3F312
S315020045A00003DBB2012BF7D17B6A054A5A6000236E
S315020045B018462837BD4680BD003020401000079DB2
S315020045C04249435380B588B000AF78607B68FB618F
S315020045D0FB695B68364A934201D0072364E0FB69B4
S315020045E05B6A9A68FB695B6A22F440129A60FB690D
S315020045F05B6A9A68FB695B6A22F010029A60FB6941
S315020046005B6A1B7FC3F30013DBB2002BF7D1FB6996
S315020046101B6A93F907301846FFF7EEFEFB691B6A21
S3150200462093F909301846FFF7E7FEFB695B6A9A6859
S31502004630FB695B6A22F480329A60FB691B6A93F912
S3150200464005301846FFF7D8FEFB691B6A93F90B3053
S315020046501846FFF7D1FE0023BB61EFF31083FB6020
S31502004660FB68BB6101233B613B6983F3108800BF92
S31502004670104B5A68FB691B6A1B7819464FF00043B8
S31502004680CB400C4913434B600A4B5B6801211E2049
S3150200469001F0E8FFBB697B617B6983F3108800BF89
S315020046A0FB6900225A60002318462037BD4680BDAA
S315020046B0424943530030204080B487B000AFF860CF
S315020046C0B9607A60FB687B6100233B617B69BA68EB
S315020046D09A617B697A68DA613B6918461C37BD467E
S315020046E05DF8047B704780B487B000AFF860B960AC
S315020046F07A60FB687B617B695B6A9A687B695B6A45
S3150200470022F440129A607B695B6A9B6CC3F38073E6
S31502004710DBB2012BF7D17B695B6A9A687B695B6ABC
S3150200472022F010029A607B695B6A1B7FC3F3001357
S31502004730DBB2002BF7D17B697A685A617B69BA686A
S315020047401A617B695B6A9A687B695B6A42F010123E
S315020047509A60002318461C37BD465DF8047B7047F5
S3150200476080B487B000AFF860B9607A603B60FB68DE
S315020047707B617B69BA689A627B697A681A637B692C
S315020047803A68DA62002318461C37BD465DF8047B98
S31502004790704780B584B000AF786039607B68FB6093
S315020047A0FB685B6A9B6823F44013BB60FB685A6A2A
S315020047B0BB6823F4803323F011039360FB68002265
S315020047C01A61F86800F050F9FB685B6A3A68126889
S315020047D01A61FB685B6ABA689A600023184610374A
S315020047E0BD4680BD80B483B000AF786039603B6857
S315020047F04FF0FF325A603B684FF0FF321A600023D7
S3150200480018460C37BD465DF8047B704780B485B008
S3150200481000AF78600B46FB707B68BB600623FB60CB
S31502004820FB7803F00203DBB2002B29D00023FB60E6
S31502004830BB685B6A9A68BB685B6A22F440129A603C
S31502004840BB685B6A9B6CC3F38073DBB2012BF7D147
S31502004850BB685B6A9A68BB685B6A22F010029A6060
S31502004860BB685B6A1B7FC3F30013DBB2002BF7D175
S31502004870BB6800225A61FB68002B01D0FB680BE083
S31502004880FB7803F00103DBB2002B04D00023FB60AC
S31502004890BB680022DA61FB6818461437BD465DF82C
S315020048A0047B704780B485B000AF786039607B685E
S315020048B0FB60FB68DA693B681A60FB680022DA6112
S315020048C0002318461437BD465DF8047B704780B452
S315020048D083B000AF7860062318460C37BD465DF8F4
S315020048E0047B704780B483B000AF78600623184615
S315020048F00C37BD465DF8047B7047000080B489B072
S3150200490000AF786039603B68DB697B617B695B6815
S315020049103B610023FB614FF48053FB603B685B788D
S315020049201B0203F44073FA681343FB603B68DB78AF
S315020049309B0303F48043FA681343FB607B695B784D
S31502004940DB039BB2FA681343FB607B695B7B5B0507
S3150200495003F40013FA681343FB607B691B781B069A
S3150200496003F04073FA681343FB607B685B6AFA687C
S315020049705A617B691B78022B03D07B691B78032B58
S315020049800AD1374BFB617B691B78022B09D1FB6984
S3150200499043F02003FB6104E03B691B68FA69134399
S315020049A0FB617B685B6AFA691A617B691B7B03F0B0
S315020049B00303BB61BB6943F03003BB613B689B7871
S315020049C0002B0BD03B689B78022B02D14FF48073ED
S315020049D001E04FF44073BA691343BB617B699B786C
S315020049E01B0703F08053BA691343BB617B685B6A9A
S315020049F0BA69DA607B685B6A00229A613B681B7857
S31502004A001A4601239340C3F30903002B03D07B68A4
S31502004A105B6A144A5A627B699B7B03F00103BB60A3
S31502004A207B69DB7BC3F30403DBB21B0203F4F8539B
S31502004A30BA681343BB607B691B7CC3F30403DBB216
S31502004A401B0403F4F813BA681343BB607B685B6A02
S31502004A50BA681A6300BF2437BD465DF8047B704707
S31502004A6004FF00FF00001F1F80B586B000AF78600C
S31502004A707B681B6ADB697B617B6800229A607B69C3
S31502004A805B7C002B11D0FFF7E1FB38617B695B7C15
S31502004A901A46084B1B6803FB02F23B69B2FBF3F3AF
S31502004AA0FB60FB685A1C7B689A6000BF1837BD46DC
S31502004AB080BD00BF3805032280B582B000AF7860A2
S31502004AC00B46FB701346BB7097F902301846FFF788
S31502004AD093FC97F902301846FFF702FCF97897F92A
S31502004AE002307A681846FFF73FFC00BF0837BD461A
S31502004AF080BD80B582B000AF786039603B68997A34
S31502004B003B6893F90B301A467868FFF7D5FF3B6886
S31502004B1019793B6893F905301A467868FFF7CCFF96
S31502004B203B6899793B6893F907301A467868FFF72C
S31502004B30C3FF3B68197A3B6893F909301A467868CD
S31502004B40FFF7BAFF00BF0837BD4680BD90B58BB0F0
S31502004B5000AFF860B9601346FB71FB68DB6A7B62E3
S31502004B607B6A002B03D107F114037B6205E07B6AA3
S31502004B7007F114040FCB84E80F00FB681B6A1B784D
S31502004B801A467B6A1A607B6ABA689A607B6AFA7905
S31502004B901A71FB681A6B7B6ADA60FB689B6A786A31
S31502004BA09847FB68DB6A002B07D0FB68DB6A1C466A
S31502004BB007F114030FCB84E80F0000BF2C37BD4664
S31502004BC090BD80B584B000AFFFF7FAFA0346FB73D7
S31502004BD097F90F301846FFF783FB97F90F301846FF
S31502004BE0FFF76CFBB860BB681B6A1B69002B2FD1F1
S31502004BF0BB685B69002B2BD0BB689B7803F0030371
S31502004C00DBB2022B0AD1BB681B691B881946BB683B
S31502004C105A6A49F2FF130B40536005E0BB681A69F2
S31502004C20BB685B6A12781A71BB685B69BA6892786C
S31502004C30C2F30102D2B29A1ABB685A61BB681B69F7
S31502004C40BA689278C2F30102D2B21A44BB681A61F8
S31502004C50BB685B69002B24D1BB685B6A9B687B607F
S31502004C607B6843F400137B607B6823F480137B60CC
S31502004C70BB689B68002B04D0BB689B68184601F092
S31502004C80B3FDBB685B6A7A689A60BB6800221A61E8
S31502004C90BB689B6A002B04D080220021B868FFF70C
S31502004CA055FF00BF1037BD4680BD80B584B000AF4A
S31502004CB0FFF786FA0346FB7397F90F301846FFF79C
S31502004CC00FFB97F90F301846FFF7F8FAB860BB6882
S31502004CD09B7803F00303DBB2022B06D1BB685B6A47
S31502004CE01B68C3F308037B6004E0BB685B6A1B783E
S31502004CF0DBB27B60BB68DB69002B0AD1BB689B6AAF
S31502004D00002B33D07B6804221946B868FFF71EFFD2
S31502004D102CE0BB689869BB689B78C3F30103DBB2DE
S31502004D201A463B1D194602F07BFFBB689B69BA68AF
S31502004D309278C2F30102D2B21A44BB689A61BB6886
S31502004D40DB69BA689278C2F30102D2B29A1ABB68D8
S31502004D50DA61BB68DB69002B08D1BB689B6A002B52
S31502004D6004D001220021B868FFF7F0FE00BF103719
S31502004D70BD4680BD80B582B000AFFFF721FA03467B
S31502004D80FB7197F907301846FFF798FA38603B68C7
S31502004D905B6A9B683A68526A23F4401323F0100355
S31502004DA093603B689B6A002B04D00222002138687C
S31502004DB0FFF7CCFE97F907301846FFF791FA00BFC6
S31502004DC00837BD4680BD80B584B000AFFFF7F8F95D
S31502004DD00346BB7297F90A301846FFF76FFA7860F6
S31502004DE00023FB607B689B7803F00303DBB2022B94
S31502004DF006D17B685B6A1B68C3F30803FB6004E0A9
S31502004E007B685B6A1B78DBB2FB607B685B6A9B6CC8
S31502004E103B603B6803F08073002B14BF0123002321
S31502004E20DBB25BB25B015AB23B6803F08053002BE4
S31502004E3014BF01230023DBB25BB21B015BB2134337
S31502004E405AB23B6803F00063002B14BF0123002310
S31502004E50DBB25BB2DB005BB213435BB2FB72FB7A83
S31502004E6003F01003002B0BD07B685B6A9B6CC3F3C9
S31502004E70C033DBB2002B03D1FB7A43F04003FB7253
S31502004E807B685B6A9A6E7B685B6A42F0C8529A6676
S31502004E907B689B6A002B05D0FB7A1A46F96878680C
S31502004EA0FFF754FE97F90A301846FFF719FA00BFC2
S31502004EB01037BD4680BD000080B485B000AF002328
S31502004EC0FB60EFF310837B607B68FB600123BB60B2
S31502004ED0BB6883F3108800BF0D4B1B68002B05D1FE
S31502004EE00C4B00221A750B4B40221A75084B1B6895
S31502004EF00133074A1360FB683B603B6883F3108803
S31502004F0000BF00BF1437BD465DF8047B704700BF83
S31502004F10EC040322000D404080B485B000AF0023AC
S31502004F20FB60EFF310837B607B68FB600123BB6051
S31502004F30BB6883F3108800BF0F4B1B68002B04D09D
S31502004F400D4B1B68013B0C4A13600B4B1B68002B75
S31502004F5005D10A4B00221A75084B80221A75FB6886
S31502004F603B603B6883F3108800BF00BF1437BD4621
S31502004F705DF8047B704700BFEC040322000D40403D
S31502004F8080B584B000AF786039607B68FB60FB68EF
S31502004F90044A1A60386800F03EF8002318461037B3
S31502004FA0BD4680BD54524F5080B487B000AF786082
S31502004FB00B467B8013467B700023FB820023BB8259
S31502004FC07B8823F0FF037B827B88DBB23B823B8AB2
S31502004FD0012202FA03F3FB817B78002B02D1FB89C3
S31502004FE0BB8201E0FB89FB827B8A1B0A9BB2DBB296
S31502004FF05B0103F1804303F58003BB60BB8A1A049D
S31502005000FB8A1A43BB689A60002318461C37BD46C2
S315020050105DF8047B704780B584B000AF786078682D
S3150200502000F060F87B68BB60FFF746FF0023FB8158
S3150200503011E0BB685A68FB89DB0013449888BB6899
S315020050405A68FB89DB0013441B68194600F00EF808
S31502005050FB890133FB81BB681B88FA899A42E8D334
S31502005060FFF75AFF00BF1037BD4680BD80B483B03C
S3150200507000AF03463960FB803B6803F48033002BA4
S315020050801CD01749FB881B0A9BB21A46FB88DBB267
S3150200509012011A4451F8223023F4803341F82230A7
S315020050A00F48FB881B0A9BB21946FB88DBB23A689B
S315020050B022F4803209010B4440F823200849FB8878
S315020050C01B0A9BB21A46FB88DBB2120113443A68EA
S315020050D041F8232000BF0C37BD465DF8047B7047BC
S315020050E00008404080B588B000AF7860594B7B61BC
S315020050F0594B3B610023FB619FE00023BB6195E0B6
S315020051007B685A68FB69DB0013449A885349BB697A
S3150200511031F813309A4240F086807B685A68FB6900
S31502005120DB0013441B6803F0F853FB60FB68B3F122
S31502005130807F03D0FB68B3F1106F39D17B6993F896
S315020051404C3CDAB20121BB6901FA03F3DBB213402C
S31502005150DBB2002B13D1012001F020FC7B6993F80E
S315020051604C3CDAB20121BB6901FA03F3DBB2134309
S31502005170DAB27B6983F84C2C012001F0BFFB3B6954
S31502005180BA69203213F81230C3F3C013DBB2002B14
S3150200519049D13A69BB6903F1200112F8113043F093
S315020051A0800302F811300121C82001F05BFA3AE0CF
S315020051B07B6993F84C3CDAB20121BB6901FA03F32D
S315020051C0DBB21340DBB2002B15D0012001F0E6FB67
S315020051D07B6993F84C3CDAB20121BB6901FA03F30D
S315020051E0DBB2DB43DBB21340DAB27B6983F84C2CC9
S315020051F0012001F083FB3B69BA69203213F81230B1
S31502005200C3F3C013DBB2002B0DD03A69BB6903F1BD
S31502005210200112F8113023F0800302F81130012127
S31502005220C82001F01FFABB690133BB61BB69022BBF
S315020052307FF666AFFB690133FB617B681B881A4602
S31502005240FB699342FFF459AF00BF00BF2037BD464A
S3150200525080BD00BF00E0014000202040209D0002EA
S3150200526080B483B000AFEFF303837B607B683B605F
S315020052703B88C3F308039BB2DBB2103BDBB25BB2E3
S3150200528018460C37BD465DF8047B704780B483B080
S3150200529000AF0346FB7197F90730044A52F82330F0
S315020052A018460C37BD465DF8047B7047F0040322AE
S315020052B080B483B000AF0346FB710C4997F90730FF
S315020052C003F5C65251F8223023F4803341F82230D6
S315020052D0064A97F9073003F5C65352F8233000BF42
S315020052E00C37BD465DF8047B704700BF0060004086
S315020052F080B48BB000AFF860B9607A60BB681F2BD0
S3150200530094BF01230023FB75BB68272B8CBF0123A7
S315020053100023BB75FB7D002B0FD0BB68DB08BA6888
S3150200532002F007024C2101FB02F29B02134403F531
S315020053301263FA6813447B6217E0BB7D002B0AD026
S31502005340BB68283B4C2202FB03F303F5B763FA68FA
S3150200535013447B6209E0BB68203B4C2202FB03F349
S3150200536003F5A463FA6813447B627B6A1B683B619C
S315020053703B699B0F03F00103DAB27B685A717B6AC1
S315020053809B6803F007027B689A603B6923F06042E0
S315020053907B681A603B69DB0FDAB27B681A717B6A3B
S315020053A05B681B0F1F4AD25C7B689A717B689B798C
S315020053B03B627B680C33FB617B6A0C33BB6107E0A3
S315020053C0BA69531CBB61FB69591CF96112781A70E0
S315020053D03B6A5A1E3A62002BF2D1FB7D002B07D0A4
S315020053E00122BB6802FA03F3DA43FB685A6313E04D
S315020053F0BB7D002B08D0BB68283BFA6816339B009E
S315020054001344FF225A6007E0BB68203BFA68123356
S315020054109B001344FF225A6000BF2C37BD465DF83D
S31502005420047B7047289D000280B59CB000AF78606F
S3150200543039607B685B69FB66FB6E002B02D13B68B9
S31502005440FB660FE0FA6E07F10C031146602218465E
S3150200545002F0E6FBFA6E3B681046194660231A46CE
S3150200546002F0DEFB7B681B69F86E98477B685B6916
S31502005470002B08D07B685B69184607F10C03602293
S31502005480194602F0CDFB00BF7037BD4680BD000055
S3150200549080B5A0B000AF78602A4A7B6852F8233004
S315020054A0FB6707F10C0360220021184602F082FB1B
S315020054B04FF480533B82FB6F1B681B6ABB67BB6F53
S315020054C01A04BB6F1B0C1B0713447B61FB6F1B6823
S315020054D000221A627B6903F40033002B23D0FB6F90
S315020054E01B689B6E3B673B6F93FAA3F3FB66FB6EEF
S315020054F07B677B6F002B01D1202303E07B6FB3FA1E
