S01D000041726D53796E635F536F6C7574696F6E5F435055312E7372656316
S31502080000E0A11022E52608022D250802E1260802AB
S31502080010E1260802E1260802E1260802E12608028C
S31502080020000000000000000000000000E1260802AF
S31502080030E126080200000000E1260802E12608027D
S3150208004001210802A51E0802FD1D0802351F080225
S31502080050811F080205230802A51E0802FD1D0802C3
S31502080060351F0802811F0802A51E0802FD1D080287
S30D02080070351F0802811F080270
S3150208007800000000010100001040000010400000C6
S3150208008810400000DD2C0802F144080220A00E22C6
S315020800980000000020A6102288A61022F0A6102228
S315020800A80000000000000000000000000000000038
S315020800B80000000000000000000000000000000028
S315020800C80000000000000000000000000000000018
S315020800D800000000000000000000000043000000C5
S315020800E800000000000000000000000000000000F8
S315020800F800000000000000000000000043000000A5
S3150208010800000000000000000000000000000000D7
S315020801180000000000000000000000004300000084
S3150208012800000000000000000000000000000000B7
S315020801380000000000000000000000004300000064
S315020801480000000000000000000000000000000097
S315020801580000000000000000000000004300000044
S315020801680000000000000000000000000000000077
S315020801780000000000000000000000004300000024
S315020801880000000000000000000000000000000057
S315020801980000000000000000000000004300000004
S315020801A80000000000000000000000000000000037
S315020801B8000000000000000000000000BB830802DF
S315020801C83B83080200000000E09308021192080225
S315020801D81892080218920802189208021892080237
S315020801E81892080218920802189208021892080227
S315020801F818920802FFFFFFFFFFFFFFFFFFFFFFFF3F
S31502080208FFFF00000100415343494900000000006E
S3150208021800000000000000000000000000000000C6
S31502080228000000000000415343494900000000004D
S3150208023800000000000000000000000000000000A6
S30D0208024800000000000000009E
S315020802500348044B834202D0034B03B11847704745
S31502080260D8A10E22D8A10E2200000000064B07498B
S31502080270C91A891048BF0131491003D0044B0BB182
S3150208028001481847704700BFD8A10E22D8A10E22EE
S315020802900000000010B5064C237843B9FFF7D8FFD3
S315020802A0044B13B10448AFF300800123237010BD39
S315020802B00CA2102200000000A895080208B5054BFA
S315020802C01BB105490548AFF30080BDE80840FFF7B2
S315020802D0CDBF00BF0000000010A21022A895080298
S315020802E00122014B1A70704728A21022034610B445
S315020802F0044A054C0549C3E9004205485DF8044B22
S3150208030001F080BE00401C2220401C223C8C0802C0
S31502080310B0A410222DE9F0411B4D2B788BB303F0C4
S31502080320FF08002304460E4617462B7000F10805FF
S31502080330284602F01DF90828FAD02368E1681A6AE5
S315020803408A421BD0E26032461B6842F8043B01230C
S31502080350216801EB830CDCF800100133062B42F806
S31502080360041BF5D123682846DB69B36123689B69B8
S315020803703B6002F009F94046BDE8F081284602F0E2
S3150208038003F94FF00008F6E728A210222DE9F041FA
S3150208039080460F4616461D4600F10804204602F01E
S315020803A0E7F80828FAD039464FF0000CD8F80420A6
S315020803B051F8043B02EB8C0E0CF1010CBCF1060F52
S315020803C0CEF80030F2D1D8F8043020461E76D8F896
S315020803D004305D76D8F80430D8F81020DA6102F0D5
S315020803E0D3F8BDE8F041A221014801F059BE00BF89
S315020803F0B0A410224FF0000C00B54FF0000E044ACC
S31502080400A0F80CE00170C0F804C082605DF804FB35
S315020804100080BB440379042B02D0022B18D0704704
S315020804200D490B783F2BFAD810B40C4A0C4C1278AB
S315020804301A4401330B70836802F03F02A35403790E
S31502080440022B02D10122074B1A705DF8044B704742
S315020804500122044B1A7070476CA210226DA2102258
S3150208046070A2102204A00E220EB470B583B007AB98
S3150208047053F8042B064640211148019304F0F6FF6F
S31502080480051E17DD00230F4A0F4C104913702278F8
S3150208049073730B703AB94FF47A71012002F000F8BF
S315020804A02378002BF7D000232A46054908482370EB
S315020804B001F088F903B0BDE8704003B0704700BF89
S315020804C02CA210226CA2102204A00E226DA21022C7
S315020804D000A5102210B5044602780C49FFF7C4FF9E
S315020804E04FF47A71322001F0DBFF22782046084960
S315020804F0FFF7BAFF4FF47A71322001F0D1FF204696
S3150208050004492278FFF7B0FF012010BD048B0802C8
S31502080510108B08021C8B0802B5EEC00AF1EE10FA1F
S3150208052024D49FED177AB4EEC70AF1EE10FA13DC5B
S31502080530DFED147A20EE270ADFED136AC0EE077A9A
S3150208054077EEA67ABDEEE77AC0ED027A17EE103A92
S3150208055002780E49FFF788BFDFED0D7A40F6980359
S31502080560C0ED027A02780949FFF77EBFDFED067A07
S315020805704FF44873C0ED027A02780449FFF774BF54
S315020805800000C8420000AF4400004844308B08020D
S3150208059000800945F0B5447B864689B0002C65D0B3
S315020805A03B4E3578002D6BD01F2D28BF1F256B4675
S315020805B0384F394897F800C00DEB0501ACEB030C30
S315020805C00CEB030202F03F02825C03F8012B99420C
S315020805D0F6D1002205F120036B4403F8202C9DF97D
S315020805E004303A70502B32708EF80D2048D19DF99E
S315020805F00530303BDAB2092A46D8DFED287AF2EE20
S31502080600046A0DF105025BB207EE103AB8EEC77A34
S31502080610A7EEA67A12F9013FF0EE477A303BD9B235
S315020806200929F0D9DFED1E6A9FED1E7A77EEE67A82
S3150208063067EE877A9EED027ADFED195A9FED196AFF
S3150208064037EE657ACEED017AE7EE467AF2EE046A7D
S31502080650F0EEE77AF4EEE67AF1EE10FA2046CCBF2F
S31502080660012300238EF80C3009B0F0BD0123094A94
S315020806700D491470064A437314700278FFF7F4FEA4
S315020806800024204609B0F0BDDFED087AD2E700BFA4
S315020806906CA210226DA2102270A210220000000085
S315020806A00080BB44713D0A3E448B080201804AC35E
S315020806B070B50C46012601462246134804F078FF17
S315020806C0124B134D9A6818680F49936822462E7082
S315020806D09847064618B100232B70304670BD2B7812
S315020806E04FF4FA7413B908E0013C06D001216420DC
S315020806F001F0D6FE2B78002BF6D12B78002B18BFEB
S315020807001426304670BD00BF50A310224C8C080236
S3150208071064A310222DE9F04F4FF0000A02258846FD
S3150208072057468BB0DFF8E4B00190019AA8EB0506AC
S31502080730072E537828BF0726A845CDE903778DF8F3
S315020807400C303FD1137801224AEA03230092B3F10F
S31502080750005F34D2DB0043F004031BBA0697CDF8D8
S31502080760163045F24143009C0DF11409224603A9AD
S315020807700DF11B00ADF81430C9E902778DF81A405D
S3150208078089F8107004F014FF40F60D22E31D29F8CB
S3150208079003209BF8003053B14FF4FA740121642008
S315020807A001F07EFE9BF800300BB1013CF6D19BF8B6
S315020807B00030ABB14FF47A71012001F071FE0BB033
S315020807C0BDE8F08F019C324661190DF10D0004F067
S315020807D0EFFE2378721CD2B24AEA03230092B6E7E6
S315020807E0009948460931FFF763FF04464FF47A71C8
S315020807F0012001F055FE002CE1D13544A8450AF145
S31502080800010A92D80BB0BDE8F08F00BF64A310228C
S315020808102DE9F84F03274FF000084FF0010A244E3E
S31502080820DFF898B0DFF89890224D86F800808BF8AA
S31502080830008089F800A02B785BB14FF4FA7401E0C6
S31502080840013C06D00121642001F02AFE2B78002BF8
S31502080850F6D12B78F3B907211748FFF729FFC8B94C
S3150208086033785BB94FF47A7401E0013C06D0012172
S31502080870642001F015FE3378002BF6D0337803F0A6
S31502080880FF043BB14FF47A710A2001F009FE2046B3
S31502080890BDE8F88F4FF47A71642089F8008001F078
S315020808A0FFFD013FC1D13C462046BDE8F88F00BF97
S315020808B062A3102264A31022348C080261A31022B8
S315020808C063A3102200293ED006283CD82DE9F0471A
S315020808D0EFF31087012383F310881C4C00EB800288
S315020808E004EB82039200A25CD3F804A0D3F8089022
S315020808F0D3F80C801E7C5D7C93F812C093F813E043
S31502080900D2B2F6B2EDB25FFA8CF35FFA8EF487F3DF
S315020809101088824202D00020BDE8F0870BB9002C6D
S31502080920F9D0002266F3070265F30F2263F3174232
S3150208093064F31F620870C1E901A90120C1F80C809D
S315020809400A61BDE8F0870020704700BFC4A21022E2
S3150208095011B3062803461FD830B5EFF3108E0122CD
S3150208096082F31088164C00EB800004EB80028000AC
S3150208097014F800C054689068D068107C507C5FFAFE
S315020809808CFCC5B2907CD27CC0B28EF310886345CB
S3150208099000D118B9002030BD0020704707EE904AF2
S315020809A0DFED086AF8EE677A9FED077A67EEA67AB0
S315020809B067EE877A0DB1F1EE677AC1ED007A30BD3E
S315020809C0C4A210220000B4430000803720B1037984
S315020809D0022B02D0042B04D0704700226E4B1A70E9
S315020809E070476E49027A087870B14F2A7ED06C48F1
S315020809F00378012B5FFA83FC11D00D2AECD00A2A60
S31502080A00EAD0002303707047F0B5664801780629D4
S31502080A1022D8DFE801F05B604C3F311F0D004B2AFC
S31502080A20EBD10023604A82F800C00B70037070474E
S31502080A300A2A5E4961D05E4C0023A2F14102B2FA4B
S31502080A4082F223705B4D5C4C52092B7002700B606C
S31502080A502370F0BD0D2A4DD00023A2F14102B2FA4D
S31502080A6082F25209514C5349514D0270524A2B7027
S31502080A7023600B701370F0BD4F4C21784B1CDBB210
S31502080A8023704E4C62544A4A12789A42E1D105239F
S31502080A900370F0BD082ADFD8002A4FF0000108BF0C
S31502080AA00523434C03702270434A1170F0BD3F4C34
S31502080AB04049236842EA03220B7822600133DBB2FB
S31502080AC0042B0B70C5D103230370F0BD412AC0D194
S31502080AD001230370F0BD542A4FF00003BDD1022250
S31502080AE0324C344923600B700270F0BD01222C4B44
S31502080AF01A70704706230370F0BD0B6803F00704EB
S31502080B00042C2B4C98D12778002F95D02C4DEE5DCE
S31502080B106B2E91D1C3F3C706002E8DD1C3F3C7231B
S31502080B20062B89D8072F18D0032F85D16E78013561
S31502080B303A2E81D14FF0140C01260CFB03FC95F8D2
S31502080B4001E0204D05F80C3005EB0C0383F810E0A4
S31502080B50DE74DD683544DD606EE76E780135362E63
S31502080B607FF46AAF4FF0140C6E780127003E18BF67
S31502080B7001260CFB03FCD5F802E0124D9EFA8EFE06
S31502080B8005F80C3005EB0C035E74C3F804E09F7499
S31502080B909D683D449D604FE764A3102263A310221B
S31502080BA061A31022C0A2102262A31022BCA21022A4
S31502080BB0B9A21022BAA21022B8A21022B0A21022FA
S31502080BC0AFA21022C4A21022002300B585B0CDE937
S31502080BD00033CDE902338DF8000010290AD8DFE880
S31502080BE001F0161C20240928092C3034383C094007
S31502080BF0444B5000022101236B2210336B44684692
S31502080C0003F8102CFFF786FD05B05DF804FB1F23D9
S31502080C108DF8013003210223EEE720238DF80130F7
S31502080C20F8E721238DF80130F4E724238DF8013003
S31502080C30F0E727238DF80130ECE731238DF80130F0
S31502080C40E8E733238DF80130E4E735238DF80130E0
S31502080C50E0E736238DF80130DCE737238DF80130DB
S31502080C60D8E73A238DF80130D4E746F64243ADF881
S31502080C70013004210323BFE747F64323ADF80130C9
S31502080C80F7E73B238DF80130C4E700BF4FF0460C67
S31502080C9000B585B000234FF06B0E8DF801C04FF0FA
S31502080CA0690C8DF800008DF8031068460621019339
S31502080CB0CDE902338DF804208DF805E08DF802C0DF
S31502080CC0FFF728FD05B05DF804FB00BF4FF0F30CF3
S31502080CD000B585B000234FF06B0E8DF801C04FF0BA
S31502080CE0AB0C8DF800008DF80310684606210193B7
S31502080CF0CDE902338DF804208DF805E08DF802C09F
S31502080D00FFF708FD05B05DF804FB00BF10B584B017
S31502080D108DF800008DF8053000206B234FF0FD0C8E
S31502080D20069C03908DF80C309DF81C308DF8021045
S31502080D30210E8DF806108DF80A30210C9DF8203008
S31502080D4064BA8DF80710ADF808400D21140A6846F2
S31502080D508DF803408DF801C08DF804208DF80B300C
S31502080D60FFF7D8FC04B010BD00B5002386464FF045
S31502080D70FF0C46F6663285B004216846CDE9023391
S31502080D8001938DF800E08DF801C0ADF80220FFF757
S31502080D90C1FC05B05DF804FB10B400248360019B16
S31502080DA0C0E90012C360039A029BC0E90744C0E97E
S31502080DB00944C0E90B44048380F8344003615DF8B2
S31502080DC0044B4261704700BF70B50446FFF720FD29
S31502080DD0054638B104F1180654F8040B00F020F958
S31502080DE0A642F9D1284670BD002954D02DE9F04112
S31502080DF02DED048B07460D460446DFED278A9FED47
S31502080E00279ADFED279A90F8346000F1180886F0E1
S31502080E100106B5EC018AF0EEC87AF4EE497AF1EEEB
S31502080E2010FA19D8B0EE480A206800F007F9D4ED8E
S31502080E30077A38EE678AB0EEC88AB4EE698AF1EEA6
S31502080E4010FA2068A8BF012600F00AF9B4EE680A6B
S31502080E50F1EE10FA70FE288A04344445D9D1B6B1A7
S31502080E603C1F07F1140554F8040FB0EE680A00F0A7
S31502080E7019F92368AC42DB68E361F4D1012387F8E8
S31502080E803430BDEC048BBDE8F04100F0FFB9BDEC8F
S31502080E90048BBDE8F081704700000000FFFF7F7FEA
S31502080EA00AD7233C70B50C4661B1051F00F114063A
S31502080EB055F8040F00F0EEF9B542A4EC010AF7D191
S31502080EC0012070BD084670BD38B5041F00F114052F
S31502080ED054F8040F00F002FA08B9AC42F8D138BD4A
S31502080EE010B50446037E427E50F82330002A0CBF12
S31502080EF00A210D211878FFF767FE237E0133DBB23C
S31502080F00052B01D8237610BD0022637E227683F054
S31502080F100103637610BD00BFDFED2A7AF4EE670A95
S31502080F20DFED296AF1EE10FA80EE267A77FEA00A3C
S31502080F30B0B307EE900ADFED256AF8EE677A9FED01
S31502080F40245A76EEE77A9FED236A67EE857AF7EEFC
S31502080F50005A67EE867A85EEA76AB5EEC06AF1EEA2
S31502080F6010FA1DD9F6EE007A80EE865A60EEA77A56
S31502080F70DFED195A67EE857AC7EEA56A76EEA66A96
S31502080F80B4EEE67AF1EE10FA11D937EE667A27EE62
S31502080F90257AF0EE007A87EE200AA5EE270A704730
S31502080FA0DFED0D7A27EE277A87EE200A704727EEBD
S31502080FB0257A27EE067AF1EEC77A77EEA77A87EED2
S31502080FC0860A704700409C450000B44300008043EF
S31502080FD000004842BD37863500007042FFF7F6BC6E
S31502080FE09FED0D7ADFED0D7A10B59DF80840BDF834
S31502080FF00CE080ED037AC0ED047A80ED010AC0EDBB
S31502081000020A80ED051AC0ED081A017002764383BA
S315020810100477A0F81EE010BD000000000000C07FA3
S3150208102010B50446022201210078FFF72FFE207828
S315020810300022BDE810400121FFF748BED0ED017A33
S31502081040B4EEE70AF1EE10FA07D4D0ED027AB4EE5E
S31502081050E70AF1EE10FA77FE807AC0ED047A704755
S31502081060D0ED047AD0ED036A77EEE67A90ED057A4A
S31502081070F0EEE77A9FED0A6A27EE870AB4EEC60A09
S31502081080F1EE10FA08D9438B33B107EE903A007F96
S31502081090F8EE670AFFF740BFB0EE460A704700BF90
S315020810A000000000F0B52DED048BD0ED048AF4EEB5
S315020810B0688AF1EE10FA85B080F1C28090ED038A53
S315020810C038EEC88A90ED059AB0EEC88ADFED687ADE
S315020810D028EE098AB4EEE78AF1EE10FA064600F11E
S315020810E0AF80418B047F002900F0828007EE901AB8
S315020810F0B0EE404A2046F8EE670AB0EE480AFFF715
S315020811000BFFB4EE440A41F28837F1EE10FAF0EE1C
S31502081110403A4FF0010348BFF0EE443A8F4228BFE7
S315020811200F46201EDFED536ADFED539ADFED534A71
S31502081130DFED531A9FED532ADFED532A22461D4649
S3150208114018BF012090427FD807EE903A88EE295AB6
S31502081150B8EE676A0146B7EE003AB6EE001AF0EE46
S31502081160000A3CE007EE90EAF8EE677A71EEE77A53
S3150208117067EE827A67EEA27A83EE277AB5EEC07AAE
S31502081180F1EE10FA2FD986EE074A66EE015A65EE97
S31502081190845AC5EEA47A77EEA77AB4EEE75AF1EE48
S315020811A010FA57D975EE677A27EEA47AC7EE067A49
S315020811B0E4EE207A77EEE37AF0EEE77AF4EEE67A70
S315020811C0F1EE10FA01F1010C44BF74461D4648BF00
S315020811D0F0EE676A8A421FFA8CFC35D061465FFADE
S315020811E081FE0029BED125EE247AC7EE067AE1E70A
S315020811F00125337ECBB3B1EE688AF38BF0EEE86A4B
S3150208120096ED087A07EE903A86EE870AF8EE677A3E
S3150208121020EE270A20EE090A377801F0A9FFB5EE73
S31502081220C08A0121F1EE10FACDE901110090234698
S315020812302A463846A8BF0021FFF768FDC6ED038A8D
S3150208124005B0BDEC048BF0BD591C9F4289B2D0D0C3
S315020812500B4677E765EE245A65EE875AF1EEE57A8C
S3150208126077EEA75AC5EE877AA4E7B0EE688AC4E78E
S3150208127017B7D138CAF249710000B4430000704268
S315020812800000804300004842BD3786350020FFF73C
S315020812906BBD00BF10B52DED028B9FED0F8A82B094
S315020812A0044601A900788DED018AFFF751FB68B162
S315020812B0D4ED057A9DED017A237E87EE270A0BB1D6
S315020812C0B1EE400A02B0BDEC028B10BDB0EE480A80
S315020812D002B0BDEC028B10BD0000000000B587B05D
S315020812E0007801A9FFF7EEFA48B19DF8170030B168
S315020812F09DF8143013F00C0F14BF0120002007B01C
S315020813005DF804FB016002714371704710B504462B
S31502081310006808B100F0D6FA204610BD70B5037908
S3150208132006460C46ADF5047D13BB04AD40F2FF122A
S315020813302846214604F0B0F80022244C85F8FF21FD
S3150208134023783BB94FF47A71012001F0A9F8237882
S31502081350002BF7D000232846237004F036F93368A9
S3150208136002462946186800F02DFA0DF5047D70BD6F
S31502081370174B184A19684FF47A75A2FB0102164BE5
S315020813809209A3FB02034FF4616005FB1211DB0A03
S3150208139000FB132002911149A1FB0050A1FB025147
S315020813A049094009C1EB0111009004ADA2EB810085
S315020813B001900B4A4FF40071284603F0D7FF024604
S315020813C0C2F5FF7228180132B3E700BF05A00E2244
S315020813D068A31022D34D6210C5B3A2918988888862
S315020813E0508B080208B4F0B50E4615460446ADF50C
S315020813F00C7D91AB53F8042B04AF4FF48071384639
S31502081400039304F033F82B46084A4FF49071CDE95A
S31502081410006744A803F0AAFF204644A9FFF77EFF07
S315020814200DF50C7DBDE8F04001B070476C8B0802E3
S315020814300EB430B50446ADF50C7D8FAB53F8042BCC
S3150208144004AD4FF480712846039304F00FF894F81C
S3150208145005C00B480B4B0C4ABCF1000F18BF0346DC
S315020814604FF49071009544A803F080FF204644A9E2
S31502081470FFF754FF0DF50C7DBDE8304003B0704709
S31502081480AC8B0802C48B0802A48B08028368B3F5E6
S31502081490803F00D070474368A12BFBD1FEF720BFDF
S315020814A0FFF79CBDFEF7B6BF0379022B02D10122D4
S315020814B0014B1A70704700BF05A00E222DE9F04FA6
S315020814C000279DB04749484800F0CCFA47494848A2
S315020814D000F0C8FA4749484800F0C4FA4748FEF7F8
S315020814E005FF4748FFF770FC4648FEF7F3FF4649F3
S315020814F04648FFF79DFFBA46404DDFF808B1404E11
S3150208150013E02C69A4EB0A03312B5AD8E31BC72B29
S3150208151003D95846FFF73EF827463046FFF7E0FC60
S315020815204FF47A71052000F0BBFF28460EAA15A9CA
S31502081530FEF7F0FE0028E4D015A93046FFF754FC62
S315020815409DED0E0A5846FEF7E7FF0E9801F0A8FF32
S3150208155002460B461A98CDE90C2301F0A1FF024672
S315020815600B461998CDE90A2301F09AFF02460B4663
S315020815701898CDE9082301F093FF02460B461798FF
S31502081580CDE9062301F08CFF02460B461698CDE9F3
S31502081590042301F085FF02460B461598CDE902237E
S315020815A001F07EFF80468946194BCDE90089194A22
S315020815B019491648FFF716FF2C69A4EB0A03312BC3
S315020815C0A4D90FA93046FFF76DFC3046FFF77CFC1D
S315020815D09BF80C3002460FA92846FEF7D7FEA2460C
S315020815E094E700BF588C0802CCA410228C8C0802FF
S315020815F000A51022CC8C080234A5102294A410222D
S315020816006CA3102284A41022CC8B08027CA410227C
S31502081610E48B0802288C0802308C08022DE9F04770
S315020816202DED048B002184B04648FEF7E3FE012324
S31502081630454C1A4620464549FFF764FE9FED448A03
S3150208164010259FED449ADFED448A20469624DFF85A
S315020816503481424A424901F0C5F82346F0EE481A57
S31502081660F0EE490AB0EE680ACDE900450022B3EE6B
S31502081670041A06214046FFF7B3FC0122DFF8089157
S31502081680DFF808A1F0EE481A1146CDE90045354EB5
S315020816906423B3EE0E1ADFED340A9FED340A484688
S315020816A0FFF79EFC324FF0EE481AF0EE490AB0EE0A
S315020816B0680ACDE90045B2EE041A64230022022123
S315020816C05046FFF78DFCF0EE481ACDE90045B2EE1A
S315020816D0041ADFED280A9FED280A64230122032152
S315020816E03046FFF77DFCF0EE481AF0EE490AB0EEF6
S315020816F0680ACDE90045B7EE001A642300220421E0
S315020817003846FFF76DFCCDE900451C4CB2EE041ACB
S31502081710F0EE481AF0EE490AB0EE680A642301228E
S3150208172005212046FFF75CFC53464A464146029489
S31502081730019700961248FFF72FFB04B0BDEC048B05
S31502081740BDE8F08784A410227CA41022C08C08026B
S315020817506666E63F0000B4420000B4C200A00E224C
S315020817600D130802ECA310220000FA420000B4C1CD
S31502081770C8A31022000000000000F4C2A4A310228D
S315020817806CA3102258A4102234A4102210A41022EA
S31502081790FFF794BE022800D070470249024800F0BB
S315020817A0A7BD00BF008D0802A8A4102208B5FFF73E
S315020817B0EFFF002008BD00BF03460020C3E906125A
S315020817C0704700BF844610B4406A836823F4401306
S315020817D08360DCF82440A36C5800FCD5A36823F088
S315020817E01003A360DCF82440237FC3F30010DB0652
S315020817F0FAD4CCE90412A36843F01013A3605DF887
S31502081800044B704784460020CCE90B32CCF82810EA
S31502081810704700BF4FF0FF330020C1E9003370471D
S315020818208B0784461DD5426A936823F44013936056
S31502081830426A936C5800FCD5936823F010039360B0
S31502081840DCF82400037FC3F30012DB06FAD4104641
S31502081850CCF81420CB0703D500231846CCF81C3045
S3150208186070470620F6E700BF0346002210B4DC697B
S3150208187010460C60DA615DF8044B70470620704723
S31502081880F0B5C46A85B005460F4694466E46B4B1AD
S3150208189094E80F0086E80F002B6A20461B78A7609B
S315020818A0236084F804C02B6BE360AB6A9847EC6A42
S315020818B01CB196E80F0084E80F0005B0F0BD344667
S315020818C0EAE700BF384B42689A426AD170B50446C5
S315020818D0426A936823F440139360426A936823F03A
S315020818E010039360426A137FC3F30015DB06FAD42A
S315020818F00121236A2D4A93F90730580903F01F0379
S31502081900203001FA03F342F82030BFF34F8FBFF3BA
S315020819106F8F236A93F90930580903F01F0301FAF6
S3150208192003F3203042F82030BFF34F8FBFF36F8F97
S31502081930606A836823F480338360236A93F90530E7
S31502081940580903F01F0301FA03F3203042F8203046
S31502081950BFF34F8FBFF36F8F236A93F90B30580982
S3150208196003F01F0301FA03F3203042F82030BFF3D5
S315020819704F8FBFF36F8FEFF3108681F310884FF006
S315020819800043206A0A4A0078C340506803435360FA
S3150208199053681E2000F084FD86F310886560284689
S315020819A070BD0720704700BF4249435300E100E07B
S315020819B000302040002370B5026AD56983606B7CCB
S315020819C003B970BD184B044693F8543003F00F035D
S315020819D0072B25D8DFE803F004040422201A1C1E6C
S315020819E001269E40104B93F8550000F00F0000F0B8
S315020819F047FDB0FBF6F00D4B1A686B7C02FB03F34E
S31502081A00B3FBF0F39B080133A36070BD0326E9E735
S31502081A100526E7E70A26E5E70826E3E70626E1E7D5
S31502081A201026083B9E40DDE700E0014008A610228A
S31502081A30F8B5002704460E46416A8D6825F4441215
S31502081A4022F011028A600761FFF7B4FF636A3268FF
S31502081A5025F440151A61636A38469D60F8BD00BFD1
S31502081A60062070472DE9F8430D46002701212B78F9
S31502081A70077003F5800303F556531B02C0E90853A2
S31502081A806B6904468362AB69D24AC0E90B738378F1
S31502081A90EE6961F3010383706B78BB4214BF084693
S31502081AA00220A37860F30103A37095F90B0095F859
S31502081AB00AC0430900F01F0E203301FA0EFE42F84F
S31502081AC023E0BFF34F8FBFF36F8FC34B00F5C65E9C
S31502081AD053F82E8067F3104843F82E8053F82EE009
S31502081AE0DFF814E34FEA0C1C02EB00085FFA8CFCE1
S31502081AF088F800C34EF8204095F9050095F804C009
S31502081B004FEA501800F01F0908F1200801FA09F9EE
S31502081B1042F82890BFF34F8FBFF36F8F00F5C65870
S31502081B2053F8289067F3104943F8289053F8288009
S31502081B304FEA0C1C02EB00085FFA8CFC88F800C31B
S31502081B404EF8204095F9070095F806C04FEA501856
S31502081B5000F01F0908F1200801FA09F942F828904D
S31502081B60BFF34F8FBFF36F8F00F5C65853F828900F
S31502081B7067F3104943F8289053F828804FEA0C1C5B
S31502081B8002EB00085FFA8CFC88F800C34EF8204086
S31502081B9095F9090095F808C04FEA501800F01F0990
S31502081BA008F1200801FA09F942F82890BFF34F8F85
S31502081BB0BFF36F8F00F5C65853F8289067F310499C
S31502081BC043F8289053F828304FEA0C13DBB2024444
S31502081BD082F800334EF82040EFF3108781F310881D
S31502081BE04FF000402A787D4BD0405A6822EA00021C
S31502081BF05A605B681E2000F053FC87F310884FF486
S31502081C008062636A9A606B78E978EA691B028903DB
S31502081C1001F4804103F440730B43117850680906B6
S31502081C2001F040710B435178C90389B20B43517BCA
S31502081C30490501F400110B43616A43F480534B6171
S31502081C4011788B1E012B40F2BE800368616A0B6114
S31502081C50117BAB7801F0030141F0300133B1022B5D
S31502081C6014BF4FF440734FF48073194300270120C1
S31502081C7093781B0703F080530B43616ACB60636A50
S31502081C809F612B7800FA03F3C3F3090313B1636A5E
S31502081C90534959620025937BD17B127C01F01F01BF
S31502081CA003F0010302F01F0243EA0123616A43EAD1
S31502081CB002430B632046C4E90455C4E90655FFF7F7
S31502081CC079FE7089626A4749A0819166226A424B07
S31502081CD092F9052002F5C65153F8210065F3104022
S31502081CE043F8210053F82110BFF35F8F012002F059
S31502081CF01F015209920002F1604202F5614200FA9E
S31502081D0001F1C2F880111160226A92F90B1001F5ED
S31502081D10C65253F8226065F3104643F8226053F818
S31502081D202220BFF35F8F4A09920001F01F0102F1D8
S31502081D30604200FA01F102F56142C2F880111160AF
S31502081D40226A92F9071001F5C65253F8226065F322
S31502081D50104643F8226053F82220BFF35F8F4A09E0
S31502081D60920001F01F0102F1604200FA01F102F548
S31502081D706142C2F880111160226A92F9092002F5BD
S31502081D80C65153F8216065F3104643F8216053F8AB
S31502081D902130BFF35F8F53099B0002F01F0203F144
S31502081DA06043904003F56143C3F8800118600E4A08
S31502081DB0636A9A60626A137FDB07FCD50B4B0020C5
S31502081DC06360BDE8F8830A4B0A48022918BF03462E
S31502081DD03CE700BF00E100E0006000400030204020
S31502081DE000001F1F1000079D1104010042494353BA
S31502081DF024FF00FF04FF00FFC0A5102238B5EFF349
S31502081E000383103B254A5BB203F5C65152F82100FB
S31502081E1020F4803042F8210052F82120204A52F854
S31502081E202340236A1B69B3B1636903B138BD636A88
S31502081E309D68A06825F4801545F4001518BB002195
S31502081E409D60A36A2161002BF0D02046BDE8384088
S31502081E508022FFF715BD6269636A002AE8D0A27874
S31502081E60216902F00302022A11D00A781A71A278AD
S31502081E70D4E9041302F003029B1A1144C4E90413B9
S31502081E80002BD3D1D3E700F005FB636AD7E70A88AC
S31502081E9022F4DC4292B25A60E9E700BF00600040D1
S31502081EA0C0A5102210B582B0EFF30383103B1F4A78
S31502081EB05BB203F5C65152F8210020F4803042F88D
S31502081EC0210052F821201A4A52F82340A27802F039
S31502081ED00303022B636A0CBF19681978E3690CBFFE
S31502081EE0C1F30801C9B2019143B9A36AB3B1042285
S31502081EF0204602B0BDE81040FFF7C2BC02F003025A
S31502081F0001A9A06903F054FBD4E90621A37803F0DA
S31502081F1003031A44C91AC4E9062109B102B010BD5D
S31502081F20A36A002BFAD00122E2E700BF0060004054
S31502081F30C0A5102210B5EFF303830F4A103B5CB21B
S31502081F4052F82400426A936823F4401323F01003DC
S31502081F509360836A1BB102220021FFF791FC074AAC
S31502081F6004F5C65352F8231021F4803142F823109F
S31502081F7052F8233010BD00BFC0A5102200600040F1
S31502081F8038B5EFF303831D4A103B5CB252F82400BE
S31502081F908378456A03F00303022B0CBF2968297864
S31502081FA0AA6C08BFC1F30801C2F30073C2F3006C3E
S31502081FB04FEA031343EA4C13C2F3C06243EAC20C64
S31502081FC018BFC9B2DB06624604D5AB6C1B0458BF00
S31502081FD04CF04002AB6E43F0C853AB66836A0BB152
S31502081FE0FFF74EFC064A04F5C65352F8231021F4AD
S31502081FF0803142F8231052F8233038BDC0A510228A
S3150208200000600040034630B40025416088681F4CD2
S315020820101861C8681E4AC3E90550086804EB4014EB
S315020820209C60086802EB4012DA6091F90420AA4221
S3150208203026DB497902F160400901C9B200F561401F
S3150208204080F800131348144940F8223002F5C650A6
S3150208205051F8204065F3104441F8204051F8201009
S31502082060BFF35F8F01205109890002F01F0201F1B7
S31502082070604101F5614100FA02F2C1F880210A6065
S31502082080064A00201A6030BC704700BFC0000240F2
S3150208209000010240C0A51022006000404350495288
S315020820A082681368C3F340409B0354BF91600C20B7
S315020820B0704700BFF0B5446985B005460F466E46BF
S315020820C0DCB194E80F0086E80F006B68B7F5803F2D
S315020820D01B68A7602360AB692046E36012BF002332
S315020820E0EB68DB6863602B6998476C691CB196E8F4
S315020820F00F0084E80F0005B0F0BD3446E5E700BFDF
S3150208210038B5EFF30383103B114A5BB203F5C651A8
S3150208211052F8210020F4803042F8210052F821209A
S315020821200C4A52F82350EB681C68E3030AD434F4C9
S31502082130403400D138BD21462846FFF7BBFFEB687D
S315020821401C6138BD4FF480312846FFF7B3FFEEE72E
S3150208215000600040C0A510222DE9F84F0388DBB1C4
S3150208216080464FF0000A4FF00109DFF8D4B0002488
S31502082170314D4FEACA07D8F8043035F8022BD91977
S31502082180898891420AD00134032CF4D1B8F8003078
S315020821900AF1010A5345EAD8BDE8F88FDB5909FA6C
S315020821A004F603F0B853B3F1807F244BF6B293F8E2
S315020821B04C2C12D0324230D104F120021BF81230D4
S315020821C0DB09E0D01BF81230012123F08003C82076
S315020821D00BF8123000F064F9D5E7324210D004F158
S315020821E020021BF81230DB09CDD11BF8123001216F
S315020821F043F08003C8200BF8123000F051F9C2E709
S31502082200012000F02BFA0D4B012093F84C2C324397
S3150208221083F84C2C00F0F2F9E1E7012000F01EFAEF
S31502082220064B012093F84C2C22EA060283F84C2C22
S3150208223000F0E4F9C0E700BF848D080200E001401F
S3150208224000202040F8B50646FFF786FFEFF3108216
S31502082250012383F31088234F3B681BB922490B7568
S3150208226040230B753B6801333B6082F31088338841
S3150208227023B300211D4D08E01B01134445F82340F2
S31502082280328801318BB29A4218D9736853F83140B1
S3150208229003EBC1029288E0034FEA1223D2B2EBD5CE
S315020822A002EB031055F820E024F4803C2EF4803E1D
S315020822B045F820E01B0145F820C0DEE7EFF310825F
S315020822C0012383F310883B6813B13B68013B3B60EB
S315020822D03B681BB9802004490B75087582F3108880
S315020822E0F8BD00BFBCA51022000D404000084040C2
S315020822F008B5034B03600846FFF7A4FF002008BD94
S3150208230054524F50F0B585B0EFF30383103B204A81
S315020823105BB203F5C65152F8210020F4803042F828
S31502082320210052F821201B4A52F82340237BA56834
S3150208233053B30C3562682B781278DBB2012A04D1C2
S31502082340F42203F0F0032A702B706269B2B1A6690F
S3150208235001AFDEB196E8070087E807009B0644BF8F
S3150208236000233371E3693046336063699847A3698A
S315020823701BB197E8070083E807002B78DBB203F066
S315020823800F032B7005B0F0BD0835D3E73E46E5E7E7
S3150208239000600040C0A510221D4A92F82630928C91
S315020823A0DBB2C2F30312A2F1080103292BD8DFE834
S315020823B001F020160C021749174A51F82330A2FBDE
S315020823C003231B09154A136070471249124A51F82A
S315020823D02330A2FB0323114ADB08136070470D4919
S315020823E00D4A51F82330A2FB03230C4A9B081360BB
S315020823F070470849084A51F82330A2FB0323074AC3
S315020824005B0813607047034951F82330D340D9E774
S3150208241000E00140E0A11022ABAAAAAA08A610224F
S315020824204FF400420C4B0D480D4910B4C3E90001A4
S315020824300C490D4C0D4859610D49DC60C3E906107B
S315020824400C4C0D480D49C3E9084099629A601A6115
S315020824505DF8044BFFF7A0BFE0A11022006CDC0276
S3150208246000127A0000CA9A3B00366E015543DE1303
S315020824700046C3230084D7170008AF2F00389C1CD8
S31502082480014B53F820007047E0A11022704700BFA5
S3150208249000BEFEE7A0F101000028FBD1704700BF8D
S315020824A01F4B204A1B6800FB01F1934213D302F12A
S315020824B0854202F5071203F5741302F6834203F600
S315020824C0FF03A2FB03231B0DA3FB01314FF0FF30D1
S315020824D0F9B1FFF7DFBF4FF47A7210B4A1FB02C459
S315020824E01148B0FBF3F34FF0FF3044B9BCFBF3FCE1
S315020824F04FEA9C0088B15DF8044BFFF7CBBF9B00FF
S31502082500B1FBF3F1A1FB0212002AF4D1084620B16D
S31502082510F1E71846002BDCD170475DF8044B70478B
S3150208252008A6102200127A0000CA9A3BF8B50024BF
S3150208253001260D4B0D4FD3F80021D3F82051154033
S3150208254006FA04F32B4204D057F82430E0B203B15A
S3150208255098470134152CF3D1034AC2F81051D2F820
S3150208256020312B42FBD1F8BD00C0004068A51022DD
S31502082570044B027853F82200003818BF0120C00025
S31502082580704700BF0000024002460121024B127842
S31502082590002043F82210704700000240154A30B561
S315020825A000214FF0010E144C02F11C0C03E0944575
S315020825B001F101011CD032F8023F002BF7D001F5D8
S315020825C0C650B3F5806F44F820304FEA5310EED266
S315020825D0800000F1804000F5C040056C03F01F033F
S315020825E00EFA03F32B439445036401F10101E2D188
S315020825F030BD00BF3A8D080200600040EFF310813B
S31502082600012383F31088124B33F8102092B22AB1B1
S3150208261033F81020013A92B223F8102033F810301A
S315020826209BB293B910B40B4A0B4CB2F8FA3334F88E
S3150208263010009BB243F4254323EA0003A2F8FA33B7
S3150208264081F310885DF8044B704781F31088704750
S31502082650F8A5102200E00140BC8F080230B4EFF35F
S315020826601081012383F310880E4A32F810309BB288
S315020826706BB90D4C0D4DB4F8FA3335F810C09BB250
S3150208268043EA0C0343F425439BB2A4F8FA3332F81F
S31502082690103001339BB222F8103081F3108830BC17
S315020826A0704700BFF8A5102200E00140BC8F08025F
S315020826B008B509490A688318B3F5803F03D807485D
S315020826C00B60104408BD02F053FF0C2203461A6041
S315020826D04FF0FF3008BD00BF04A61022E0A10E226B
S315020826E000BE704708B500F035F8FFF75FF8FEE759
S315020826F0F8B5174F05463E68A6B17C6806EB46064E
S3150208270004EB860602E00C34B4420BD0637AAB4281
S31502082710F9D1D4E900020021121A0C3402F0B4FEEF
S31502082720B442F3D1BE6896B1FC6804EB061602E021
S315020827301034A6420BD0637BAB42F9D1D4E900022E
S31502082740A168121A103402F033FFA642F3D1F8BD7B
S315020827508C8D08024FF470011C4B1D4A70B500207F
S31502082760C3F888109A60FFF715F8FFF759FE194B58
S315020827705A6842F001025A605C68002CFCD10125B5
S315020827801D602846FFF706F8134B83F30A8820468E
S31502082790FFF7AEFFFFF700FE2846FFF7A9FF0F4D2A
S315020827A00F4B5B1B002B4FEAA30605DD55F8043BCE
S315020827B001349847A642F9DC0220FEF7EBFFFFF741
S315020827C0EDFEBDE870400020FFF760BE00ED00E0B8
S315020827D00000080200C00140E0A10F223C95080251
S315020827E0449508020B460146184601F047BF0023E6
S315020827F01A4630B510F8015B05F07F04944007329B
S3150208280023432C06F6D40B6030BD00231A4630B596
S3150208281010F8014B04F07F05954007322B43250635
S31502082820F6D41F2A06D8640642BF4FF0FF3404FACC
S3150208283002F213430B6030BD50282DE9F3410646D8
S31502082840884615461F4608D1D01C20F0030050F8CA
S31502082850044B3C6002B0BDE8F08100F00F030C2B7C
S315020828602ED8DFE803F025071D25292D2D2D2D1835
S315020828702125290001A92846FFF7B9FF019C002C4A
S31502082880E7D006F07003102B08BFA8463306444467
S3150208289048BF2468DDE701A92846FFF7B6FFEDE73A
S315020828A0284630F8024BEAE7284630F9024BE6E7B3
S315020828B0284650F8044BE2E7284650F8084BDEE76C
S315020828C001F016FE08B503460846FF2B0DD003F0A5
S315020828D07003302B0FD004D8202B08D005D901F06D
S315020828E007FE402B0BD0502BF9D1002008BDBDE8BE
S315020828F0084001F0FABDBDE8084001F0F3BDBDE8A5
S31502082900084001F0DFBD70B50C4615461E46014665
S315020829102046FFF7D7FF334601462A462046BDE83A
S315020829207040FFF789BF73B50C461546064608B1CF
S3150208293001F0C8FD2246286012F8011BFF291CD0A7
S315020829402B1D3046FFF7DFFF0246104610F8013B03
S31502082950FF2B14D0102301A92B75FFF748FF019B03
S315020829600344EB6001A910F8013B6B75FFF73FFFC3
S31502082970019B03442B6102B070BD6860E5E72B75C5
S315020829800023EEE71FB503AB0A4600930023194658
S3150208299000F0AAFF039805B05DF804FB2DE9F04F95
S315020829A0002393B005460C46079300F00303164628
S315020829B0012B10D0022B03D0002B3BD101073BD5AC
S315020829C03146204601F068FD18B1092013B0BDE86A
S315020829D0F08F0820FAE7020723D5022305F0080537
S315020829E00C2230460C941D430CAB00930023194667
S315020829F000F0A0FF062D21D1D4F83080B8F1000FDF
S31502082A00D4E90A790CBF4FF0010A4FF0030A15F010
S31502082A10080500F00981BAF1010F40F0018100F0C2
S31502082A205DF90F6A30460D21FFF7ACFF8742D4D114
S31502082A300623D3E701F05CFD0123CFE7304601F018
S31502082A4047FD81460028BBD00CAA01463046FFF74F
S31502082A506AFF9DF844B0314603905846FFF732FFA5
S31502082A600F2102900E903046FFF78CFF20F00108E6
S31502082A70039A08F1FF38109F974215D800274FF09E
S31502082A80010AB846EB07C2D5BAF1020F98D0079DDC
S31502082A900D213046FFF776FFC4F83080C4E90805F1
S31502082AA0C4E90A79062091E79DF845A008AB0020FB
S31502082AB05146FFF728FF09AB024651460020FFF7A9
S31502082AC022FF0AAB024651460020FFF71CFF0BA95C
S31502082AD0FFF78DFE0C9B089902460B44434551D8D5
S31502082AE009990B444345C6D9DDF82880B8F1000F89
S31502082AF001D00D9B98440B9B002B3BD0B8F1000FDD
S31502082B003FF45EAF15F0080204923DD047222270C8
S31502082B104E2262705522A2704322E2704622227128
S31502082B204F2262715222A2710022E271013BF81809
S31502082B300023039309A9FFF768FE0AA90590FFF780
S31502082B4064FE099F002F68D042DDBBF1FF0F3BD020
S31502082B500BF00703042B3FF66DAF01A252F823F0E0
S31502082B609B2B0802352A0802CD2B08029B2B08024A
S31502082B70C52B0802B8F1000F3FF422AF00274FF029
S31502082B80020A7FE73A4676E7E279012A0CBF54F849
S31502082B90202C04F158020792C8E704220F990BABBE
S31502082BA0584602FB17120299FFF746FE0B9931B1F6
S31502082BB03CB307AB0022204600F0C2F808B34FF038
S31502082BC0030A5FE70822E9E70022E7E70222E5E7C8
S31502082BD06FF040420F9BD21B03EB820AC4B10499E1
S31502082BE0B1B9079BAAF1040A0B935AF8041F0029E4
S31502082BF0E5D00BAB00225144204600F0A1F800288C
S31502082C00F3D00A98002859D0059B0344184691E741
S31502082C1053F82230002BF4D1D1E701230393F0E7CE
S31502082C20002F1FDA00F06AF8BAF1010F02D1204626
S31502082C3000F01EF9002F15DA0CAA49463046FFF7AE
S31502082C4072FE31469DF84400FFF73CFEFA430F9B9D
S31502082C5003EB820353F8252052BB0422C4E90A5027
S31502082C60C4E90C2300230BAD30460B941A461946C9
S31502082C70009500F05FFE00230122304619460095B2
S31502082C800B9700F057FE0F213046FFF77BFE00F048
S31502082C90010000230F2240EA0800009519460B900E
S31502082CA0304600F047FEBAF1020F03D007208DE640
S31502082CB00135CFE7204600F0A1F8F7E7039B002B82
S31502082CC03FF47EAE5AE700BF08B5804701F010FC14
S31502082CD0014BD3E8AF0F704718A00E2208B5FFF7CD
S31502082CE0F7FFFFF7F1FF08B58047FFF7F7FF000088
S31502082CF0014BD3E8AF0F704714A00E2208B5FFF7B1
S31502082D00F7FFFFF7F0FF0378472B17D143784E2BCF
S31502082D1014D18378552B11D1C378432B0ED103795D
S31502082D20432B0BD143792B2B08D183792B2B05D136
S31502082D30C07901288CBF0020012070470020704707
S31502082D402DE9F3411D4603780E460246472BC17903
S31502082D5013D143784E2B10D18378552B0DD1C378D6
S31502082D60432B0AD10379462B07D143794F2B04D13A
S31502082D708379522B01D1002930D01046FFF7C3FFC1
S31502082D8080F001040023E4B2002001904BBB54BB3F
S31502082D9001290ABF52F8203CA2F12003783B0129F7
S31502082DA00CBF52F8202C58321C6801922368204620
S31502082DB09B689847C8B1019B02271B680193336831
S31502082DC001AA21463046D3F810800123C04770B1C4
S31502082DD0019B2B60384602B0BDE8F08101230C4600
S31502082DE0D2E7044CE2E7044CE0E70127E7E70746A7
S31502082DF0F0E700BFE88F08021490080210B50446EF
S31502082E0000F0A0F802462046A4F12001FFF77BFF56
S31502082E1060B154F8043C0133012B44F8043C03D155
S31502082E20936844F8083C9160012010BD9368002B12
S31502082E30F9D0FFF753FF0378472B17D143784E2B68
S31502082E4014D18378552B11D1C378432B0ED103792C
S31502082E50432B0BD143792B2B08D183792B2B05D105
S31502082E60C07901288CBF00200120704700207047D6
S31502082E7010B5044648B100F03BF82046FFF7DBFFE1
S31502082E8018B154F8140CFFF71FFFFFF727FF38B5E0
S31502082E900246FFF7D0FF044640B152F8184C002507
S31502082EA0104600F025F81DB1FFF728FF0125F7E7C0
S31502082EB02046FFF718FF0378472B17D143784E2B86
S31502082EC014D18378552B11D1C378432B0ED10379AC
S31502082ED0432B0BD143792B2B08D183792B2B05D185
S31502082EE0C07901288CBF0020012070470020704756
S31502082EF038B5044600F026F8024605682046A4F1CD
S31502082F002001FFF7D8FF28B90DB1FFF7E7FE1160D8
S31502082F10284638BD54F80C3C2046002BB4BFC3F1F2
S31502082F20010301338D4244F80C3C536803F1FF3325
S31502082F3053601CBF44F8105C1160656A00F0D2FC4D
S31502082F40E6E70000004870470CA61022034B10B5AE
S31502082F500446036000F0B4F8204610BD58900802F3
S31502082F6010B50446FFF7F2FF0C21204600F0FCF8E4
S31502082F70204610BD2DE9F041DDF8188006460F46B9
S31502082F80154690451C460BD0B0682A463946036852
S31502082F90CDF818801E6A2346B446BDE8F04160475C
S31502082FA0194600F057F80028EED00620BDE8F08151
S31502082FB02DE9F14F0D461946814617469846DDE931
S31502082FC00A4BDDE90CA600F045F890B1002D3460F5
S31502082FD0377109DB2C44A24514BF01240624B471B7
S31502082FE0002001B0BDE8F08F0235F9D10123B37193
S31502082FF0F6E7544506D15946484600F02BF808B17B
S315020830007771EDE7D9F808003A4629460368CDE90B
S315020830100CA6CDE90A4BDC694346A44601B0BDE8D5
S31502083020F04F60472DE9F04107460C4615461E4605
S3150208303000F079F848B9B8682A46214603689F69B4
S315020830403346BC46BDE8F0416047BDE8F0817047AB
S3150208305000207047814208B50ED0406803782A2BB3
S315020830600CD049680B782A2B08BF013102F088FA7E
S31502083070B0FA80F0400908BD0120FCE70020FAE713
S315020830807FB50024102315461268CDE90234036879
S31502083090CDE900449E696B46B0479DF8043003F0BB
S315020830A00603062B05BF009B012020462B6004B0B1
S315020830B070BD009890420CBF0620012070470000A0
S315020830C0034B10B504460360FFF7C1FF204610BD47
S315020830D0CC90080210B50446FFF7F2FF08212046F5
S315020830E000F042F8204610BD2DE9F041DDF81880BF
S315020830F01F4606461546DDE90834984507D107995D
S31502083100FFF7A8FF18B165710020BDE8F0813946BE
S315020831103046FFF79FFF0028F6D00123C4F8008047
S315020831202571A371F0E738B515461C46FFF792FFDD
S3150208313020B108232560E3600623237138BD2DE9F3
S31502083140F04105460C4616461F46FFF783FF48B967
S31502083150032F07D823683246294620465B69BDE80D
S31502083160F0411847BDE8F08100F000B801F0D0B987
S3150208317010EE101AC1F3C7520029A2F17F0CACBF98
S3150208318001204FF0FF30BCF11E0F0FDCBCF1000F1F
S315020831901CDBC1F31603BCF1160F43F400030ADD68
S315020831A0963A03FA02F202FB00F07047FDEEC07A85
S315020831B017EE900A70474FF48002CCF1170142FAD3
S315020831C00CF21A44CA4002FB00F07047BCF1FF3FFA
S315020831D018BF0020704700BF81F0004102E000BF1F
S315020831E083F0004330B54FEA41044FEA430594EAB7
S315020831F0050F08BF90EA020F1FBF54EA000C55EAF2
S31502083200020C7FEA645C7FEA655C00F0E2804FEAC2
S315020832105454D4EB5555B8BF6D420CDD2C4480EAA4
S31502083220020281EA030382EA000083EA010180EAD4
S31502083230020281EA0303362D88BF30BD11F0004F22
S315020832404FEA01314FF4801C4CEA113102D0404258
S3150208325061EB410113F0004F4FEA03334CEA133393
S3150208326002D0524263EB430394EA050F00F0A780AB
S31502083270A4F10104D5F1200E0DDB02FA0EFC22FAA6
S3150208328005F2801841F1000103FA0EF2801843FA9A
S3150208329005F359410EE0A5F120050EF1200E012A8B
S315020832A003FA0EFC28BF4CF0020C43FA05F3C018C9
S315020832B051EBE37101F0004507D54FF0000EDCF142
S315020832C0000C7EEB00006EEB0101B1F5801F1BD3EB
S315020832D0B1F5001F0CD349085FEA30004FEA3C0CEF
S315020832E004F101044FEA445212F5800F80F09A80E5
S315020832F0BCF1004F08BF5FEA500C50F1000041EBE9
S31502083300045141EA050130BD5FEA4C0C404141EBEC
S315020833100101013C28BFB1F5801FE9D291F0000FE7
S3150208332004BF01460020B1FA81F308BF2033A3F196
S315020833300B03B3F120020CDA0C3208DD02F1140C8D
S31502083340C2F10C0201FA0CF021FA02F10CE002F1C8
S315020833501402D8BFC2F1200C01FA02F120FA0CFCC1
S31502083360DCBF41EA0C019040E41AA2BF01EB04510A
S31502083370294330BD6FEA04041F3C1CDA0C340EDC08
S3150208338004F11404C4F1200220FA04F001FA02F34B
S3150208339040EA030021FA04F345EA030130BDC4F109
S315020833A00C04C4F1200220FA02F001FA04F340EAFE
S315020833B00300294630BD21FA04F0294630BD94F0AF
S315020833C0000F83F4801306BF81F480110134013D96
S315020833D04EE77FEA645C18BF7FEA655C29D094EA07
S315020833E0050F08BF90EA020F05D054EA000C04BF85
S315020833F01946104630BD91EA030F1EBF0021002070
S3150208340030BD5FEA545C05D14000494128BF41F00E
S31502083410004130BD14F580043CBF01F5801130BD72
S3150208342001F0004545F0FE4141F470014FF00000FD
S3150208343030BD7FEA645C1ABF194610467FEA655CAE
S315020834401CBF0B46024650EA013406BF52EA033550
S3150208345091EA030F41F4002130BD00BF90F0000F3E
S3150208346004BF0021704730B54FF4806404F132047A
S315020834704FF000054FF0000150E700BF90F0000F33
S3150208348004BF0021704730B54FF4806404F132045A
S3150208349010F0004548BF40424FF000013EE700BF2A
S315020834A042004FEAE2014FEA31014FEA02701FBFBA
S315020834B012F07F4393F07F4F81F06051704732F0EC
S315020834C07F4208BF704793F07F4F04BF41F4002143
S315020834D0704730B54FF4607401F0004521F00041A1
S315020834E01CE700BF50EA010208BF704730B54FF02B
S315020834F000050AE050EA010208BF704730B511F02C
S31502083500004502D5404261EB41014FF4806404F163
S3150208351032045FEA915C3FF4D8AE4FF003025FEAE9
S31502083520DC0C18BF03325FEADC0C18BF033202EB6D
S31502083530DC02C2F1200300FA03FC20FA02F001FAC7
S3150208354003FE40EA0E0021FA02F11444BDE600BF6A
S3150208355003685A004CBF43F0004323F00043184463
S31502083560704700BF2DE9F04729B301F1FF3A8046BB
S31502083570914600255646A91948BF0131491008EB5C
S31502083580C107CC003846FFF7E3FF8A450DD0083459
S31502083590484508EB04000AD8FFF7DAFF01384D1C44
S315020835A04845E8D33846BDE8F0874845FAD98D42FA
S315020835B001F1FF36DFD100273846BDE8F08700BFA4
S315020835C0012809D0022805D00028044B14BF002080
S315020835D0184670470248704702487047AD3C0802D1
S315020835E0BD3C0802B53C0802224B30B5044683B0FE
S315020835F08D1E43B301A92846AFF30080F0B10199A5
S315020836002A46FFF7AFFF0146C0B1FFF7A1FF4B6895
S31502083610A064012B2AD0002B01F1040024DBFFF75A
S3150208362097FF002323650368E064002B11DBFFF78D
S315020836308FFF03460020236103B030BD0023092013
S31502083640236103B030BD0C480C49091AC91001910F
S31502083650D6E7C3F30360FFF7B3FF031E0CBF0920C7
S315020836600020236103B030BD0123DBE700230520D8
S31502083670E1E700BF00000000A8950802309708029B
S315020836800368DA0710B5044606D49B0700F1500012
S3150208369009D500F093FC2368590709D51A070ED5F0
S315020836A0DB0613D510BD00F081FC23685907F5D453
S315020836B004F1D80000F08AFC23681A07F0D404F54E
S315020836C0AC7000F08BFC2368DB06EBD404F5EC70D7
S315020836D0BDE8104000F0C6BC0346006800B11844B5
S315020836E0704700BF704700BF70B504460E46316C7E
S315020836F02046FFF779FF054698B9D6F840C0324604
S31502083700236921460120C4F814C098470828EED038
S31502083710072806D12846316CFFF7E4FF301D00F072
S3150208372039FC00F0E5FE00BF2DE9F04701F1040C73
S31502083730ADF5787DC7680646D0F8188014460DF1AF
S31502083740140E04AD4FF00009BCE80F00AEE80F00F6
S31502083750BCE80F00AEE80F00BCE80F00AEE80F00A9
S315020837609CE80F008EE80F00C5F8009023E02B6C4A
S315020837704FF4F47229467EA8736101F019FF336982
S315020837807EAA3146504698478C9B2146814603932A
S315020837903246039C33460120AC64CDE90058B8474B
S315020837A0044628BB4FF4F4727EA9284601F000FFAE
S315020837B0B9F1080F19D10934296C3046FFF714FFFD
S315020837C081465FFA84FA0028D1D0AC6B334632467A
S315020837D04AF01001AC640120CDE90058B84738B95F
S315020837E048460DF5787DBDE8F087B9F1070F06D092
S315020837F04FF0090948460DF5787DBDE8F087204661
S31502083800296CFFF76FFF05A800F0C4FBF0B5CB6B78
S31502083810FBB001F1040C0E460B6401AC05464FF0F1
S31502083820FF37BCE80F000FC4BCE80F000FC4BCE8A2
S315020838300F000FC49CE80F0084E80F00009706E00B
S315020838402B696A46294698470828044608D11099DA
S315020838502846FFF7C9FE0028F2D009207BB0F0BD42
S315020838606846FFF70DFF062CF7D131462846FFF7C3
S315020838703BFF00BF10B4DC6BC160194682610022AF
S315020838801C6410BCFFF750BF70B54369C6680B6469
S31502083890AEB903690A4604460D4601460220984710
S315020838A0072805D008280FD129462046FFF71CFF0E
S315020838B03046296CFFF716FF281D00F06BFB012224
S315020838C0FFF732FF00F014FE00F012FEC26832B1B2
S315020838D0D1F83CC00022C1F840C0FFF725BFFFF768
S315020838E095BF00BF704700BF052915D8DFE801F06C
S315020838F00A031403030501207047436C0020009A4B
S315020839001360704743B90F2A06D800EB82020020DB
S315020839105368009A136070470220704710B584B046
S3150208392000230A4603AC19460094FFF7DDFF039805
S3150208393004B010BD052915D8DFE801F00A031403FF
S31502083940030501207047009B1B68436400207047EB
S3150208395043B90F2A06D8009B00EB820200201B6897
S31502083960536070470220704710B584B0002303AC39
S3150208397003920A4619460094FFF7DCFF04B010BD0D
S31502083980F0B5D36BADF5117D141D064613640DF122
S315020839905C0C0D464FF0FF370FCCACE80F000FCC8E
S315020839A0ACE80F000FCCACE80F0094E80F008CE8E7
S315020839B00F00169710E0FFF7D7FF294616A8B0475B
S315020839C0034616AA6946082083B9049B9847052820
S315020839D004460CD009280AD026996846FFF704FE41
S315020839E003466A460C2116A8002BE4D0092416A819
S315020839F0FFF746FE20460DF5117DF0BD2DE9F04F85
S31502083A001646CA6C89B00D4652F8041B00F0030C20
S31502083A100692002B7CD00C0C09048DF81D40E4B2EA
S31502083A200591022102EB8402BCF1020F8DF81C10EB
S31502083A30296D08BFAA6B11F0010809D005A93046FD
S31502083A4000F0AAFB00285BD1082009B0BDE8F08F78
S31502083A501768002FF2D000F00801BB469A4667465F
S31502083A600191CDF80880BAF1020F4DD0B2F800B034
S31502083A7002F10409548824F00102AB6C64000F2198
S31502083A8002EB03083046FFF749FF04F002040BF085
S31502083A900103804543EA04032CD82BF0010B012BC2
S31502083AA0C34472D0022B39D053BB17B1834500F2F7
S31502083AB0C88009F10402D2F800B0BBF1000FD2D1D6
S31502083AC005A93046DDF8088000F066FBC0B9B8F1F2
S31502083AD0000FB9D00F213046FFF720FF0E2102460C
S31502083AE03046FFF741FF704A0F213046FFF73CFF89
S31502083AF0072006E0012B66D0022B25D0002BD8D052
S31502083B00092009B0BDE8F08F546802F10809B2E746
S31502083B1009028DF81D300591032185E7D9F8004081
S31502083B2024F00048B7B9834505D9019B002B64D018
S31502083B30B8F1000F61D0002C01DA09F1040908F185
S31502083B40010309EB8302B6E7D9F8004024F00048DE
S31502083B50002FF0D0D5F820B00D213046FFF7DEFE53
S31502083B608345E8D1AA6A9145E5D100240422C5F81D
S31502083B702880C5E90B424A446A63D9F80020A24262
S31502083B80C0F28D8001230293D9E7F7B9834517D985
S31502083B90D9F80430D9F80020991C4FEAD272AFD06E
S31502083BA005F158040133049472D009F10400FFF7B1
S31502083BB093FD04AB01462846FFF7C2F8002853D105
S31502083BC009F1080277E7002FFAD02C6A0D21304650
S31502083BD0FFF7A4FE8442F3D1AB6A9945F0D1484671
S31502083BE0FFF7B6FC0F2102463046FFF7BDFE2A460E
S31502083BF000213046FFF7B8FE7AE705F15803039726
S31502083C0009F1040B00241F460CE0584600220497CB
S31502083C10FFF762FD04AB014628460BF1040BFFF7DA
S31502083C208FF888BB444504F10104EED10D213046D4
S31502083C30FFF774FE049B024606202A62C5E9093983
S31502083C405FE74846FFF784FC09F104020446284662
S31502083C50AA63FFF7D3F800283FF452AF22460F2192
S31502083C603046FFF781FE43E704460D213046049E9F
S31502083C70FFF754FE022C286202D1EE6205F12C06E9
S31502083C800620C5E909693CE7039FD9F8004052E7CF
S31502083C9030460D21FFF742FE26462862F0E708F174
S31502083CA0010209EB82009BE78F2E08020023FFF729
S31502083CB0A5BE00BF0123FFF7A1BE00BF0223FFF77F
S31502083CC09DBE00BF2DE9F0410546C4B0144605293C
S31502083CD000F2B480DFE801F00F29B2698F03836B23
S31502083CE0002C40F0AB8053F8042B42648363002017
S31502083CF044B0BDE8F081002B40F0A0801FFA84FC96
S31502083D00806B01262F1D06FA03F1024611EA0C0FF3
S31502083D1004D052F8041B104647F823100133102B1F
S31502083D20F1D1A204E3D4A863E1E703F0FB02260C6F
S31502083D30A4B2012A40F08280012B06EB040800F0A7
S31502083D40C280B8F1200F79D80F2E79D9002CCED09F
S31502083D5002680193530705D522F0040240F8D82BCE
S31502083D6000F038F902AF6400384600F033F9A6F1DC
S31502083D701002A96B601E019B07EBC202441C101FAE
S31502083D8001EB840251F8044B914240F8044FF9D1F1
S31502083D90012B00F0CA800F2EA96302D822A800F0D0
S31502083DA00DF9384600F012F9A1E7032B46D11FFA9E
S31502083DB084F8260C08EB1444102C3FD803681F0716
S31502083DC000F1AB8022AF384600F02AF9AC6B4FEA15
S31502083DD0480107EBC6034A1E41B1E01A013A1958CF
S31502083DE0561C43F8041BF9D104EBC8043846AC63E5
S31502083DF000F0F4F87BE70BBB102C1FD80368D80633
S31502083E0000F1838022AF384600F036F9AE6B3946A8
S31502083E1000234FF0010C0CFA03F23046013322421A
S31502083E2003D050F8042B06460A60042B01F104015C
S31502083E30F1D13846AE6300F015F958E7022057E784
S31502083E400268B8F1100F02F0010040F2898058B1F9
S31502083E5022F001022846019342F0020240F8502B52
S31502083E6000F0B0F82A68019B5107A8F1100800F182
S31502083E708880019322AF384600F0A4F802A800F021
S31502083E80A9F8C6F11001AA6B07EBC6004900019B07
S31502083E9001390131043802EB810152F8044B91428F
S31502083EA040F8044FF9D1B8F1000F4FD04FEA480253
S31502083EB0102E02AF02F1FF30324638BF1022103AF6
S31502083EC007EBC2025AE7B8F1100FB7D8102EB5D0D1
S31502083ED00168CA0730D521F003012846019340F844
S31502083EE0501B00F067F8019B012B25D022AF0193E6
S31502083EF0384600F067F8AA6B74B3019B64004FF06A
S31502083F00000807EBC600611EC3E723F0100305F598
S31502083F10EC702B6000F0B0F874E723F0080300F5A4
S31502083F20AC702B6000F07CF84CE722AF04323846BE
S31502083F30AA6300F03BF8DAE622AF0193384600F0AE
S31502083F4039F8AA6B019B002CF0D0D7E7012BEDD0EC
S31502083F500F2EA9633FF6CBAE384600F02FF8C6E619
S31502083F6011460028C2D0052BB5D122F001022846F7
S31502083F70019342F0020240F8502B00F023F8019B0D
S31502083F80B4E722F004022846019340F8D82B00F041
S31502083F9021F86FE700F1340191E838009C46A646FD
S31502083FA04CF8045D90E8FF0FE54600BD90EC210B46
S31502083FB0704700BF80EC210B704700BF90EC200BC6
S31502083FC0704700BF80EC200B704700BFD0EC200B77
S31502083FD0704700BFC0EC200B704700BFF0EC02012F
S31502083FE0F0EC0211F0EC0221F0EC0231F0EC0241A5
S31502083FF0F0EC0251F0EC0261F0EC0271F0EC028195
S31502084000F0EC0291F0EC02A1F0EC02B1F0EC02C184
S31502084010F0EC02D1F0EC02E1F0EC02F1704700BFDD
S31502084020E0EC0201E0EC0211E0EC0221E0EC0231E4
S31502084030E0EC0241E0EC0251E0EC0261E0EC0271D4
S31502084040E0EC0281E0EC0291E0EC02A1E0EC02B1C4
S31502084050E0EC02C1E0EC02D1E0EC02E1E0EC02F1B4
S31502084060704700BFB0FC0181B0FC0191B0FC01A110
S31502084070B0FC01B1704700BFA0FC0181A0FC019110
S31502084080A0FC01A1A0FC01B1704700BFEC4600B537
S315020840902DE900502DE9FF1F4FF000032DE90C0012
S315020840A001A9FFF7B3FBDDF840E012B0704700BF85
S315020840B0EC4600B52DE900502DE9FF1F4FF000032D
S315020840C02DE90C0001A9FFF7DFFBDDF840E012B08D
S315020840D0704700BFEC4600B52DE900502DE9FF1FD9
S315020840E04FF000032DE90C0001A9FFF7EFFBDDF8FD
S315020840F040E012B0704700BFEC4600B52DE900500B
S315020841002DE9FF1F4FF000032DE90C0001ABFFF765
S31502084110B1FBDDF840E012B0704700BFEC4600B5CF
S315020841202DE900502DE9FF1F4FF000032DE90C0081
S3150208413001AAFFF725FCDDF840E012B0704700BF80
S31502084140027A03468AB9427AB2B14168013A4FF015
S31502084150030C10B442720C1D086883F808C00202E8
S315020841605C60000E10BC1A6070470068013A1A7249
S315020841700202000E1A607047B020704710B584B06C
S3150208418000230C2203AC19460094FFF7ADFB0398F3
S3150208419004B010BDFFF7F2BF2DE9F0434FF0000857
S315020841A085B006460D462846FFF7CAFFB0280446DC
S315020841B000F01E81070638D500F0F003A02B00F0A8
S315020841C083800CD8802B5ED0902B04D100F00D038F
S315020841D00D2B40F08F80092005B0BDE8F083B02B87
S315020841E068D0C02B3ED1C62800F0EF80C72800F061
S315020841F0048100F0F803C02B00F01181C82800F0F2
S315020842001C81C928E7D12846FFF79AFF020300F066
S315020842100F0002F4702201300243012105233046C1
S31502084220FFF750FD0028BED0D5E783000DF1080937
S315020842300D223046DBB2CDF800901F1D0023194629
S31502084240FFF752FB029B60064FF00D023046CDF88F
S3150208425000904CBFDF1BFF18002302971946FFF791
S3150208426069FBA0E700F0F803D02BB4D100F00702EF
S31502084270052301213046013242F40022FFF722FDCE
S31502084280002890D0A7E724022846FFF759FF2043C3
S31502084290B0F5004F9FD0040100233046A2B219465A
S315020842A0FFF710FD002896D114F4004F18BF4FF0FF
S315020842B0010878E7A0F1B103042B00F2DA80DFE8FF
S315020842C003F07B503D332A00C3434FF47F62010754
S315020842D003F0070342FA03F202F47F6201D542F4BD
S315020842E08042002330461946FFF7ECFC00283FF4CB
S315020842F05AAF70E702AF002300F00F0230461946A4
S315020843000097FFF7F1FA00230D2230461946009767
S31502084310FFF710FB47E703AA002330460092194627
S315020843200D22FFF7E1FA3EE70023052130461A4639
S31502084330FFF7C8FC00283FF436AF4CE72846FFF7DC
S31502084340FFFE0123020300F00F001946013002F4B2
S31502084350702202433046FFF7B5FC00283FF423AF2C
S3150208436039E700230DF108090D2230461946CDF822
S315020843700090FFF7B9FA2846FFF7E2FE0206029C0A
S315020843804FF002070AD500F07F00B8400737044409
S3150208439028460294FFF7D4FE0306F4D4B84004F57F
S315020843A0017400230D222044CDF80090194602908C
S315020843B03046FFF7BFFAF6E62846FFF7C1FE431E68
S315020843C00246DBB20E2B8CD905E72846FFF7B8FE64
S315020843D00323020300F00F001946013002F470228B
S315020843E002433046FFF76EFC00283FF4DCAEF2E6E5
S315020843F0B8F1000F2DD00020EEE62846FFF7A0FE02
S31502084400431E0246DBB20E2B3FF6E5AE002304211D
S315020844103046FFF757FC00283FF4C5AEDBE600F04E
S315020844200F02032330460132194642F42022FFF7CF
S3150208443049FC00283FF4B7AECDE62846FFF780FED2
S3150208444000F0F00200F00F031032013343EA0232A1
S31502084450E3E602AC434641460E2230460094FFF795
S3150208446043FA0F224346414630460094FFF762FA62
S31502084470C1E700F0FC03B42B3FF4ADAE00F007022F
S31502084480012330461A44194642F40022FFF71AFC61
S3150208449000283FF488AE9EE6024603230846D26CFD
S315020844A010B584B008328DF80C3001A952F8043CD4
S315020844B01C021B0ECDE901428DF80D30FFF76CFE8A
S315020844C004B010BD08B5FFF765FE806C08BD00BFD5
S315020844D008B5FFF75FFEC06CC37900EB83000830AE
S315020844E008BD00BF08B500F003F808B5FFF7FAFFE4
S315020844F0062008B501F00CF8012004F001FB0000C3
S31502084500024B0146186800F02DB800BF1CA00E2207
S31502084510024B0146186801F0B5BE00BF1CA00E2268
S3150208452070B50F4E0C460546316811B901F010F800
S3150208453030602146284601F00BF8431C03D14FF0A0
S31502084540FF34204670BDC41C24F00304A042F8D0F0
S31502084550211A284600F0FCFF0130F2D1EFE700BF2E
S3150208456018A610222DE9F843CD1C064625F00305A8
S3150208457008350C2D38BF0C25002D01DBA94204D9BC
S315020845800C2333600020BDE8F883DFF8D48000F0FE
S3150208459069F8D8F800301C4644BB29463046FFF76E
S315020845A0BFFF431C044658D1D8F800402746002FBF
S315020845B043D1002C4BD023683946304604EB030915
S315020845C000F0C6FF814542D1216830466D1A294658
S315020845D0FFF7A6FF01303AD023682B442360D8F8A8
S315020845E000305A6862BBC8F800700FE02268521B96
S315020845F020D40B2A17D96119A342256018BF59601E
S31502084600636808BFC8F8001062514B60304600F074
S315020846102FF804F10B00231D20F00700C21A1CBF55
S315020846201B1AA350AFE76268A3420CBFC8F8002062
S315020846305A60EBE723466468AEE73C467F68B6E70E
S315020846401A465B68A342FBD100235360DEE70C23BC
S315020846503046336000F00CF894E70560D6E700BFF1
S315020846601CA61022014800F089BF00BF5CA71022D1
S31502084670014800F084BF00BF5CA7102210B50446AB
S315020846800448134620B10A4602202146AFF30080A9
S3150208469010BD00BF000000002DE9FF4757EC106B64
S315020846A0002F0C4619463B46B4BF07F100430023C8
S315020846B09146BFBF32461F462D231646DDF830A067
S315020846C00B700D9B23F02008B8F1460F05D0B8F100
S315020846D0450F00D10134022100E0032103AB224633
S315020846E0019302AB47EC106B0093534601F00CF8AA
S315020846F0B8F1470F054619D119F0010F0ED000EB94
S315020847000409002200233046394604F0D3F808B1DA
S31502084710CDF80C903022039B4B451ED3039B2846AB
S315020847200E9A5B1B136004B0BDE8F087B8F1460F1A
S3150208473000EB0409E5D10378302B0AD100220023C5
S315020847403046394604F0B6F818B9C4F10104CAF875
S315020847500040DAF800309944D3E7591C03911A70DD
S31502084760D9E7F7B500290270BABF49422D232B2390
S315020847700929437028DD0DF107030A271D461A4643
S31502084780013BB1FBF7F607FB1614303402F8014C6D
S315020847900C463146632CF2DC3031941E03F8011CB8
S315020847A0411C2346AB420AD30DF109039B1AAC42BC
S315020847B088BF002302330344181A03B0F0BD13F866
S315020847C0016B01F8016FEDE7302330318370031D69
S315020847D0C170F1E72DE9F04F8DB00C4616461F461B
S315020847E0DDF85880054600F09BFE036818460493D8
S315020847F000F0EBFE002305900A93D8F8003094F8EF
S3150208480018A00733D4F800B023F0070303F108020F
S31502084810C8F800204FF0FF32D3E9008929F0004397
S31502084820CDF8188007939D4BDDE90601C4E9128984
S3150208483004F072F870BB4FF0FF32984BDDE90601BF
S3150208484004F04CF830BB002200234046494604F0E7
S315020848503BF810B12D2384F84330914A914BBAF1B3
S31502084860470F8CBF9046984603234FF000092361F1
S315020848702BF00403236033460BAA214628460097E9
S3150208488000F0D2F9013040F08D804FF0FF300DB0C4
S31502084890BDE8F08F42464B464046494604F03CF88E
S315020848A040B14B46804A002BBCBF2D2384F84330C7
S315020848B07E4BD4E70AF0DF02636806925A1C3BD1A4
S315020848C0062363604BF48062002328462260039322
S315020848D00AABCDE901A309AB49EC108B00930DF1A4
S315020848E023036168FFF7D8FE069B80460999472B82
S315020848F029D1C81C02DB6368994241DDAAF1020A82
S315020849005FFA8AFA0139524604F150000991FFF713
S3150208491028FF0A9A81461318012A236102DC2268B3
S31502084920D20701D5013323619DF82330002BA2D08B
S315020849302D2384F843309EE7069A472AC2D1002BD4
S31502084940C0D10123BDE7BAF1650FDBD9BAF1660F0B
S3150208495018D1002963680BDD216113B92268D007D3
S3150208496002D501330B4423614FF00009A165DBE749
S3150208497013B92268D20701D50233F4E70123F2E715
S315020849804FF0670A0A9B994205DB23682161D8071B
S31502084990EAD54B1CE7E70029D4BFC1F1020201227E
S315020849A01344E0E723685A0507D423694246314689
S315020849B02846B84701302BD167E7BAF1650F40F2AE
S315020849C0DD8000220023D4E9120103F073FF0028D8
S315020849D033D00123364A31462846B84701303FF4D8
S315020849E054AFDDE90938434502DB2368D8070FD5FA
S315020849F031462846DDE90423B84701303FF445AF7E
S31502084A004FF0000908F1FF3804F11A0AC84509DC13
S31502084A1023689B0700F10381E0680B9B9842B8BFA5
S31502084A20184634E70123524631462846B84701302C
S31502084A303FF42BAF09F10109E8E7099B002B39DCA2
S31502084A4001231B4A31462846B84701303FF41DAFB9
S31502084A50DDE9093959EA030302D12368D907D7D50B
S31502084A6031462846DDE90423B84701303FF40DAF45
S31502084A704FF0000A04F11A0B099B5B42534501DC0D
S31502084A804B4693E701235A4631462846B847013032
S31502084A903FF4FBAE0AF1010AEEE700BFFFFFEF7F24
S31502084AA0F4900802F0900802FC900802F8900802B6
S31502084AB000910802A36DDDF828A05345A8BF534606
S31502084AC0002B994636DC4FF0000B29EAE97904F106
S31502084AD01A02A36D0693A3EB09035B4531DC099B16
S31502084AE09A453ADC2368DA0737D4099BAAEB030905
S31502084AF0069BAAEB03039945A8BF9946B9F1000F8D
S31502084B0033DC4FF0000829EAE97904F11A0B099B0C
S31502084B10AAEB0303A3EB090343457FF779AF012306
S31502084B205A4631462846B84701303FF4AEAE08F138
S31502084B300108ECE7424631462846B8470130C2D159
S31502084B40A3E60123314628460692B84701303FF4C8
S31502084B509CAE0BF1010B069ABBE7DDE9042331464D
S31502084B602846B8470130C0D18FE6069A4B463146E9
S31502084B7028464244B8470130C3D186E6DDF828A064
S31502084B80BAF1010F01DCDB0736D50123424631466D
S31502084B902846B84701303FF478AE31462846DDE963
S31502084BA00423B84701303FF470AE002200230AF10D
S31502084BB0FF3AD4E9120103F07DFEC0B9534608F163
S31502084BC0010231462846B84701300CD15DE6012379
S31502084BD05A4631462846B84701303FF456AE08F1E0
S31502084BE00108D045F3DB4B4604F15002DFE64FF0ED
S31502084BF0000804F11A0BF4E701234246E1E7012310
S31502084C004A4631462846B84701303FF43EAE08F1D7
S31502084C100108E3680B995B1A4345F0DCFCE64FF0A2
S31502084C20000804F11909F4E72DE9F04716469846F3
S31502084C308A6807460B690C46DDF820909342B8BF8E
S31502084C401346336091F843200AB10133336023686F
S31502084C50990642BF336802333360256815F00605A4
S31502084C6006D104F1190AE36832689B1AAB422BDCB7
S31502084C7094F843302268003B18BF0123920630D4C9
S31502084C8004F1430241463846C847013023D0236817
S31502084C901A3454F80A2C03F00603042B0ABF54F8F4
S31502084CA00E5C002533684FF0000608BFED1A54F86B
S31502084CB0123C08BF25EAE5759342C4BF9B1AED1854
S31502084CC0B5421AD1002008E0012352464146384629
S31502084CD0C847013003D14FF0FF30BDE8F0870135F0
S31502084CE0C1E7E1185A1C30200233224481F84300F6
S31502084CF094F8451082F84310C2E70123224641463A
S31502084D003846C8470130E6D00136D9E72DE9FF47CC
S31502084D100F7E914680460C46782F9A460C9E01F1E4
S31502084D20430207D8622F0AD8002F00F0D180582FE5
S31502084D3000F0B88004F1420684F842703AE0A7F11E
S31502084D406303152BF6D801A151F823F0A54D0802E5
S31502084D50B94D0802354D0802354D0802354D08028F
S31502084D60354D0802B94D0802354D0802354D08027F
S31502084D70354D0802354D0802B74E0802E34D0802C2
S31502084D80714E0802354D0802354D0802D94E080201
S31502084D90354D0802E34D0802354D0802354D080225
S31502084DA0794E080233681A1D1B68326004F14206FE
S31502084DB084F8423001239CE033682068191D31606B
S31502084DC0060601D51D6803E04506FBD5B3F9005072
S31502084DD0002D03DA2D236D4284F8433058480A23FE
S31502084DE011E021683368080653F8045B02D44906C1
S31502084DF048BFADB26F2F3360514814BF0A23082348
S31502084E00002184F843106668002EA66005DB216837
S31502084E102E4321F0040121604BD01646B5FBF3F16F
S31502084E2003FB1157C75D06F8017D2F460D46BB42A7
S31502084E30F4D9082B0BD12368DF0708D523696168E3
S31502084E409942DEBF302306F8013C06F1FF36921B73
S31502084E5022614B4603AA21464046CDF800A0FFF739
S31502084E60E3FE01304AD14FF0FF3004B0BDE8F087C7
S31502084E70236843F02003236078273248236884F89E
S31502084E8045701F06316851F8045B02D45F0648BFB5
S31502084E90ADB23160D90744BF43F0200323601DB188
S31502084EA01023ADE72648E9E7236823F020032360A9
S31502084EB0F6E71646BDE733682568181D616930604E
S31502084EC02E061B6801D5196002E06806FBD5198013
S31502084ED0002316462361BCE7336800211A1D326097
S31502084EE01E686268304600F055FB08B1801B606098
S31502084EF063682361002384F84330AAE723693246AC
S31502084F0049464046D0470130ADD023689B0713D4A3
S31502084F10E068039B9842B8BF1846A6E701233246C3
S31502084F2049464046D04701309DD00135E36803998A
S31502084F305B1AAB42F2DCEBE7002504F11906F5E74A
S31502084F4002910802139108022DE9F04F87B017461D
S31502084F5080460C4603938B685A1EB2F5AE7F0A4604
S31502084F6089BF6FF4AE754FF0000B03EB050B40F2E9
S31502084F705D134FF0000588BF8B600B68AA46A946E9
S31502084F80029543F4F06342F81C3B16460192CDE9BA
S31502084F900455A26852B13B681B784E2B64D8402B45
S31502084FA03CD8A3F12B01C8B20E283AD9B9F1000FA1
S31502084FB003D0236823F4807323600AF1FF3ABAF117
S31502084FC0010F00F21781019B9E4200F2088101201F
S31502084FD007B0BDE8F08FA3F161020D2AE6D801A158
S31502084FE051F822F02B510802AD4F0802AD4F0802C4
S31502084FF0AD4F08028B51080263510802AD4F0802F1
S31502085000AD4F080239510802AD4F0802AD4F0802EA
S31502085010AD4F0802AD4F0802F1500802A3F1410252
S31502085020DBE70E29C2D801A050F821F0E1500802A8
S31502085030AD4F0802E150080277510802AD4F080247
S3150208504089500802C7500802C7500802C75008020A
S31502085050C7500802C7500802C7500802C7500802BC
S31502085060C7500802C75008026E2B09D8602BB2D85F
S31502085070542B7BD0592B99D1072D97D108252CE093
S31502085080742B73D0792BF6E72168C8051BD521F056
S31502085090800109F101092160BBF1000F03D0013239
S315020850A00BF1FF3BA260A368013BA36023690133AE
S315020850B023617B68013B002B7B6040F387803B685A
S315020850C001333B6065E71AEB05017FF46FAF22688F
S315020850D00D468A4622F4C072226006F8013BE2E7D0
S315020850E0226810067FF562AF22F080022260F4E79A
S315020850F0BAF1000F0ED1B9F1000F0ED1226802F4EF
S31502085100E061B1F5E06F08D122F4F0624FF0010ACE
S315020851102260E2E7BAF1020F55D0012D02D0042D22
S315020851207FF444AF0135EDB2D7E7BAF1010F7FF448
S315020851303DAF4FF0020AD0E77DB9B9F1000F7FF40F
S3150208514038AF226802F4E061B1F5E06F40F00781FA
S3150208515022F4F06201252260BFE7032DE2D0052D75
S31502085160DEE7022D7FF422AF0325B6E7062D7FF48C
S315020851701DAF0725B1E7226891057FF517AF22F41F
S315020851802072CDF808902260A7E7226802F4A0618F
S31502085190B1F5806F06D050057FF508AFB9F1000F5B
S315020851A000F0DD80910522F4F06258BF029942F4BC
S315020851B0C07258BFA9EB010122604FF0000958BF1F
S315020851C0CDE9041689E74FF0030A86E7D4F8803159
S315020851D039464046984700283FF4DBAEE6E6D4F85F
S315020851E07C313A4616F8011D404698472369013B29
S315020851F02361E8E66B1E062B24D8022D36D8019BBE
S315020852009E427FF6E4AED4F87C313A4616F8011D82
S31502085210404698472369013B2361F0E7D4F87C317D
S315020852203A461BF8011D404698472369013B23610C
S315020852300AF1FF3A5FFA8AFABAF1020FEED1033D92
S31502085240EDB2761B2368DA052FD55B0511D5019BCE
S315020852509E427FF6BCAED4F87C313A4616F8011D5A
S31502085260404698472369013B2361F0E7AA46B346BD
S31502085270DEE716F8011C751E2369652903F1FF335B
S3150208528023610CD045290AD0D4F87C313A464046E7
S31502085290B51E9847236916F8021C013B23612E4660
S315020852A0D4F87C313A4640469847226812F01002F2
S315020852B001D000208CE63270236803F4C063B3F58C
S315020852C0806F1CD1029B9945A3EB090223D10022C8
S315020852D00199404602F0D8FA2168039B11F0020FA1
S315020852E01B6857EC106B03F104021FD003990A607E
S315020852F01B68C3E90067E3680133E360D9E7049BE7
S31502085300002BE4D005990A234046013102F03CFB02
S31502085310049B059EC21A04F26F1312499E4228BFC5
S3150208532004F5B776304600F055F8D0E711F0040FC9
S3150208533003990A60DCD11D6832463B463046394637
S3150208534003F0EAFA28B1084800F048F985ED000AA0
S31502085350D1E73046394603F03DFB2860CBE74FF0EC
S3150208536000092AE624910802189208020CB4184B7E
S3150208537030B50C1E9DB01D6808DA8B234FF0FF303E
S315020853802B601DB0BDE8304002B070474FF402737F
S315020853900290069002A9ADF8143014BF04F1FF3347
S315020853A02346209A2846049307934FF6FF73ADF8CF
S315020853B0163021AB019302F045FB431CBCBF8B237D
S315020853C02B60002CDDD0029B00221A70D9E700BFA1
S315020853D01CA00E220EB400B59CB06FF000411DABA6
S315020853E002900690079104910848094953F8042B3C
S315020853F0059102A90068019302F024FB029B002290
S315020854001A701CB05DF804EB03B070471CA00E229C
S315020854100802FFFF30B514469BB005461A46002C13
S3150208542005DA8B2303604FF0FF301BB030BD4FF413
S315020854300273009104916946ADF80C3014BF04F169
S31502085440FF332346029305934FF6FF73ADF80E30EA
S315020854501E9B02F0F7FA431CBCBF8B232B60002C61
S31502085460E3D0009B00221A70DFE7000007B500931D
S3150208547013460A46014603480068FFF7CBFF03B006
S315020854805DF804FB1CA00E2202440346934200D197
S31502085490704703F8011BF9E70139034610B532B123
S315020854A011F8014F013A03F8014B002CF7D11A44BF
S315020854B00021934200D110BD03F8011BF9E71F2909
S315020854C038B505460C4604D9162303604FF0FF305B
S315020854D038BDC26B12B152F821304BB9284600F0DA
S315020854E035F8224601462846BDE8384000F01CB881
S315020854F0012B0AD0591C03D1162303600120E7E7C2
