S00B000061726D2E73726563D9
S31500000000400500204D0200009D0600004902000048
S3150000001049020000490200004902000049020000AE
S31500000020000000000000000000000000490200007F
S3150000003049020000000000004902000049020000D9
S31500000040A519000089200000ED1F000019210000FD
S31500000050612100000111000089120000B1130000A7
S3150000006001110000D511000089200000ED1F0000DD
S30D000000701921000061210000C6
S3150000007840003500000000007C3E00000000000043
S3150000008801000000000000000000000070000020D1
S315000000980100000028000020030000000100000005
S315000000A8037300000273000002730000027300006D
S315000000B8027300000273000002730000027300005E
S315000000C8000000000C0C0000037060000060600077
S315000000D80060600000606000006060000060600012
S315000000E8010000000E0000000500000001000000ED
S315000000F8010000003B00000014000000040000009E
S315000001084000350005020A00840300007CFCFFFF5E
S31500000118040201005A000000A6FFFFFF03000A00C0
S315000001280000000015FBFFFF02020A00840300001E
S315000001387CFCFFFF01011E003809000000000000DA
S31500000148060214001E070000AEFBFFFF01010000B7
S31500000158000000000300000074080020F0000020E2
S315000001680000000074080020DC0800204409002074
S315000001780000000000000000000000000000000071
S315000001880000000000000000000000000000000061
S315000001980000000000000000000000000000000051
S311000001A800000000000000000000000045
S315000001B80348044B834202D0034B03B118477047E8
S315000001C83C0100203C01002000000000064B0749C6
S315000001D8C91A891048BF0131491003D0044B0BB125
S315000001E801481847704700BF3C0100203C01002029
S315000001F80000000010B5064C237843B9FFF7D8FF76
S31500000208044B13B10448AFF300800123237010BDDB
S315000002185C0500200000000084A2000108B5054B1B
S315000002281BB105490548AFF30080BDE80840FFF754
S31500000238CDBF00BF000000006005002084A20001B9
S3150000024800BE704708B500F035F801F0C1FFFEE7BB
S31500000258F8B5174F05463E68A6B17C6806EB460614
S3150000026804EB860602E00C34B4420BD0637AAB4248
S31500000278F9D1D4E900020021121A0C3402F018FF51
S31500000288B442F3D1BE6896B1FC6804EB061602E0E8
S315000002981034A6420BD0637BAB42F9D1D4E90002F5
S315000002A8A168121A103402F05AFFA642F3D1F8BD1B
S315000002B8BC3B00004FF47001274B284A70B500205C
S315000002C8C3F888109A6002F009FD00F069F8012069
S315000002D802F004FD224B83F30A880020FFF7B8FFDB
S315000002E800F048F800F030F9032000F06DFA00231A
S315000002F84FF6FF701B4903F1080201330C2B21F856
S315000003081200F8D10024032000F02EFA032000F092
S315000003185BFA154B03205C609C60DC601C6100F096
S3150000032823FA022002F0DAFC0120FFF791FF0F4DB5
S315000003380F4B5B1BA3424FEAA30605DD55F8043BAA
S3150000034801349847A642F9DC00F0C2F9BDE87040CE
S31500000358002000F051B900BF00ED00E000000000E9
S3150000036840010020000D084000000E400C4100002E
S3150000037810410000064B074993F826001A6A51F8FF
S315000003882030C2F302620449D3400B60704700BFB5
S3150000039800E001404005002078050020704700BFB6
S315000003A8F8B54AF2035001235B495C4AA1F8FE03FB
S315000003B8A2F80431B2F804319BB2002BFAD101201D
S315000003C84FF400454FF0090C554CDFF874E1554ED3
S315000003D8C4F804E0DFF86CE14F49C4F80CE0A2F871
S315000003E80001B060504A30605048514FC4E90502D8
S315000003F8A56091F8262025612760086A54F822200E
S315000004084C4DC0F30260C2402A6081F8133481F86B
S31500000418A2C091F880341BB991F88134980776D038
S315000004283D4E96F88034002B66D000223A4B83F86E
S31500000438812483F880240023374A82F8363092F8DC
S315000004483C30D907FBD50023334982F8323091F87E
S315000004583C301A07FBD5002342F6117643F2021008
S315000004682D4AA1F8486081F84A30088581F82A3073
S3150000047892F83C309B06FBD50320052327494FF00D
S31500000488F10C81F81C012C492C48116282F826309F
S3150000049892F82630166A54F82310C6F3026401232C
S315000004A8E140F024296080F80CC00372047382F8D6
S315000004B8303082F8523092F87630174943F04003CC
S315000004C882F8763091F87630DB09FBD0C623032014
S315000004D881F86E0081F8763091F876300E4A03F08E
S315000004E8BF0381F8763092F87630DB09FBD14FF4FA
S315000004F82543A2F8FE33F8BD0121C82086F88014EA
S3150000050800F082F896F88034012BFBD18DE74FF482
S315000005187A70FFF743FF8EE700E0014000C0014014
S315000005284005002000700040001C4E0E00C2EB0B78
S31500000538002D3101780500202112012000200040FD
S3150000054800127A0000366E0138B50025284C0121C4
S31500000558C82084F8285000F057F884F8245094F8F6
S315000005682430002BFBD194F82430214943F00203B0
S3150000057884F8243091F82430C3F340009B07F9D45B
S315000005881B4A81F8220092F8223003F0FF00002B64
S31500000598F9D192F84030164960F3C71382F8403013
S315000005A891F84030DB09FBD191F84200104A63F319
S315000005B8C71081F8420092F84230DB09FBD192F865
S315000005C844000B4963F3C71082F8440091F844309D
S315000005D8C3F3C014DB09F9D1012000F0F5F8054B87
S315000005E8012083F8BB44BDE8384000F0BDB800BF21
S315000005F80030084000E00140704700BFA0F101004C
S315000006080028FBD1704700BF1F4B204A1B6800FB20
S3150000061801F1934213D302F1854202F5071203F55D
S31500000628741302F6834203F6FF03A2FB03231B0D92
S31500000638A3FB01314FF0FF30F9B1FFF7DFBF4FF4ED
S315000006487A7210B4A1FB02C41148B0FBF3F34FF061
S31500000658FF3044B9BCFBF3FC4FEA9C0088B15DF857
S31500000668044BFFF7CBBF9B00B1FBF3F1A1FB0212D2
S31500000678002AF4D1084620B1F1E71846002BDCD150
S3150000068870475DF8044B70477805002000127A0021
S3150000069800CA9A3B70B500240B4B0C4EB3F82021C8
S315000006A8B3F84051ADB2154025FA04F3DB0704D57B
S315000006B856F82430E0B203B198470134102CF3D130
S315000006C8014BA3F8305170BD006000407C05002046
S315000006D870B5032084B000F077F800266FF0FF01AC
S315000006E84FF0FF301C4C1D4B224699644FF0010E0B
S315000006F83346CDE9010004F11C05039032F8021FC8
S315000007080EFA03FC013311B1012620EA0C00AA42B5
S31500000718F4D1F6B10190124B104A1067C3F8800263
S31500000728029903205167C3F8841203999167C3F8A5
S31500000738881200F019F800230A4834F8022F03F14A
S31500000748C00101330AB140F82120A542F5D104B011
S3150000075870BD4FF0FF30DEE75E3E000000800040CF
S3150000076800E100E000600040EFF31081012383F30D
S315000007781088124B33F8102092B22AB133F81020A1
S31500000788013A92B223F8102033F810309BB293B98D
S315000007980B4A10B4B2F8FE330A4C9BB234F8100078
S315000007A843F4254323EA0003A2F8FE3381F31088B5
S315000007B85DF8044B704781F310887047F8050020F0
S315000007C800E00140B03B000030B4EFF31081012394
S315000007D883F310880E4A32F810309BB26BB90D4C71
S315000007E80D4DB4F8FE3335F810C09BB243EA0C033E
S315000007F843F425439BB2A4F8FE3332F81030013394
S315000008089BB222F8103081F3108830BC704700BFC5
S31500000818F805002000E00140B03B000008B502F0F2
S3150000082895FC0C2203464FF0FF301A6008BD00BF46
S3150000083830B4D0E90004226800EB021293681D0C5C
S315000008484D731D0E0D739BB20B60D368D0F8B05074
S315000008589BB20B61D0F8A0324D60DB43C3F30D03A6
S315000008688B6094F91530002030BC002BBCBF0023E8
S31500000878D360704784460020CCE90532CCF81010C6
S31500000888704700BF1F2930B536D801F1400E00EB7E
S31500000898CE1EDEF800301B4DC3F3807454714FEA48
S315000008A8D37CDEF8084023F0604382F804C0136066
S315000008B8DEF8043004F007041B0F9460EC5C0EF1BC
S315000008C80C03947144B10C34A6440B3213F801CBD3
S315000008D8734502F801CFF9D11F2905D801238B40AA
S315000008E8DB43C0F8B03030BDFF2327298CBF683101
S315000008F8203140F8213030BD01F1A00E00EBCE1EAC
S31500000908C7E700BFB03C00001F29034610B50068C2
S3150000091809D80123D0F8B0408B4023420ED0FFF708
S31500000928B1FF002010BD27290AD80123D0F8A0421C
S31500000938A1F1200C03FA0CF32342F0D0242010BDB9
S315000009485B68D0F8A0421B6803EB430319440123F4
S31500000958A1F1200C03FA0CF3A343EFD0FFF792FFA3
S315000009680020DFE770B5456904460E4698B0A5B184
S3150000097860222946684602F0F2FB60223146284684
S3150000098802F0EDFB284623699847606918B1602292
S31500000998694602F0E4FB18B070BD0D46F2E700BFE9
S315000009A82DE9F04146680F063568046801F00F0224
S315000009B852D404EB0518D8F804704FEA051E17F050
S315000009C8040F0EF1040333D117F0010F04EB030CE7
S315000009D801D1052A2FD0D8F8043023F00703134392
S315000009E8C8F80430DCF8043003F007039A42F9D15A
S315000009F8BA0715D0CB0713D4336905EB4505DE696D
S31500000A08EF1C303656F8253004EB8502D2F8201153
S31500000A1803F0010301350B43BD42C2F82031F1D181
S31500000A28A644DEF8043003F007030373BDE8F0813B
S31500000A3811F0010FC8D104EB030CD8F8043023F0E9
S31500000A48070343F00103C8F80430DCF8043003F068
S31500000A580703012BF9D1BEE7D4F8883013F0010C4F
S31500000A6819D1CB0717D5634604EB830EDEF8C070A1
S31500000A78013327F00107082BCEF8C070F4D1002304
S31500000A8804EB830EDEF82071013327F00107062BED
S31500000A98CEF82071F4D1D4F8883023F00703134335
S31500000AA8C4F88830D4F88C3003F007039A42F9D199
S31500000AB8BCF1000F0ED011F001010BD13369DB69CF
S31500000AC8043301F1300253F8046F0131082944F860
S31500000AD82260F6D14FEA051EA644DEF8043003F07C
S31500000AE807030373BDE8F08138B5002344688360C3
S31500000AF894F91530002B0DDB0121364D5A0903F008
S31500000B081F03203201FA03F345F82230BFF34F8F53
S31500000B18BFF36F8F94F91730002B0DDB01212D4D94
S31500000B285A0903F01F03203201FA03F345F822306D
S31500000B38BFF34F8FBFF36F8F94F91630002B0DDB81
S31500000B480121244D5A0903F01F03203201FA03F349
S31500000B5845F82230BFF34F8FBFF36F8F23684BB929
S31500000B684FF480721B4BC3F88020BFF34F8FBFF33F
S31500000B786F8F2368B3FA83F3174D5B0955F8233053
S31500000B883BB10521FFF70CFF0020236845F8230039
S31500000B9838BD4FF400720F4BC3F88020BFF34F8F58
S31500000BA8BFF36F8F8121FFF7FBFE8521FFF7F8FE64
S31500000BB8EFF31081012383F31088084B9A6842F0FB
S31500000BC800629A609B6881F310880020236845F8C4
S31500000BD8230038BD00E100E004060020004008407C
S31500000BE870B5437B0D46934213D014464268802C59
S31500000BF8166816D0802B2BD00221FFF7D1FE02688B
S31500000C0802EB0612536823F0E06343EA0463536079
S31500000C184473037BAB4202D02946FFF7C1FE00208E
S31500000C2870BD0121036803EB061CDCF8042003F5FC
S31500000C38805322F08072CCF80420D3F8082301FAF6
S31500000C4806F61643C3F80863C3F80C134473E0E7C3
S31500000C5801210368B14003F58053D3F8082322EA3B
S31500000C680102C3F80823D3F80823002AC4D1C3F81D
S31500000C780C23C1E7F0B513795579DB0743EA857389
S31500000C8844681568272943EA05032468056828D8AF
S31500000C9801EB84142E1996F8D067360762D405EB53
S31500000CA8C41C0CF5803CCCF800309679E301082E7C
S31500000CB861D9182E59D937090B373F07CCF8047074
S31500000CC8976803F5803C07F0070EEF1807F58033A1
S31500000CD80CF10C0CC3F808E0AC4402F10C0336BB6B
S31500000CE833E0A1F1280604EB4404344405EBC41CA4
S31500000CF80CF5C04CCCF800349679E301082E2FD9B0
S31500000D08182E3AD937090B3746F2084E3F07CCF862
S31500000D180474976803F5C84C07F007072B440CF1D1
S31500000D280C0C43F80E70AC4402F10C039EB106F1AC
S31500000D380C0E72440CF1FF3C13F801EB9A420CF8C6
S31500000D4801EFF9D12729056805D801222B1983F85F
S31500000D58D0220020F0BDFF22903445F82420F8E781
S31500000D683746D1E74EF66320F0BDA6F10807BF085F
S31500000D780837FFB2A1E737469FE7A6F10807BF087D
S31500000D880837FFB2C0E700BF00222DE9F04F0B6815
S31500000D9883B000938B68D1F810B0CE4E0361CB6850
S31500000DA888460746C0E90523DBF81C500660416003
S31500000DB8EFF31081012383F31088C74B9A6822F05A
S31500000DC800629A609B6881F31088D6F88C30DB073E
S31500000DD800F13081C14B019395F82C30C04A1B01B4
S31500000DE8DBB282F80833019B1F62BE4BD3F820138F
S31500000DF821F48031C3F82013D3F82033BFF35F8F73
S31500000E084FF48073C2F8803113600099B64AB14D29
S31500000E18012942F82170DBF800A0C5F8983021D0E6
S31500000E28002441F60806009B03F0010904F00F0EA2
S31500000E3822090EF5C07C42F4807205EB0C1CC5F83D
S31500000E4898209AE80F008CE80F0005EB0E1E5EF856
S31500000E580630013469F3C713202C0AF1100A4EF83C
S31500000E680630E3D100249B4B01213846C3F898404D
S31500000E78FFF796FDDBF81450D8F804606968336804
S31500000E88FF29084628BFFF20013BC3F3090C2B683E
S31500000E980139013BDBB243EA01237168934A013900
S31500000EA84CEA4141D6E902C60CF1FF3C013E41EA53
S31500000EB84C6141EA8621D5E90265013E43EA0643CB
S31500000EC8009E013D43EA0563350105F1804505F5B8
S31500000ED830252960710101F1804101F53121C1F800
S31500000EE800349BF818304FEAC60A5B0243EA00430F
S31500000EF843F4806343F00103C1F80434DBF80800C7
S31500000F08DBF80C10524403C2DBF8103043F003033D
S31500000F186B6098F91530A34226DB98F8142003F184
S31500000F2860411201D2B201F5614181F80023019AAC
S31500000F3803F1C00142F823706A4A52F8210064F3AB
S31500000F48104042F8210052F82120BFF35F8F01229A
S31500000F5803F01F015B099B0003F1604303F561433E
S31500000F688A40C3F880211A6098F91730002B26DBCF
S31500000F7898F8142003F160411201D2B201F56141DB
S31500000F8881F800230199574A41F8237003F1C001FB
S31500000F9852F8210020F4803042F8210052F821202E
S31500000FA8BFF35F8F012203F01F015B099B0003F16A
S31500000FB8604303F561438A40C3F880211A6098F9B3
S31500000FC81630002B27DB98F8142003F16041120134
S31500000FD8D2B201F5614181F800230198414A03F133
S31500000FE8C00140F8237052F8210020F4803042F8FE
S31500000FF8210052F82120BFF35F8F01215A09920080
S3150000100803F01F0302F1604202F5614201FA03F39D
S31500001018C2F88031136038468021FFF7C1FC0021F1
S31500001028FFF7BEFC00231846314ABB81BA6003B0FD
S31500001038BDE8F08FD6F88C4014F00804FAD1812167
S315000010483846FFF7ADFC4FF4001C23466A68294969
S31500001058C6F88420C6F89CC0C1F81443AA6A1D487D
S31500001068C6F8AC202A1D03F1300152F8046F01338B
S31500001078082B40F82160F6D195F82D30184A1B0147
S31500001088DBB282F80933154B00211E460193154B36
S315000010987162D3F8246361F31046C3F82463D3F866
S315000010A82433BFF35F8F4FF40073C2F880311360A7
S315000010B82A4652F82C3B074EC0F8883052F8043FAF
S315000010C804F14801013423F00103062C46F82130C7
S315000010D8F4D181E600000B4000400840C00500201E
S315000010E800E100E00060004004060020500F0B40BD
S315000010F84446435200100B4070B598B0EFF3038393
S31500001108103B5BB2082B2BD01C462D4B5A220021D4
S315000011180DF1060053F8245001F0CAFF4FF480720F
S3150000112800216B68ADF804201E682B68284603EB7F
S315000011380613DA6892B20292D960AB6969460096DC
S315000011480493FFF70FFC1F4A04F1C00352F823105B
S3150000115821F4803142F8231052F8233018B070BDBC
S31500001168194B6022002168461C6801F0A1FF4FF464
S31500001178805300212268ADF80430D2F89030180C5C
S315000011881B0403EB007302939B03C2F890100ED561
S31500001198D2F8A83293FAA3F3B3FA83F302EB8302E5
S315000011A80393D2F8E03023F00403C2F8E030A369D1
S315000011B82046694604930824FFF7D4FBC3E700BF1B
S315000011C8C005002000600040040600202DE9F04319
S315000011D8284D99B0D5F8AC4294FAA4F4002C38D02E
S315000011E8B4FA84F4072C34DC01274FF48062D5F86E
S315000011F8A032A74004F120083B42CDF80C80ADF898
S3150000120804201BD105EBC41606F5C046DFF86C9022
S31500001218083633684146C3F30123164805AA0093E6
S31500001228FFF730FB009B694659F82300836904934E
S31500001238FFF798FBD5F8A0323B42EAD0A40004F1A8
S31500001248804404F53024D4F8E03023F00803C4F8C9
S31500001258E030084BD3F8AC3243B9074AD2F8241326
S3150000126863F31041C2F82413D2F8243319B0BDE849
S31500001278F08300BF00000B40006000400406002019
S315000012882DE9F04399B0EFF30384454B103C64B263
S3150000129853F82490D9F80430D9F818201F68D9F8DB
S315000012A800101D6901F598580097049218F8073040
S315000012B8B844002B61D007262AE04FF4006003F5F6
S315000012C8617301EB83021368ADF8040093FAA3F384
S315000012D81BB1B3FA83F3072B07DD536893FAA3F31D
S315000012E8002B5AD0B3FA83F3203303EB8712114449
S315000012F891F8D02722F0060281F8D0276946484699
S315000013080393FFF72FFB98F80030B3B3D9F8001012
S3150000131898F800207B00D0B2D20727F00047CCD43B
S31500001328020723D5EA690C3352F82330D1F8B40200
S3150000133813F4805F0CBF4FF400534FF4006307EBC0
S31500001348470206FA02F20240ADF8043092FAA2F217
S3150000135802B3B2FA82F202F1280301EB8202D2F852
S31500001368E01121F01001C2F8E011C7E703F56B732D
S315000013784FF4007001EB8302A5E70A4BC03453F81B
S31500001388242022F4803243F8242053F8243019B05C
S31500001398BDE8F08348232022DFE74023A5E700BF06
S315000013A8C0050020006000402DE9F04399B0EFF336
S315000013B803892F4BA9F110094FFA89F953F82960C7
S315000013C8D6E90003D0F8B0421A6804F03F0494FA4C
S315000013D8A4F4002C47D0B4FA84F3012513F01C0FAB
S315000013E803F108011C4618BF03F0030305FA01F5CB
S315000013F80CBF2833283303934FF48063ADF80430C9
S31500001408D0F8A03200922B4214D1DFF86C8004F198
S315000014182807394605AAFFF735FA009B694658F8A2
S31500001428230083690493FFF79DFA3068D0F8A03249
S315000014382B42EED000EB8404D4F8E03123F0080305
S31500001448C4F8E031D0F8B03253B90A4A09F1C009F4
S3150000145852F8291063F3104142F8291052F829303E
S3150000146819B0BDE8F0834FF480752823C3E700BFA1
S31500001478C005002000600040040600200346002046
S31500001488D3E902235360704702464FF0010C30B48B
S3150000149894680C4D626E0C4B62448A60E46A2A6A50
S315000014A81B6881F800C0C4F3C35CC2F30264A3409E
S315000014B802F00702D34023FA0CF3002030BC4B603D
S315000014C8704700BF00E001407805002030B48C6EFC
S315000014D801342AB1944203D930BC013A1A607047E4
S315000014E8029D496B0078ED0754BF01F01F01C1F357
S315000014F80441032808D9090981F001016AB9A1B98B
S3150000150830BC02225A60704701F00C01A1F10401B7
S31500001518B1FA81F14909002AF1D0944201D800298B
S31500001528EED130BC03225A607047002CE8D0F8E7A9
S315000015382DE9F0434FF0FF384FF0000985B00092CF
S31500001548CDE90289D0E9019602AB0F461446484612
S3150000155802F003080A463146FFF7B8FF039B356BCE
S315000015685BB914F0080F14BF04220222A0070299DF
S315000015781CD506EB8202D164116562061DD5326C54
S31500001588B8F1010F42F48002326406D025F44035E2
S3150000159845EA0345B8F1000F03D025F0407545EA42
S315000015A803650020356305B0BDE8F0834244123276
S315000015B806EB820251606206E1D4B8F1010F11D040
S315000015C825F44035022C45EA0345E3D1002BE4D047
S315000015D8012102AB00913A4648463146FFF776FFAD
S315000015E8039BDAE7022CD8D1002BD6D0F0E700BF50
S315000015F8002800DA704710B400F160430901124C64
S31500001608C9B203F5614383F80013104B00F1C0011A
S3150000161844F8202053F8212022F4803243F8212070
S3150000162853F82130BFF35F8F012243099B0000F076
S315000016381F0003F1604303F561438240C3F880212C
S315000016481A605DF8044B7047C00500200060004032
S315000016582DE9F04301240E460023097C9A4A85B0F9
S315000016680A4404FA01F1120211F00F0FC0E90162EF
S315000016780CBF22461A460274726905464261B2696F
S31500001688F769C0E90632C160EFF3108C84F310885D
S315000016984FF000418D4A347C106921FA04F420EA9F
S315000016A80400106112698CF310884FF42542AC6867
S315000016B82260E362E363A36496F80080307A726876
S315000016C8B8F1030F4FEAC05002F1FF3C3BD0E0628D
S315000016D821616161A161B9696362A362E161F96926
S315000016E84FF0FF3021620021C4F868C0CDE902013D
S315000016F8D7F83890C4F864C0B8F1000F40F0C48039
S315000017085208013A62650292A26503200122B9F1E4
S31500001718000F43D13B78002B00F0918097F801C069
S3150000172831784FEA0C13022943EA8C1300F0A7809C
S31500001738032904D0BCF1000F0CBF062109210B4375
S3150000174843F480737CE09FED5E7BBA6940F4803099
S31500001758E06221616161A1616362A362E261FA6983
S31500001768D7F838902262C4F868C0C4F864C00093F9
S31500001778214602ABF26868688DED027BFFF7A6FE8C
S31500001788029B6365A365039B1A0642EA034242F07D
S31500001798030042F00102B9F1000FBBD04B4669685D
S315000017A8D1F81CC09CF830E01EF0010F03D0DCF81D
S315000017B828100139E1641EF0020F03D0DCF82C1062
S315000017C8013921650021A163C4F88810B9F1000F19
S315000017D807D197F8211097F820C0490741EA4C31FC
S315000017E80B4397F83010002914BF4FF4A0014FF4AB
S315000017F8AA01B8F1010F216402D10021E164216533
S315000018086363EB6820632263E3602A46717C96F97A
S315000018181200FFF7EDFE2A4697F8221097F92400E2
S31500001828FFF7E6FE97F925002A4697F82310FFF7F3
S31500001838DFFE0020264B2B6005B0BDE8F0834B4643
S31500001848B9780029ABD097F803E096F800C04FEABC
S315000018580E11BCF1020F41EA8E1112D0BCF1030F32
S3150000186806D0BEF1000F0CBF4FF0060C4FF0090C66
S3150000187841EA0C0143EA014343F080738FE70921EB
S315000018885DE74FF0090CF3E7B8F1010F06D14FF009
S31500001898FF33012263650320A36538E700932146D9
S315000018A802ABF2686868FFF711FE029BB8F1030FF6
S315000018B86365A36584BFE365236664E7AFF30080C9
S315000018C8FFFFFFFF000000009016400000400840A0
S315000018D854504700F0B50346002591F902C01B4C49
S315000018E84FEA8C0202F1804280F804C002F5C04239
S315000018F8D1E90270D2F80063C2F80053C3E9027056
S3150000190891F800E0BCF1000F83F805E004F80E50EA
S315000019180D79C87840EA05104D7940EAC510C0B27D
S3150000192804F80E00C2F800630BDB4A780848120177
S315000019380CF16041D2B201F5614181F8002340F80B
S315000019482C30044A00201A60F0BD00BF0060004039
S31500001958C00500205543490090F904200E4B02F1BA
S31500001968C00153F8210020F4803043F8210053F8D1
S315000019782130BFF35F8F012153099B0002F01F023C
S3150000198803F1604303F5614301FA02F2C3F88021CB
S315000019981A600020704700BF0060004010B582B092
S315000019A8EFF30384184B103C64B253F82410174A1B
S315000019B84879135C03F00303032B11D0C03452F8A3
S315000019C8243023F4803342F8243052F824308B68CC
S315000019D823B1CA68CDE900206846984702B010BD11
S315000019E88B6823B1CA68CDE9002068469847074B3B
S315000019F8C03453F8242022F4803243F8242053F8C4
S31500001A08243002B010BD00BFC005002000600040B1
S31500001A182DE9F84F0388DBB182464FF0000B4FF0F3
S31500001A280109DFF8D0800024304D4FEACB07DAF8F9
S31500001A38043035F8022BD919898891420AD0013425
S31500001A48032CF4D1BAF800300BF1010B5B45EAD848
S31500001A58BDE8F88FDB5909FA04F603F0B853B3F179
S31500001A68807FF6B298F8BB3413D0334231D1204A7E
S31500001A7804F1200612F81630DB09E0D012F8163009
S31500001A88012123F08003C82002F81630FEF7BCFDBA
S31500001A98D5E7334211D0164A04F1200112F8113065
S31500001AA8DB09CCD112F81130C82043F0800302F8C4
S31500001AB811300121FEF7A8FDC1E70120FEF784FEDB
S31500001AC898F8BB340120334388F8BB34FEF74CFE44
S31500001AD8E1E70120FEF778FE98F8BB34012023EAF7
S31500001AE8060388F8BB34FEF73FFEC0E7C03C00009B
S31500001AF80030084000E00140F8B50446FFF788FFCB
S31500001B08EFF31082012383F31088234F3B681BB938
S31500001B182249CB704023CB703B6801333B6082F38C
S31500001B28108823882BB361681D4C01EBC30E06E0B1
S31500001B381B01083113448E4544F8230019D0086860
S31500001B488A88C5034FEA1223D2B2F1D502EB031CE9
S31500001B5854F82C601B01083120F4803526F48036B1
S31500001B6813448E4544F82C6044F82C5044F823005E
S31500001B78E5D1EFF31082012383F310883B6813B194
S31500001B883B68013B3B603B681BB980200349CB702F
S31500001B98C87082F31088F8BDBC050020000D084007
S31500001BA80008084008B5034B03600846FFF7A4FF82
S31500001BB8002008BD54524F5003460020C3E90512C1
S31500001BC8704700BF10B4046AA37803F07B03A370C0
S31500001BD8837803F00303D21A0B440261A278C36028
S31500001BE8837842F0800203F00303022BA27005D02B
S31500001BF80B780020E3705DF8044B70470B880020D3
S31500001C0843F47E43E3815DF8044B7047F0B5846A7C
S31500001C1885B005460F4694466E46B4B194E80F0063
S31500001C2886E80F00EB6920461B7884F804C0236019
S31500001C38EB6AC4E902736B6A9847AC6A1CB196E80A
S31500001C480F0084E80F0005B0F0BD3446EAE700BF90
S31500001C582DE9F04101240A780346944014F0060F52
S31500001C6805D0C86940680078000700F1AD810020FA
S31500001C78012518704E6902F580025E6202F58C52E3
S31500001C888E691202C3E90712C3E90A064E789A78E2
S31500001C98864214BF2E46022666F301029A7091F90F
S31500001CA80B60CB4C720906F01F07203205FA07F7BE
S31500001CB891F80AC044F82270BFF34F8FBFF36F8FB5
S31500001CC8C44A06F1C00752F827E060F3104E42F8FE
S31500001CD827E052F82770C04F4FEA0C1C04EB060E9B
S31500001CE85FFA8CFC8EF800C347F8263091F9056038
S31500001CF891F804C04FEA561E06F01F080EF1200E92
S31500001D0805FA08F844F82E80BFF34F8FBFF36F8F9C
S31500001D1806F1C00E52F82E8060F3104842F82E8065
S31500001D2852F82EE04FEA0C1C04EB060E5FFA8CFC08
S31500001D388EF800C347F8263091F9076091F806C077
S31500001D484FEA561E06F01F080EF1200E05FA08F88F
S31500001D5844F82E80BFF34F8FBFF36F8F06F1C00E86
S31500001D6852F82E8060F3104842F82E8052F82EE082
S31500001D784FEA0C1C04EB060E5FFA8CFC8EF800C3C7
S31500001D8847F8263091F9096091F808C04FEA561EBF
S31500001D9806F01F080EF1200E05FA08F844F82E8002
S31500001DA8BFF34F8FBFF36F8F06F1C00E52F82E8028
S31500001DB860F3104842F82E8052F82E204FEA0C1293
S31500001DC8D2B2344484F8002347F82630EFF310875C
S31500001DD885F310884FF000460C78804AE640546830
S31500001DE824EA06045460526887F310881A6A40F297
S31500001DF8F9379070107150729072D07250830878CB
S31500001E08CC69854040F2F930054218BF40204FF0B2
S31500001E18060518BFD074012015770D788E78A8406E
S31500001E28384218BF4FF478404D78C97818BF908269
S31500001E38C900032D41EA061100F0C280002D0CBF2F
S31500001E48E220F220C9B211709071217B08290EBFD9
S31500001E580A21490001F0020151736178A078C9018D
S31500001E68400100F02000C9B201430020107294F826
S31500001E7800C0ACF10200012840F29880C9B2D171C5
S31500001E88616888784D785070107865F30100107095
S31500001E98C87809789074D07901F05C0100F0A30045
S31500001EA80143D1710020D96918619861D8605861D9
S31500001EB891F90550474A05F1C00152F8216060F3CF
S31500001EC8104642F8216052F82110BFF35F8F0126B1
S31500001ED86909890005F01F0501F1604101F56141B5
S31500001EE806FA05F5C1F880510D60D96991F90B50CC
S31500001EF805F1C00152F8217060F3104742F82170CD
S31500001F0852F82110BFF35F8F6909890005F01F0594
S31500001F1801F1604106FA05F501F56141C1F8805104
S31500001F280D60D96991F907E00EF1C00152F8215008
S31500001F3860F3104542F8215052F82110BFF35F8F25
S31500001F484FEA5E1189000EF01F0E01F1604106FA94
S31500001F580EF501F56141C1F880510D60D96991F915
S31500001F68091001F1C00552F8257060F3104742F8D0
S31500001F78257052F82520BFF35F8F4A09920001F0B9
S31500001F881F0102F160428E4002F56142C2F880618B
S31500001F9816601A6A0CF0030C4CF0700C618982F812
S31500001FA802C00F4A19815A60BDE8F081FF20BCF1D2
S31500001FB8020F08BF41F01001C9B25070D17171E724
S31500001FC8F22041F040013DE70320BDE8F08100BF63
S31500001FD800E100E000600040C00500200040084025
S31500001FE85549435310B4EFF30383103B224A5BB2BF
S31500001FF803F1C00152F8210020F4803042F8210094
S3150000200852F821201D4A52F82300C3691B69ABB157
S31500002018036913B15DF8044B7047026A002193788F
S31500002028446A03F07F0343F004039370C160002CF5
S31500002038F0D080225DF8044BFFF7E8BD0369026A19
S31500002048002BEBD08178C46801F0030CBCF1020FB9
S315000020580AD094F800C082F803C001F003029B1A64
S315000020681444C0E90343D4E7B4F800C04CF47E4CEA
S31500002078A2F80EC0F1E700BF00600040C0050020CE
S3150000208810B582B0EFF30383103B1F4A5BB203F12E
S31500002098C00152F8210020F4803042F8210052F89D
S315000020A821201A4A52F82340A27802F00303022B91
S315000020B8236A0CBF198A5979A3690CBFC1F30801B1
S315000020C8C9B2019143B9636AB3B10422204602B08A
S315000020D8BDE81040FFF79ABD02F0030201A9606946
S315000020E801F03DF8D4E90521A37803F003031A4467
S315000020F8C91AC4E9052109B102B010BD636A002BEB
S31500002108FAD00122E2E700BF00600040C0050020C7
S3150000211810B5EFF303830E4A103B5CB252F8240065
S31500002128D0E90821937803F07B03937019B1022252
S315000021380021FFF76BFD074A04F1C00352F823108C
S3150000214821F4803142F8231052F8233010BD00BF25
S31500002158C00500200060004010B5EFF303831A4A5B
S31500002168103B5CB252F82400837803F00303022B79
S31500002178036A0CBF198A597993F804C00CBFC1F3D6
S315000021880801C9B21CF0100F0CF0380206D093F8FB
S315000021981CC01CF0010F08BF42F0400293F804C0AF
S315000021A80CF0C70C83F804C0436A0BB1FFF72EFD89
S315000021B8064A04F1C00352F8231021F4803142F88C
S315000021C8231052F8233010BDC005002000600040DF
S315000021D808B500F027FD002008BD00BF30B503464E
S315000021E80078F0EEC05A421E85B0052A40D8DFE8CE
S315000021F802F028350303032BB5EEC00AF1EE10FAF8
S315000022084FF06402D4BF012100219FED1B6A9B7821
S31500002218F3EE006AC5EE867A07EE103A67EEA67AFE
S31500002228B8EEC77A67EE877A0025FCEEE77A0124CE
S315000022389623CDED007ACDE9014500F0C9FA05B03F
S3150000224830BD01466422E0E7B5EEC00AF1EE10FAA9
S315000022584FF09602D4BF01210021D6E7B5EEC00A99
S31500002268F1EE10FA4FF06402CCBF01210021CCE751
S3150000227864225978C9E700BF6666E63F002800F081
S315000022888D8070B5044646484649474A474B484EEE
S31500002298484D2DED068BDFED487A9FED487AD0ED57
S315000022A8009A94ED025A91ED009AD4ED076AD2EDA0
S315000022B8008A93ED008A96ED000A95ED00AA94ED42
S315000022C8004AD4ED014AD4ED045A94ED056A25EE88
S315000022D8075A69EEA79A24EE074A64EE874A65EE1E
S315000022E8875A26EE076A20EE270A26EE877A2AEE0E
S315000022F827AA29EE279A68EEA78A28EE278A79EE72
S31500002308859A38EE078A30EE040A3AEE24AA39EEA0
S31500002318259A78EE868A82B0C0ED009A284883ED21
S31500002328008A81ED009AC2ED008A86ED000A85EDE5
S3150000233800AAFFF753FFB0EE4A0A2248FFF74EFFFE
S31500002348B0EE690A2048FFF749FFB0EE490A1F4870
S31500002358FFF744FFB0EE680A1D48FFF73FFFB0EEEF
S31500002368480A1C48FFF73AFFA38CF2EE046A07EE08
S31500002378903AFBEECA7AB0EE087A67EEA67A77EE5E
S31500002388877AFCEEE77ACDED017A9DF8040002B073
S31500002398BDEC068BBDE8704000F0DCB9704700BFA5
S315000023A8CC060020C8060020C4060020C00600206F
S315000023B8D4060020D0060020CDCC4C3FCCCC4C3ED9
S315000023C8C4000020D0000020B8000020AC00002087
S315000023D8A0000020940000200A4B70B59D681E6876
S315000023E82A68304659689047074C206040B902462B
S315000023F82B690125054930460D701146984720601E
S3150000240870BD00BF143D0000D8060020DC06002081
S31500002418024B1B780BB9FFF7DFBF7047DC060020BD
S3150000242800285DD0F8B583880446B3F5806F03D0DD
S31500002438B3F5006F50D0F8BD2A4E4C22304604F151
S31500002448140100F08CFEA37E04F1200C86F8D83027
S31500002458636906F19805C6F8DC3004F16007AE46F4
S31500002468DCF80000DCF80410DCF80820DCF80C3096
S315000024780CF1100CBC45AEE80F0005F11005EED1C5
S31500002488012386F8EC30A369174A03F0FF13934239
S31500002498D1D194F82030362BCDD1D4F82230DFEDC7
S315000024A8136A1BBA07EE903AF8EE677A9FED107A30
S315000024B867EEA67A94F8212067EE877A0AB1F1EEDC
S315000024C8677A0122617D86F8E010C6F8E430C6ED29
S315000024D83A7A86F8ED20F8BD0122064B1A70F8BD47
S315000024E8704700BFE0060020010007000000B44363
S315000024F800008037DC00002000232DE9F04F83B070
S315000025088DF803308DF804308DF805308DF80630D7
S315000025188DF80730002800F09D8001290C4640F20E
S3150000252899807D4D07462B780BB9FFF755FF2B7819
S31500002538002B00F0E480023CE4B28DF804409DF8DC
S3150000254803209DF804309A4280F084804FF00008FA
S31500002558DFF8DC91714ED9F80040DFF8D0A1704D54
S3150000256806F1580B9DF804309DF8032000219B1AAC
S31500002578DBB2402258468DF8053000F099FD01225D
S3150000258839789DF8073043EA0123F36486F850202A
S3150000259886F851807B78DBB286F858309DF805308E
S315000025A88DF80680072B6FD816E09DF803209DF856
S315000025B806300232BA5C01333344D2B283F858206B
S315000025C89DF806300133DBB28DF806309DF80330EE
S315000025D80133DBB28DF803309DF806209DF80530EF
S315000025E89A42E2D39DF805300133DBB286F85230C1
S315000025F851E0013A02D029780029FAD02A7822B97E
S315000026082BB393F8D037180721D4D9F8083000210E
S3150000261820465B68434A85F800809847002875D1AC
S31500002628CAF800002B786BB93F4A34B12368002BEF
S3150000263848D093F8D017090749D5013A02D02B7824
S31500002648002BF2D02B78002B49D1002C5CD1142317
S31500002658CAF8003003B0BDE8F08F9DF803209DF856
S3150000266806300232BA5C01333344D2B283F85820BA
S315000026789DF806300133DBB28DF806309DF803303D
S315000026880133DBB28DF803309DF80630062BE4D90A
S31500002698082386F852302B786BB9234A34B123685D
S315000026A8002BA6D093F8D0170907A7D5013A02D070
S315000026B82B78002BF2D02B78002BA6D1002CC6D075
S315000026C823689DE7013A02D029780029FAD02A78AA
S315000026D82AB9002BBBD093F8D0371B07B7D40123F0
S315000026E82B709DF807300133DBB28DF807309DF863
S315000026F803209DF804309A42FFF434AFAAE70B4B47
S315000027081B6803B0BDE8F08F2368E2E701232B704E
S31500002718CAF800009EE700BFDC060020E00600209D
S31500002728DC0000202C070020A1860100D806002026
S31500002738143D000010B5054C05492046FEF788FFF4
S315000027482046BDE81040FEF799BE00BF700600207F
S31500002758383D0000F0B50646194F85B001A9384640
S31500002768FEF792FE642E334628BF6423039E15495E
S31500002778A3FB063E4FEA135C4CEA0E3CC3F3130672
S315000027886644A1FB061C4FEADC0C0CEB8C0C0CEB2C
S315000027988C0CA6EB0C010C4C5B1A04FB03F10B4DDD
S315000027A86EF1000E05FB0E11A3FB05359B082944A7
S315000027B80022384643EA8171FEF7BAFE05B0F0BD3D
S315000027C8700600201F85EB51F5285C8F295C8FC2A7
S315000027D810B584B08DF800008DF8053000206B2305
S315000027E84FF0FD0C069C03908DF80C309DF81C30BC
S315000027F88DF80210210E8DF806108DF80A30210C7E
S315000028089DF8203064BA8DF80710ADF808400D2100
S31500002818140A68468DF803408DF801C08DF8042027
S315000028288DF80B30FFF768FE04B010BD10B5054CE7
S3150000283805492046FFF74EF82046BDE81040FFF749
S315000028488BB800BF14060020C83C00004368062B5E
S3150000285802D10122014B1A70704700BFD007002031
S3150000286810B10379022B00D070470122014B1A7070
S31500002878704700BFDD00002009B32DE9F84306467E
S315000028880D460F4C2378002BFCD04FF000084FF074
S3150000289801090C4F2A463146384684F80080FFF76E
S315000028A891F928B1082884F80090F3D0BDE8F88398
S315000028B82378002BFAD12378002BF9D0F6E7704756
S315000028C8DD000020900600203E4A2DE9F0431378EB
S315000028D8EBB13D4B19681C2910D81C683B490855B3
S315000028E81868013018601868022804D018681D286E
S315000028F817D0BDE8F08349780129FAD00020344C76
S3150000290821680131216018601070BDE8F083AF2896
S31500002918EFD101232D4C2C4920700B601370BDE8B4
S31500002928F0830878AF2844D14878012841D1087F38
S31500002938FA283ED1DFF8A490D1F80200D1F8028037
S31500002948D1F80600D1F80670D1F80A00D1F80A6065
S31500002958D1F80E00D1F80E50D1F81200D1F812E0D5
S31500002968D1F81600D1F816C0488B99F8001098FAD5
S3150000297888F83FBA36BA2DBA9EFA8EFE9CFA8CFCB7
S3150000298840BA19B1134C2168013121600121002494
S3150000299889F800101049C1F800804F608E600D61FB
S315000029A8C1F814E0C1F81CC0CC608C610C62888444
S315000029B803E00748016801310160002119601170C0
S315000029C8BDE8F08325080020280800202C080020F0
S315000029D8200800201C080020F407002024080020F6
S315000029E800283BD070B50379013B1F2B22D8DFE8BE
S315000029F803F0282121232121211021212121212110
S31500002A0821102121212121212121212121212121B9
S31500002A1821100024124A134E1368134D0133136014
S31500002A2812490122124834602C70FFF7C5F830F0BD
S31500002A38080300D170BDFEE7007ABDE87040FFF7D5
S31500002A4843BF0A4C2078FFF73FFF0122214608487A
S31500002A58FFF7B2F830F00803ECD0FEE7704700BF86
S31500002A682008002028080020250800204908002002
S31500002A782406002010B50D490D48FFF7E9F800B106
S31500002A88FEE703460B4C0C4A0C480D4923600D4CD7
S31500002A981370037001220B6005480B492360FFF78A
S31500002AA88BF830F0080300D0FEE710BDE03C0000CC
S31500002AB824060020280800202508002024080020D5
S31500002AC8200800201C0800204908002070B50B4D7E
S31500002AD80B4CAC460FCCACE80F0094E80F00094E3F
S31500002AE88CE80F00294608486E61FFF7B1F818B957
S31500002AF80122064B1A7070BDFEE700BFD4070020FE
S31500002B08983D00006928000090060020DD0000209E
S31500002B182DE9F0430D46A1B0002951D0002A1646EA
S31500002B284EDDDFF8B890D9F804305BB30021531EA8
S31500002B386C1E8846284F1D440BE0802926D008467F
S31500002B48013100F180020DEB0200AC4200F8803C36
S31500002B5815D014F9013F0A2BEFD1881C802833D8E9
S31500002B680A464B1C01460D2080326A4402F8800C46
S31500002B780A2280336B44AC4203F8802CE9D16846BC
S31500002B88FFF77AFE304621B0BDE8F0833B78002B8C
S31500002B98FCD080226946484687F80080FFF712F87D
S31500002BA838B1012108283970F3D0002094F9003093
S31500002BB8C7E73B78002BFCD0012194F90030C0E729
S31500002BC8002021B0BDE8F0836846FFF755FE0221D4
S31500002BD801230022C7E700BFDD0000209006002081
S31500002BE810B5B8B172B60D4A137803F0FF0E13B9D3
S31500002BF862B6704610BD84460023094C13700FCC8C
S31500002C08ACE80F000FCCACE80F0094E803008CE8A2
S31500002C180300EDE78646704610BD00BF2408002075
S31500002C28F407002008B5FFF7F3FBFFF7FFFDFFF7F2
S31500002C3821FFFFF74BFFFFF77DFD4FF47A71142054
S31500002C48FDF7E2FC1B4800F049F99FED1B8A1B4D76
S31500002C581B4C1C4E2046FFF7C3FF38BB2B78002BB6
S31500002C68F8D0B0EE480A3046FFF7B8FAB0EE480A90
S31500002C781548FFF7B3FAB0EE480A1448FFF7AEFA5C
S31500002C88B0EE480A1248FFF7A9FAB0EE480A11480A
S31500002C98FFF7A4FA1048B0EE480AFFF79FFA002398
S31500002CA820462B70FFF79CFF0028D7D02046FFF759
S31500002CB8E5FAD3E77C40000000000000D0070020BA
S31500002CC84C080020D0000020C4000020B8000020D6
S31500002CD8AC000020A000002094000020022800D0AC
S31500002CE8704702490248FEF75DBF00BFCC3D0000B1
S31500002CF80C06002008B500F029FA092203464FF011
S31500002D08FF301A6008BD00BF08B500F01FFA1D2283
S31500002D1803464FF0FF301A6008BD00BF08B500F043
S31500002D2815FA092203464FF0FF301A6008BD00BFA6
S31500002D3808B531B14FF40052012300204A600B81D7
S31500002D4808BD00F003FA162203464FF0FF301A605A
S31500002D5808BD00BF01207047002310B504468360F4
S31500002D68818119464366C28108228361C0E900331E
S31500002D78C0E904335C3000F09BF90D4B24626362B2
S31500002D880C4BA3620C4BE3620C4B23630C4B9C422B
S31500002D9806D003F16802944202D0D0339C4205D192
S31500002DA804F15800BDE8104000F0D6B910BD00BFC8
S31500002DB8092F00002B2F0000632F0000872F00002B
S31500002DC874080020024A0349034800F069B800BFA6
S31500002DD8E00000201D3A0000F000002041680C4B7E
S31500002DE8994210B5044601D000F014FEA168094BBB
S31500002DF8994202D0204600F00DFEE168064B994242
S31500002E0804D02046BDE8104000F004BE10BD00BF47
S31500002E1874080020DC0800204409002010B50B4B7C
S31500002E2804210B4C0B4A20461A600022FFF794FF38
S31500002E3804F1680001220921FFF78EFF04F1D00092
S31500002E4802221221BDE81040FFF786BFAC09002018
S31500002E5874080020CD2D0000014800F07EB900BF9F
S31500002E68B5090020014800F079B900BFB50900206E
S31500002E7810B50446FFF7F0FF236A1BB1BDE8104002
S31500002E88FFF7F0BF044B2362044B1B68002BF5D1F8
S31500002E98FFF7C4FFF2E700BFE52D0000AC090020EC
S31500002EA82DE9F8430746884614460026D4E90195D5
S31500002EB8B9F1010905D52468002CF7D13046BDE8DB
S31500002EC8F883AB89012B07D9B5F90E30013303D046
S31500002ED829463846C04706436835E9E70FB407B5BB
S31500002EE8064904AB086853F8042B8168019300F07F
S31500002EF865FA03B05DF804EB04B07047EC000020F7
S31500002F0810B50C46B1F90E1000F0FCF80028ABBF5E
S31500002F18636DA3891B1823F48053ACBF6365A38133
S31500002F2810BD2DE9F0411F468B8905460C46DB0589
S31500002F38164605D502230022B1F90E1000F0D0F886
S31500002F48A3893246B4F90E10284623F48053A38188
S31500002F583B46BDE8F04100F0E7B810B50C46B1F9BC
S31500002F680E1000F0BDF8431CA38915BF606523F455
S31500002F78805343F48053A38118BFA38110BDB1F9D0
S31500002F880E1000F09DB8F8B50E461446054618B161
S31500002F98036A0BB9FFF76CFFA369A360A3891A0735
S31500002FA801D5236943B92146284600F02BF818B104
S31500002FB84FF0FF373846F8BD2368F6B22269374620
S31500002FC8981A6369834205DC2146284600F022FDEB
S31500002FD80028EDD1A368013BA36023685A1C226030
S31500002FE81E70431C62699A4204D0A389DB07E1D5A7
S31500002FF80A2EDFD12146284600F00CFD0028D9D03C
S31500003008D6E7000038B5294B05460C46186818B1AE
S31500003018036A0BB9FFF72CFFB4F90C30190722D451
S31500003028DA0607D409222A6043F040034FF0FF303E
S31500003038A38133E0580712D5616B41B104F144030B
S31500003048994202D0284600F097F800236363A389C3
S3150000305823F02403A3810023636023692360A389E3
S3150000306843F00803A38123694BB9A38903F42073AA
S31500003078B3F5007F03D02146284600F018FDB4F9C1
S315000030880C3013F001020AD00022A2606269524293
S31500003098A261226942B913F08000C5D138BD9907EB
S315000030A858BF6269A260F4E70020F7E7EC00002049
S315000030B802440346934200D1704703F8011BF9E71F
S315000030C838B50023054D044608462B60FFF712FE67
S315000030D8431C02D12B6803B1236038BDB009002018
S315000030E838B50446064D0846114600222A601A4697
S315000030F8FFF70AFE431C02D12B6803B1236038BDD3
S31500003108B009002038B50446064D08461146002287
S315000031182A601A46FFF702FE431C02D12B6803B148
S31500003128236038BDB009002038B50446064D084668
S31500003138114600222A601A46FFF7EAFC431C02D110
S315000031482B6803B1236038BDB0090020014B18680D
S31500003158704700BFEC0000207047704770470A446C
S31500003168431E914200D1704710B511F8014B9142A8
S3150000317803F8014FF9D110BD38B50546002941D0ED
S3150000318851F8043C0C1F002BB8BFE41800F0E0F817
S315000031981D4A136833B9636014602846BDE8384091
S315000031A800F0DCB8A34208D9206821188B4201BF79
S315000031B819685B6809182160EDE71A465B680BB168
S315000031C8A342FAD911685018A0420BD120680144CD
S315000031D8501811608342E0D118685B680844536050
S315000031E81060DAE702D90C232B60D6E7206821188D
S315000031F88B4202BF19685B680918636008BF2160C3
S315000032085460CAE738BD00BFBC09002070B50F4E30
S315000032180C460546316811B900F0A8FC3060214615
S31500003228284600F0A3FC431C03D14FF0FF34204688
S3150000323870BDC41C24F00304A042F8D0211A284605
S3150000324800F094FC0130F2D1EFE700BFB809002086
S315000032582DE9F843CD1C064625F0030508350C2D47
S3150000326838BF0C25002D01DBA94204D90C23336095
S315000032780020BDE8F883DFF8D48000F069F8D8F8B4
S3150000328800301C4644BB29463046FFF7BFFF431CA7
S31500003298044658D1D8F800402746002F43D1002CC1
S315000032A84BD023683946304604EB030900F05EFC30
S315000032B8814542D1216830466D1A2946FFF7A6FF97
S315000032C801303AD023682B442360D8F800305A6876
S315000032D862BBC8F800700FE02268521B20D40B2A84
S315000032E817D96119A342256018BF5960636808BFDA
S315000032F8C8F8001062514B60304600F02FF804F110
S315000033080B00231D20F00700C21A1CBF1B1AA3506E
S31500003318AFE76268A3420CBFC8F800205A60EBE723
S3150000332823466468AEE73C467F68B6E71A465B689C
S31500003338A342FBD100235360DEE70C2330463360FB
S3150000334800F00CF894E70560D6E700BFBC0900203A
S315000033580148FFF702BF00BFB40900200148FFF784
S31500003368FDBE00BFB40900209368013B002B10B4D2
S31500003378936008DA9469A34201DB0A2903D15DF850
S31500003388044BFFF700BE1368581C106008461970F6
S315000033985DF8044B7047F8B506460F461446D5182F
S315000033A8AC4201D1002007E03A4614F8011B30462A
S315000033B8FFF7DAFF431CF3D1F8BD00002DE9F04F03
S315000033C80D469DB014469846064618B1036A0BB9D1
S315000033D8FFF74EFD6B6ED90705D4AB899A0502D463
S315000033E8A86DFFF7BAFEAB891B0701D52B699BB9F8
S315000033F829463046FFF706FE70B16B6EDC0704D52A
S315000034084FF0FF301DB0BDE8F08FAB899805F7D4B3
S31500003418A86DFFF7A3FEF3E70023CDF80C804FF065
S315000034280109DFF8B481099320238DF82930302368
S315000034388DF82A3023469A4613F8012B0AB1252A15
S31500003448F9D1BAEB040B0BD05B4622462946304627
S31500003458FFF7A1FF013000F0A780099A5A440992A4
S315000034689AF80030002B00F09F8000234FF0FF32BF
S315000034780AF1010A049307938DF853301A93CDE99C
S31500003488052354460522544814F8011B00F07EFB18
S31500003498049AD8B9D10644BF20238DF853301307B0
S315000034A844BF2B238DF853309AF800302A2B15D0B9
S315000034B8079A544600204FF00A0C214611F8013BA2
S315000034C8303B092B4BD9B0B1079214E0A0EB0803A7
S315000034D8A24609FA03F313430493D2E7039B191D83
S315000034E81B68002B0391BBBF5B4242F002020793A5
S315000034F80793B8BF049223782E2B0AD163782A2B18
S3150000350832D1039B02341A1D1B6843EAE373039204
S315000035180593DFF8D4A003222178504600F036FB45
S3150000352838B1A0EB0A004022049B013482401343C1
S31500003538049314F8011B062228488DF8281000F079
S3150000354825FB00283FD0264B1BBB039B073323F0E4
S31500003558070308330393099B3B4409936AE70CFB6B
S3150000356802320C460120A8E7002301344FF00A0C6A
S3150000357819460593204610F8012B303A092A03D933
S31500003588002BC6D00591C4E70CFB01210446012394
S31500003598F0E703AB2A4604A930460093114BAFF374
S315000035A800800746781CD6D16B6ED90705D4AB893F
S315000035B89A0502D4A86DFFF7D1FDAB895B063FF5E6
S315000035C81FAF09981EE703AB2A4604A930460093A5
S315000035D8044B00F07DF8E4E77F40000089400000D6
S315000035E8000000009F330000854000002DE9F047E9
S315000035F8164698468A6807460B690C46DDF82090F9
S315000036089342B8BF1346336091F843200AB1013399
S3150000361833602368990642BF3368023333602568EE
S3150000362815F0060506D104F1190AE36832689B1AF3
S31500003638AB422BDC94F843302268003B18BF0123C9
S31500003648920630D404F1430241463846C847013051
S3150000365823D023681A3454F80A2C03F00603042BE3
S315000036680ABF54F80E5C002533684FF0000608BF01
S31500003678ED1A54F8123C08BF25EAE5759342C4BF13
S315000036889B1AED18B5421AD1002008E001235246CC
S3150000369841463846C847013003D14FF0FF30BDE8F0
S315000036A8F0870135C1E7E1185A1C3020023322445D
S315000036B881F8430094F8451082F84310C2E70123C5
S315000036C8224641463846C8470130E6D00136D9E792
S315000036D82DE9FF470F7E914680460C46782F9A467D
S315000036E80C9E01F1430207D8622F0AD8002F00F07A
S315000036F8D180582F00F0B88004F1420684F8427051
S315000037083AE0A7F16303152BF6D801A151F823F087
S3150000371871370000853700000137000001370000C7
S315000037280137000001370000853700000137000027
S315000037380137000001370000013700008338000018
S31500003748AF3700003D3800000137000001370000A0
S31500003758A538000001370000AF3700000137000028
S31500003768013700004538000033681A1D1B683260AF
S3150000377804F1420684F8423001239CE0336820684D
S31500003788191D3160060601D51D6803E04506FBD5FF
S31500003798B3F90050002D03DA2D236D4284F8433027
S315000037A858480A2311E021683368080653F8045B71
S315000037B802D4490648BFADB26F2F3360514814BFD3
S315000037C80A230823002184F843106668002EA660A1
S315000037D805DB21682E4321F0040121604BD01646F3
S315000037E8B5FBF3F103FB1157C75D06F8017D2F46BC
S315000037F80D46BB42F4D9082B0BD12368DF0708D541
S31500003808236961689942DEBF302306F8013C06F158
S31500003818FF36921B22614B4603AA21464046CDF845
S3150000382800A0FFF7E3FE01304AD14FF0FF3004B0A5
S31500003838BDE8F087236843F02003236078273248E1
S31500003848236884F845701F06316851F8045B02D472
S315000038585F0648BFADB23160D90744BF43F02003C5
S3150000386823601DB11023ADE72648E9E7236823F056
S3150000387820032360F6E71646BDE733682568181D5A
S31500003888616930602E061B6801D5196002E068067A
S31500003898FBD51980002316462361BCE7336800214F
S315000038A81A1D32601E686268304600F06FF908B16A
S315000038B8801B606063682361002384F84330AAE7AD
S315000038C82369324649464046D0470130ADD0236881
S315000038D89B0713D4E068039B9842B8BF1846A6E72F
S315000038E80123324649464046D04701309DD001352E
S315000038F8E36803995B1AAB42F2DCEBE7002504F1B7
S315000039081906F5E790400000A1400000B1F90C2027
S315000039182DE9F041160705460C4654D44B68002B92
S3150000392802DC0B6C002B48DDE66A002E45D000232E
S3150000393812F480522F68216A2B6030D0626DA389F9
S31500003948590705D56368D21A636B0BB1236CD21A73
S315000039580023E66A216A2846B047431CA38906D194
S3150000396829681D292BD82A4ACA40D60727D50022F6
S31500003978D90462602269226004D5421C01D12B68F1
S3150000398803B96065616B2F60B9B104F144039942CC
S3150000399802D02846FFF7F0FB002363630DE00123FE
S315000039A82846B0470246501CC9D12B68002BC6D002
S315000039B81D2B01D0162B1DD12F60002021E043F0CE
S315000039C840031BB21AE00F69002FF6D093070E6862
S315000039D80F600CBF4B690023A6EB07088B60B8F194
S315000039E8000FEADD43463A46216A2846A66AB047EA
S315000039F8002808DCB4F90C3043F040034FF0FF30E0
S31500003A08A381BDE8F0810744A8EB0008E7E700BFFB
S31500003A180100402038B50B6905460C4613B9002548
S31500003A28284638BD18B1036A0BB9FFF721FAB4F96D
S31500003A380C30002BF3D0626ED00704D4990502D45B
S31500003A48A06DFFF78AFB28462146FFF75FFF636EE6
S31500003A580546DA07E4D4A3899B05E1D4A06DFFF7F0
S31500003A687DFBDDE770B50C46B1F90E1096B015462C
S31500003A7800291E460CDAA389002113F0800F14BF13
S31500003A8840234FF48063002031602B6016B070BD70
S31500003A986A4600F049F80028EDDB019901F4704107
S31500003AA8A1F50053594259414FF48063EBE78B89DE
S31500003AB8F7B59D0706460C4607D504F1470323606C
S31500003AC823610123636103B0F0BD01AB6A46FFF7CA
S31500003AD8C9FF009F054630463946FFF7B9FB48B986
S31500003AE8B4F90C309A05EED423F0030343F002032D
S31500003AF8A381E2E7A389206043F08003A381019BA9
S31500003B08C4E904075BB1B4F90E10304600F01EF89C
S31500003B1828B1A38923F0030343F00103A381A389F2
S31500003B281D43A581CFE7000038B50023064D04469E
S31500003B38084611462B60FFF7FBF8431C02D12B6899
S31500003B4803B1236038BD00BFB009002038B5002393
S31500003B58054D044608462B60FFF7FCF8431C02D1C6
S31500003B682B6803B1236038BDB009002038B500239F
S31500003B78054D044608462B60FCF750FE431C02D14F
S31500003B882B6803B1236038BDB0090020C9B20346CB
S31500003B98024410B59342184601D1002003E0047888
S31500003BA801338C42F6D110BD010002000800100056
S31500003BB82000000004000000643C0000080000002B
S31500003BC8E43B000002000000D43B0000000000684F
S31500003BD80000006840010020400100200000006845
S31500003BE8000000680000006000010C080000006882
S31500003BF80000006800000070000109080000006865
S31500003C0800000068000000080001020800000068C3
S31500003C18000000687800000000010108000000208C
S31500003C28000000200000006000010C0300000020D6
S31500003C3800000020000000700001090300000020B9
S31500003C480000002000000008000002030000002019
S31500003C583C01002078000000000001030000006815
S31500003C680000006800010008000000680000006805
S31500003C78000100083C01002040010020000000036C
S31500003C885C050020C009002000000003910D00001B
S31500003C987D0C000011090000F10A0000E90B000084
S31500003CA8390800007D080000000102030405060724
S31500003CB8080C101418203040020403040404000001
S31500003CC8060C000003000000552800000000000054
S31500003CD8DC3C000000000000020200000C010F029C
S31500003CE80F030C040000000000000000E929000092
S31500003CF800000000003D0000000100000000002058
S31500003D080F00FFFF00000000FFFF00005406002020
S31500003D18203D0000943C00000000000080000020C8
S31500003D282924000000000000080000200C050706F2
S31500003D380200000080841E000000000080A9030025
S31500003D4800FFDF000000000000000000583D0000F2
S31500003D580100000000000000000000000000000054
S31500003D680000000000000000000000000000000045
S31500003D780000FFFFDFDF0000000000000000000079
S31500003D880000000000000000000000000000000025
S31500003D98030200000C0A0C0B0C0C0C0D00000000B2
S31500003DA8000000006928000000000000B83D00007F
S31500003DB800010000900000200F00FFFF0000000037
S31500003DC8FFFF000011000000D83D000000000000C1
S31500003DD8004000000000000000000100080100008B
S31500003DE8000001040C010000000001040D010000A0
S31500003DF80000010000030000000001110503000097
S31500003E08000001110603000000000111070300006D
S31500003E180000011108030000000001110903000059
S31500003E28000001110A03000005000000000400005C
S31500003E38000401100104000000040110020400003F
S31500003E480000010508040000000001030C0500003D
S31500003E58000001050707000007008C018D018E018F
S31500003E688F016400630065005A00590092019301AE
S31500003E789401950100000080000000C000000000C9
S31500003E880100000000000000000000000000000023
S31500003E980000000000000000000000000000000014
S31500003EA80000000000000000000000000000000004
S31500003EB800000000000000000000000000000000F4
S31500003EC800000000000000000000000000000000E4
S31500003ED800000000000000000000000000000000D4
S31500003EE800000000000000000000000000000000C4
S31500003EF800000000000000000000000000000000B4
S31500003F0800000000000000000000000000000000A3
S31500003F180000000000000000000000000000000093
S31500003F280000000000000000000000000000000083
S31500003F380000000000000000000000000000000073
S31500003F480000000000000000000000000000000063
S31500003F580000000000000000000000000000000053
S31500003F680000000000000000000000000000000043
S31500003F780000000000000000000000000000000033
S31500003F880000000000000000000000000000000023
S31500003F980000000000000000000000000000000013
S31500003FA80000000000000000000000000000000003
S31500003FB800000000000000000000000000000000F3
S31500003FC800000000000000000000000000000000E3
S31500003FD800000000000000000000000000000000D3
S31500003FE800000000000000000000000000000000C3
S31500003FF800000000000000000000000000000000B3
S3150000400800000000000000000000000000000000A2
S315000040180000000000000000000000000000000092
S315000040280000000000000000000000000000000082
S315000040380000000000000000000000000000000072
S315000040480000000000000000000000000000000062
S315000040580000000000000000000000000000000052
S315000040680000000000000000000000000000000042
S31500004078000000004F4B00232D302B2000686C4CAD
S315000040880065666745464700303132333435363782
S3150000409838394142434445460030313233343536A7
S315000040A83738396162636465660000004275696C79
S315000040B87420776974682052656E65736173204150
S315000040C86476616E63656420466C657869626C65C2
S315000040D820536F667477617265205061636B616700
S315000040E8652076657273696F6E20362E322E300023
S311000040F8362E322E3000000000000206BA
S30900004104F8B500BF45
S30900004108F8B500BF41
S3090000410C2502000082
S30900004110FD010000A7
S3090100A100FFFFFFFF58
S3090100A200FFFDFFFF59
S3090100A280F8F8FFFFE5
S7050000024DAB
